:020000040000FA
:060000000201070220309E
:03002B0002248B21
:0300330002246341
:030053000220A6E2
:03006B0002243B31
:10008300021EDFE5C754F84401F5C77901220000D9
:100093000080FB120086B900030200F1E4792178A5
:1000A30008B800028004F709D8FCE479297802B87B
:1000B30000028004F709D8FCE490028178D4790720
:1000C3008002F0A3D8FCD9FA7A547B0990013778DF
:1000D3006279038015E493A3AD82AE838A828B8316
:1000E300F0A3AA82AB838D828E83D8E9D9E7758288
:1000F3008E7583FF740212011975829175830074E2
:100103000012011975D00075813F751881751902A8
:10011300759F00020096C09FF59FE473D09F22D085
:1001230083D082C09FE493C0E0740193C0E0740263
:1001330093F59F22FF0000B4000028002800283018
:1001430075A000A000A000A00000080008E001F0D6
:10015300001000100010001000100010005000509C
:1001630000500010001000D0070000000000000F36
:100173000001000500307507001000010081FF0039
:10018300000000FF9605B4059C05FF020202080269
:100193005000A0000000E8030242900100002F90ED
:1001A300023E90010000AB09023890010000B30247
:1001B300023E90010000AC09024890010000C90210
:1001C300023E90010000AD09024C90010000CB02F9
:1001D300023E90010000AE09024E90080000CC02DE
:1001E300023E90010000AF09025890010000B009DF
:1001F300FF0100FF200242900100003290023E9076
:10020300010000140A0252900000000000023A901C
:100213000300001903C60BC60BC60BC60BC60BC6E1
:100223000BC60BC60BC60BC60BC60BC60BC60B9C6D
:100233000EB40E960EFFFF0202020242900100006E
:100243003590023E90010000570A025490010000CD
:100253000000023E90010000580A02509001000085
:100263000000023E90010000590A024A900100007A
:10027300000001E803053F100AFF00013075030287
:100283000106000000000000000000000000000064
:100293000000000000000000000000000000FFFF5D
:1002A3000600800CE8030201060302F0FF6413005A
:1002B3000070130A436861726163746572697374D1
:1002C3006963203100024368617261637465726916
:1002D30073746963203200084368617261637465F3
:1002E30072697374696320330010436861726163D8
:1002F30074657269737469632034000243686172C0
:100303006163746572697374696320350002429096
:100313000100002C90023E90010000D30A025E907F
:100323000300004509023C90010000D40A023E90FC
:10033300010000E50A0260900100004609023C90BA
:10034300010000E60A023E90010000F70A026290F3
:100353000200004709023C90010000F80A023E90A7
:10036300010000090B0264900000004809023A9062
:100373000300004909023C900100000A0B023E9071
:100383000100001B0B0266900400004F09023C9021
:100393000100001C0B1201229AB503120122B1B510
:1003A30003120122E2B5031201221DB60312012238
:1003B30047B60312012271B60312012288B6031253
:1003C30001229FB603120122B6B603120122DFB641
:1003D30003120122F2B60312012208B7031201220B
:1003E3001BB70312012242B703120122CFAD02123F
:1003F3000122D3AE021201220BAF021201222EAF51
:100403000212012239AF021201225CAF0212012251
:100413006BB00212012240B102120122BBB10212DF
:10042300012243B2021201227EB202120122B5B2AC
:100433000212012243B3021201221CB4021201224E
:100443007CB40212012287B40212012206B5021201
:10045300012209B5021201220CB5021201229BB539
:10046300021201229EB502120122CEB5021201220E
:10047300F8B502120122E6B60212012298B702125F
:100483000122998903120122C18903120122EF89F2
:1004930003120122268A03120122848A03120122F3
:1004A300CF8A031201221A8B031201225A8B0312E1
:1004B3000122A08B03120122CE8B031201228B8C0B
:1004C30003120122958C03120122A28C0312012232
:1004D300D58C03120122A18D03120122AD8D0312CB
:1004E3000122C58D03120122CF8D03120122D2C036
:1004F30003120122E0C003120122F8C003120122F9
:1005030010C1031201223CC501120122E8C50112E8
:10051300012263C60112012284C701120122C0C74E
:100523000112012269C80112012250C901120122DC
:10053300B4CA011201220BCB011201228CCB01128E
:1005430001227CCC01120122C9CC011201224FCD20
:100553000112012281CD0112012295CF0112012244
:10056300D7CF01120122F5CF0112012278D0011257
:1005730001224CD10112012214D201120122B2EA4A
:100583000212012285EB021201222EEC0212012239
:1005930081EC0212012231ED02120122BDED0212A1
:1005A3000122A9EE02120122D8EE02120122EBEF80
:1005B3000212012233F00212012208F10212012277
:1005C30044F10212012260F10212012267C40312F4
:1005D3000122F5FB021201220BFC0212012231FC63
:1005E300021201224DFD0212012257FD02120122C5
:1005F3008CFE0212012284FF02120122D5F10212A3
:10060300012205F30212012238F30212012282F3BE
:100613000212012249F5021201224DB501120122F3
:10062300B7B50112012216B70112012226B7011232
:10063300012253B701120122AAB70112012253B8B2
:10064300011201225AB90112012224BA0112012214
:1006530084BB01120122C7BB011201226CBC01122F
:100663000122B9BC01120122DFBC01120122EDBE3D
:1006730001120122F2BE01120122F7C0011201226E
:1006830044C101120122B7C101120122EAC10112C0
:1006930001228CC20112012235C3011201226DC352
:1006A3000112012270C301120122B8C301120122F7
:1006B300F8C3011201224FC4011201224FAE0312EB
:1006C300012267AE03120122AFAE03120122C5AEAF
:1006D300031201220CAF0312012220B003120122E4
:1006E300ADB003120122F8B003120122E44100125B
:1006F3000122F041001201222B420012012270421A
:1007030000120122304300120122B64300120122DB
:100713001B440012012247440012012280440012AC
:100723000122BE4600120122A24800120122884A79
:1007330000120122CB4B00120122194E001201229A
:100743002B4F001201227650001201228651001213
:100753000122A35100120122DE5100120122005294
:1007630000120122635200120122245700120122B7
:10077300B957001201220A580012012231580012FF
:100783000122835800120122A15800120122FB58B2
:1007930000120122E459001201225A5B00120122C5
:1007A300DE5B00120122568E03120122608E0312B9
:1007B3000122A38E03120122BE8E031201224E8F49
:1007C30003120122768F03120122B38F0312012237
:1007D300EA8F03120122139003120122889003125D
:1007E30001229D9003120122B29003120122E39091
:1007F30003120122F790031201221C91031201221A
:10080300569103120122829103120122BA9103121B
:100813000122399203120122829203120122AC9225
:1008230003120122D79203120122CBBE031201222B
:100833000080021201222E80021201227C81021208
:1008430001225C82021201227B8202120122F882BF
:10085300021201223B83021201229184021201221D
:10086300528502120122D987021201227A880212CA
:1008730001227089021201226D8A02120122C78BA2
:1008830002120122528C0212012236BC03120122EF
:100893009FBC03120122F3BC031201221ABD0312EF
:1008A30001224BBD03120122FF92031201226C931A
:1008B30003120122B39303120122CB9403120122E8
:1008C300C79503120122AA96031201224CCB0212EE
:1008D30001228ECB0212012260CC0212012239CDF9
:1008E3000212012233CE0212012215CF021201227B
:1008F3007ECF0212012234D002120122A8D00212AA
:10090300012214D1021201223DD102120122B7D1D8
:100913000212012250D202120122B5D20212012286
:10092300CAD20212012210D30212012229D30212C7
:1009330001228ED30212012291D3021201227DA839
:1009430003120122A5A803120122E3A80312012224
:10095300A1A90312012208AA0312012224AA031245
:1009630001224CAA031201227CAA031201228BAAA0
:100973000312012208AB031201222EAB0312012240
:10098300DE6F001201227C710012012297730012A4
:100993000122D37300120122007400120122E574B4
:1009A300001201222C75001201227075001201221F
:1009B300827500120122C27500120122EF75001226
:1009C30001223A76001201227A7600120122A876D9
:1009D30000120122FA76001201228A770012012204
:1009E300287A001201223E7C001201227C7C001234
:1009F30001220D7E00120122527E00120122C97EC5
:100A030000120122137F001201223E7F00120122F5
:100A1300D3C10212012252C20212012214C80212CD
:100A2300012223C9021201228BCA0212012222CB04
:100A330002120122455C001201228E5C0012012287
:100A4300BB5C00120122EE5C00120122FB5C00126F
:100A53000122075D00120122195D00120122005ECE
:100A6300001201225E5E00120122935E0012012237
:100A7300D65F001201222360001201224760001298
:100A83000122B460001201227261001201222B6262
:100A9300001201229862001201224A63001201220D
:100AA3005A6300120122E16300120122A0640012C2
:100AB3000122CD6400120122466500120122A365C2
:100AC30000120122ED650012012283660012012249
:100AD3004E67001201220368001201227868001297
:100AE3000122D968001201224369001201227C69A4
:100AF300001201221E6A001201222E6B0012012233
:100B03006E6B001201228B6B00120122AA6B001282
:100B13000122F16B00120122166C00120122436CB8
:100B230000120122BD6C00120122FE6C0012012290
:100B3300226E00120122D26E00120122296F0012CE
:100B43000122936F00120122AC6F0012012209B837
:100B5300021201225CB80212012268B802120122B9
:100B63003DB90212012264B9021201229FB9021295
:100B730001220BBA0212012247BA0212012280BAE1
:100B83000212012298BA02120122EDBA02120122C4
:100B930006BB021201224FBB0212012262BB0212E8
:100BA30001227CBB0212012292BB02120122C5BCAC
:100BB300021201220CBE021201220EBF02120122F6
:100BC30008C002120122E57F00120122C8F00112BF
:100BD3000122F8F001120122C0F40112012217F6DA
:100BE30001120122E0F60112012260F80112012232
:100BF30031F9011201226EF90112012291F9011258
:100C03000122CFF901120122D8F90112012222FA9D
:100C1300011201222CFA01120122D6FA0112012239
:100C2300AFFB0112012203FC0112012265FC011238
:100C33000122B8FC01120122E7FC0112012224FD6A
:100C430001120122C0A30112012227A701120122CE
:100C53002DA701120122AFAC0112012228B101120A
:100C63000122FEB401120122D29E03120122489FE7
:100C7300031201225E9F031201229F9F031201228E
:100C8300D99F0312012252A0031201228DA0031245
:100C9300012200A1031201223EA10312012247A156
:100CA3000312012253A1031201226FA10312012295
:100CB3009AA103120122B0A103120122F4A103128B
:100CC3000122D68403120122E9840312012203853F
:100CD300031201222C85031201226F8503120122C4
:100CE300AE8503120122EC85031201225186031201
:100CF30001226686031201227186031201227E8677
:100D030003120122958603120122A38603120122F4
:100D1300AE8603120122BA8603120122CD86031284
:100D23000122D88603120122FB8603120122A28725
:100D330003120122B28703120122CC87031201227C
:100D4300E987031201220588031201222A8803126C
:100D530001223588031201224A88031201225E8888
:100D630003120122BF8803120122C5880312012244
:100D7300CB8803120122D18803120122E9880312CE
:100D830001221C89031201229EE20112012222E3A5
:100D930001120122D1E30112012230E501120122E5
:100DA30051E7011201223DE80112012272E801120A
:100DB300012294E80112012243E9011201223BEBD3
:100DC3000112012264EB01120122F6EB011201224E
:100DD30028EC0112012235EC011201228CEC0112E4
:100DE3000122B2EC011201221FEF0112012222F0B3
:100DF300011201227AF0011201222DD401120122E3
:100E030037D5011201221ED60112012228D6011262
:100E130001224AD60112012256D601120122EFD72E
:100E2300011201221ED8011201223AD90112012214
:100E330093D901120122F9DA01120122D8DB01123E
:100E4300012234DC01120122A1DC01120122DCDCCB
:100E5300011201221BDD01120122D4DF0112012242
:100E6300EEDF011201227AE00112012288E0011271
:100E73000122E1E001120122EFE00112012262E10D
:100E830001120122C6E10112012210E20112012224
:100E93003F9802120122619802120122879A0212DC
:100EA30001229C9D02120122B49E02120122679F1D
:100EB3000212012249A00212012208B903120122DF
:100EC3002DB9031201229FB903120122CFDB0212B3
:100ED3000122D8DB02120122E1DB02120122B8DC7B
:100EE3000212012269DE021201229FDE0212012296
:100EF300D9DE021201220FDF0212012249DF0212A0
:100F030001227DDF02120122A9DF02120122F2DF98
:100F1300021201222CE00212012275E002120122C8
:100F2300CDE00212012202E1021201225DE102126E
:100F3300012297E102120122E8E1021201221EE2DC
:100F43000212012258E20212012286E20212012257
:100F5300A9E20212012279C203120122A5C20312DD
:100F6300012200C3031201220AC3031201221AC37E
:100F730003120122ADBA031201224EBB0312012256
:100F8300CABB0312012205BC03120122D38C021235
:100F93000122E88C02120122448D02120122AF8D3C
:100FA30002120122F78D02120122618E0212012226
:100FB300908E021201226D92021201227B92021282
:100FC3000122DD92021201221B93021201223693A7
:100FD30002120122D19302120122769402120122FB
:100FE300F99402120122329502120122BD950212D6
:100FF300012214960212012273960212012285968F
:1010030002120122AB9602120122B49602120122AD
:1010130008980212012291BD031201226FBE03122E
:10102300012222B10312012267B103120122ADB1E1
:101033000312012276B303120122EBC4031201222D
:1010430006C50312012216C50312012224C303128B
:101053000122B5D302120122D5D3021201224BD5AC
:101063000212012299D502120122B9D502120122DC
:1010730021D602120122A3D602120122E9D60212BC
:10108300012275D702120122BEDB02120122FFFDEB
:101093000112012230FE011201225AFE0112012225
:1010A30025FF0112012283FF0112012224A2031250
:1010B30001227FA20312012288A203120122C7C3C5
:1010C30003120122B82400120122D12700120122A7
:1010D300832900120122272A00120122CA2A0012A0
:1010E3000122812B00120122B02B001201226E304B
:1010F30000120122053100120122413200120122A5
:10110300A932001201225D330012012213360012AC
:1011130001224D3600120122B73600120122153783
:1011230000120122733700120122D037001201226C
:10113300BF38001201220539001201224A39001278
:1011430001226D3900120122B03A00120122C43A81
:1011530000120122CD3B001201220C3C001201229D
:10116300383C00120122873C00120122A83C0012E5
:101173000122E63C001201222D3F001201226E3FA4
:10118300001201220C4000120122774000120122BA
:10119300B04100120122E4BF03120122F5BF031282
:1011A300012276AB0312012241AE03120122E3FFB7
:1011B30002120122A9C103120122B9C103120122A1
:1011C300D6C10312012276C20312012276A50312AD
:1011D300012220A60312012262A80312012254B79E
:1011E3000312012284B703120122F4B7031201226E
:1011F30050B803120122CBB8031201226C970312D9
:101203000122849703120122F09803120122B59957
:1012130003120122D09903120122F0990312012231
:101223003E9A03120122589A03120122729A031260
:101233000122889A03120122A79A03120122C89A53
:1012430003120122F39A03120122489B0312012283
:10125300008003120122228003120122B7800312AD
:101263000122B58103120122768403120122BAB34B
:101273000312012221B403120122CCB4031201226E
:1012830042B5031201227D9B03120122B09B03127C
:101293000122B69C031201220B9E031201226DA3AD
:1012A3000212012249A40212012290A40212012275
:1012B300CDA4021201223BA50212012295A502121E
:1012C300012205A602120122DDA602120122D0A7E5
:1012D3000212012254A802120122F7A902120122CA
:1012E30082AA0212012212AB02120122ABAB02123A
:1012F3000122C2AB02120122FDAC0212012253AD44
:10130300021201226990011201220D95011201229C
:10131300FE9701120122279801120122509801120F
:101323000122029901120122E09A01120122329C48
:101333000112012279A101120122B2A1011201229B
:10134300F6A10112012202A30112012249E30212B2
:101353000122ACE40212012253E70212012206E841
:101363000212012209E80212012241E902120122BA
:101373006FE902120122E2E902120122FCF60212D3
:1013830001224CF70212012269F70212012252F8DC
:1013930002120122DFF80212012220FA02120122B4
:1013A300B8FB02120122A3C5031201226DC5031269
:1013B3000122CFC503120122F7C503E066701008AE
:1013C300A3E066700A08A3E066700408A3E066223F
:1013D300C3E7960809E7960809E7960809E79622FE
:1013E300C3E09608A3E09608A3E09608A3E096223C
:1013F300C008C3E096F50808A3E096420808A3E0F6
:1014030096420808A3E09645087001D3D008220845
:101413000808EAC0E0EBC0E086F0E7A4FA18098602
:10142300F0E7A42AFA180986F0E7A42AFA1809862D
:10143300F0E7A42AFA1986F0E7A4FBE5F02AFA19E3
:101443000886F0E7A42BFBE5F03AFA190886F0E7E3
:10145300A42BFBE5F03AFA18180986F0E7A4C5F0C7
:101463002BFBE43AFA1908E7C5F0C6A426F6E5F023
:101473003BFBE43AFA1886F0E7A4F6E5F00826F613
:10148300E43B08F6E43A08F6D0E0FBD0E0FA22E4C5
:10149300CFC0E0E4CEC0E0E4CDC0E0E4CCC0E07572
:1014A300F020E626F608E633F608E633F608E633D8
:1014B300F6181818EC33FCED33FDEE33FEEF33FF73
:1014C300C3EC9709ED9709EE9709EF97191919409E
:1014D3000FFFEC97FC09ED97FD09EE97FE1919062E
:1014E300D5F0BFECF709EDF709EEF709EFF7191996
:1014F30019D0E0FCD0E0FDD0E0FED0E0FF22601682
:10150300080808C6C313C618C613C618C613C618D8
:10151300C613C6D5E0EA2270090808082260161827
:101523001818C6C333C608C633C608C633C608C6AA
:1015330033C6D5E0EA22E627F60809E637F60809B6
:10154300E637F60809E637F622E026F608A3E03682
:10155300F608A3E036F608A3E036F622E026F00804
:10156300A3E036F008A3E036F008A3E036F022C388
:10157300E697F60809E697F60809E697F60809E6F6
:1015830097F622C3E096F008A3E096F008A3E0964E
:10159300F008A3E096F022E056F608A3E056F6081A
:1015A300A3E056F608A3E056F622E056F008A3E0BF
:1015B30056F008A3E056F008A3E056F022E0F60840
:1015C300A3E0F608A3E0F608A3E0F622E6F008A3FA
:1015D300E6F008A3E6F008A3E6F022E0FAA3E0FBB6
:1015E300A3E0FCA3E0FD22EAF0A3EBF0A3ECF0A35D
:1015F300EDF022E0F8A3E0F9A3E0FAA3E0FB22E890
:10160300F0A3E9F0A3EAF0A3EBF022CAC0E0E6F00E
:10161300A308DAFAD0E0FA22CAC0E0E0A3C582CC7C
:10162300C582C583CDC583F0A3C582CCC582C583DE
:10163300CDC583DAE6D0E0CA22C3E498F8E499F989
:1016430012167D8026C3E49AFAE49BFBE920E7E9BE
:1016530012167DE498F8E499F922C3E498F8E49922
:10166300F912167DE498F8E499F9C3E49AFAE49B35
:10167300FB22EB20E7CFE920E7E0B90010BB00082D
:10168300E88AF084F8AAF022E4FBC8FA22EB70227D
:101693007B10C833C8C933C9335007C39AC3DBF2BD
:1016A30080069A50012ADBEAC833F4C8C933F4C967
:1016B300FA2275F008E4C833C8C933C933C99AC9D3
:1016C3009B5004C92AC93BD5F0ECFBC833F4C8E4EA
:1016D300C9FA22600D08C6A2E713C618C613C6D5F9
:1016E300E0F322600C08C6C313C618C613C6D5E0C0
:1016F300F422700422600D18C6C333C608C633C66D
:10170300D5E0F41822251810AF08F518400C151968
:101713008008F51840021519D2AF2200C0D0251851
:1017230010AF08F518500C05198008F5185002057C
:1017330019D2AFD0D0222518F58210AF08F5184082
:101743000C15198008F51840021519D2AF851983B5
:10175300222518F582E43519F583222518F8E43596
:1017630019F9222518FAE43519FB222518FCE4356A
:1017730019FD22E4732518C582C0E0E51934FFC5BD
:1017830083C0E0E518C3958224F810AF0885831958
:101793008582188008858319858218D2AFCEF0A37D
:1017A300E520F0A37808E608F0A3DEFAEFF0A3E55E
:1017B3008124FAF8E608F0A3E608F0A3E608F0A30C
:1017C3000808E608F0A3E608F0A315811581D0E028
:1017D300FED0E0F8158115811581E8C0E0EEC0E088
:1017E300222518C582C0E0E51934FFC583C0E0E5B2
:1017F30018C3958224F910AF088583198582188050
:1018030008858319858218D2AFCEF0A3E520F0A313
:101813007808E608F0A3DEFAEFF0A3E58124FBF8ED
:10182300E608F0A3E608F0A30808E608F0A3E60834
:10183300F0A315811581D0E0FED0E0F81581158164
:10184300E8C0E0EEC0E022851983851882E0A3FE9C
:10185300E0A3F5207808E0A3F608DFFAE0A3FFE0B1
:10186300A3C0E0E0A3C0E0E0A3C0E0E0A3C0E0E0E9
:10187300A3C0E010AF08858218858319800885828C
:1018830018858319D2AFD083D08202011F851983B3
:10189300851882E0A3FEE0A3F5207808E0A3F6080C
:1018A300DFFAE0A3FFE0A3C0E0E0A3C0E0E0A3C051
:1018B300E0E0A3C0E010AF08858218858319800893
:1018C300858218858319D2AFD083D08222C0D025D8
:1018D30018C582C0E0E51934FFC583C0E0E518C32D
:1018E300958224F310AF08858319858218800885B3
:1018F3008319858218D2AFC8F0A3E9F0A3EAF0A355
:10190300EBF0A37908E709F0A3D8FAECF0A3EDF024
:10191300A3EEF0A3EFF0A3D0E0F0A3D0E0F0A3D0C8
:10192300E0F0A3E520F0A3E5F0F0A3228519838579
:101933001882E0C0E0A3E0F9A3E0FAA3E0FBA378F8
:1019430008E0F608A3DFFAE0FCA3E0FDA3E0FEA3B2
:10195300E0FFA3E0C0E0A3E0C0E0A3E0F5D0A3E094
:10196300F520A3E0A3F5F010AF088583198582184D
:101973008008858319858218D2AFD082D083D0E0C6
:10198300F8D0E03274048006740280027401C0E06F
:10199300F404121739D0E012160E22740480047472
:1019A300028000CCC0E0EDC0E0E518C39CCCAD19CB
:1019B30050011D10AF068C188D1980068C188D19D7
:1019C300D2AF12161BD0E0FDD0E0FC22D083D08230
:1019D300E9C0E0E493A3C386F0C5F095F0F908E409
:1019E30093A386F0C5F095F0700BE493A3C39940DD
:1019F30005E9048002A3E475F002A42582F582E5DB
:101A0300F03583F583D0E0F9E493A3C0E0E493C019
:101A1300E022D083D082ECC0E0EDC0E0E493A3FCED
:101A2300E493A3FDED4C600D121A61EC24FFFCED71
:101A330034FFFD80EFE493A3FCE493A3FDED4C603E
:101A43000D121AA0EC24FFFCED34FFFD80EFD0E073
:101A5300FDD0E0FCE493A3C0E0E493C0E022C0E047
:101A6300C3E49396087401939618400FE493667049
:101A73000808740193661870007019A3A3C3E49354
:101A830096087401939618A3A3400DD0E0D0E0D03C
:101A9300E0021A51A3A3A3A3A3A3D0E022C0E0C0F2
:101AA300F088F0E493667008087401936618700078
:101AB300A8F0A3A3700BD0F0D0E0D0E0D0E0021ADE
:081AC30051A3A3D0F0D0E022F2
:101ACC0074F51217E4EAFEEBFFEE2434F8EF340061
:101ADC00F988088909EE2435121BF8F8EE24371220
:101AEC001BF8F50AEC850AF0A4FCAAF0850AF0EDC7
:101AFC00A42AFDE82CF8E43DF97A257B0012167D2A
:101B0C00EA850882850983F074075AF87401B800D5
:101B1C00028004C333D8FCFBEA131313541FF8EEF2
:101B2C0028F8EF3400F9E8245DF582E9121BFB5B21
:101B3C006003EA801CEE2436121BF8F5F0EA84A848
:101B4C00F0EE28F8EF3400F9E82438F582E9121B9E
:101B5C00FBF97F0402189074F51217E4EAFEEBFF10
:101B6C00EE2434121BF8C0E0EE2435F582EF34007D
:101B7C00F583D0E0F08E828F83A3A3A3A3A3E0FA16
:101B8C00A3E0FB8E828F83A3A3A3A3A3A3A3E0FC58
:101B9C00A3E0FDECC39AF50AED9BF50BEE247FF563
:101BAC0008EF3400F509850882F583E06401702B99
:101BBC00EE2480F582EF3400F5831219A2121C0179
:101BCC00740212171EE960137CDC7D04EEFAEFFB45
:101BDC00120AEE850882850983E4F0AC0AAD0BEE9F
:101BEC00FAEFFB121ACC122427021B5EF582EF349B
:101BFC0000F583E022C082C083851882851983E0BA
:101C0C00F8A3E0F9C3EA9CEB9D5010C3EC98ED9956
:101C1C00401BC3EA98EB995014800EC3EA98EB99D9
:101C2C004007C3EC98ED994004790180027900D00B
:101C3C0083D08222EAC39CFAEB9DFB2274ED12172F
:101C4C00E49003A2E064086005E06407702C9061E6
:101C5C00C8E060269003D0E0F874FF68601CE8755B
:101C6C00F003A4C8AAF02AF974D228FE740339FF31
:101C7C008E828F83A3A3A3E070057900021DE8EE8A
:101C8C002468F510EF3400F511906060E085108247
:101C9C00851183F0750A45750B05750800750900EB
:101CAC00E5D914F50EE5D95403F50F601CEE24822A
:101CBC00F50CEF3400F50D7403650F6058E50E60FC
:101CCC0013EE2467121BF8700B793DEEFAEFFB1242
:101CDC000B1280A6900540E064016026850C82857D
:101CEC000D83E06004780480027800850E08E50816
:101CFC00C398FA95E0FB1209928A088B09EA450908
:101D0C007006120D6A021C86850C82850D83E070AC
:101D1C00048A0A8B0B78008016E5D9C0E08812E59E
:101D2C000A2512F582E50B3400F583D0E0F008E8C3
:101D3C00C3950E40E4850C82850D83E0602874FC0D
:101D4C00250EF50E780A12198BAC0EA90FEEFAEFD0
:101D5C00FB120BC0740212171EE9700AAA08AB0919
:101D6C00121274021CD57403650F6058850E0C7525
:101D7C000D00780C12198BAC0AAD0BAA08AB09122A
:101D8C000B84740212171E851082851183E0F8747F
:101D9C0080687005750C7F8002880CE50CF50A785C
:101DAC000A12198FE50FF50A780A12198FA90EACD1
:101DBC0008AD099003D0E0FA7B0012082A740212D5
:101DCC00171E80139003A2E06408600BAC0AAD0BE5
:101DDC00EEFAEFFB120C56120D7679017F0C0218FD
:101DEC009074F31217E474FC121708EAFEEBFF89E7
:101DFC0008A2AFE433F509C2AFEE2463F50AEF3461
:101E0C0000F50B8010AA0AAB0B120B3C121274904B
:101E1C0004E3E004F0850A82850B83E0F8A3E0F983
:101E2C00E849602FE82402FAE93400FBEA2402F5C1
:101E3C000CEB3400F50D780C12198B8A828B83E035
:101E4C00FCA3E0F9EEFAEFFB120B30740212171E32
:101E5C00E960B29004E3E060579004E4E0F8900489
:101E6C00E3E0C398500C7402650870449004E5E0FC
:101E7C00603E8E828F83A3A3A3A3E085188285196D
:101E8C0083121ECC7402121754E8121ECC9004E27A
:101E9C00E028F07402121754AC82AD838518828549
:101EAC001983AA82AB8379011208369004E3E4F01B
:101EBC00E509A2E092AF740412171E7F0602189077
:101ECC00F0A3E4F09004E3E0F8220000852187857C
:101EDC0022C622C0E074EF1218D0A2AFE433FEC2C7
:101EEC00AF759B00906182E0A2E05012E591A2E0F8
:101EFC00500C7591FE740165217003121C48E0A210
:101F0C00E55051E591A2E5504B7591DF9003A2E0AD
:101F1C0064076005E06408702374016521703579ED
:101F2C00019003D0E0FA75F003A4CAA8F028FB7462
:101F3C00D22AFA74033BFB121DED8018E0640D707D
:101F4C00139003C4E004F064287002E4F07A00E01B
:101F5C00F9120D7C906182E0A2E64003022006E5B6
:101F6C0091A2E640030220067591BF9003A2E064A3
:101F7C00057008120C98120CA48003120C9E75218B
:101F8C0000120D0AE99003A3F07900120CFE120A5C
:101F9C00587A017B009003A1E0F9120FEC907803C2
:101FAC00E064427055900544E014F0704DC2AF12DD
:101FBC001FBE00782AD0E0F618D0E0F6E59F540753
:101FCC0070057509FF800375097FC4C0E07829E6A8
:101FDC00F50808E65509F509740B78081216E6D0D1
:101FEC00E02508F8906270E0A2E740F8E8C333906F
:101FFC006272F0906270E0D2E0F0906181E0A2E356
:10200C005009E5E9A2E3500375E9F7A3E0A2E75014
:10201C0009E591A2E7500375917FEEA2E092AF7FA4
:10202C000402192FC0E0C0D0C082C083906183E04D
:10203C00A2E05009E5BFA2E0500375BFFEE0A2E1AB
:10204C005009E5BFA2E1500375BFFDE0A2E25009C3
:10205C00E5BFA2E2500375BFFBE0A2E35009E5BF68
:10206C00A2E3500375BFF7E0A2E45009E5BFA2E478
:10207C00500375BFEFE0A2E55009E5BFA2E55003A0
:10208C0075BFDFE0A2E65009E5BFA2E6500375BFBD
:10209C00BFD083D082D0D0D0E032C0E074F212181E
:1020AC00D0E5A7A2E4500FE5A1A2E4500953A7EF95
:1020BC0075A1EF1220FAE5A7A2E5500CE5A1A2E567
:1020CC00500653A7DF75A1DFE5A7A2E15009E5A1F2
:1020DC00A2E1500375A1FDE5A7A2E2500CE5A1A277
:1020EC00E2500653A7FB75A1FB7F0102192F74F870
:1020FC001217E47521019003A2E0640670077A00C0
:10210C007B00120C80A2AFE433FED2AF9003A8E0A8
:10211C00640170187A207B009003A1E0F91210760C
:10212C007A207B009003A1E0F9120FF2906182E01B
:10213C00D2E6F0900541E0602185C622801690031E
:10214C00A7E064017008E5C654F84405F5C653BE13
:10215C00FC121ED87401652160E4EEA2E092AF7F00
:10216C00010218908E238F24858228858327851859
:10217C0082851983E0CEA3E0CF852882852783EB67
:10218C00C9EAC8EDCBECCA75F010C3E833C8E93323
:10219C00C9EA33CAEB33CBC3EA9EF526EB9FF52590
:1021AC00B35004AB25AA26EC33CCED33CDD5F0DA05
:1021BC00AE23AF242274F11217E48A088B098C0A1F
:1021CC008D0B908FE0780812159A740F12175478B3
:1021DC000C1215C0908FE0780C12159A7808790CB7
:1021EC001213D3908FFC50107808790C121572785A
:1021FC00081213F34014800E780C790812157278BB
:10220C000C1213F350047901800279007F08021834
:10221C009074ED1217E48A088B098C0A8D0B908F41
:10222C00E0780812159A7413121754780C1215C012
:10223C00908FE0780C12159A780C79081213D34011
:10224C00117808790C121572AA08AB09AC0AAD0BFF
:10225C00802275100075110075120075130178102D
:10226C00790C12157278107908121539AA10AB1165
:10227C00AC12AD137F0C021890908FE078081215F9
:10228C00C08A828B8378081215AD7F040218907473
:10229C00F51217E48C828D8378081215C08A828B14
:1022AC008378081215861222EFC3E098F0A3E09908
:1022BC001222E1401E90901478081215C08A828B6D
:1022CC0083780812155F8E828F83E02420F0A3E0C0
:1022DC00344EF080A4F08E828F83C3E09420A3E070
:1022EC00944E22EA2404F8EB3400F9E8FEE9FF8C62
:1022FC00828D83A3A3A3A3E0F8A3E0F98E828F833E
:10230C002274F51217E4E9FE9004F7E0FAA3E0FB5F
:10231C00EEC333F8E433F974D828F582748E39F5AA
:10232C0083E02AF508A3E03BF509780812198B9095
:10233C008FEC1215DE122170740212171E8A088B94
:10234C00098C0A8D0B74107808121501AA08AB09B8
:10235C007F0402189074F11217E48A0C8B0D8C0E0A
:10236C008D0F740F121754E0FAA3E0FB74111217BF
:10237C0054E0F508A3E0F509780812198BEA24015A
:10238C00F508EB3400F509E4F50AF50B780C79083F
:10239C0012141290902878081215C0780C79081233
:1023AC001412AA0CAB0DAC0EAD0F122170740212EC
:1023BC00171E8B09EA450960047A0180027A00EC49
:1023CC002AFCED3400FD7413121754E0F8A3E0F965
:1023DC00E8FEE9FFECF8EDF97A717B0212167D88C4
:1023EC00088909E4F50AF50B8E828F83780812159B
:1023FC00CFECF8EDF97A717B0212167D8A088B0905
:10240C00740578081216F58E828F83A3A3A3A3E517
:10241C0008F0A3E509F07F08021890C082C083E998
:10242C00906000F0D083D08222C2AF02000022C0A4
:10243C00E074F21218D0A2AFE433FED2AFE589A259
:10244C00E150031211F6758900C2C5EEF8EEA2E058
:10245C0092AF7F0102192FC0E074F21218D0A2AF14
:10246C00E433FED2AFE58BA2E050031211F6758B6C
:10247C0000C2E8EEF8EEA2E092AF7F0102192FC085
:10248C00E0C0D0E8C0E0E9C0E0A2AFE433F8D2AFDE
:10249C00C2C7E8F9E8A2E092AFD0E0F9D0E0F8D0FA
:1024AC00D0D0E032FFFFFFFFFFFFFFFF74F01217E9
:1024BC007874F81217088A0E8B0FE9FF8C0C8D0DAF
:1024CC007E00850E08850F0978081219CF000410BC
:1024DC009D2700252325422565258825AB25DC2550
:1024EC00FF2516264626FE262127442772279D27E0
:1024FC009D276F2674016F7019850C82850D83E002
:10250C00C39403500D850C82850D83E0900A92F0E4
:10251C0080027E180227C574026F7015850C8285A7
:10252C000D83E0F8A3E0F9900A93E8F0A3E9F080BA
:10253C00027E180227C574016F7019850C82850DF7
:10254C0083E0C39402500D850C82850D83E09007C7
:10255C006AF080027E180227C574016F7019850C11
:10256C0082850D83E0C39405500D850C82850D8307
:10257C00E090076BF080027E180227C574016F7023
:10258C0019850C82850D83E0C39402500D850C8255
:10259C00850D83E090076CF080027E180227C574CD
:1025AC00106F7027750810750900780812198BAC1C
:1025BC000CAD0D7A6D7B07120F92740212171E8AE6
:1025CC00088B0985088285098380027E180227C53D
:1025DC0074016F7019850C82850D83E0C3940250D1
:1025EC000D850C82850D83E090077DF080027E18AE
:1025FC000227C574016F700D850C82850D83E090E8
:10260C000A96F080027E180227C574046F7026901B
:10261C008FEC78081215C0850C82850D8378081212
:10262C0013E35011850C82850D831215F690077FEC
:10263C0012160280027E180227C5EF70211205E4E3
:10264C00E9701312113CE9F50879501212FEE9F504
:10265C000912112A800A9008127401F080027E1867
:10266C000227C574076F60030226F9750806750901
:10267C0000780812198B850C82850D83A3AC82AD72
:10268C00837404121766120F98740212171E8518A1
:10269C0082851983EAF0A3EBF07C007D00740212B2
:1026AC001766850C82850D83E0F91210D0E9F50AC6
:1026BC00E50AC3940A50321205E4E97015A90A120E
:1026CC001142E9F50879501212FEE9F50912112AA6
:1026DC00801D850A0875090074132508F582740895
:1026EC003509F5837401F080067E0280027E1802A3
:1026FC0027C574016F7019850C82850D83E0C39416
:10270C0002500D850C82850D83E090077EF08002CF
:10271C007E180227C574016F7019850C82850D8394
:10272C00E0C3940A500D850C82850D83E0900A95C8
:10273C00F080027E180227C574016F7025850C820B
:10274C00850D83E0C394074019850C82850D83E0C9
:10275C00C39411500D850C82850D83E0900A97F07F
:10276C0080577E18805374016F7022900811E0F529
:10277C0008850C82850D83E0900811F0E50870390E
:10278C00900811E06401703112112A802C7E18809F
:10279C0028C3E50E9427E50F9400501B74026F704C
:1027AC0016850C82850D83E0FCA3E0FDAA0EAB0F11
:1027BC00120482E9FE80027E02EEF9740812171EE2
:1027CC007F0802184A74F012177874D7121708E9A8
:1027DC00C0E0851882851983D0E0F074011217547B
:1027EC00EAF0A3EBF08C0E8D0F908FA274031217EE
:1027FC006E740612161B740312176E7401121754A2
:10280C00E0FAA3E0FB851882851983E0F91210D059
:10281C00E9FEEEC3940A400302295EEEF912110C94
:10282C00E9FF900A92E06402700474018002740063
:10283C00F508780812198F743A121754E0FDEFFC62
:10284C00EEF9AA0EAB0F12117E740112171E7C1436
:10285C007D0079007415121766120FAA8A088B096D
:10286C0085080A85090B741512176E7A1075F00617
:10287C00EEA42424F91212F8E9703B7C1079FF7451
:10288C0015121766121010E9702C7425121754AC1F
:10289C0082AD837A0475F006EEA42425F91212F8A1
:1028AC00E9F508741512176EEFA2E0E433F9AA0EDD
:1028BC00AB0F12050CE9740912176E7A0C74702E9A
:1028CC00F91212F8E9707974091217661211007571
:1028DC000800E508C394045067E508F87900E8752A
:1028EC00F003A4C8AAF075F000A42AFA75F003E965
:1028FC00A42AF97409121754E58228F50CE58339DA
:10290C00F50D850C82850D83E0F8A3E0F9E84960AC
:10291C002B850C82850D83A3A3E0F50A750B00783B
:10292C000A12198B850C82850D83E0FCA3E0FDAAAD
:10293C000EAB0F120770740212171EE90508809275
:10294C00EFA2E1500D900769E0F9AA0EAB0F120748
:10295C0076E97439121754E06404700F900A92E00F
:10296C0064027007AA0EAB0F121178790074291249
:10297C00171E7F0802184A74F2121778890B8A08FE
:10298C008B09ECFEEDFF750A0AE50B600B14600871
:10299C0014604114605F807CAA08AB0912111EE917
:1029AC00F50AE50AC3940A506BEE4F6067750C0686
:1029BC00750D00780C12198BAC08AD09EEFAEFFB13
:1029CC00120F92740212171E8A0C8B0D850C8285C5
:1029DC000D838040AA08AB09121118E9F50AE50A23
:1029EC00C3940A502FEE4F602BEEFAEFFBA90A129C
:1029FC001112E9801FAA08AB09121124E9F50AE5A6
:102A0C000AC3940A500EEE4F600AEEFAEFFBA90AC5
:102A1C00121112E9A90A7F0602184A74F2121778E9
:102A2C008A0C8B0DE9FF7E1574FF650C700474FF26
:102A3C00650D702A750800E508C3940A5014EFFC64
:102A4C007A027B00A9081210EEE960027E000508EC
:102A5C0080E5EF60627A667B111209748059AA0CCA
:102A6C00AB0D1209568A088B0985080A85090BE5F6
:102A7C000A450B60407C007D00E50A2405FAE4352C
:102A8C000BFB850A82850B83A3A3A3A3E0F9121089
:102A9C00D0E9F508E508C3940A500EEFFC7A027BE6
:102AAC0000A9081210EEE97E00EF600BAA0AAB0B2E
:102ABC0012116680027E14EEF97F0602184A74F039
:102ACC0012177874FE121708851882851983EAF09C
:102ADC00A3EBF08C0A8D0B7412121754E0F50EA3B5
:102AEC00E0F50F7E15851882851983E064FF70046C
:102AFC00A3E064FF701D7F00EFC3940A506BAC0E13
:102B0C00AD0FAA0AAB0BEFF91210F4E960027E00CC
:102B1C000F80E5851882851983E0FAA3E0FB120982
:102B2C00568A0C8B0D850C08850D09E50845096046
:102B3C00367C007D00E5082405FAE43509FB8508A0
:102B4C0082850983A3A3A3A3E0F91210D0E9FFEFB8
:102B5C00C3940A5014AC0EAD0FAA0AAB0BEFF912CA
:102B6C0010F4E97E0080027E14EEF9740212171E36
:102B7C007F0802184A74F7121778EAFEEBFF9007E9
:102B8C0083EEF0A3EFF0900769E0FC7D007A267BE2
:102B9C0000120482E9F508900769E0F91206EC7F4F
:102BAC000102184A74F212177874EC1217088A0A88
:102BBC008B0B850A82850B83A3A3E024FA70030296
:102BCC002FF424FD7003022E6C147003022CA0143D
:102BDC00601024FD7003022E14147003022EAF0239
:102BEC003062AE0AAF0B900783E0F8A3E0F9E84936
:102BFC006066900783E0F8A3E0F5838882E0F8A391
:102C0C00E0F9E8496052EE240CF582E43FF583E0EC
:102C1C00F508780812198FEE240BF582E43FF58342
:102C2C00E0F98E828F83A3A3A3A3A3A3A3A3A3E002
:102C3C00FCA3E0FDEE2403FAE43FFB900783E0F8ED
:102C4C00A3E0F5838882E0F8A3E0F583888212176D
:102C5C0076740112171E80398E828F83A3A3A3A3CF
:102C6C00A3A3A3A3A31219A290077F1215DE12052A
:102C7C001E740212171EE9601879018E828F83A3CD
:102C8C00A3A3A3A3A3A3A3A3E0FAA3E0FB12051899
:102C9C00E9023062AE0AAF0B8E828F83A3E0600331
:102CAC00022DC28E828F83A3A3A3A3A3E0A2E04034
:102CBC0003022DC290081DE0F8A3E0F9E849600377
:102CCC00022DC27C0E7D007900AA18AB19120FAA36
:102CDC008A088B09AA08AB09EE240CF582E43FF5AF
:102CEC0083E0F8A3E0F9E849603675080675090039
:102CFC00780812198BEE240CF582E43FF583E0245E
:102D0C0010FCA3E03400FD7402121766120F9274CB
:102D1C000212171E8A088B09850882850983804F49
:102D2C008E828F83A3A3A3E0FAA3E0FB1209568A39
:102D3C000C8B0D850C08850D09E5084509602D7572
:102D4C000C06750D00780C12198BE5082405FCE4B3
:102D5C003509FD7402121766120F92740212171EB7
:102D6C008A0C8B0D850C82850D8380030230628E5C
:102D7C00828F83A3A3A3A3A3E0A2E25004D2F0808A
:102D8C0002C2F0A2F0E433F87900740C121754E08C
:102D9C0048F0A3E049F0EEFCEFFDAA18AB191211B4
:102DAC0006E970127A027B00900769E0F9120FECC9
:102DBC00E97900023064900783E0F8A3E0F9E84970
:102DCC006043900783E0F8A3E0F5838882A3A3E037
:102DDC00F8A3E0F9E849602D8E828F83A3E0FC799B
:102DEC00018E828F83A3A3A3E0FAA3E0FB90078359
:102DFC00E0F8A3E0F5838882A3A3E0F8A3E0F583D1
:102E0C008882121776023062AE0AAF0B900783E00D
:102E1C00F8A3E0F9E8496045900783E0F8A3E0F5F2
:102E2C00838882A3A3E0F8A3E0F9E849602F850A20
:102E3C0082850B83A3E0FC79028E828F83A3A3A3EC
:102E4C00E0FAA3E0FB900783E0F8A3E0F583888227
:102E5C00A3A3E0F8A3E0F583888212177602306210
:102E6C00850A08850B097C007D00E5082404FAE43A
:102E7C003509FB850882850983A3A3A3E0F9121009
:102E8C00D0E9FEEEC3940A5017E508240AFCE43599
:102E9C0009FD7A0475F006EEA42425F91212F2E964
:102EAC00023062AE0AAF0B90077EE06018900A9574
:102EBC00E0F98E828F83A3A3A3E0FAA3E0FB1205B3
:102ECC0018E9023062900A92E0701579058E828FB3
:102EDC0083A3A3A3E0FAA3E0FB120518E902306276
:102EEC008E828F83A3A3A3E0FAA3E0FB1209568A78
:102EFC000C8B0D850C08850D098E828F83A3A3A3E3
:102F0C00A3A3A3A3E0A2E05071E50845096068857E
:102F1C000882850983A3A3A3A3E0605E8E828F83BE
:102F2C00A3A3A3A3A3A3A3A3A3E0F8A3E0F9E8C4DA
:102F3C00540FF87900E85401F8E95400F9E8A2E0DC
:102F4C004038740E12176EE5082405FAE43509FBB7
:102F5C00850882850983A3A3A3A3E0F91210D0E905
:102F6C00701879038E828F83A3A3A3E0FAA3E0FBEE
:102F7C00120518E9023062023062EE2405FCE43FCF
:102F8C00FD850882850983A3A3A3A3E0F98E828F14
:102F9C0083A3A3A3E0FAA3E0FB121172900783E0D2
:102FAC00F8A3E0F9E849603E900783E0F8A3E0F568
:102FBC00838882A3A3E0F8A3E0F9E84960287C00A9
:102FCC0079008E828F83A3A3A3E0FAA3E0FB900782
:102FDC0083E0F8A3E0F5838882A3A3E0F8A3E0F5EF
:102FEC00838882121776806E1205E4E97068900867
:102FFC0012E06401701A12113CE9FE900812740080
:10300C00F07C0A7D0079007A137B08120FAA803CB1
:10301C007E00EEC3940A50348E0875090074132593
:10302C0008F58274083509F583E06401701BEEF92C
:10303C00121142E9F88E0875090074132508F582FF
:10304C0074083509F5837400F00E80C6795012129D
:10305C00FEE9FE12112A7901741412171E7F060262
:10306C00184A74F312177874F21217088908EAFEDA
:10307C00EBFF8C09AC18AD197A0E75F006E508A4B7
:10308C002420F91212F8E970647C0679FFAA18ABB7
:10309C0019121010E97056740C121754E0F8A3E0D2
:1030AC00F9E8F50CE5096005EE420C8004EEF452EB
:1030BC000C850C0A750B00740C121754E0650A7021
:1030CC0004A3E0650B6022E50CF87900740C121770
:1030DC0054E8F0A3E9F0AC18AD197A0E75F006E5DA
:1030EC0008A42420F91212F2E97901800279007403
:1030FC000E12171E7F0502184A74F012177874E628
:10310C0012170889098A0E8B0FECFEEDFF740C1256
:10311C00176E7A0E75F006E509A42420F91212F840
:10312C00E960030232357C0679FF740C12176612C3
:10313C001010E96003023235AC18AD197A0C7470BA
:10314C002509F91212F8E96003023231750800AA58
:10315C0018AB19121100E50E450F702E7C0C79007E
:10316C00AA18AB19121010E960030232177C0C7DFF
:10317C00007900AA18AB19120FAA8A0A8B0B850AC0
:10318C0082850B83750801023217AC18AD19AA0E93
:10319C00AB0F1210FA8A0C8B0D850C0A850D0BE502
:1031AC000A450B7030EE4F601BAC18AD197A007BE2
:1031BC00001210FA8A0C8B0DA80CA90D880A890B29
:1031CC00E849700479008063850A82850B83E50EDB
:1031DC00F0A3E50FF0850A82850B83A3A3E0F879B1
:1031EC0000EE687002EF696022EEC0E0850A82850D
:1031FC000B83A3A3D0E0F0EE4F700D850A82850BF4
:10320C00837400F0A37400F0750801E5086016AA39
:10321C0018AB19121100AC18AD197A0C7470250981
:10322C00F91212F2E9790180027900741A12171E50
:10323C007F0802184A74F7121778EAFEEBFF7B003E
:10324C00EBC39404504EEBF87900E875F003A4C876
:10325C00AAF075F000A42AFA75F003E9A42AF9EC97
:10326C0028F582ED39F583E06E7003A3E06F7021D1
:10327C00EBF87900E875F003A4C8AAF075F000A487
:10328C002AFA75F003E9A42AF9EC28FAED39FB8047
:10329C00070B80AC7A007B007F0102184A74F7128E
:1032AC0017787F00EFC394044003023358EFF8798A
:1032BC0000E875F003A4C8ACF075F000A42CFC7504
:1032CC00F003E9A42CF9EA28F582EB39F583E0F454
:1032DC00FCA3E0F4FDEFF87900E875F003A4C8AEA8
:1032EC00F075F000A42EFE75F003E9A42EF9EA287F
:1032FC00F582EB39F583ECF0A3EDF0EFF87900E80B
:10330C0075F003A4C8ACF075F000A42CFC75F003A8
:10331C00E9A42CF9EA28F582EB39F583A3A3E0F4B0
:10332C00C0E0EFF87900E875F003A4C8ACF075F0D4
:10333C0000A42CFC75F003E9A42CF9EA28F582EB27
:10334C0039F583A3A3D0E0F00F0232B07F0102184D
:10335C004A74F012177874F4121708EAFEEBFF8C1B
:10336C00088D0990081DE0F8A3E0F9E849702CEEEF
:10337C004F6006E508450970057901023609EEFA39
:10338C00EFFB12111EE9900A98F0900A98E0C39492
:10339C000A4008121130E9900A98F0900A98E0C39C
:1033AC00940A400302360790081DE0F8A3E0F9E800
:1033BC00496003023453EEFCEFFD7A0E75F0069073
:1033CC000A98E0A42420F91212F2E9F50B7C0C7D8A
:1033DC000079FFAA18AB19120FAA8A0C8B0D850C59
:1033EC000E850D0FAC18AD197A0C900A98E024706C
:1033FC00F91212F2E9F50A750C0E750D00780C1223
:10340C00198BEEFCEFFD900A98E0F87900E875F066
:10341C000EA4C8AAF075F000A42AFA75F00EE9A45F
:10342C002AF9748528FA740739FB120F9274021268
:10343C00171E8A0C8B0DA80CA90D90081DE508F021
:10344C00A3E509F002360390081DE0F8A3E0C824B8
:10345C0006F582C83400F583E0F8A3E0F9E849608A
:10346C004390081DE0F8A3E0C82406F582C8340098
:10347C00F583E0FCA3E0FD7A1B75F006900A98E05A
:10348C00A42421F91212F2E9F890081DE0F9A3E046
:10349C00C92406F582C93400F5837400F0A37400C6
:1034AC00F002360390081DE0F8A3E0C8240AF58268
:1034BC00C83400F583E0F8A3E0F9E84960439008CC
:1034CC001DE0F8A3E0C8240AF582C83400F583E0B7
:1034DC00FCA3E0FD7A1B75F006900A98E0A4242268
:1034EC00F91212F2E9F890081DE0F9A3E0C9240AD8
:1034FC00F582C93400F5837400F0A37400F0023631
:10350C000390081DE0F8A3E0C8240CF582C8340031
:10351C00F583E0F8A3E0F9E849604390081DE0F872
:10352C00A3E0C8240CF582C83400F583E0FCA3E0CA
:10353C00FD7A1075F006900A98E0A42423F9121273
:10354C00F2E9F890081DE0F9A3E0C9240CF582C952
:10355C003400F5837400F0A37400F0023603900875
:10356C001DE0F8A3E0C82408F582C83400F583E018
:10357C00F8A3E0F9E849606F90081DE0F8A3E0C8F3
:10358C002408F582C83400F583E0FCA3E0FD7A1032
:10359C0075F006900A98E0A42424F91212F2E9F5C9
:1035AC000A90081DE0F8A3E0C82408F582C834008E
:1035BC00F583E02410FCA3E03400FD7A0475F006DA
:1035CC00900A98E0A42425F91212F2E9F890081D4B
:1035DC00E0F9A3E0C92408F582C93400F58374002E
:1035EC00F0A37400F08010900811E06003121184B5
:1035FC0012116C79018006790080027901740C1229
:10360C00171E7F0802184A74F712177874F21217F3
:10361C0008E9FEAC18AD197A0E75F006EEA424205C
:10362C00F91212F8E9700E740C121754E0F8A3E0BA
:10363C00F9E8F980027900740E12171E7F01021846
:10364C004A74F412177874F21217088909EAFEEB1F
:10365C00FFE509C3940A5004EE4F700479028041CF
:10366C00AC18AD197A0E75F006E509A42420F912F0
:10367C0012F8E9F508E5087026750A06750B00784E
:10368C000A12198B740212176EEEFAEFFB120F92DC
:10369C00740212171E8A0A8B0B850A82850B83A96A
:1036AC0008740E12171E7F0402184A74F41217784D
:1036BC00EAFEEBFF750800E508C3940A5044750A4E
:1036CC0006750B00780A12198BEEFCEFFDE508F875
:1036DC007900E875F00EA4C8AAF075F000A42AFAD7
:1036EC0075F00EE9A42AF9748B28FA740739FB12C9
:1036FC000FA4740212171EE96004A90880060508BD
:10370C0080B5790A7F0402184A74F4121778EAFE1D
:10371C00EBFF750800E508C3940A5044750A06755A
:10372C000B00780A12198BEEFCEFFDE508F8790016
:10373C00E875F00EA4C8AAF075F000A42AFA75F08A
:10374C000EE9A42AF9748528FA740739FB120FA420
:10375C00740212171EE96004A9088006050880B5DA
:10376C00790A7F0402184A74F712177874F012174A
:10377C0008EAFEEBFF750800E508C3940A5039AC63
:10378C0018AD197A1075F006E508A42423F9121265
:10379C00F8E970207C1079FFAA18AB19121010E907
:1037AC007012EEFCEFFDAA18AB191204EEE97004CE
:1037BC00A9088006050880C0790A741012171E7FAC
:1037CC000102184A74F4121778750800E508C394BE
:1037DC000A40030238AEE508F87900E875F00EA44B
:1037EC00C8AAF075F000A42AFA75F00EE9A42AF91B
:1037FC00748528FC740739FD7A0E75F006E508A46B
:10380C002420F91212F8E970030238A97C067D0015
:10381C0079FFE508FA7B00EA75F00EA4CAA8F075EA
:10382C00F000A428F875F00EEBA428FB74852AFA96
:10383C0074073BFB120FAA8A0A8B0BAE0AAF0B7CE8
:10384C00067D0079FFE508FA7B00EA75F00EA4CA44
:10385C00A8F075F000A428F875F00EEBA428FB7402
:10386C008B2AFA74073BFB120FAA8A0A8B0BAC0A41
:10387C00AD0BE508F87900E875F00EA4C8AAF07550
:10388C00F000A42AFA75F00EE9A42AF9749128F52F
:10389C0082740739F5837400F0A37400F0050802F4
:1038AC0037D8900811E0600312118412116C7F0458
:1038BC0002184A74F71217787E00EEC3940A50323D
:1038CC007C0679FFEEFA7B00EA75F00EA4CAA8F02C
:1038DC0075F000A428F875F00EEBA428FB74852A6B
:1038EC00FA74073BFB121010E96004EEF980050E28
:1038FC0080C8790A7F0102184A74F71217787E0083
:10390C007F00EFC3940A502F7C0679FFEFFA7B00FF
:10391C00EA75F00EA4CAA8F075F000A428F875F0AA
:10392C000EEBA428FB74852AFA74073BFB121010CB
:10393C00E970010E0F80CBEEF97F0102184A74F783
:10394C001217787E007F00EFC3940A500DEE700AB8
:10395C00EFF9121142E9FE0F80EDEEF97F0102182A
:10396C004A74F012177874C9121708E9FE900A9875
:10397C00E06E701D7A017B00900769E0F9120FF27E
:10398C00E97A027B00900769E0F9120FF2E9121153
:10399C0090742912176E7A0E75F006EEA42420F995
:1039AC001212F8E96003023AA17C0679FF7429121D
:1039BC001766121010E96003023AA17C0E7D0079A3
:1039CC00FF7429121766120FAA851882851983EACB
:1039DC00F0A3EBF07C1B7D0079FF740E12176612BE
:1039EC000FAA8A0A8B0B850A0E850B0F7C0C7D00A7
:1039FC0079FF7402121766120FAA8A0C8B0D850CB4
:103A0C000A850D0B742912176E7A0E75F006EEA44A
:103A1C002420F91212F2E9F508740E12176E7A1BB3
:103A2C0075F006EEA42421F91212F2E94208740E84
:103A3C0012176E7A1B75F006EEA42422F91212F2FC
:103A4C00E94208740E12176E7A1075F006EEA42473
:103A5C0023F91212F2E94208740E12176E7A1075DD
:103A6C00F006EEA42424F91212F2E94208740E12A4
:103A7C00176E7A0475F006EEA42425F91212F2E9F9
:103A8C004208740212176E7A0C74702EF91212F22C
:103A9C00E942088003750800A908743712171E7FC5
:103AAC000802184A74F7121778E9FEEE900769F0CD
:103ABC0012112A7F0102184A74F2121778890AEA45
:103ACC00FEEBFFEE5400F8EF5480F9E849603590B6
:103ADC000769E0F9120FD48A0C8B0DA80CA90D887C
:103AEC00088909E8496012AA08AB09121154E96067
:103AFC0008AA08AB09120FC2E9EE6400FAEF648061
:103B0C00FB023BC8EE5402602D7C007D007A007BEA
:103B1C0000121106E960187A017B00900769E0F940
:103B2C00120FECE9EE6402FAEF6400FB023BC87A78
:103B3C00027B00023BC8EEA2E0507D90081DE0F82D
:103B4C00A3E0F5838882A3A3A3E0FAA3E0FB121100
:103B5C008AE9605E900783E0F8A3E0F9E8496045E4
:103B6C00900783E0F8A3E0F5838882A3A3E0F8A391
:103B7C00E0F9E849602F7C00790190081DE0F8A37A
:103B8C00E0F5838882A3A3A3E0FAA3E0FB9007836C
:103B9C00E0F8A3E0F5838882A3A3E0F8A3E0F58323
:103BAC008882121776121190EE6401FAEF6400FB12
:103BBC00800A7A017B0080047A007B007F06021861
:103BCC004A74F7121778EAFEEBFF7508018E828FA4
:103BDC0083E02450601314601924E1701CEEFAEF9A
:103BEC00FB1210E8E9F5088010EEFAEFFB12115AFF
:103BFC008007EEFAEFFB121160A9087F0102184A48
:103C0C0074F7121778EAFEEBFF8E828F83A3A3A3BF
:103C1C00A3E0641E701179008E828F83A3A3E0FA57
:103C2C00A3E0FB1210D6E97F0102184A74F61217B2
:103C3C00788A088B09850882850983A3A3A3A3E04E
:103C4C007034AE08AF098E828F83A3A3A3A3A3A362
:103C5C00A31219A28E828F83A3A3A3A3A3E0FCA318
:103C6C00E0FD8E828F83A3A3E0FAA3E0FB1210DCAD
:103C7C00740212171EE97F0202184A74F7121778A1
:103C8C00EAFEEBFF900769E0F98E828F83A3E0FADE
:103C9C00A3E0FB120776E97F0102184AC082C083B9
:103CAC0074FF121708121136E9C39402400B8518E1
:103CBC00828519837402F0800985188285198374B2
:103CCC000AF0AC18AD197A0179051205FCE97401FA
:103CDC0012171ED083D08202011F74F2121778744F
:103CEC00E81217088A088B09E9FE8C0A8D0B7C18E0
:103CFC007D007900AA18AB19120FAA8A0C8B0DAC97
:103D0C000CAD0D851882851983E508F0A3E509F043
:103D1C0090076BE0C0E07402121754D0E0F09007EB
:103D2C006CE0C0E07403121754D0E0F0900A97E0F6
:103D3C00C0E07417121754D0E0F07415121754E049
:103D4C0054FEF8A3E054FFF9900A96E0A2E0E433A5
:103D5C00FA7B00E84AF8E94BF97415121754E8F0AD
:103D6C00A3E9F0900A96E0A2E15004D2F08002C2DE
:103D7C00F07415121754E054FDFAA3E054FFFBA2A3
:103D8C00F0E433F87900E828F8E933F9EA48F8EB7D
:103D9C0049F97415121754E8F0A3E9F0900A96E06B
:103DAC00A2E35004D2F08002C2F07415121754E052
:103DBC0054F7FAA3E054FFFBA2F0E433F50C750DB5
:103DCC00007403780C1216F5EA450CF8EB450DF966
:103DDC007415121754E8F0A3E9F0900A96E0A2E4E7
:103DEC005004D2F08002C2F07415121754E054EF54
:103DFC00FAA3E054FFFBA2F0E433F50C750D00744C
:103E0C0004780C1216F5EA450CF8EB450DF974150F
:103E1C00121754E8F0A3E9F0900A96E0A2E55004DA
:103E2C00D2F08002C2F07415121754E054DFFAA3DA
:103E3C00E054FFFBA2F0E433F50C750D007405782B
:103E4C000C1216F5EA450CF8EB450DF97415121722
:103E5C0054E8F0A3E9F0900A96E0A2E25004D2F004
:103E6C008002C2F07415121754E054FBFAA3E0540C
:103E7C00FFFBA2F0E433F50C750D007402780C1204
:103E8C0016F5EA450CF8EB450DF97415121754E8C4
:103E9C00F0A3E9F090076CE0602A750C10750D002A
:103EAC00780C12198B7C6D7D077406121754AA823C
:103EBC00AB83120F92740212171E8A0C8B0D850C99
:103ECC0082850D8390077DE06011EE600E741512F3
:103EDC001754E04402F0A3E04400F090077DE0604A
:103EEC000678017900800478007900741412175454
:103EFC00E048F090076AE060067804790080047866
:103F0C000079007414121754E048F0AC0AAD0BAAF7
:103F1C0018AB19120512E9741812171E7F06021835
:103F2C004A74F7121778EAFEEBFF75080090077DCC
:103F3C00E0600678017900800478007900E8420896
:103F4C0090076AE0600678047900800478007900B4
:103F5C00E84208A908EEFAEFFB1205CCE97F010252
:103F6C00184A74F212177874E31217088A0C8B0D26
:103F7C00E9FF8C0A8D09742B121754E0F5087408AC
:103F8C006509700A75F006EFA42422FE800875F00E
:103F9C0006EFA42421FE7C1B7D007900740212170D
:103FAC0066120FAA851882851983EAF0A3EBF074C8
:103FBC000212176E7A1BEEF91212F8E97038741CA3
:103FCC00121754E0C39407402D741C121754E0C30D
:103FDC0094115022E508F50B780B12198F7403120B
:103FEC00176EE50AA2E0E433F9AA0CAB0D12052416
:103FFC00740112171EE9741D12171E7F0602184A4F
:10400C0074F71217781207EEE97E00EEC3940A508B
:10401C00557C0679FFEEFA7B00EA75F00EA4CAA86F
:10402C00F075F000A428F875F00EEBA428FB74854D
:10403C002AFA74073BFB121010E97027EEF879008E
:10404C00E875F00EA4C8AAF075F000A42AFA75F071
:10405C000EE9A42AF9748528FA740739FB79001241
:10406C0007F4E90E80A57F0102184A74F61217783E
:10407C0074FD121708EAFEEBFF90081FE0F8A3E0AE
:10408C00F9E8497039750821750908780812198BF7
:10409C00750802750900780812198B75083A7509AC
:1040AC0090780812198B7CFF7DFF7A017B00120639
:1040BC003E740612171E90081FEAF0A3EBF090084E
:1040CC001FE0F8A3E0F9E8497003024194E4F50815
:1040DC00F509780812198B740412175E880889097F
:1040EC00780812198B740412175E880889097808ED
:1040FC0012198B9008211219A2790290081FE0FC6A
:10410C00A3E0FDEEFAEFFB120764740812171EE928
:10411C00704A851882851983E0FA7B0074011217A6
:10412C0054E0F87900E4C8F9EA28F508EB39F50908
:10413C00E50845096026780812198B90081FE0F8ED
:10414C00A3E0F5838882A3A3A3A3E0FCA3E0FDEE88
:10415C00FAEFFB1210DC740212171EE9E4F508F5F5
:10416C0009780812198B9008211219A27CFF7DFF87
:10417C0090081FE0FAA3E0FB12064A740412171E03
:10418C0090081FEAF0A3EBF090081FE0F8A3E0F909
:10419C00E8497004790180027900740312171E7FBC
:1041AC000202184AC082C08390081DE0F8A3E0F90F
:1041BC00E849601790081DE0FAA3E0FB120FC2E972
:1041CC00F890081D7400F0A37400F0900A98740A1B
:1041DC00F0D083D08202011FC082C083E9900A1301
:1041EC00F002447374F7121778E99002E1F07C192D
:1041FC007D037AFF7BFF12077C9002E274FFF0A331
:10420C00F0A3E4F0A3F079051207049002E1E0F9C1
:10421C001206267A9A7B071209447F0102184A7407
:10422C00F41217788A088B09EB548060309002E105
:10423C00E0F9120FD48A0A8B0BAE0AAF0BEE4F606B
:10424C00138E828F83E064B0700312071CEEFAEFBA
:10425C00FB120FC2AA08E5096480FB80047A007B7C
:10426C000002444274F212177874FC121708EAFE2A
:10427C00EBFFEE4F60387402121754EEF0A3EF12FE
:10428C0046A7ECF0A3ED1246A7AA82AB8312062038
:10429C00E9F5087073741212175412525BE50A4553
:1042AC000B60658E828F8312431EEE4F700575086E
:1042BC000280557A067B0012102E8A0C8B0DA80CEE
:1042CC00A90DE8497005750813803D88828983E43F
:1042DC00124328A3A3EEF0A3EF1256F4E50AF0A3C1
:1042EC00E50BF09002E71243B09002E76017E0FC98
:1042FC00A3E08003EAFCEBFD8C828D831243B0704B
:10430C00F38C828D83125180A908740412171E023B
:10431C0058F6A3A3A3A3E0FEA3E0FF22F0A3F0882A
:10432C008289832274F2121778890AE975F017A42E
:10433C00FEAFF09002E6E4F09002E41243B0600AA3
:10434C001210349002E4E4F0A3F0EEFAEFFB12103A
:10435C002E8A088B09EA4509602FEEFCEFFD7900E7
:10436C00120FAA9002E4E508F0A3E509F07B0080A7
:10437C000812439AE4F0A3F00BEBC3950A40F2E564
:10438C000A9002E6F07900800279130258F6EB7578
:10439C00F017A4F8A9F09002E4E028FAA3E0398A17
:1043AC0082F58322124F16EA4B2274F41217787599
:1043BC000800750900740C1217541256C8FEE9FF58
:1043CC00800CE5082401F508E5093400F509C3E57E
:1043DC00089CE5099D503285080A85090B74037801
:1043EC000A1216F5EA250AF8EB350BF9888289834F
:1043FC00A3A3A3A3A3A312525BEE650A7003EF65FC
:10440C000B70BFE8FAE9FB80047A007B008027740C
:10441C00F41217787900EAA2E0501B750890750920
:10442C008F780812198B7C047D007A157B0A120692
:10443C00FE740212171E7F0402184AC082C08390B9
:10444C0002E712447A601C88828983A3A3E06A7015
:10445C0003A3E06B8882898370E8A3A3A3A3124F04
:10446C001280047A007B00D083D08202011F125983
:10447C00C9E8492274EE12177874FC121708EAFE88
:10448C00EBFF851882851983E4F0A3F0EE24021269
:10449C005164EE2405124695EE2404F50EEF124AF3
:1044AC007AE024FE603924FC604624FE605224FE2F
:1044BC00605E24FE700302459A24FE7003024612CD
:1044CC0024FE700302462124FE700302463024FCB5
:1044DC00700302463F24FE700302464E02468B9048
:1044EC0003007417F0A3E41246AF12039E02468B2E
:1044FC00851882851983AC82AD8312072202465B34
:10450C00851882851983AC82AD8312072802465B1D
:10451C00850C08850D097402121754AC82AD838585
:10452C000882850983124F121206448A0C8B0DAC3B
:10453C000CAD0DEC4D6042E4F50CF50D780C121938
:10454C008B750C00750D03780C12198B750C01759D
:10455C000D03780C12198B74081217541219A279C6
:10456C0016124F0C120764740812171EE9F50C7022
:10457C000B124F081203B6800F750C01850882854B
:10458C00098312469D125180850C0802465E740206
:10459C00121754AC82AD83850C82850D83124F1299
:1045AC001206448A108B11AC10AD11EC4D60438592
:1045BC000C82850D83A3A31219A27510007511032B
:1045CC00781012198B751001751103781012198B54
:1045DC0074081217541219A27916124F0C12076490
:1045EC00740812171EE9F509700B124F081203BC60
:1045FC00800F750901850C82850D8312469D125121
:10460C0080850908804C851882851983AC82AD831E
:10461C0012072E803A851882851983AC82AD8312DD
:10462C000734802B851882851983AC82AD831207E1
:10463C003A801C851882851983AC82AD83120740A1
:10464C00800D851882851983AC82AD83120746E9EB
:10465C00F508E50860298E828F83A3E06414601F3F
:10466C00850E82850F83E09003001246A71259C570
:10467C00900301125180E508A31246AF120398EE85
:10468C00FAEFFB1206C202506CF50CEF3400F50D7C
:10469C00221259C985188285198322F085188285C2
:1046AC00198322F07C007D03850A82850B83124FCF
:1046BC00162274EE12177874FC1217088A0A8B0BE8
:1046CC008C0E8D0FEA2405F508EB3400F5097C15EA
:1046DC007D0079007A007B03120FAAE5082402F50D
:1046EC000CE50912469885188285198385821085F8
:1046FC008311781012198B850882850983A3A3A3D3
:10470C00A3124BC212198BE5082405F510E50934E8
:10471C0000F511781012198B850C82850D83124FC0
:10472C001C12063E740612171E8A108B11AE10AFA7
:10473C0011E50A2402F50AE50B125167EE4F7003DE
:10474C0002488480177402121754124F12888289FF
:10475C0083EAF0A3EBF0900300E004F0900300E098
:10476C00C394054003024884E4F510F51178101247
:10477C00198B7510E9751102781012198B7510EAE6
:10478C00751102781012198B74061217541219A293
:10479C007910EEFCEFFD124F0C120764740812171F
:1047AC001EE9705E850882850983A3A3A3A3A3A336
:1047BC00A3E0F89002E9E0687048124BC212198B22
:1047CC007CEA7D02E5082408FAE5093400FB120FA7
:1047DC00A4740212171EE960298E828F83A3A3A3EF
:1047EC00A3124F12900300E0F51074027810121609
:1047FC00F574012510F58274033511F583EAF0A3E5
:10480C00EBF0740212175485821085831178101204
:10481C00198B74021217541219A2850C82850D8300
:10482C001259DA12064A740412171E8A108B11AE32
:10483C0010AF11900300E0F51075110074027810A0
:10484C001216F574002510F874033511F988828955
:10485C0083A31243B07003024748E82403F8E934F9
:10486C0000F9EE4F60030247518882898374FFF090
:10487C00A3F0900300E004F0900300E0600A124FF4
:10488C00081203AA7900800B8508828509831251CE
:10489C0077790A02506C74EA12177874FE121708B2
:1048AC008C128D13EA2405F50CEB125B4412432297
:1048BC00750800750900EA2402F510EB3400F511B7
:1048CC0085188285198385820A85830B780A1219CB
:1048DC008B850C82850D83A3A3A3A3124A84121982
:1048EC008BE50C2405F50AE50D125167780A1219AF
:1048FC008B850C82850D831259D812063E740612D4
:10490C00171E8A0A8B0BEA450B7003024A35EA2400
:10491C0004F50EEB124A7A1243228A828B83A3A3EC
:10492C00A3E0F9851082851183124F1212062CE92F
:10493C00F5096003024A35E4F514F51578141219DB
:10494C008B7514E9751502781412198B7514EA75A8
:10495C001502781412198B74061217541219A279B5
:10496C0013AC0AAD0B851082851183124F121207FE
:10497C0064740812171EE9F5096003024A359002A7
:10498C00E9E0F8E5087009E02402900301F08017D3
:10499C00900301E0FCE82402FAE43400FBEA6C70BA
:1049AC0001EB6003024A39850882AA82124BB99442
:1049BC0014124BB15073850E82850F83E0C0E074E6
:1049CC00022A124A71D0E0F00508850E82850F8309
:1049DC00A3E0C0E085080A7402250A124A71D0E0EF
:1049EC00F005089002E9124A8412198B7CEA7D02C8
:1049FC0085080A7402250AFA74033400FB120F921C
:104A0C00740212171E9002E9E02508F50874FF6E77
:104A1C00700374FF6F6012EE24010EEF3400FFE59B
:104A2C0008C3941450030248CCE5086013124DFDE2
:104A3C00851082851183124F121203B079008014F5
:104A4C00E509700375090A851282851383EEF0A3BC
:104A5C00EFF0A909740212171E7F0E02184A85087E
:104A6C000C7402250CF58274033400F58322340097
:104A7C00F50F850E82F583221257072274EE12175A
:104A8C007874FE1217088C0E8D0FEA2405F50CEBCA
:104A9C00124698750B00900300E4F0F50AEA240224
:104AAC00F508EB3400F5098049900300E0FA900218
:104ABC00E9E0F8124BB99417124BB1400D9003007A
:104ACC00E0F87416C3989002E9F0124BC212198BDD
:104ADC007CEA7D0274012AFA74033400FB120F92F3
:104AEC00740212171E9002E9E0F8900300E028F01F
:104AFC00050AE50C2416F582E50D124A75E0F8E579
:104B0C000AC3984003024B9A900300E0C3941650DA
:104B1C007DE50AC333F8E433F9E50C28FEE50D39DD
:104B2C00FF851882851983AC82AD838E828F8312A8
:104B3C004F121206448A108B11AC10AD11EC4D7053
:104B4C0005750B018043E4F510F511781012198BE3
:104B5C007510E9751102781012198B7510EA751120
:104B6C0002781012198B74061217541219A27916A6
:104B7C00850882850983124F121207647408121774
:104B8C001EE9F50B7003024AB512517380107C00BC
:104B9C007D03850882850983124F121203C2A90B6B
:104BAC00740202506EE99400C365D03322EA28F8EF
:104BBC00E43400F9E822E0F5107511007810227445
:104BCC00EA12177874FC1217088A0C8B0D8C128D54
:104BDC0013EA2405F50AEB125167750800750900F4
:104BEC00E50A2402F510E50B3400F51174021217D6
:104BFC005485820E85830F780E12198B850A828557
:104C0C000B83A3A3A3A31256B312198BE50A240595
:104C1C00F50EE50B3400F50F780E12198B8510820A
:104C2C0085118312516D124F0C12063E7406121729
:104C3C001E8A0E8B0FAE0EAF0FE50C2402F50EE59F
:104C4C000D3400F50F80408882898374FFF00508CD
:104C5C00124A6A74FFF005089002E9E0F50C750D34
:104C6C0000780C12198B7CEA7D0285080C740225E5
:104C7C000CFA74033400FB120F92740212171E907C
:104C8C0002E9E02508F508EE4F60718E828F83A350
:104C9C00A3A3E0F9850E82850F83124F1212062C06
:104CAC00E9F509EE2404124695E97044E4F514F58F
:104CBC0015781412198B7514E975150278141219DC
:104CCC008B7514EA751502781412198B7408121767
:104CDC00541219A27911EEFCEFFD850E82850F831B
:104CEC00124F12120764740812171EE9F509602797
:104CFC00850C82850D83124DF3125180E5087003EB
:104D0C00024DD9124DFD850E82850F83124F121262
:104D1C0003C87900024DEE850882AA82EA9002E966
:104D2C007009E02404900301F08022E0F890030164
:104D3C00E0F514E82404FCE43400FDEC6514700187
:104D4C00ED70C0124BB99412124BB150B6850C8257
:104D5C00850D83E0C0E074022A124A71D0E0F005A0
:104D6C0008850C82850D83A3E0C0E0124A6AD0E06E
:104D7C00124E0F85820C85830D780C12198B7404DE
:104D8C001217541219A28510828511831259DA1246
:104D9C00064A740412171E8A0C8B0DAE0CAF0D85CF
:104DAC00080C7402250CF874033400F9EE4F7003F0
:104DBC00024C53851882851983E088828983124EB0
:104DCC000FA3E0C0E0124A6AD0E0024C61E5097022
:104DDC000375090A850A82850B83124DF3125180E3
:104DEC00A9097404024A621259C985128285138377
:104DFC0022900301E0F5F0E50884900300F07C00BC
:104E0C007D0322F005088518828519832274EC1223
:104E1C00177874FE1217088A088B098C0E8D0FEA0E
:104E2C002405FEEB3400FF851882851983AC82AD16
:104E3C00838E828F83124F121206448A0A8B0BEEDA
:104E4C002418124695EA450B7003024EE312505596
:104E5C005032851882851983124F121207588A1006
:104E6C008B11EA4511606B7912AC0AAD0B85088287
:104E7C00850983124F12851082851183121776E9EA
:104E8C00F50A7058E4F50AF50B780A12198B8E8224
:104E9C008F83A3A3E0F50A780A12198BEE24031270
:104EAC005164780A12198B8E828F83124F1C120751
:104EBC006A740612171EE9F50A7021850C82850D9D
:104ECC0083E0701F850882850983124F121203CE6E
:104EDC008011750A0E8009750A018004E50A6003C9
:104EEC00125173850C82850D83E060047900800279
:104EFC00A90A740212171E7F0C02184A7C007D034B
:104F0C00850A82850B83124F1622E0FAA3E0FB225E
:104F1C00E0FCA3E0FD850882850983124F162274FC
:104F2C00EE12177874FE1217088A088B098C0C8DF8
:104F3C000DEA2405FEEB3400FF750E008518828502
:104F4C001983AC82AD838E828F83124F121206446A
:104F5C008A0A8B0BEA450B700302504112505550D4
:104F6C0035851882851983124F121207588A0E8BB9
:104F7C000FEA450F605E7912AC0AAD0B850882858D
:104F8C000983124F12850E82850F83121776E9F56D
:104F9C000E600302504485088285098312525BAA75
:104FAC000AFB12074C8A108B11A810A911E8497042
:104FBC001E7AFF7BFF12074C8A108B11A810A911C7
:104FCC00E849606C88828983E50AF0A3E50BF075EB
:104FDC000A008007750E0E805F050A9002E6E0FA63
:104FEC00E50AC39A504AE50A75F017A4FAABF088A3
:104FFC00828983A3A3E02AFAA3E03BFB8A828B83FA
:10500C0012516DEC4D70D2750A17750B00780A129F
:10501C00198BEEFCEFFD120F92740212171EEEFCB0
:10502C00EFFD850882850983124F121203D4801478
:10503C00750E098003750E011259C1850C82850D00
:10504C0083125180A90E024BACE5082402F508E549
:10505C00093400F5098A828B83A3A3A3E0A2E5227D
:10506C00740412171E7F0A02184A74EC1217788CFB
:10507C00108D11EA2405F50CEB124698750F00EA19
:10508C002402F50AEB125167850A82F583124F123E
:10509C0012074C8A088B09EA4509700302515975AD
:1050AC000E008071850C82850D83E06401704F8E3B
:1050BC00828F83A3A31219A28E828F83A3A3A3A38F
:1050CC00E0F512751300781212198BEE2405F51207
:1050DC00EF3400F513781212198B124F0C12076A69
:1050EC00740612171EE9F50F6014850C82850D836A
:1050FC00E4F01259C18510828511831251807C17FE
:10510C007D007900EEFAEFFB120FAA8E828F83E4FA
:10511C00F0A3F0050E9002E6E0F8E50EC398501EE1
:10512C00E50E75F017A4F8A9F0850882850983A30C
:10513C00A3125B4E12516DEC4D60030250B085080A
:10514C008285098374FFF0A3F0E50F7006124F0CF3
:10515C001203DAA90F024F03F50AEF3400F50B2204
:10516C00A3E0FCA3E0FD228E828F831259C9850E29
:10517C0082850F83E8F0A3E9F022C082C0839002FD
:10518C00E2E06A7003A3E06B70067AE27B028004B3
:10519C007A007B00024473C082C08378008C828DBD
:1051AC0083E06A7003A3E06B7010E875F003A4F859
:1051BC00A9F0EC28FAED39FB8015088C828D83A3BD
:1051CC00A3A3E06A7003A3E06B60DF7A007B0002AC
:1051DC00447374F61217781207168A828B83E58251
:1051EC00458370067A007B008007A3A3A3A3124F0C
:1051FC001202587274F2121778E9FE740E121754D8
:10520C0012525B74101217541256D38C828D83E099
:10521C0064027036A31259CFF50CA3E0F9A80C74F4
:10522C00026870037429697021750C02750D007881
:10523C000C12198B780812198B780A12198BEEF94B
:10524C0012078E740612171E800279010258F6E0BE
:10525C00F50AA3E0F50B2274E812177874FB121709
:10526C0008E9851882851983F08A168B17ECFEEDF8
:10527C00FF751000741D1217541259C5741D1217A6
:10528C00541251808E828F83A3A3A3E0A2E4502DED
:10529C00741D121754124F121207588A828B83E511
:1052AC0082458370030256A4790AEEFCEFFDAA1620
:1052BC00AB17121776E9F51060030256A7741F128C
:1052CC0017541256D3742112175412525B742312B2
:1052DC001754E0F50EA3E0F50F8E828F83E0640285
:1052EC006003025652A31259C5850882850983A30F
:1052FC00858212858313EE24061246958882898353
:10530C00E0FAA3E0F9EA2400F514E439F515781471
:10531C00121A150100002801284753070002280C17
:10532C0054032879530029435501296E5502290F3E
:10533C0055032943550429ED555256E50E450F608A
:10534C000302564D850C82850D831256C8FAE9FB73
:10535C008A828B83E0850A82850B831256FE121992
:10536C008B8A828B83A3E0FCA3E00255D7E50E4524
:10537C000F600302564D850A82850B837401F0126F
:10538C0056DB850882850983F07C007D008E828F38
:10539C0083A3A3A3A3E02401FAA3E03400FB120629
:1053AC0044EA4B60418A828B83E02402F8850A82AE
:1053BC00850B83E028F0EA2404F8EB3400F98882AA
:1053CC008983E08512828513831257101256FE12C0
:1053DC00198B8A828B8312516CE5082403FAE50938
:1053EC003400FB0255DC850A82850B83E02404F033
:1053FC007C047D007900AA12AB13120FAA0256A7E7
:10540C00E50E450F600302564D1256DBFEA3E0FF7E
:10541C00850A82850B837404F0EE850882850983E6
:10542C00F0EF851282851383F07403121754AC824B
:10543C00AD83EEFAEFFB1206448A0C8B0DEA450D98
:10544C0070030254F08A828B83A3A312431E74014F
:10545C0012175485820E85830F780E12198B7405E2
:10546C001217541219A27CFF7DFF12064A74041203
:10547C00171E8B0FEA450F7033850C82850D831236
:10548C0056B312198B850C82850D83A31219A27C3D
:10549C00027D007A407B90120476740412171EE988
:1054AC00700A740112175474FFF0A3F08E828F836C
:1054BC00E064027039750C02750D00780C12198BB2
:1054CC008E828F8312516CE5082404FAE5093400AE
:1054DC00FB120F92740212171E850A82850B83E051
:1054EC00240280097401121754EEF0A3EFF074013A
:1054FC001217541256C4F07401121754A31256BC4E
:10550C00025647E50E450F600302564D850C828509
:10551C000D8312516DAA16AB17120782850A82856C
:10552C000B837402F0EA850882850983F085128268
:10553C00851383EB02564AE50E450F600302564D68
:10554C001256DBF8A3E0F9850A82850B837402F00E
:10555C00E8850882850983F0E98512828513830228
:10556C00564A850C82850D83124F12120F8CEAFC61
:10557C008C82A882C3950EE4950F405FE8650E708F
:10558C0002E50F70047C008022851882851983E067
:10559C00FAE50E2AFAE50F3400FBC3EA98EB940007
:1055AC005003E08005E50ECCC39CFCEC850A82859B
:1055BC000B83F08C0A750B00780A12198B850C8200
:1055CC00850D83E0250EFCA3E0350FFDAA08AB0981
:1055DC00120F92740212171E0256A775100702566C
:1055EC00A7E50E450F705A850C82850D831259C59F
:1055FC00850A82850B83740712432A1256BC124308
:10560C002AA3E0851282851383F0E82402FAE93498
:10561C0000FB8A828B831256BC1256EB1256C4A323
:10562C001256F41256CDF0E82405F8E93400F98846
:10563C008289831256CDA3125710A3A3A3A3F08083
:10564C005A75100B8055741D121754124F121207F5
:10565C00168A828B83E5824583603D1259C5880C7E
:10566C00890DE8450D6031780E12198B780A1219E4
:10567C008B780812198B7406121754E0F9EEFCEFB4
:10568C00FDAA16AB17850C82850D8312177674064E
:10569C0012171EE9F510800375100EA9107405126F
:1056AC00171E7F1002184AE0F50E750F00780E22B7
:1056BC00E08508828509832212571A221259C9E8FB
:1056CC002212571AA3A322E0F508A3E0F5092285BC
:1056DC000C82850D83E0F8A3E0F5838882E022A399
:1056EC00A3F08A828B83A322F088828983A3A3A34D
:1056FC00A322F08A828B8312570722E0F50A750BDE
:10570C0000780A22F088828983A312571A22E08536
:10571C000882850983A3A32274EE12177874FE12F3
:10572C0017088A0A8B0BECFAEDFB7414121754E071
:10573C00F510A3E0F5117416121754E0FE7418124C
:10574C001754E0F50EA3E0F50F851882851983AC8C
:10575C0082AD831206448A0C8B0DEA450D60498597
:10576C001882851983124F121207168A828B83E5D1
:10577C00824583602FA3A31256D3E5084509602404
:10578C00780E12198B781012198BEEF9AC0CAD0D3A
:10579C00AA0AAB0B8508828509831217767404124A
:1057AC00171E8006790E80027901024BAC74F6123A
:1057BC00177874FE121708740C1217541256C885F9
:1057CC001882851983F07401121754E9F0E4F50876
:1057DC00F509780812198B750802780812198B7460
:1057EC0004121754858208858309780812198B12C4
:1057FC00076A740612171E740212171E806874F75B
:10580C00121778EAFEEBFF89087C197D03120782D8
:10581C00EA5402600BA908EEFAEFFB12063880027C
:10582C00790102422674F612177874FF6A700374B9
:10583C00FF6B70168C828D83125877E4F08C828DFE
:10584C0083A3A3A3125877A380181207528A088B3C
:10585C0009A808A909E849600D8882898374FF1298
:10586C004328A3A3E4F07F0202184A74FFF0A3F0CC
:10587C008C828D83A3A32274F61217781207528A96
:10588C00828B83E58245836006A3A3E0FA80027ACB
:10589C00007B0080D174F21217788A088B09ECFE19
:1058AC00EDFF740E121754E0F50A1207528A0C8B96
:1058BC000DA80CA90DE8497026EEFCEFFD7AFF7BD4
:1058CC00FF1207528A0C8B0DA80CA90DE849700425
:1058DC007911801688828983E508F0A3E509F088A0
:1058EC00828983A3A3E50AF079007F0602184A7423
:1058FC00EE121778EAFEEBFF8C088D09890C7414F4
:10590C001217541259C57416121754124F12750DE2
:10591C0000E84960030259B97402650C600302592E
:10592C00B474121217541259CFFCA3E0F9EC2400F2
:10593C00F50EE439F50FEAF4F8EBF4F9EC58F8E568
:10594C000F59F9E849705CE5082406F8ED3400F9C4
:10595C00880A890B8882F5831259DA1207828A1019
:10596C008B11E50E65107004E50F65116042780E21
:10597C0012198B850A82850B831259DA12078874E7
:10598C000212171EE9F50D7027780E12198B850877
:10599C0082850983A3A31259D81207A07402121787
:1059AC001E800D750D808008750D0D8003750D0B17
:1059BC00A90D0250718E828F831259C922E0F8A36F
:1059CC00E0F9221259C988828983E022A3A3E0FC62
:1059DC00A3E0FDEEFAEFFB2274E812177874E712DD
:1059EC001708851882851983EAF0A3EBF08C168DC5
:1059FC0017890E7508007509007431121754E0F5FB
:105A0C0012A3E0F5137433121754E0F514A3E0F568
:105A1C00157435121754E0F50FE50975F003A4F869
:105A2C00A9F0851882851983125B4EE0F47003A3EC
:105A3C00E0F47003025B31EE2402F50CEF125B44D0
:105A4C00E07003025B3185160A85170B780A121970
:105A5C008BAC14AD15AA12AB1312070A74021217F1
:105A6C001E8A0A8B0BEA450B7003025B31E4F510BE
:105A7C00F511781012198B74061217548582108543
:105A8C008311781012198B740912175485821085A2
:105A9C008311781012198B851282851383A3A3A30B
:105AAC00A31219A27914AC0AAD0B8E828F83124FFC
:105ABC0012120764740812171EE97069850A828530
:105ACC000B83A3A3A3A31259C5740212175412512A
:105ADC0080850C82850D83E0A2E05018A90E74021B
:105AEC00121754AC82AD838E828F83124F12120622
:105AFC005CE94208850C82850D83E0A2E15026E525
:105B0C000FF50A780A12198FA90E7403121754ACE8
:105B1C0082AD838E828F83124F121206567401123D
:105B2C00171EE942080509E509C394025003025AFD
