:020000040000FA
:060000000201070229289D
:03002B00022D8320
:03003300022D5B40
:0300530002299EE1
:03006B00022D3330
:100083000227D7E5C754F84401F5C77901220000D8
:100093000080FB120086B900030200F1E4792178A5
:1000A30008B800028004F709D8FCE479297802B87B
:1000B30000028004F709D8FCE490028178D2790722
:1000C3008002F0A3D8FCD9FA7A527B0990013778E1
:1000D3003979048015E493A3AD82AE838A828B833E
:1000E300F0A3AA82AB838D828E83D8E9D9E7758288
:1000F300317583E17403120119758291758300745C
:100103000012011975D00075813F751881751902A8
:10011300759F00020096C09FF59FE473D09F22D085
:1001230083D082C09FE493C0E0740193C0E0740263
:1001330093F59F22FF0000B4000028002800283018
:1001430075A000A000A000A00000080008E001F0D6
:10015300001000100010001000100010005000509C
:1001630000500010001000D0070000000000000F36
:100173000001000500307507001000010081FF0039
:10018300000000FF6D068B067306FF0202020802E1
:100193005000A0000000E80302BD90010000A290FF
:1001A30002B990010000A90902B390010000B30253
:1001B30002B990010000AA0902B190010000C9022E
:1001C30002B990010000AB0902E590010000CB02E7
:1001D30002B990010000AC0902AB90080000CC0208
:1001E30002B990010000AD0902AD90010000AE0913
:1001F300FF0100FF2002BD90010000A59002B9900D
:10020300010000120A02AF90000000000002B59046
:1002130003000019039D0C9D0C9D0C9D0C9D0C9DD2
:100223000C9D0C9D0C9D0C9D0C9D0C9D0C9D0C73AD
:100233000F8B0F6D0FFFFF02020202020202020286
:10024300010D000000100102BD90010000A8900202
:10025300B990010000550A02D7900100006107021E
:10026300B990010000560A02D590010000758F0273
:10027300B990010000570A02D390010000678F0272
:10028300B990010000580A02CF90010000E58E02E8
:10029300B990010000590A02CD90010000F78E02C7
:1002A300B9900100005A0A02CB90010000C18E02EE
:1002B300B9900100005B0A02C990010000AF8E02F1
:1002C300B9900100005C0A02C790010000598F0237
:1002D300B9900100005D0A02C5900100005E0A01A9
:1002E300E803053F100AFF00013075030201060011
:1002F30000000000000000000000000000000000FB
:100303000000000000000000000000FFFF06008066
:100313000CE8030201060302F0FF456173792043F1
:100323006F6E6E656374204D6F64756C6500003B82
:1003330014000047140A436861726163746572694B
:100343007374696320310002436861726163746589
:100353007269737469632032000843686172616370
:100363007465726973746963203300104368617242
:10037300616374657269737469632034000243684E
:100383006172616374657269737469632035000215
:10039300BD900100009F9002B990010000530B0231
:1003A300DD90030000430902B790010000540B02E3
:1003B300B990010000650B02DF90010000440902BF
:1003C300B790010000660B02B990010000770B02A1
:1003D300E190020000450902B790010000780B028A
:1003E300B990010000890B02E39000000046090266
:1003F300B590030000470902B7900100008A0B0281
:10040300B9900100009B0B02D1900400004D09023A
:10041300B7900100009C0B30313233343536373816
:100423003941424344454600286E756C6C20706F19
:10043300696E74657229003031323334353637389A
:1004430039616263646566003F3F3F000000807F5F
:100453000000803F00000000F9021550B743BA5175
:100463000000204100E7DB2E0000A040120122F330
:10047300D1031201220AD2031201223BD203120139
:100483002276D203120122A0D203120122CAD2037E
:10049300120122E1D203120122F8D2031201220F28
:1004A300D30312012238D3031201224BD3031201C7
:1004B3002261D30312012274D3031201229BD303BB
:1004C3001201223FCD0212012243CE021201227BEE
:1004D300CE021201229ECE02120122A9CE021201E5
:1004E30022CCCE02120122DBCF02120122B0D002B3
:1004F3001201222BD102120122B3D102120122EEE8
:10050300D10212012225D202120122B3D202120118
:10051300228CD302120122ECD302120122F7D3025E
:1005230012012276D40212012279D4021201227C12
:10053300D4021201220BD5021201220ED50212019E
:10054300223ED50212012268D50212012256D6029A
:1005530012012208D7021201223FFB021201226775
:10056300FB0212012295FB02120122CCFB021201B3
:10057300222AFC0212012275FC02120122C0FC0293
:1005830012012200FD0212012246FD021201227411
:10059300FD0212012231FE021201223BFE02120170
:1005A3002248FE021201227BFE0212012247FF02B1
:1005B30012012253FF021201226BFF021201227564
:1005C300FF02120122C5DC03120122D3DC03120154
:1005D30022EBDC0312012203DD0312012226E601D2
:1005E300120122D2E6011201224DE7011201226E0D
:1005F300E801120122AAE80112012253E9011201C2
:10060300223AEA011201229EEB01120122F5EB01CB
:1006130012012276EC0112012266ED01120122B3CE
:10062300ED0112012239EE011201226BEE011201DA
:10063300227FF001120122C1F001120122DFF00139
:1006430012012262F10112012236F201120122FE8D
:10065300F201120122D67800120122A979001201B7
:1006630022527A00120122A57A00120122557B0040
:10067300120122E17B00120122CD7C00120122FC37
:100683007C001201220F7E00120122577E0012010C
:10069300222C7F00120122687F00120122847F0036
:1006A30012012279FF01120122A2B503120122B81D
:1006B300B503120122DEB503120122FAB6031201B9
:1006C3002204B70312012239B80312012231B903FC
:1006D300120122C29403120122F295031201222570
:1006E30096031201226F9603120122369803120118
:1006F3002237D601120122A1D60112012200D8010C
:1007030012012210D8011201223DD80112012294B4
:10071300D8011201223DD90112012244DA0112014A
:10072300220EDB011201226EDC01120122B1DC0177
:1007330012012256DD01120122A3DD01120122C999
:10074300DD01120122D7DF01120122DCDF011201D8
:1007530022E1E1011201222EE201120122A1E201B2
:10076300120122D4E20112012276E3011201221FB7
:10077300E40112012257E4011201225AE401120199
:1007830022A2E401120122E2E40112012239E5016D
:10079300120122BBC803120122D3C8031201221B78
:1007A300C90312012231C90312012278C9031201BC
:1007B300228CCA0312012219CB0312012264CB0338
:1007C300120122DC4A00120122E84A00120122230C
:1007D3004B00120122684B00120122284C00120127
:1007E30022AE4C00120122134D001201223F4D0094
:1007F300120122784D00120122B64F001201229AF3
:100803005100120122805300120122C3540012012D
:10081300221157001201222358001201226E59009F
:100823001201227E5A001201229B5A00120122D683
:100833005A00120122F85A001201225B5B001201D6
:10084300221C6000120122B1600012012202610029
:100853001201222961001201227B610012012299F7
:100863006100120122F36100120122DC6200120115
:1008730022526400120122D664001201227BA803D3
:1008830012012285A803120122C8A803120122E340
:10089300A80312012273A9031201229BA9031201C7
:1008A30022D8A9031201220FAA0312012238AA0394
:1008B300120122ADAA03120122C2AA03120122D7F6
:1008C300AA0312012208AB031201221CAB0312017B
:1008D3002241AB031201227BAB03120122A7AB031C
:1008E300120122DFAB031201225EAC03120122A725
:1008F300AC03120122D1AC03120122FCAC0312019E
:1009030022BEDA03120122D2A90212012200AA0294
:100913001201224EAB021201222EAC021201224D11
:10092300AC02120122CAAC021201220DAD02120165
:100933002263AE0212012224AF02120122ABB102E2
:100943001201224CB20212012242B3021201223FCF
:10095300B40212012299B50212012224B602120135
:100963002206D7031201226FD703120122C3D70332
:10097300120122EAD7031201221BD80312012224F7
:10098300AD0312012291AD03120122D8AD0312016E
:1009930022F0AE03120122ECAF03120122CFB00307
:1009A300120122BCEA02120122FEEA02120122D043
:1009B300EB02120122A9EC02120122A3ED021201A1
:1009C3002285EE02120122EEEE02120122A4EF02B0
:1009D30012012218F00212012284F002120122AD48
:1009E300F00212012227F102120122C0F1021201C8
:1009F3002225F2021201223AF20212012280F202AD
:100A030012012299F202120122FEF20212012201C4
:100A1300F302120122E9C20312012211C3031201DC
:100A2300224FC3031201220DC40312012274C40313
:100A330012012290C403120122B8C403120122E856
:100A4300C403120122F7C40312012274C503120165
:100A5300229AC50312012230C601120122CEC70118
:100A6300120122E9C90112012225CA0112012252EF
:100A7300CA0112012237CB011201227ECB011201DE
:100A830022C2CB01120122D4CB0112012214CC01C8
:100A930012012241CC011201228CCC01120122CC81
:100AA300CC01120122FACC011201224CCD01120118
:100AB30022DCCD011201227AD00112012290D2014F
:100AC300120122CED2011201225FD401120122A40B
:100AD300D4011201221BD50112012265D501120195
:100AE3002290D50112012243E102120122C2E10246
:100AF30012012284E70212012293E802120122FB6F
:100B0300E90212012292EA021201223D650012015A
:100B130022866500120122B36500120122E66500F8
:100B2300120122F36500120122FF65001201221156
:100B33006600120122F866001201225667001201B4
:100B4300228B6700120122CE68001201221B69006A
:100B53001201223F6900120122AC69001201226ACC
:100B63006A00120122236B00120122906B00120112
:100B730022426C00120122526C00120122D96C0035
:100B8300120122986D00120122C56D001201223E4E
:100B93006E001201229B6E00120122E56E0012010B
:100BA300227B6F00120122467000120122FB7000AB
:100BB300120122707100120122D171001201223B35
:100BC30072001201227472001201221673001201C4
:100BD300222674001201226674001201228374001B
:100BE300120122A27400120122E974001201220EE2
:100BF30075001201223B7500120122B57500120126
:100C030022F675001201221A7700120122CA770018
:100C13001201222178001201228B7800120122A4F2
:100C2300780012012279D702120122CCD7021201D5
:100C330022D8D702120122ADD802120122D4D8023F
:100C43001201220FD9021201227BD902120122B70B
:100C5300D902120122F0D90212012208DA0212018A
:100C6300225DDA0212012276DA02120122BFDA02CF
:100C7300120122D2DA02120122ECDA02120122025A
:100C8300DB0212012235DC021201227CDD02120199
:100C9300227EDE0212012278DF02120122F97F0096
:100CA3001201229B9C02120122CB9C02120122936D
:100CB300A002120122EAA102120122B3A20212012E
:100CC3002233A40212012204A50212012241A50229
:100CD30012012264A502120122A2A502120122AB73
:100CE300A502120122F5A502120122FFA50212019B
:100CF30022A9A60212012282A702120122D6A7026A
:100D030012012238A8021201228BA802120122BA70
:100D1300A802120122F7A80212012240A401120123
:100D230022A7A701120122ADA7011201222FAD01B3
:100D3300120122A8B1011201227EB50112012290F3
:100D4300BC0312012206BD031201221CBD031201C2
:100D5300225DBD0312012297BD0312012210BE03BF
:100D63001201224BBE03120122BEBE03120122FC5A
:100D7300BE0312012205BF0312012211BF03120198
:100D8300222DBF0312012258BF031201226EBF039B
:100D9300120122B2BF03120122B8A303120122CB14
:100DA300A303120122E5A3031201220EA4031201DD
:100DB3002251A40312012290A403120122CEA40300
:100DC30012012233A50312012248A5031201225363
:100DD300A50312012260A50312012277A5031201C4
:100DE3002285A50312012290A5031201229CA503CB
:100DF300120122AFA503120122BAA503120122DDBB
:100E0300A50312012284A60312012294A603120150
:100E130022AEA603120122CBA603120122E7A603E8
:100E23001201220CA70312012217A7031201222C7D
:100E3300A70312012240A703120122A1A703120153
:100E430022A7A703120122ADA703120122B3A7030E
:100E5300120122CBA703120122FEA7031201227162
:100E63008E02120122F58E02120122A48F021201B8
:100E730022039102120122249302120122109402EE
:100E830012012245940212012267940212012216D2
:100E930095021201220E97021201223797021201C4
:100EA30022C99702120122FB97021201220898021B
:100EB3001201225F9802120122859802120122F286
:100EC3009A02120122F59B021201224D9C02120189
:100ED300220080021201220A8102120122F1810200
:100EE300120122FB81021201221D82021201222918
:100EF3008202120122C28302120122F18302120131
:100F0300220D8502120122668502120122CC86027D
:100F1300120122AB870212012207880212012274F6
:100F23008802120122AF8802120122EE8802120106
:100F330022A78B02120122C18B021201224D8C02C5
:100F43001201225B8C02120122B48C02120122C212
:100F53008C02120122358D02120122998D02120197
:100F630022E38D0212012211C20212012233C202B4
:100F730012012259C4021201226EC70212012286F3
:100F8300C80212012239C9021201221BCA0212012C
:100F93002261D50312012286D503120122F8D5035B
:100FA300120122008003120122098003120122127E
:100FB3008003120122E980031201229A82031201A3
:100FC30022D082031201220A8303120122408303E7
:100FD3001201227A8303120122AE8303120122DA61
:100FE30083031201222384031201225D840312016D
:100FF30022A68403120122FE8403120122338503F5
:101003001201228E8503120122C8850312012219BF
:1010130086031201224F86031201228986031201DD
:1010230022B78603120122DA86031201226CDE0341
:1010330012012298DE03120122F3DE03120122FDC4
:10104300DE031201220DDF031201229BD9031201D9
:1010530022ABD903120122FDD90312012294DA0330
:10106300120122A5B602120122BAB60212012216F9
:10107300B70212012281B702120122C9B70212017B
:101083002233B80212012262B8021201223FBC02CB
:101093001201224DBC02120122AFBC02120122ED49
:1010A300BC0212012208BD02120122A3BD021201D9
:1010B3002248BE02120122CBBE0212012204BF0249
:1010C3001201228FBF02120122E6BF021201224542
:1010D300C00212012257C0021201227DC002120176
:1010E3002286C002120122DAC10212012261D80350
:1010F3001201223FD9031201228ECB03120122D304
:10110300CB0312012219CC03120122E2CD031201F7
:10111300225AE00312012275E00312012285E00343
:1011230012012217DF0312012225F30212012245C5
:10113300F302120122BBF40212012209F502120189
:101143002229F50212012291F50212012213F6025D
:1011530012012259F602120122E5F6021201222E91
:10116300FB0212012226CE0312012257CE031201E3
:101173002281CE031201224CCF03120122AACF03F4
:10118300120122B48E03120122D98E0312012211FD
:101193008F03120122BADF03120122B02D001201C4
:1011A30022C930001201227B32001201221F3300B8
:1011B300120122C23300120122793400120122A843
:1011C3003400120122663900120122FD3900120196
:1011D30022393B00120122A13B00120122553C009F
:1011E3001201220B3F00120122453F00120122AFE0
:1011F3003F001201220D40001201226B4000120138
:1012030022C84000120122B74100120122FD410011
:10121300120122424200120122654200120122A859
:101223004300120122BC4300120122C544001201F3
:10123300220445001201223045001201227F45009D
:10124300120122A04500120122DE450012012225CF
:1012530048001201226648001201220449001201CB
:10126300226F4900120122A84A00120122D7DB0390
:10127300120122E8DB03120122E2C503120122ADAF
:10128300C8031201222EE2031201229CDD03120184
:1012930022ACDD03120122C9DD0312012269DE0340
:1012A300120122E2BF031201228CC003120122CEDB
:1012B300C203120122ADD303120122DDD3031201B3
:1012C300224DD403120122A9D40312012224D503EF
:1012D30012012291B103120122A9B10312012215B5
:1012E300B303120122DAB303120122F5B30312018D
:1012F3002215B40312012263B4031201227DB40345
:1013030012012297B403120122ADB403120122CCBD
:10131300B403120122EDB40312012218B503120122
:10132300226DB503120122E29E03120122049F03E0
:10133300120122999F0312012297A003120122583E
:10134300A30312012213D0031201227AD003120144
:101353002225D1031201229BD1031201223BB9039F
:101363001201226EB90312012274BA03120122C9B7
:10137300BB0312012217F501120122F3F501120139
:10138300223AF60112012277F601120122E5F60153
:101393001201223FF701120122AFF7011201228746
:1013A300F8011201227AF901120122FEF901120158
:1013B30022A1FB011201222CFC01120122BCFC011F
:1013C30012012255FD011201226CFD01120122A717
:1013D300FE01120122FDFE01120122E99001120118
:1013E300228D95011201227E9801120122A79801F4
:1013F300120122D098011201228299011201226066
:101403009B01120122B29C01120122F9A1011201D6
:101413002232A20112012276A20112012282A30129
:101423001201227A8703120122CF88031201225567
:101433008B03120122088C031201220B8C0312016D
:1014430022438D03120122718D03120122E48D03C5
:10145300120122E99903120122399A031201225639
:101463009A031201223F9B03120122CC9B03120118
:10147300220D9D03120122A59E03120122CDB50167
:10148300120122DDBA01120122BCE103120122DCA6
:10149300E003120122EDE00312012286E1031201AF
:1014A30022E8E10312012210E203000022E0667049
:1014B3001008A3E066700A08A3E066700408A3E0BE
:1014C3006622C008C3E096F50808A3E09642080820
:1014D300A3E096420808A3E0964208A2D265D0335F
:1014E300E5087001D3D00822C3E7960809E79608F8
:1014F30009E7960809E79622C3E09608A3E0960851
:10150300A3E09608A3E09622C008C3E096F5080876
:10151300A3E096420808A3E096420808A3E0964594
:10152300087001D3D00822080808E630E711121D1D
:10153300E4121542080808C64480C6181818221871
:101543001818E9799EC608CAC608CBC608CCC6C314
:1015530070207996CACBCC7019798ECBCC70137965
:1015630086CC700EF9802ACA33CACB33CBCC33CCAA
:10157300331930E7F2CCCBCA3350147004EA30E0AD
:101583000DE4CA3ACACB3BCBCC3CCC500209C3E9ED
:1015930013C6CC182313C6CB18C6CA18C6F9221211
:1015A30015E220F01430E72B74FFFCFBFA747F8004
:1015B30022E4FCFBFA7480801AB48008BC00F2BBFE
:1015C30000EF800F50EBF9E4C39AFAE49BFBE49C31
:1015D300FCE499C6CC18C6CB18C6CA18C6F922E4CF
:1015E300C9C608CAC608CBC6D3330308CCC63392D0
:1015F300F0C3947F402E94184019C9B90704CACB8D
:10160300CC225025C309CA33CACB33CBCC33CC331A
:10161300D9F422F4600DC9CCC313CB13CBCA13CABC
:10162300D9F6CC22E4FCFBFA2214FCFBFA22E626D0
:1016330018461846184622E727194719471947221B
:10164300181818E60846087009E626087005E633F8
:10165300F4220822191919E70947097009E727092C
:101663007005E733F4220922E6084608C313460847
:10167300336002E633F422E7094709C3134709330A
:101683006002E733F42212166B602512167A60208B
:10169300121631700302163A080808E7667010182C
:1016A30019E766700A1819E76670041819E76622C5
:1016B300F42212166B601C12167A60171216317020
:1016C3000712163A7001D322C0D012163A7006D010
:1016D300D0B322C32233D0D0501430E0F6C3E79600
:1016E3000809E7960809E7960809E796B32220E078
:1016F300D5E6970809E6970809E6970809E697B338
:101703002212166B601B12167A60161216317007BE
:1017130012163A600CB322C0D012163A7005D0D01C
:1017230022C32233D0D0501330E0EBC3E79608092D
:10173300E7960809E7960809E7962220E0E4E6978A
:101743000809E6970809E6970809E69722001216A2
:101753006B604F12167A6012E7548066F6121643D6
:10176300701112163A703B090909F4F618F618F6C7
:1017730018F622121657701512163108080860EA77
:10178300E6447FF618768018E4F618F6221216312E
:10179300601612163A7012E4F608F608F608E654D4
:1017A30080F609090918181822EAC0E0EBC0E0EC3A
:1017B300C0E0EDC0E0E687F0A4FBACF008E687F0FC
:1017C300A42CFCE435F0FA1809E687F0A42C4B604E
:1017D300027401CA35F0FCE433FB09E687F0D2F763
:1017E300A42CCB35F0FC1908E687F0A42BCC35F0FC
:1017F300FBE433FD0819E687F0D2E7A42C4ACB3586
:10180300F0CD3400FC09E687F0D2E7A42DCC35F007
:10181300FDE433FA0918E687F0D2F7A42CCD35F0AE
:10182300CA3400FC08E687F0D2E7D2F7A42ACC3505
:10183300F07A7E20E70B0ACB33CBCD33CDCC33CC40
:1018430033CB3350147004ED30E00ED2F1E4CD3DD0
:10185300CDCC3CCC3B5005DA05C2F1EB547FC6330B
:1018630008E63392F0FBE73309E733C39A502D2B95
:1018730070190C0D4C4D70151806E608C333700D26
:1018830020F10AA2F013F6E418800B4024E4F630AA
:10189300F002768018F618F618F68024D33B14501D
:1018A3001074FFA2F013F6187680E418F618F68089
:1018B3000FA2F013F618E63303F618ECF618EDF65C
:1018C300D0E0FDD0E0FCD0E0FBD0E0FA2212167AA3
:1018D300604612166B603DE9687008F618F618F654
:1018E30018F622748067F7121904090909748067CE
:1018F300F72212166B601D12167A700519191980DA
:101903001A121643701F121657C37003E667331972
:10191300191940071818182208080874FFF618F652
:1019230018F618F622121657601712163A702192FB
:10193300F01216317019501720F01408080809091D
:1019430009E7F61819E7F61819E7F61819E7F62262
:1019530012163160E6E869701F0808E62480F6086D
:10196300E436F618547FB47F0CE654806007F6E43F
:1019730018F618F622181822E9C6CC08C6CD08C6F0
:10198300CE08C6CFC0E0E8C0E0EAC0E0EBC0E009A3
:10199300E9F809E7FA09E7FBE6F918E6F8C3EC9872
:1019A300ED99EE9AEBC2E7F5F0EFC2E795F0500E32
:1019B300600CEBCFFBEACEFAE9CDF9E8CCF8EAA26A
:1019C300E7D2E7FAEB33FB13F5F0EEA2E7D2E7FE3B
:1019D300EF33FFC5F013A2E730E601B313C5F0C33D
:1019E300C0E0C0F07F00C39BFB605E9418600F40B3
:1019F3001D14601AD0E023F9D0E0F8021AD68AF059
:101A0300E9486003D2F0E4AFF0FAF9F8803BEB3039
:101A1300E40D89F0EA6003D2F0E4AFF0F9CAF8EB21
:101A230030E30D88F0EF6002D2F0AFF0E4CAC9F8FA
:101A3300EB54076014FBC3EA13FAE913F9E813F84C
:101A4300EF135002D2E0FFDBEDD0E0C0E030E73926
:101A5300C3E49FFFF5F0EC98FC42F0ED99FD42F0F2
:101A6300EE9AFE42F0D0E0F9D0E0F8E5F0607AE9D2
:101A730023F9EE20E742D8028067C3EF33FFEC334C
:101A8300FCED33FDEE33FE80EAEC28FCED39FDEE90
:101A93003AFED0E023F9D0E0F84002801BC3EE13F6
:101AA300FEED13FDEC13FCEF135002D2E0FF08B878
:101AB30000067F7F74FF802EEF3350178CF020F0E9
:101AC3000260100CBC000C0DBD00080EBE00040823
:101AD300E860DFE933E813FFEE2313FE4F4D4C803C
:101AE30008E95480FFE4FEFDFCEE33EF33F47004A9
:101AF300FCFD7E80D0E0FBD0E0FAD0E0F8D0E0CF70
:101B0300C618CEC618CDC618CCC6F92212166B70ED
:101B1300041818182212167A700D74FFF61819F6A5
:101B23001819F61819F622E7548066F61216317062
:101B33000F12163A70F014F608F608F608F680D17C
:101B430012163A700CF608F608768008E6447F8091
:101B5300EC12165A700C12164660BFE65480F6E477
:101B630080BB121646700519191980A5E869700C17
:101B7300763F18768018F618F6E8F922E6CDC0E02D
:101B830018ECC0E0E633CD33CDD313F6E719FCE709
:101B9300191933CC33C3947F400ECD9D502408E6EE
:101BA3005480F6E418F6800FF4043D14501408E64C
:101BB300447FF6187680E418F618F6D0E0FCD0E0FF
:101BC300FD22CCD313CCFD18E4C6CBC0E018E4C689
:101BD300CAC0E00808ED08C633E613F618E433C6B6
:101BE30075F003C3CA97CA09CB97CB199C40047DF0
:101BF30008802EBD0003021CB816B6FF05060608B2
:101C03001618C3CA33CACB33CB33CA27CA09CB3757
:101C1300CB193CC37D08803E187D0820E75CC633A2
:101C2300C6CA33CACB33CB33DDF1D5F0EB30E77B18
:101C3300CA97CA09CB974ACB199C406F4B7025E6CC
:101C430020E0218066187D08C3CA97CA09CB97CBC9
:101C5300199CD3C633C6CA33CACB33CB3350C9DD81
:101C6300E7D5F0E1D3E4C636C608C636C608C6369D
:101C7300C608C636C61818188031C3CA97CA09CB16
:101C830097CB199CB34097C633C6CA33CACB33CB61
:101C930033DD34D5F02EC6A2E0C640C8CA27CA0930
:101CA300CB37194A70BECB3CB480B90808E6330879
:101CB300E633601F181818D0E0FAD0E0FBD0E0FC40
:101CC300D0E0FD22187D08CA27CA09CB37CB193CBF
:101CD300D3808013F618E4B67F11F618B6FF0EF61C
:101CE30018C60470D20808768080CAF618F618F66B
:101CF30080C5080808EAC0E0EBC0E086F0E7A4FA74
:101D0300180986F0E7A42AFA180986F0E7A42AFA44
:101D1300180986F0E7A42AFA1986F0E7A4FBE5F090
:101D23002AFA190886F0E7A42BFBE5F03AFA19081A
:101D330086F0E7A42BFBE5F03AFA18180986F0E7DA
:101D4300A4C5F02BFBE43AFA1908E7C5F0C6A426AC
:101D5300F6E5F03BFBE43AFA1886F0E7A4F6E5F083
:101D63000826F6E43B08F6E43A08F6D0E0FBD0E0B8
:101D7300FA22E4CFC0E0E4CEC0E0E4CDC0E0E4CC9E
:101D8300C0E075F020E626F608E633F608E633F6FB
:101D930008E633F6181818EC33FCED33FDEE33FE8A
:101DA300EF33FFC3EC9709ED9709EE9709EF971906
:101DB3001919400FFFEC97FC09ED97FD09EE97FE0B
:101DC300191906D5F0BFECF709EDF709EEF709EF9E
:101DD300F7191919D0E0FCD0E0FDD0E0FED0E0FF08
:101DE30022181818E4C396F608E496F608E496F663
:101DF30008E496F6226016080808C6C313C618C678
:101E030013C618C613C618C613C6D5E0EA2270094E
:101E1300080808226016181818C6C333C608C63344
:101E2300C608C633C608C633C6D5E0EA22E627F697
:101E33000809E637F60809E637F60809E637F62211
:101E4300E026F608A3E036F608A3E036F608A3E09A
:101E530036F622E026F008A3E036F008A3E036F0D9
:101E630008A3E036F022C3E697F60809E697F608DA
:101E730009E697F60809E697F622C3E096F008A369
:101E8300E096F008A3E096F008A3E096F022E0566F
:101E9300F608A3E056F608A3E056F608A3E056F6C4
:101EA30022E056F008A3E056F008A3E056F008A39A
:101EB300E056F022E0F608A3E0F608A3E0F608A354
:101EC300E0F622E6F008A3E6F008A3E6F008A3E6AE
:101ED300F022E0FAA3E0FBA3E0FCA3E0FD22EAF09A
:101EE300A3EBF0A3ECF0A3EDF022E0F8A3E0F9A359
:101EF300E0FAA3E0FB22E8F0A3E9F0A3EAF0A3EB06
:101F0300F022CAC0E0E6F0A308DAFAD0E0FA22CA67
:101F1300C0E0E0A3C582CCC582C583CDC583F0A351
:101F2300C582CCC582C583CDC583DAE6D0E0CA229B
:101F3300C3E498F8E499F9121F748026C3E49AFA6B
:101F4300E49BFBE920E7E9121F74E498F8E499F9AC
:101F530022C3E498F8E499F9121F74E498F8E49919
:101F6300F9C3E49AFAE49BFB22EB20E7CFE920E7ED
:101F7300E0B90010BB0008E88AF084F8AAF022E474
:101F8300FBC8FA22EB70227B10C833C8C933C933AC
:101F93005007C39AC3DBF280069A50012ADBEAC8D2
:101FA30033F4C8C933F4C9FA2275F008E4C833C856
:101FB300C933C933C99AC99B5004C92AC93BD5F04F
:101FC300ECFBC833F4C8E4C9FA22600D08C6A2E7E3
:101FD30013C618C613C6D5E0F322600C08C6C31394
:101FE300C618C613C6D5E0F422700422600D18C6C5
:101FF300C333C608C633C6D5E0F41822251810AF7C
:1020030008F518400C15198008F51840021519D267
:10201300AF2200C0D0251810AF08F518500C0519D1
:102023008008F51850020519D2AFD0D0222518F533
:102033008210AF08F518400C15198008F5184002F6
:102043001519D2AF851983222518F582E43519F5C0
:1020530083222518F8E43519F9222518FAE43519ED
:10206300FB222518FCE43519FD22E4732518C582EB
:10207300C0E0E51934FFC583C0E0E518C3958224A9
:10208300F810AF0885831985821880088583198520
:102093008218D2AFCEF0A3E520F0A37808E608F0CB
:1020A300A3DEFAEFF0A3E58124FAF8E608F0A3E64D
:1020B30008F0A3E608F0A30808E608F0A3E608F092
:1020C300A315811581D0E0FED0E0F81581158115A7
:1020D30081E8C0E0EEC0E0222518C582C0E0E51922
:1020E30034FFC583C0E0E518C3958224F910AF0817
:1020F3008583198582188008858319858218D2AF54
:10210300CEF0A3E520F0A37808E608F0A3DEFAEF0B
:10211300F0A3E58124FBF8E608F0A3E608F0A308A2
:1021230008E608F0A3E608F0A315811581D0E0FEC8
:10213300D0E0F815811581E8C0E0EEC0E0228519F2
:1021430083851882E0A3FEE0A3F5207808E0A3F6D8
:1021530008DFFAE0A3FFE0A3C0E0E0A3C0E0E0A350
:10216300C0E0E0A3C0E0E0A3C0E010AF08858218A0
:102173008583198008858218858319D2AFD083D0CF
:102183008202011F851983851882E0A3FEE0A3F56F
:10219300207808E0A3F608DFFAE0A3FFE0A3C0E09D
:1021A300E0A3C0E0E0A3C0E0E0A3C0E010AF088577
:1021B30082188583198008858218858319D2AFD048
:1021C30083D08222C0D02518C582C0E0E51934FF30
:1021D300C583C0E0E518C3958224F310AF08858357
:1021E300198582188008858319858218D2AFC8F0B3
:1021F300A3E9F0A3EAF0A3EBF0A37908E709F0A3BE
:10220300D8FAECF0A3EDF0A3EEF0A3EFF0A3D0E047
:10221300F0A3D0E0F0A3D0E0F0A3E520F0A3E5F035
:10222300F0A322851983851882E0C0E0A3E0F9A317
:10223300E0FAA3E0FBA37808E0F608A3DFFAE0FCEA
:10224300A3E0FDA3E0FEA3E0FFA3E0C0E0A3E0C0A2
:10225300E0A3E0F5D0A3E0F520A3E0A3F5F010AFF1
:10226300088583198582188008858319858218D289
:10227300AFD082D083D0E0F8D0E03274048006740B
:102283000280027401C0E0F404122030D0E0121F77
:1022930005227404800474028000CCC0E0EDC0E029
:1022A300E518C39CCCAD1950011D10AF068C188DD9
:1022B3001980068C188D19D2AF121F12D0E0FDD0F1
:1022C300E0FC22D083D082E9C0E0E493A3C386F08C
:1022D300C5F095F0F908E493A386F0C5F095F07086
:1022E3000BE493A3C3994005E9048002A3E475F0CA
:1022F30002A42582F582E5F03583F583D0E0F9E485
:1023030093A3C0E0E493C0E022D083D082ECC0E08A
:10231300EDC0E0E493A3FCE493A3FDED4C600D1248
:102323002358EC24FFFCED34FFFD80EFE493A3FC82
:10233300E493A3FDED4C600D122397EC24FFFCED19
:1023430034FFFD80EFD0E0FDD0E0FCE493A3C0E0D8
:10235300E493C0E022C0E0C3E4939608740193962B
:1023630018400FE4936670080874019366187000B0
:102373007019A3A3C3E49396087401939618A3A3B7
:10238300400DD0E0D0E0D0E0022348A3A3A3A3A351
:10239300A3D0E022C0E0C0F088F0E49366700808A0
:1023A30074019366187000A8F0A3A3700BD0F0D04B
:0F23B300E0D0E0D0E0022348A3A3D0F0D0E02296
:1023C40074F51220DBEAFEEBFFEE2434F8EF340060
:1023D400F988088909EE24351224F0F8EE2437121E
:1023E40024F0F50AEC850AF0A4FCAAF0850AF0EDC5
:1023F400A42AFDE82CF8E43DF97A257B00121F7429
:10240400EA850882850983F074075AF87401B800D4
:10241400028004C333D8FCFBEA131313541FF8EEF1
:1024240028F8EF3400F9E8245DF582E91224F35B1F
:102434006003EA801CEE24361224F0F5F0EA84A846
:10244400F0EE28F8EF3400F9E82438F582E9122494
:10245400F3F97F0402218774F51220DBEAFEEBFF17
:10246400EE24341224F0C0E0EE2435F582EF34007B
:10247400F583D0E0F08E828F83A3A3A3A3A3E0FA15
:10248400A3E0FB8E828F83A3A3A3A3A3A3A3E0FC57
:10249400A3E0FDECC39AF50AED9BF50BEE247FF562
:1024A40008EF3400F509850882F583E06401702B98
:1024B400EE2480F582EF3400F5831222991224F978
:1024C4007402122015E960137CDC7D04EEFAEFFB44
:1024D400120BC5850882850983E4F0AC0AAD0BEEC6
:1024E400FAEFFB1223C4122D1F022456F582EF3497
:1024F40000F583E022C082C083851882851983E0B9
:10250400F8A3E0F9C3EA9CEB9D5010C3EC98ED9955
:10251400401BC3EA98EB995014800EC3EA98EB99D8
:102524004007C3EC98ED994004790180027900D00A
:1025340083D08222EAC39CFAEB9DFB2274ED122025
:10254400DB9003A2E064086005E06407702C9061EE
:10255400C8E060269003D0E0F874FF68601CE8755A
:10256400F003A4C8AAF02AF974D228FE740339FF30
:102574008E828F83A3A3A3E0700579000226E0EE88
:102584002468F510EF3400F511906060E085108246
:10259400851183F0750A45750B05750800750900EA
:1025A400E5D914F50EE5D95403F50F601CEE248229
:1025B400F50CEF3400F50D7403650F6058E50E60FB
:1025C40013EE24671224F0700B793DEEFAEFFB1240
:1025D4000BE980A6900540E064016026850C8285A5
:1025E4000D83E06004780480027800850E08E50815
:1025F400C398FA95E0FB120A698A088B09EA45092F
:102604007006120E4102257E850C82850D83E070D2
:10261400048A0A8B0B78008016E5D9C0E08812E59D
:102624000A2512F582E50B3400F583D0E0F008E8C2
:10263400C3950E40E4850C82850D83E0602874FC0C
:10264400250EF50E780A122282AC0EA90FEEFAEFCF
:10265400FB120C977402122015E9700AAA08AB0940
:1026640012134B0225CD7403650F6058850E0C754B
:102674000D00780C122282AC0AAD0BAA08AB091229
:102684000C5B7402122015851082851183E0F874A6
:1026940080687005750C7F8002880CE50CF50A785B
:1026A4000A122286E50FF50A780A122286A90EACD0
:1026B40008AD099003D0E0FA7B00120901740212FC
:1026C400201580139003A2E06408600BAC0AAD0BE4
:1026D400EEFAEFFB120D2D120E4D79017F0C022143
:1026E4008774F31220DB74FC121FFFEAFEEBFF89F0
:1026F40008A2AFE433F509C2AFEE2463F50AEF3460
:1027040000F50B8010AA0AAB0B120C1312134B909A
:1027140004E3E004F0850A82850B83E0F8A3E0F982
:10272400E849602FE82402FAE93400FBEA2402F5C0
:102734000CEB3400F50D780C1222828A828B83E034
:10274400FCA3E0F9EEFAEFFB120C07740212201559
:10275400E960B29004E3E060579004E4E0F8900488
:10276400E3E0C398500C7402650870449004E5E0FB
:10277400603E8E828F83A3A3A3A3E085188285196C
:10278400831227C4740212204BE81227C49004E277
:10279400E028F0740212204BAC82AD838518828548
:1027A4001983AA82AB83790112090D9004E3E4F042
:1027B400E509A2E092AF74041220157F0602218776
:1027C400F0A3E4F09004E3E0F8220000852187857B
:1027D40022C622C0E074EF1221C7A2AFE433FEC2C6
:1027E400AF759B00906182E0A2E05012E591A2E0F7
:1027F400500C7591FE740165217003122540E0A20E
:10280400E55051E591A2E5504B7591DF9003A2E0AC
:1028140064076005E06408702374016521703579EC
:10282400019003D0E0FA75F003A4CAA8F028FB7461
:10283400D22AFA74033BFB1226E58018E0640D707B
:10284400139003C4E004F064287002E4F07A00E01A
:10285400F9120E53906182E0A2E640030228FEE5DD
:1028640091A2E640030228FE7591BF9003A2E064A2
:10287400057008120D6F120D7B8003120D75752102
:1028840000120DE1E99003A3F07900120DD5120BAB
:102894002F7A017B009003A1E0F91210C390780312
:1028A400E064427055900544E014F0704DC2AF12DC
:1028B40028B600782AD0E0F618D0E0F6E59F540751
:1028C40070057509FF800375097FC4C0E07829E6A7
:1028D400F50808E65509F509740B7808121FDDD0D0
:1028E400E02508F8906270E0A2E740F8E8C333906E
:1028F4006272F0906270E0D2E0F0906181E0A2E355
:102904005009E5E9A2E3500375E9F7A3E0A2E75013
:1029140009E591A2E7500375917FEEA2E092AF7FA3
:1029240004022226C0E0C0D0C082C083906183E04C
:10293400A2E05009E5BFA2E0500375BFFEE0A2E1AA
:102944005009E5BFA2E1500375BFFDE0A2E25009C2
:10295400E5BFA2E2500375BFFBE0A2E35009E5BF67
:10296400A2E3500375BFF7E0A2E45009E5BFA2E477
:10297400500375BFEFE0A2E55009E5BFA2E550039F
:1029840075BFDFE0A2E65009E5BFA2E6500375BFBC
:10299400BFD083D082D0D0D0E032C0E074F2122114
:1029A400C7E5A7A2E4500FE5A1A2E4500953A7EF9D
:1029B40075A1EF1229F2E5A7A2E5500CE5A1A2E565
:1029C400500653A7DF75A1DFE5A7A2E15009E5A1F1
:1029D400A2E1500375A1FDE5A7A2E2500CE5A1A276
:1029E400E2500653A7FB75A1FB7F0102222674F86F
:1029F4001220DB7521019003A2E0640670077A00BF
:102A04007B00120D57A2AFE433FED2AF9003A8E0CF
:102A1400640170187A207B009003A1E0F912114D33
:102A24007A207B009003A1E0F91210C9906182E042
:102A3400D2E6F0900541E0602185C622801690031D
:102A4400A7E064017008E5C654F84405F5C653BE12
:102A5400FC1227D07401652160E4EEA2E092AF7FFE
:102A6400010221878E238F24858228858327851858
:102A740082851983E0CEA3E0CF852882852783EB66
:102A8400C9EAC8EDCBECCA75F010C3E833C8E93322
:102A9400C9EA33CAEB33CBC3EA9EF526EB9FF5258F
:102AA400B35004AB25AA26EC33CCED33CDD5F0DA04
:102AB400AE23AF242274F11220DB8A088B098C0A1E
:102AC4008D0B9090537808121E91740F12204B783E
:102AD4000C121EB7909053780C121E917808790C42
:102AE4001214EB90906350107808790C121E6978D8
:102AF4000812150B4014800E780C7908121E6978A0
:102B04000C12150B50047901800279007F08022110
:102B14008774ED1220DB8A088B098C0A8D0B909048
:102B2400537808121E91741312204B780C121EB79E
:102B3400909053780C121E91780C79081214EB4083
:102B4400117808790C121E69AA08AB09AC0AAD0BFE
:102B5400802275100075110075120075130178102C
:102B6400790C121E6978107908121E30AA10AB1164
:102B7400AC12AD137F0C0221879090537808121E7B
:102B8400B78A828B837808121EA47F04022187747B
:102B9400F51220DB8C828D837808121EB78A828B13
:102BA400837808121E7D122BE7C3E098F0A3E09906
:102BB400122BD9401E9090977808121EB78A828BE8
:102BC400837808121E568E828F83E02420F0A3E0BF
:102BD400344EF080A4F08E828F83C3E09420A3E06F
:102BE400944E22EA2404F8EB3400F9E8FEE9FF8C61
:102BF400828D83A3A3A3A3E0F8A3E0F98E828F833D
:102C04002274F51220DBE9FE9004F7E0FAA3E0FB5E
:102C1400EEC333F8E433F9741A28F582748F39F566
:102C240083E02AF508A3E03BF50978081222829094
:102C34009083121ED5122A6874021220158A088BFA
:102C4400098C0A8D0B74107808121DF8AA08AB09B8
:102C54007F0402218774F11220DB8A0C8B0D8C0E09
:102C64008D0F740F12204BE0FAA3E0FB74111220B5
:102C74004BE0F508A3E0F5097808122282EA240162
:102C8400F508EB3400F509E4F50AF50B780C79083E
:102C9400121CF590905F7808121EB7780C79081210
:102CA4001CF5AA0CAB0DAC0EAD0F122A68740212FF
:102CB40020158B09EA450960047A0180027A00EC48
:102CC4002AFCED3400FD741312204BE0F8A3E0F964
:102CD400E8FEE9FFECF8EDF97A717B02121F7488C3
:102CE400088909E4F50AF50B8E828F837808121E91
:102CF400C6ECF8EDF97A717B02121F748A088B090D
:102D040074057808121FEC8E828F83A3A3A3A3E516
:102D140008F0A3E509F07F08022187C082C083E997
:102D2400906000F0D083D08222C2AF02000022C0A3
:102D3400E074F21221C7A2AFE433FED2AFE589A258
:102D4400E150031212CD758900C2C5EEF8EEA2E07F
:102D540092AF7F01022226C0E074F21221C7A2AF13
:102D6400E433FED2AFE58BA2E050031212CD758B93
:102D740000C2E8EEF8EEA2E092AF7F01022226C084
:102D8400E0C0D0E8C0E0E9C0E0A2AFE433F8D2AFDD
:102D9400C2C7E8F9E8A2E092AFD0E0F9D0E0F8D0F9
:102DA400D0D0E032FFFFFFFFFFFFFFFF74F01220DF
:102DB4006F74F8121FFF8A0E8B0FE9FF8C0C8D0DB8
:102DC4007E00850E08850F0978081222C6000410BB
:102DD4009530F82D1B2E3A2E5D2E802EA32ED42E48
:102DE400F72E0E2F3E2FF62F19303C306A309530D7
:102DF4009530672F74016F7019850C82850D83E0FF
:102E0400C39403500D850C82850D83E0900AFDF078
:102E140080027E180230BD74026F7015850C8285A5
:102E24000D83E0F8A3E0F9900AFEE8F0A3E9F0804E
:102E3400027E180230BD74016F7019850C82850DF5
:102E440083E0C39402500D850C82850D83E09007C6
:102E54006AF080027E180230BD74016F7019850C0F
:102E640082850D83E0C39405500D850C82850D8306
:102E7400E090076BF080027E180230BD74016F7021
:102E840019850C82850D83E0C39402500D850C8254
:102E9400850D83E090076CF080027E180230BD74CB
:102EA400106F70277508107509007808122282AC1B
:102EB4000CAD0D7A6D7B0712106974021220158A0D
:102EC400088B0985088285098380027E180230BD3B
:102ED40074016F7019850C82850D83E0C3940250D0
:102EE4000D850C82850D83E090077DF080027E18AD
:102EF4000230BD74016F700D850C82850D83E090E6
:102F04000B01F080027E180230BD74046F702690AD
:102F140090837808121EB7850C82850D8378081279
:102F240014FB5011850C82850D83121EED90077FD2
:102F3400121EF980027E180230BDEF70211206BB0A
:102F4400E97013121213E9F50879501213D5E9F553
:102F540009121201800A9008127401F080027E188E
:102F64000230BD74076F6003022FF17508067509FE
:102F7400007808122282850C82850D83A3AC82AD71
:102F840083740412205D12106F74021220158518C8
:102F940082851983EAF0A3EBF07C007D00740212B1
:102FA400205D850C82850D83E0F91211A7E9F50AED
:102FB400E50AC3940A50321206BBE97015A90A1235
:102FC4001219E9F50879501213D5E9F5091212011D
:102FD400801D850A0875090074132508F582740894
:102FE4003509F5837401F080067E0280027E1802A2
:102FF40030BD74016F7019850C82850D83E0C39414
:1030040002500D850C82850D83E090077EF08002CE
:103014007E180230BD74016F7019850C82850D8392
:10302400E0C3940A500D850C82850D83E0900B005B
:10303400F080027E180230BD74016F7025850C8209
:10304400850D83E0C394074019850C82850D83E0C8
:10305400C39411500D850C82850D83E0900B02F012
:1030640080577E18805374016F7022900811E0F528
:1030740008850C82850D83E0900811F0E50870390D
:10308400900811E064017031121201802C7E1880C6
:1030940028C3E50E9427E50F9400501B74026F704B
:1030A40016850C82850D83E0FCA3E0FDAA0EAB0F10
:1030B400120559E9FE80027E02EEF9740812201509
:1030C4007F0802214174F012206F74D7121FFFE9A8
:1030D400C0E0851882851983D0E0F0740112204B7A
:1030E400EAF0A3EBF08C0E8D0F9090207403122065
:1030F400657406121F127403122065740112204BAA
:10310400E0FAA3E0FB851882851983E0F91211A780
:10311400E9FEEEC3940A4003023256EEF91211E3BB
:10312400E9FF900AFDE064027004740180027400F7
:10313400F5087808122286743A12204BE0FDEFFC61
:10314400EEF9AA0EAB0F12125574011220157C145D
:103154007D007900741512205D1210818A088B0994
:1031640085080A85090B74151220657A1075F00616
:10317400EEA42424F91213CFE9703B7C1079FF7478
:103184001512205D1210E7E9702C742512204BAC47
:1031940082AD837A0475F006EEA42425F91213CFC8
:1031A400E9F5087415122065EFA2E0E433F9AA0EDC
:1031B400AB0F1205E3E974091220657A0C74702EC2
:1031C400F91213CFE97079740912205D1211D775C1
:1031D4000800E508C394045067E508F87900E87529
:1031E400F003A4C8AAF075F000A42AFA75F003E964
:1031F400A42AF9740912204BE58228F50CE58339D9
:10320400F50D850C82850D83E0F8A3E0F9E84960AB
:103214002B850C82850D83A3A3E0F50A750B00783A
:103224000A122282850C82850D83E0FCA3E0FDAAAC
:103234000EAB0F1208477402122015E9050880929C
:10324400EFA2E1500D900769E0F9AA0EAB0F120846
:103254004DE9743912204BE06404700F900AFDE0CC
:1032640064027007AA0EAB0F12124F790074291270
:1032740020157F0802214174F212206F890B8A08FD
:103284008B09ECFEEDFF750A0AE50B600B14600870
:1032940014604114605F807CAA08AB091211F5E93F
:1032A400F50AE50AC3940A506BEE4F6067750C0685
:1032B400750D00780C122282AC08AD09EEFAEFFB12
:1032C40012106974021220158A0C8B0D850C8285EC
:1032D4000D838040AA08AB091211EFE9F50AE50A4B
:1032E400C3940A502FEE4F602BEEFAEFFBA90A129B
:1032F40011E9E9801FAA08AB091211FBE9F50AE5F7
:103304000AC3940A500EEE4F600AEEFAEFFBA90AC4
:103314001211E9E9A90A7F0602214174F212206F11
:103324008A0C8B0DE9FF7E1574FF650C700474FF25
:10333400650D702A750800E508C3940A5014EFFC63
:103344007A027B00A9081211C5E960027E00050813
:1033540080E5EF60627A3D7B12120A4B8059AA0C19
:10336400AB0D120A2D8A088B0985080A85090BE51D
:103374000A450B60407C007D00E50A2405FAE4352B
:103384000BFB850A82850B83A3A3A3A3E0F9121187
:10339400A7E9F508E508C3940A500EEFFC7A027B0E
:1033A40000A9081211C5E97E00EF600BAA0AAB0B55
:1033B40012123D80027E14EEF97F0602214174F060
:1033C40012206F74FE121FFF851882851983EAF09C
:1033D400A3EBF08C0A8D0B741212204BE0F50EA3B4
:1033E400E0F50F7E15851882851983E064FF70046B
:1033F400A3E064FF701D7F00EFC3940A506BAC0E12
:10340400AD0FAA0AAB0BEFF91211CBE960027E00F3
:103414000F80E5851882851983E0FAA3E0FB120A80
:103424002D8A0C8B0D850C08850D09E5084509606E
:10343400367C007D00E5082405FAE43509FB85089F
:1034440082850983A3A3A3A3E0F91211A7E9FFEFDF
:10345400C3940A5014AC0EAD0FAA0AAB0BEFF912C9
:1034640011CBE97E0080027E14EEF974021220155D
:103474007F0802214174F712206FEAFEEBFF9007E8
:1034840083EEF0A3EFF0900769E0FC7D007A267BE1
:1034940000120559E9F508900769E0F91207C37F9E
:1034A4000102214174F212206F74EC121FFF8A0A88
:1034B4008B0B850A82850B83A3A3E024FA70030295
:1034C40038EC24FD70030237641470030235981439
:1034D400601024FD700302370C1470030237A70236
:1034E400395AAE0AAF0B900783E0F8A3E0F9E84934
:1034F4006066900783E0F8A3E0F5838882E0F8A390
:10350400E0F9E8496052EE240CF582E43FF583E0EB
:10351400F5087808122286EE240BF582E43FF58341
:10352400E0F98E828F83A3A3A3A3A3A3A3A3A3E001
:10353400FCA3E0FDEE2403FAE43FFB900783E0F8EC
:10354400A3E0F5838882E0F8A3E0F5838882122063
:103554006D740112201580398E828F83A3A3A3A3D7
:10356400A3A3A3A3A312229990077F121ED5120529
:10357400F57402122015E9601879018E828F83A3F5
:10358400A3A3A3A3A3A3A3A3E0FAA3E0FB1205EFC1
:10359400E902395AAE0AAF0B8E828F83A3E060032F
:1035A4000236BA8E828F83A3A3A3A3A3E0A2E04032
:1035B400030236BA90081DE0F8A3E0F9E849600375
:1035C4000236BA7C0E7D007900AA18AB191210815C
:1035D4008A088B09AA08AB09EE240CF582E43FF5AE
:1035E40083E0F8A3E0F9E849603675080675090038
:1035F4007808122282EE240CF582E43FF583E0245D
:1036040010FCA3E03400FD740212205D12106974F2
:10361400021220158A088B09850882850983804F48
:103624008E828F83A3A3A3E0FAA3E0FB120A2D8A60
:103634000C8B0D850C08850D09E5084509602D7571
:103644000C06750D00780C122282E5082405FCE4B2
:103654003509FD740212205D1210697402122015DE
:103664008A0C8B0D850C82850D83800302395A8E5A
:10367400828F83A3A3A3A3A3E0A2E25004D2F08089
:1036840002C2F0A2F0E433F87900740C12204BE08B
:1036940048F0A3E049F0EEFCEFFDAA18AB191211B3
:1036A400DDE970127A027B00900769E0F91210C319
:1036B400E9790002395C900783E0F8A3E0F9E8496E
:1036C4006043900783E0F8A3E0F5838882A3A3E036
:1036D400F8A3E0F9E849602D8E828F83A3E0FC799A
:1036E400018E828F83A3A3A3E0FAA3E0FB90078358
:1036F400E0F8A3E0F5838882A3A3E0F8A3E0F583D0
:10370400888212206D02395AAE0AAF0B900783E00B
:10371400F8A3E0F9E8496045900783E0F8A3E0F5F1
:10372400838882A3A3E0F8A3E0F9E849602F850A1F
:1037340082850B83A3E0FC79028E828F83A3A3A3EB
:10374400E0FAA3E0FB900783E0F8A3E0F583888226
:10375400A3A3E0F8A3E0F583888212206D02395A0E
:10376400850A08850B097C007D00E5082404FAE439
:103774003509FB850882850983A3A3A3E0F9121107
:10378400A7E9FEEEC3940A5017E508240AFCE435C1
:1037940009FD7A0475F006EEA42425F91213C9E98B
:1037A40002395AAE0AAF0B90077EE06018900B0006
:1037B400E0F98E828F83A3A3A3E0FAA3E0FB1205B2
:1037C400EFE902395A900AFDE0701579058E828F6F
:1037D40083A3A3A3E0FAA3E0FB1205EFE902395A9D
:1037E4008E828F83A3A3A3E0FAA3E0FB120A2D8A9F
:1037F4000C8B0D850C08850D098E828F83A3A3A3E2
:10380400A3A3A3A3E0A2E05071E50845096068857D
:103814000882850983A3A3A3A3E0605E8E828F83BD
:10382400A3A3A3A3A3A3A3A3A3E0F8A3E0F9E8C4D9
:10383400540FF87900E85401F8E95400F9E8A2E0DB
:103844004038740E122065E5082405FAE43509FBB6
:10385400850882850983A3A3A3A3E0F91211A7E92C
:10386400701879038E828F83A3A3A3E0FAA3E0FBED
:103874001205EFE902395A02395AEE2405FCE43FF5
:10388400FD850882850983A3A3A3A3E0F98E828F13
:1038940083A3A3A3E0FAA3E0FB121249900783E0F9
:1038A400F8A3E0F9E849603E900783E0F8A3E0F567
:1038B400838882A3A3E0F8A3E0F9E84960287C00A8
:1038C40079008E828F83A3A3A3E0FAA3E0FB900781
:1038D40083E0F8A3E0F5838882A3A3E0F8A3E0F5EE
:1038E40083888212206D806E1206BBE9706890088E
:1038F40012E06401701A121213E9FE9008127400A7
:10390400F07C0A7D0079007A137B08121081803CD8
:103914007E00EEC3940A50348E0875090074132592
:1039240008F58274083509F583E06401701BEEF92B
:10393400121219E9F88E0875090074132508F58226
:1039440074083509F5837400F00E80C6795012139B
:10395400D5E9FE121201790174141220157F0602B2
:10396400214174F312206F74F2121FFF8908EAFEDA
:10397400EBFF8C09AC18AD197A0E75F006E508A4B6
:103984002420F91213CFE970647C0679FFAA18ABDE
:10399400191210E7E97056740C12204BE0F8A3E0FA
:1039A400F9E8F50CE5096005EE420C8004EEF452EA
:1039B4000C850C0A750B00740C12204BE0650A7020
:1039C40004A3E0650B6022E50CF87900740C122066
:1039D4004BE8F0A3E9F0AC18AD197A0E75F006E5E2
:1039E40008A42420F91213C9E9790180027900742A
:1039F4000E1220157F0502214174F012206F74E627
:103A0400121FFF89098A0E8B0FECFEEDFF740C1256
:103A140020657A0E75F006E509A42420F91213CF67
:103A2400E96003023B2D7C0679FF740C12205D12C1
:103A340010E7E96003023B2DAC18AD197A0C7470E1
:103A44002509F91213CFE96003023B29750800AA7E
:103A540018AB191211D7E50E450F702E7C0C7900A6
:103A6400AA18AB191210E7E96003023B0F7C0C7D26
:103A7400007900AA18AB191210818A0A8B0B850AE7
:103A840082850B83750801023B0FAC18AD19AA0E91
:103A9400AB0F1211D18A0C8B0D850C0A850D0BE529
:103AA4000A450B7030EE4F601BAC18AD197A007BE1
:103AB400001211D18A0C8B0DA80CA90D880A890B50
:103AC400E849700479008063850A82850B83E50EDA
:103AD400F0A3E50FF0850A82850B83A3A3E0F879B0
:103AE40000EE687002EF696022EEC0E0850A82850C
:103AF4000B83A3A3D0E0F0EE4F700D850A82850BF3
:103B0400837400F0A37400F0750801E5086016AA38
:103B140018AB191211D7AC18AD197A0C74702509A9
:103B2400F91213C9E9790180027900741A12201577
:103B34007F0802214174F712206FEAFEEBFF7B003D
:103B4400EBC39404504EEBF87900E875F003A4C875
:103B5400AAF075F000A42AFA75F003E9A42AF9EC96
:103B640028F582ED39F583E06E7003A3E06F7021D0
:103B7400EBF87900E875F003A4C8AAF075F000A486
:103B84002AFA75F003E9A42AF9EC28FAED39FB8046
:103B9400070B80AC7A007B007F0102214174F7128D
:103BA400206F7F00EFC394044003023C50EFF87988
:103BB40000E875F003A4C8ACF075F000A42CFC7503
:103BC400F003E9A42CF9EA28F582EB39F583E0F453
:103BD400FCA3E0F4FDEFF87900E875F003A4C8AEA7
:103BE400F075F000A42EFE75F003E9A42EF9EA287E
:103BF400F582EB39F583ECF0A3EDF0EFF87900E80A
:103C040075F003A4C8ACF075F000A42CFC75F003A7
:103C1400E9A42CF9EA28F582EB39F583A3A3E0F4AF
:103C2400C0E0EFF87900E875F003A4C8ACF075F0D3
:103C340000A42CFC75F003E9A42CF9EA28F582EB26
:103C440039F583A3A3D0E0F00F023BA87F01022142
:103C54004174F012206F74F4121FFFEAFEEBFF8C24
:103C6400088D0990081DE0F8A3E0F9E849702CEEEE
:103C74004F6006E508450970057901023F01EEFA37
:103C8400EFFB1211F5E9900B03F0900B03E0C394E2
:103C94000A4008121207E9900B03F0900B03E0C3EB
:103CA400940A4003023EFF90081DE0F8A3E0F9E8FF
:103CB400496003023D4BEEFCEFFD7A0E75F0069071
:103CC4000B03E0A42420F91213C9E9F50B7C0C7D45
:103CD4000079FFAA18AB191210818A0C8B0D850C80
:103CE4000E850D0FAC18AD197A0C900B03E02470FF
:103CF400F91213C9E9F50A750C0E750D00780C124A
:103D04002282EEFCEFFD900B03E0F87900E875F0F9
:103D14000EA4C8AAF075F000A42AFA75F00EE9A45E
:103D24002AF9748528FA740739FB1210697402128F
:103D340020158A0C8B0DA80CA90D90081DE508F020
:103D4400A3E509F0023EFB90081DE0F8A3E0C824B7
:103D540006F582C83400F583E0F8A3E0F9E8496089
:103D64004390081DE0F8A3E0C82406F582C8340097
:103D7400F583E0FCA3E0FD7A1B75F006900B03E0ED
:103D8400A42421F91213C9E9F890081DE0F9A3E06D
:103D9400C92406F582C93400F5837400F0A37400C5
:103DA400F0023EFB90081DE0F8A3E0C8240AF58267
:103DB400C83400F583E0F8A3E0F9E84960439008CB
:103DC4001DE0F8A3E0C8240AF582C83400F583E0B6
:103DD400FCA3E0FD7A1B75F006900B03E0A42422FB
:103DE400F91213C9E9F890081DE0F9A3E0C9240AFF
:103DF400F582C93400F5837400F0A37400F0023E28
:103E0400FB90081DE0F8A3E0C8240CF582C8340038
:103E1400F583E0F8A3E0F9E849604390081DE0F871
:103E2400A3E0C8240CF582C83400F583E0FCA3E0C9
:103E3400FD7A1075F006900B03E0A42423F9121305
:103E4400C9E9F890081DE0F9A3E0C9240CF582C97A
:103E54003400F5837400F0A37400F0023EFB900874
:103E64001DE0F8A3E0C82408F582C83400F583E017
:103E7400F8A3E0F9E849606F90081DE0F8A3E0C8F2
:103E84002408F582C83400F583E0FCA3E0FD7A1031
:103E940075F006900B03E0A42424F91213C9E9F584
:103EA4000A90081DE0F8A3E0C82408F582C834008D
:103EB400F583E02410FCA3E03400FD7A0475F006D9
:103EC400900B03E0A42425F91213C9E9F890081D06
:103ED400E0F9A3E0C92408F582C93400F58374002D
:103EE400F0A37400F08010900811E0600312125BDC
:103EF40012124379018006790080027901740C1250
:103F040020157F0802214174F712206F74F2121FEA
:103F1400FFE9FEAC18AD197A0E75F006EEA4242064
:103F2400F91213CFE9700E740C12204BE0F8A3E0E1
:103F3400F9E8F980027900740E1220157F0102213C
:103F44004174F412206F74F2121FFF8909EAFEEB28
:103F5400FFE509C3940A5004EE4F700479028041CE
:103F6400AC18AD197A0E75F006E509A42420F912EF
:103F740013CFE9F508E5087026750A06750B007875
:103F84000A1222827402122065EEFAEFFB12106903
:103F940074021220158A0A8B0B850A82850B83A969
:103FA40008740E1220157F0402214174F412206F4C
:103FB400EAFEEBFF750800E508C3940A5044750A4D
:103FC40006750B00780A122282EEFCEFFDE508F874
:103FD4007900E875F00EA4C8AAF075F000A42AFAD6
:103FE40075F00EE9A42AF9748B28FA740739FB12C8
:103FF400107B7402122015E96004A90880060508E4
:1040040080B5790A7F0402214174F412206FEAFE1C
:10401400EBFF750800E508C3940A5044750A067559
:104024000B00780A122282EEFCEFFDE508F8790015
:10403400E875F00EA4C8AAF075F000A42AFA75F089
:104044000EE9A42AF9748528FA740739FB12107B47
:104054007402122015E96004A9088006050880B5D9
:10406400790A7F0402214174F712206F74F0121F41
:10407400FFEAFEEBFF750800E508C3940A5039AC6B
:1040840018AD197A1075F006E508A42423F9121363
:10409400CFE970207C1079FFAA18AB191210E7E958
:1040A4007012EEFCEFFDAA18AB191205C5E97004F5
:1040B400A9088006050880C0790A74101220157FAB
:1040C4000102214174F412206F750800E508C394BD
:1040D4000A40030241A6E508F87900E875F00EA449
:1040E400C8AAF075F000A42AFA75F00EE9A42AF91A
:1040F400748528FC740739FD7A0E75F006E508A46A
:104104002420F91213CFE970030241A17C067D003B
:1041140079FFE508FA7B00EA75F00EA4CAA8F075E9
:10412400F000A428F875F00EEBA428FB74852AFA95
:1041340074073BFB1210818A0A8B0BAE0AAF0B7C0F
:10414400067D0079FFE508FA7B00EA75F00EA4CA43
:10415400A8F075F000A428F875F00EEBA428FB7401
:104164008B2AFA74073BFB1210818A0A8B0BAC0A68
:10417400AD0BE508F87900E875F00EA4C8AAF0754F
:10418400F000A42AFA75F00EE9A42AF9749128F52E
:1041940082740739F5837400F0A37400F0050802F3
:1041A40040D0900811E0600312125B1212437F04A6
:1041B40002214174F712206F7E00EEC3940A50323C
:1041C4007C0679FFEEFA7B00EA75F00EA4CAA8F02B
:1041D40075F000A428F875F00EEBA428FB74852A6A
:1041E400FA74073BFB1210E7E96004EEF980050E50
:1041F40080C8790A7F0102214174F712206F7E0082
:104204007F00EFC3940A502F7C0679FFEFFA7B00FE
:10421400EA75F00EA4CAA8F075F000A428F875F0A9
:104224000EEBA428FB74852AFA74073BFB1210E7F3
:10423400E970010E0F80CBEEF97F0102214174F782
:1042440012206F7E007F00EFC3940A500DEE700AB7
:10425400EFF9121219E9FE0F80EDEEF97F01022148
:104264004174F012206F74C9121FFFE9FE900B0312
:10427400E06E701D7A017B00900769E0F91210C9A5
:10428400E97A027B00900769E0F91210C9E9121279
:104294006774291220657A0E75F006EEA42420F9BD
:1042A4001213CFE960030243997C0679FF74291243
:1042B400205D1210E7E960030243997C0E7D0079CA
:1042C400FF742912205D121081851882851983EAF2
:1042D400F0A3EBF07C1B7D0079FF740E12205D12BD
:1042E40010818A0A8B0B850A0E850B0F7C0C7D00CE
:1042F40079FF740212205D1210818A0C8B0D850CDB
:104304000A850D0B74291220657A0E75F006EEA449
:104314002420F91213C9E9F508740E1220657A1BDA
:1043240075F006EEA42421F91213C9E94208740EAB
:104334001220657A1B75F006EEA42422F91213C923
:10434400E94208740E1220657A1075F006EEA42472
:1043540023F91213C9E94208740E1220657A107504
:10436400F006EEA42424F91213C9E94208740E12CB
:1043740020657A0475F006EEA42425F91213C9E920
:10438400420874021220657A0C74702EF91213C953
:10439400E942088003750800A90874371220157FC4
:1043A4000802214174F712206FE9FEEE900769F0CC
:1043B4001212017F0102214174F212206F890AEA6C
:1043C400FEEBFFEE5400F8EF5480F9E849603590B5
:1043D4000769E0F91210AB8A0C8B0DA80CA90D88A3
:1043E400088909E8496012AA08AB0912122BE9608E
:1043F40008AA08AB09121099E9EE6400FAEF648088
:10440400FB0244C0EE5402602D7C007D007A007BE8
:10441400001211DDE960187A017B00900769E0F968
:104424001210C3E9EE6402FAEF6400FB0244C07A9E
:10443400027B000244C0EEA2E0507D90081DE0F82B
:10444400A3E0F5838882A3A3A3E0FAA3E0FB1212FE
:1044540061E9605E900783E0F8A3E0F9E84960450C
:10446400900783E0F8A3E0F5838882A3A3E0F8A390
:10447400E0F9E849602F7C00790190081DE0F8A379
:10448400E0F5838882A3A3A3E0FAA3E0FB9007836B
:10449400E0F8A3E0F5838882A3A3E0F8A3E0F58322
:1044A400888212206D121267EE6401FAEF6400FB39
:1044B400800A7A017B0080047A007B007F06022157
:1044C4004174F712206FEAFEEBFF7508018E828FAC
:1044D40083E02450601314601924E1701CEEFAEF99
:1044E400FB1211BFE9F5088010EEFAEFFB1212314E
:1044F4008007EEFAEFFB121237A9087F010221416F
:1045040074F712206FEAFEEBFF8E828F83A3A3A3BE
:10451400A3E0641E701179008E828F83A3A3E0FA56
:10452400A3E0FB1211ADE97F0102214174F61220D0
:104534006F8A088B09850882850983A3A3A3A3E056
:104544007034AE08AF098E828F83A3A3A3A3A3A361
:10455400A31222998E828F83A3A3A3A3A3E0FCA317
:10456400E0FD8E828F83A3A3E0FAA3E0FB1211B3D4
:104574007402122015E97F0202214174F712206FA0
:10458400EAFEEBFF900769E0F98E828F83A3E0FADD
:10459400A3E0FB12084DE97F01022141C082C083E0
:1045A40074FF121FFF12120DE9C39402400B851809
:1045B400828519837402F0800985188285198374B1
:1045C4000AF0AC18AD197A0179051206D3E9740121
:1045D400122015D083D08202011F74F212206F744E
:1045E400E8121FFF8A088B09E9FE8C0A8D0B7C18E0
:1045F4007D007900AA18AB191210818A0C8B0DACBE
:104604000CAD0D851882851983E508F0A3E509F042
:1046140090076BE0C0E0740212204BD0E0F09007EA
:104624006CE0C0E0740312204BD0E0F0900B02E089
:10463400C0E0741712204BD0E0F0741512204BE048
:1046440054FEF8A3E054FFF9900B01E0A2E0E43338
:10465400FA7B00E84AF8E94BF9741512204BE8F0AC
:10466400A3E9F0900B01E0A2E15004D2F08002C271
:10467400F0741512204BE054FDFAA3E054FFFBA2A2
:10468400F0E433F87900E828F8E933F9EA48F8EB7C
:1046940049F9741512204BE8F0A3E9F0900B01E0FE
:1046A400A2E35004D2F08002C2F0741512204BE051
:1046B40054F7FAA3E054FFFBA2F0E433F50C750DB4
:1046C400007403780C121FECEA450CF8EB450DF965
:1046D400741512204BE8F0A3E9F0900B01E0A2E47A
:1046E4005004D2F08002C2F0741512204BE054EF53
:1046F400FAA3E054FFFBA2F0E433F50C750D00744B
:1047040004780C121FECEA450CF8EB450DF974150E
:1047140012204BE8F0A3E9F0900B01E0A2E550046D
:10472400D2F08002C2F0741512204BE054DFFAA3D9
:10473400E054FFFBA2F0E433F50C750D007405782A
:104744000C121FECEA450CF8EB450DF97415122018
:104754004BE8F0A3E9F0900B01E0A2E25004D2F0A0
:104764008002C2F0741512204BE054FBFAA3E0540B
:10477400FFFBA2F0E433F50C750D007402780C1203
:104784001FECEA450CF8EB450DF9741512204BE8C3
:10479400F0A3E9F090076CE0602A750C10750D0029
:1047A400780C1222827C6D7D07740612204BAA823B
:1047B400AB8312106974021220158A0C8B0D850CC0
:1047C40082850D8390077DE06011EE600E741512F2
:1047D400204BE04402F0A3E04400F090077DE06049
:1047E4000678017900800478007900741412204B53
:1047F400E048F090076AE060067804790080047865
:10480400007900741412204BE048F0AC0AAD0BAAF6
:1048140018AB191205E9E974181220157F06022154
:104824004174F712206FEAFEEBFF75080090077DD4
:10483400E0600678017900800478007900E8420895
:1048440090076AE0600678047900800478007900B3
:10485400E84208A908EEFAEFFB1206A3E97F010279
:10486400214174F212206F74E3121FFF8A0C8B0D26
:10487400E9FF8C0A8D09742B12204BE0F5087408AB
:104884006509700A75F006EFA42422FE800875F00D
:1048940006EFA42421FE7C1B7D0079007402122003
:1048A4005D121081851882851983EAF0A3EBF074F8
:1048B400021220657A1BEEF91213CFE97038741CCA
:1048C40012204BE0C39407402D741C12204BE0C30C
:1048D40094115022E508F50B780B1222867403120A
:1048E4002065E50AA2E0E433F9AA0CAB0D1205FB3E
:1048F4007401122015E9741D1220157F060221414E
:1049040074F712206F1208C5E97E00EEC3940A50B2
:10491400557C0679FFEEFA7B00EA75F00EA4CAA86E
:10492400F075F000A428F875F00EEBA428FB74854C
:104934002AFA74073BFB1210E7E97027EEF87900B6
:10494400E875F00EA4C8AAF075F000A42AFA75F070
:104954000EE9A42AF9748528FA740739FB79001240
:1049640008CBE90E80A57F0102214174F612206F65
:1049740074FD121FFFEAFEEBFF90081FE0F8A3E0AE
:10498400F9E84970397508217509087808122282F6
:1049940075080275090078081222827508B5750930
:1049A4009078081222827CFF7DFF7A017B00120737
:1049B40015740612201590081FEAF0A3EBF0900876
:1049C4001FE0F8A3E0F9E8497003024A8CE4F50813
:1049D400F50978081222827404122055880889097E
:1049E40078081222827404122055880889097808EC
:1049F400122282900821122299790290081FE0FC69
:104A0400A3E0FDEEFAEFFB12083B7408122015E94F
:104A1400704A851882851983E0FA7B00740112209C
:104A24004BE0F87900E4C8F9EA28F508EB39F50910
:104A3400E50845096026780812228290081FE0F8EC
:104A4400A3E0F5838882A3A3A3A3E0FCA3E0FDEE87
:104A5400FAEFFB1211B37402122015E9E4F508F51C
:104A64000978081222829008211222997CFF7DFF86
:104A740090081FE0FAA3E0FB12072174041220152A
:104A840090081FEAF0A3EBF090081FE0F8A3E0F908
:104A9400E849700479018002790074031220157FBB
:104AA40002022141C082C08390081DE0F8A3E0F90E
:104AB400E849601790081DE0FAA3E0FB121099E999
:104AC400F890081D7400F0A37400F0900B03740AAE
:104AD400F0D083D08202011FC082C083E9900A1102
:104AE400F0024D6B74F712206FE99002E1F07C192B
:104AF4007D037AFF7BFF1208539002E274FFF0A358
:104B0400F0A3E4F0A3F079051207DB9002E1E0F9E9
:104B14001206FD7A717B08120A1B7F01022141747F
:104B2400F412206F8A088B09EB548060309002E104
:104B3400E0F91210AB8A0A8B0BAE0AAF0BEE4F6092
:104B4400138E828F83E064B070031207F3EEFAEFE2
:104B5400FB121099AA08E5096480FB80047A007BA3
:104B640000024D3A74F212206F74FC121FFFEAFE29
:104B7400EBFFEE4F6038740212204BEEF0A3EF12FD
:104B84004F9FECF0A3ED124F9FAA82AB831206F75E
:104B9400E9F5087073741212204B125B53E50A4551
:104BA4000B60658E828F83124C16EE4F700575086C
:104BB4000280557A067B001211058A0C8B0DA80C15
:104BC400A90DE8497005750813803D88828983E43E
:104BD400124C20A3A3EEF0A3EF125FECE50AF0A3BE
:104BE400E50BF09002E7124CA89002E76017E0FC96
:104BF400A3E08003EAFCEBFD8C828D83124CA87049
:104C0400F38C828D83125A78A90874041220150239
:104C140061EEA3A3A3A3E0FEA3E0FF22F0A3F08828
:104C24008289832274F212206F890AE975F017A42D
:104C3400FEAFF09002E6E4F09002E4124CA8600AA1
:104C440012110B9002E4E4F0A3F0EEFAEFFB121160
:104C5400058A088B09EA4509602FEEFCEFFD79000F
:104C64001210819002E4E508F0A3E509F07B0080CE
:104C740008124C92E4F0A3F00BEBC3950A40F2E562
:104C84000A9002E6F07900800279130261EEEB7576
:104C9400F017A4F8A9F09002E4E028FAA3E0398A16
:104CA40082F5832212580EEA4B2274F412206F7597
:104CB4000800750900740C12204B125FC0FEE9FF56
:104CC400800CE5082401F508E5093400F509C3E57D
:104CD400089CE5099D503285080A85090B74037800
:104CE4000A121FECEA250AF8EB350BF9888289834E
:104CF400A3A3A3A3A3A3125B53EE650A7003EF65FA
:104D04000B70BFE8FAE9FB80047A007B008027740B
:104D1400F412206F7900EAA2E0501B7508027509AD
:104D24009078081222827C047D007A137B0A120791
:104D3400D574021220157F04022141C082C08390E1
:104D440002E7124D72601C88828983A3A3E06A7013
:104D540003A3E06B8882898370E8A3A3A3A31258FA
:104D64000A80047A007B00D083D08202011F126281
:104D7400C1E8492274EE12206F74FC121FFFEAFE90
:104D8400EBFF851882851983E4F0A3F0EE24021268
:104D94005A5CEE2405124F8DEE2404F50EEF1253E7
:104DA40072E024FE603924FC604624FE605224FE36
:104DB400605E24FE7003024E9224FE7003024F0ACA
:104DC40024FE7003024F1924FE7003024F2824FCB2
:104DD4007003024F3724FE7003024F46024F839044
:104DE40003007417F0A3E4124FA7120475024F8353
:104DF400851882851983AC82AD831207F9024F535B
:104E0400851882851983AC82AD831207FF024F5344
:104E1400850C08850D09740212204BAC82AD838584
:104E2400088285098312580A12071B8A0C8B0DAC61
:104E34000CAD0DEC4D6042E4F50CF50D780C12222E
:104E440082750C00750D03780C122282750C0175A5
:104E54000D03780C122282740812204B12229979C5
:104E64001612580412083B7408122015E9F50C7048
:104E74000B12580012048D800F750C018508828571
:104E84000983124F95125A78850C08024F56740202
:104E940012204BAC82AD83850C82850D8312580A97
:104EA40012071B8A108B11AC10AD11EC4D604385B9
:104EB4000C82850D83A3A31222997510007511032A
:104EC4007810122282751001751103781012228253
:104ED400740812204B122299791612580412083BB6
:104EE4007408122015E9F509700B12580012049386
:104EF400800F750901850C82850D83124F95125A16
:104F040078850908804C851882851983AC82AD8325
:104F1400120805803A851882851983AC82AD831204
:104F2400080B802B851882851983AC82AD83120807
:104F340011801C851882851983AC82AD83120817F1
:104F4400800D851882851983AC82AD8312081DE912
:104F5400F508E50860298E828F83A3E06414601F3E
:104F6400850E82850F83E0900300124F9F1262BD6D
:104F7400900301125A78E508A3124FA712046FEEAA
:104F8400FAEFFB120799025964F50CEF3400F50DA2
:104F9400221262C185188285198322F085188285C0
:104FA400198322F07C007D03850A82850B831258C5
:104FB4000E2274EE12206F74FC121FFF8A0A8B0BF0
:104FC4008C0E8D0FEA2405F508EB3400F5097C15E9
:104FD4007D0079007A007B03121081E5082402F534
:104FE4000CE509124F9085188285198385821085F6
:104FF40083117810122282850882850983A3A3A3D2
:10500400A31254BA122282E5082405F510E50934E6
:1050140000F5117810122282850C82850D831258B6
:105024001412071574061220158A108B11AE10AFD6
:1050340011E50A2402F50AE50B125A5FEE4F7003DC
:1050440002517C8017740212204B12580A888289FC
:1050540083EAF0A3EBF0900300E004F0900300E097
:10506400C39405400302517CE4F510F51178101245
:1050740022827510E975110278101222827510EAE5
:105084007511027810122282740612204B12229992
:105094007910EEFCEFFD12580412083B740812203C
:1050A40015E9705E850882850983A3A3A3A3A3A33E
:1050B400A3E0F89002E9E06870481254BA12228220
:1050C4007CEA7D02E5082408FAE5093400FB1210A5
:1050D4007B7402122015E960298E828F83A3A3A317
:1050E400A312580A900300E0F51074027810121FFE
:1050F400EC74012510F58274033511F583EAF0A3ED
:10510400EBF0740212204B85821085831178101203
:105114002282740212204B122299850C82850D83FF
:105124001262D212072174041220158A108B11AE58
:1051340010AF11900300E0F510751100740278109F
:10514400121FEC74002510F874033511F988828954
:1051540083A3124CA87003025040E82403F8E934F6
:1051640000F9EE4F60030250498882898374FFF08E
:10517400A3F0900300E004F0900300E0600A1258EA
:10518400001204817900800B850882850983125AF4
:105194006F790A02596474EA12206F74FE121FFFB9
:1051A4008C128D13EA2405F50CEB12643C124C1A94
:1051B400750800750900EA2402F510EB3400F511B6
:1051C40085188285198385820A85830B780A1222C1
:1051D40082850C82850D83A3A3A3A312537C122280
:1051E40082E50C2405F50AE50D125A5F780A1222AD
:1051F40082850C82850D831262D012071574061203
:1052040020158A0A8B0BEA450B700302532DEA24FE
:1052140004F50EEB125372124C1A8A828B83A3A3E9
:10522400A3E0F985108285118312580A120703E955
:10523400F509600302532DE4F514F51578141222D0
:10524400827514E975150278141222827514EA75B0
:1052540015027814122282740612204B12229979B4
:1052640013AC0AAD0B85108285118312580A1208FB
:105274003B7408122015E9F509600302532D9002CE
:10528400E9E0F8E5087009E02402900301F08017D2
:10529400900301E0FCE82402FAE43400FBEA6C70B9
:1052A40001EB6003025331850882AA821254B1943F
:1052B400141254A95073850E82850F83E0C0E074E4
:1052C400022A125369D0E0F00508850E82850F8307
:1052D400A3E0C0E085080A7402250A125369D0E0ED
:1052E400F005089002E912537C1222827CEA7D02C6
:1052F40085080A7402250AFA74033400FB12106943
:1053040074021220159002E9E02508F50874FF6E76
:10531400700374FF6F6012EE24010EEF3400FFE59A
:1053240008C3941450030251C4E50860131256F5DF
:1053340085108285118312580A120487790080141B
:10534400E509700375090A851282851383EEF0A3BB
:10535400EFF0A90974021220157F0E02214185087D
:105364000C7402250CF58274033400F58322340096
:10537400F50F850E82F58322125FFF2274EE122050
:105384006F74FE121FFF8C0E8D0FEA2405F50CEBD3
:10539400124F90750B00900300E4F0F50AEA240222
:1053A400F508EB3400F5098049900300E0FA900217
:1053B400E9E0F81254B194171254A9400D90030077
:1053C400E0F87416C3989002E9F01254BA122282DB
:1053D4007CEA7D0274012AFA74033400FB1210691A
:1053E40074021220159002E9E0F8900300E028F01E
:1053F400050AE50C2416F582E50D12536DE0F8E577
:105404000AC3984003025492900300E0C3941650D8
:105414007DE50AC333F8E433F9E50C28FEE50D39DC
:10542400FF851882851983AC82AD838E828F8312A7
:10543400580A12071B8A108B11AC10AD11EC4D7079
:1054440005750B018043E4F510F5117810122282E2
:105454007510E975110278101222827510EA75111F
:10546400027810122282740612204B1222997916A5
:1054740085088285098312580A12083B7408122091
:1054840015E9F50B70030253AD125A6B80107C00C2
:105494007D0385088285098312580A120499A90B91
:1054A4007402025966E99400C365D03322EA28F8ED
:1054B400E43400F9E822E0F5107511007810227444
:1054C400EA12206F74FC121FFF8A0C8B0D8C128D54
:1054D40013EA2405F50AEB125A5F750800750900F2
:1054E400E50A2402F510E50B3400F51174021220CC
:1054F4004B85820E85830F780E122282850A82855F
:105504000B83A3A3A3A3125FAB122282E50A240593
:10551400F50EE50B3400F50F780E12228285108209
:10552400851183125A651258041207157406122045
:10553400158A0E8B0FAE0EAF0FE50C2402F50EE5A7
:105544000D3400F50F80408882898374FFF00508CC
:1055540012536274FFF005089002E9E0F50C750D32
:1055640000780C1222827CEA7D0285080C740225E4
:105574000CFA74033400FB121069740212201590A3
:1055840002E9E02508F508EE4F60718E828F83A34F
:10559400A3A3E0F9850E82850F8312580A1207032C
:1055A400E9F509EE2404124F8DE97044E4F514F58D
:1055B4001578141222827514E975150278141222D2
:1055C400827514EA75150278141222827408122066
:1055D4004B1222997911EEFCEFFD850E82850F8323
:1055E40012580A12083B7408122015E9F5096027BD
:1055F400850C82850D831256EB125A78E5087003E8
:105604000256D11256F5850E82850F8312580A125E
:10561400049F79000256E6850882AA82EA9002E98C
:105624007009E02404900301F08022E0F890030163
:10563400E0F514E82404FCE43400FDEC6514700186
:10564400ED70C01254B194121254A950B6850C8254
:10565400850D83E0C0E074022A125369D0E0F0059E
:1056640008850C82850D83A3E0C0E0125362D0E06C
:1056740012570785820C85830D780C1222827404DC
:1056840012204B1222998510828511831262D21244
:10569400072174041220158A0C8B0DAE0CAF0D85F6
:1056A400080C7402250CF874033400F9EE4F7003EF
:1056B40002554B851882851983E0888289831257A5
:1056C40007A3E0C0E0125362D0E0025559E5097027
:1056D4000375090A850A82850B831256EB125A78E0
:1056E400A909740402535A1262C185128285138374
:1056F40022900301E0F5F0E50884900300F07C00BB
:105704007D0322F005088518828519832274EC1222
:10571400206F74FE121FFF8A088B098C0E8D0FEA0E
:105724002405FEEB3400FF851882851983AC82AD15
:10573400838E828F8312580A12071B8A0A8B0BEE00
:105744002418124F8DEA450B70030257DB12594D92
:10575400503285188285198312580A12082F8A102C
:105764008B11EA4511606B7912AC0AAD0B85088286
:1057740085098312580A85108285118312206DE9E8
:10578400F50A7058E4F50AF50B780A1222828E8223
:105794008F83A3A3E0F50A780A122282EE2403126F
:1057A4005A5C780A1222828E828F8312581412084D
:1057B400417406122015E9F50A7021850C82850DC5
:1057C40083E0701F85088285098312580A1204A594
:1057D4008011750A0E8009750A018004E50A6003C8
:1057E400125A6B850C82850D83E060047900800277
:1057F400A90A74021220157F0C0221417C007D034A
:10580400850A82850B8312580E22E0FAA3E0FB225C
:10581400E0FCA3E0FD85088285098312580E2274FA
:10582400EE12206F74FE121FFF8A088B098C0C8DF8
:105834000DEA2405FEEB3400FF750E008518828501
:105844001983AC82AD838E828F8312580A12071B90
:105854008A0A8B0BEA450B700302593912594D50D1
:105864003585188285198312580A12082F8A0E8BDF
:105874000FEA450F605E7912AC0AAD0B850882858C
:10588400098312580A850E82850F8312206DE9F56B
:105894000E600302593C850882850983125B53AA72
:1058A4000AFB1208238A108B11A810A911E8497069
:1058B4001E7AFF7BFF1208238A108B11A810A911EE
:1058C400E849606C88828983E50AF0A3E50BF075EA
:1058D4000A008007750E0E805F050A9002E6E0FA62
:1058E400E50AC39A504AE50A75F017A4FAABF088A2
:1058F400828983A3A3E02AFAA3E03BFB8A828B83F9
:10590400125A65EC4D70D2750A17750B00780A129D
:105914002282EEFCEFFD1210697402122015EEFCD7
:10592400EFFD85088285098312580A1204AB80149E
:10593400750E098003750E011262B9850C82850DFE
:1059440083125A78A90E0254A4E5082402F508E546
:10595400093400F5098A828B83A3A3A3E0A2E5227C
:1059640074041220157F0A02214174EC12206F8CFA
:10597400108D11EA2405F50CEB124F90750F00EA17
:105984002402F50AEB125A5F850A82F58312580A3B
:105994001208238A088B09EA45097003025A5175D3
:1059A4000E008071850C82850D83E06401704F8E3A
:1059B400828F83A3A31222998E828F83A3A3A3A38E
:1059C400E0F5127513007812122282EE2405F51206
:1059D400EF3400F51378121222821258041208418F
:1059E4007406122015E9F50F6014850C82850D8369
:1059F400E4F01262B9851082851183125A787C17FB
:105A04007D007900EEFAEFFB1210818E828F83E421
:105A1400F0A3F0050E9002E6E0F8E50EC398501EE0
:105A2400E50E75F017A4F8A9F0850882850983A30B
:105A3400A3126446125A65EC4D60030259A8850806
:105A44008285098374FFF0A3F0E50F7006125804F1
:105A54001204B1A90F0257FBF50AEF3400F50B222B
:105A6400A3E0FCA3E0FD228E828F831262C1850E27
:105A740082850F83E8F0A3E9F022C082C0839002FC
:105A8400E2E06A7003A3E06B70067AE27B028004B2
:105A94007A007B00024D6BC082C08378008C828DBB
:105AA40083E06A7003A3E06B7010E875F003A4F858
:105AB400A9F0EC28FAED39FB8015088C828D83A3BC
:105AC400A3A3E06A7003A3E06B60DF7A007B0002AB
:105AD4004D6B74F612206F1207ED8A828B83E58278
:105AE400458370067A007B008007A3A3A3A3125802
:105AF4000A02616A74F212206FE9FE740E12204BDE
:105B0400125B53741012204B125FCB8C828D83E096
:105B140064027036A31262C7F50CA3E0F9A80C74F2
:105B2400026870037429697021750C02750D007880
:105B34000C1222827808122282780A122282EEF94A
