:020000040000FA
:0600000002011A02209427
:03002B0002273F6A
:0300530002210A7D
:03006B0002270D5C
:10008300021F43E5C754F84401F5C7790122000074
:100093000080FB120086B90003020104E479217891
:1000A30008B800028004F709D8FCE479297802B87B
:1000B30000028004F709D8FCE490028178C579072F
:1000C3008002F0A3D8FCD9FA781A90014A7A01BACF
:1000D30000028007E493A3F608DAF97A457B0990D6
:1000E300014B783B79048015E493A3AD82AE838AF8
:1000F300828B83F0A3AA82AB838D828E83D8E9D9C6
:10010300E775820475839D740312012C75829175C2
:100113008300740012012C75D00075813F7518811E
:10012300751902759F00020096C09FF59FE473D076
:100133009F22D083D082C09FE493C0E0740193C018
:10014300E0740293F59F2201FF0000B40000280031
:100153002800283075A000A000A000A0000008001F
:1001630008E001F000100010001000100010001053
:100173000050005000500010001000D00700000095
:100183000000000F0001000500307507001000019A
:100193000081FF00000000FF8306A1068906FF021D
:1001A300020208025000A0000000E80302069001CA
:1001B3000000EF8F0202900100009C0902F68F01FC
:1001C3000000B3020202900100009D0902F88F01B2
:1001D3000000C9020202900100009E0902FA8F0189
:1001E3000000CB020202900100009F0902FC8F086D
:1001F3000000CC02020290010000A00902FE8F0160
:100203000000A109FF0100FF20020690010000E3A6
:100213008F020290010000050A0200900000000016
:100223000002F48F0300001903B30CB30CB30CB337
:100233000CB30CB30CB30CB30CB30CB30CB30CB3C3
:100243000CB30C8F0FA70F890FFFFF0202020202EC
:1002530002020202010D00000010010206900100DB
:1002630000EC8F020290010000480A022690010070
:10027300005D07020290010000490A021890010084
:1002830000138F0202900100004A0A021690010037
:1002930000F78E0202900100004B0A021490010045
:1002A30000A38E0202900100004C0A02129001008A
:1002B30000B58E0202900100004D0A021090010069
:1002C30000918E0202900100004E0A020E9001007E
:1002D300007F8E0202900100004F0A020C90010081
:1002E30000058F020290010000500A020A900100EB
:1002F30000510A01E803053F100AFF0001307503AE
:1003030002010600000000000000000000000000E1
:10031300000000000000000000000000000000FFDB
:10032300FF0600800CE803140953696D706C654285
:100333004C455065726970686572616C05125000B6
:100343002003020A000201050302F0FF53696D70E6
:100353006C6520424C452050657269706865726116
:100363006CC1130000C7130A43686172616374654B
:100373007269737469632031000243686172616357
:10038300746572697374696320320008436861722B
:100393006163746572697374696320330010436821
:1003A30061726163746572697374696320340002F6
:1003B300436861726163746572697374696320353C
:1003C30000020690010000E68F0202900100006423
:1003D3000B021C900300002F0902F28F010000653D
:1003E3000B020290010000760B021E900100003008
:1003F3000902F28F010000770B02029001000088CE
:100403000B022090020000310902F28F01000089E3
:100413000B0202900100009A0B02229000000032AE
:100423000902F48F030000330902F28F0100009BDD
:100433000B020290010000AC0B022490040000396F
:100443000902F28F010000AD0B104B657920507249
:100453006573732053746174650002069001000094
:10046300E98F020290010000460C022C900000006C
:100473003E0902F48F0300003F0902F28F010000DE
:10048300470C120135118D03120135288D0312011A
:1004930035598D03120135948D03120135BE8D0339
:1004A300120135E88D03120135FF8D031201351654
:1004B3008E031201352D8E03120135568E03120160
:1004C30035698E031201357F8E03120135928E0337
:1004D300120135B98E031201350198021201350557
:1004E30099021201353D99021201356099021201F8
:1004F300356B99021201358E99021201359D9A02CC
:10050300120135729B02120135ED9B021201357502
:100513009C02120135B09C02120135E79C021201C4
:1005230035759D021201354E9E02120135AE9E02B3
:10053300120135B99E02120135389F021201353B73
:100543009F021201353E9F02120135CD9F02120117
:1005530035D09F0212013500A0021201352AA002F4
:1005630012013518A102120135CAA102120135D9AF
:10057300DB0212013501DC021201352FDC0212010C
:100583003566DC02120135C4DC021201350FDD02CF
:100593001201355ADD021201359ADD02120135E0EE
:1005A300DD021201350EDE02120135CBDE0212012D
:1005B30035D5DE02120135E2DE0212013515DF0206
:1005C300120135E1DF02120135EDDF0212013505BB
:1005D300E0021201350FE002120135119B031201F3
:1005E300351F9B03120135379B031201354F9B03C4
:1005F30012013527B001120135D3B0011201354E76
:10060300B1011201356FB201120135ABB201120112
:100613003554B3011201353BB4011201359FB501C5
:10062300120135F6B50112013577B60112013567AE
:10063300B701120135B4B7011201353AB8011201FD
:10064300356CB80112013580BA01120135C2BA0105
:10065300120135E0BA0112013563BB0112013537CE
:10066300BC01120135FFBC0112013528C50212017C
:1006730035FBC502120135A4C602120135F7C602C5
:10068300120135A7C70212013533C8021201351F03
:10069300C9021201354EC90212013561CA021201A3
:1006A30035A9CA021201357ECB02120135BACB023B
:1006B300120135D6CB02120135809C03120135039A
:1006C300F60212013519F6021201353FF602120144
:1006D300355BF70212013565F7021201359AF8020C
:1006E30012013592F902120135BED102120135EE23
:1006F300D20212013521D3021201356BD30212014A
:100703003532D50212013538A001120135A2A001FC
:1007130012013501A20112013511A2011201353E68
:10072300A20112013595A2011201353EA301120166
:100733003545A4011201350FA5011201356FA6013C
:10074300120135B2A60112013557A701120135A4D2
:10075300A701120135CAA701120135D8A901120157
:1007630035DDA901120135E2AB011201352FAC01D0
:10077300120135A2AC01120135D5AC011201357756
:10078300AD0112013520AE0112013558AE0112013F
:10079300355BAE01120135A3AE01120135E3AE01A3
:1007A3001201353AAF011201350A860312013522CF
:1007B30086031201356A860312013580860312010E
:1007C30035C78603120135DB8703120135688803B9
:1007D300120135B388031201356C270012013578F5
:1007E3002700120135B32700120135F82700120143
:1007F30035B828001201353E2900120135A329001E
:10080300120135CF2900120135082A00120135469D
:100813002C001201352A2E0012013510300012016E
:1008230035533100120135A13300120135B33400C1
:10083300120135FE35001201350E37001201352B3A
:10084300370012013566370012013588370012016F
:1008530035EB3700120135AC3C00120135413D0048
:10086300120135923D00120135B93D001201350BDD
:100873003E00120135293E00120135833E0012016C
:10088300356C3F00120135E240001201356641002C
:1008930012013596E002120135A0E002120135E3A0
:1008A300E002120135FEE0021201358EE10212016F
:1008B30035B6E102120135F3E1021201352AE202F3
:1008C30012013553E202120135C8E202120135DD8D
:1008D300E202120135F2E20212013523E3021201B0
:1008E3003537E3021201355CE30212013596E30268
:1008F300120135C2E302120135FAE302120135791E
:10090300E402120135C2E402120135ECE4021201E1
:100913003517E5021201352A9603120135008002CC
:100923001201352E80021201357C81021201355CE1
:1009330082021201357B8202120135F88202120112
:10094300353B83021201359184021201355285022F
:10095300120135D987021201357A880212013570E6
:1009630089021201356D8A02120135C78B02120109
:1009730035528C02120135A693031201350F9403ED
:100983001201356394031201358A9403120135BBB6
:100993009403120135C6E90212013533EA0212014A
:1009A300357AEA0212013592EB021201358EEC021E
:1009B30012013571ED02120135CFF6011201351125
:1009C300F701120135E3F701120135BCF8011201F9
:1009D30035B6F90112013598FA0112013501FB010F
:1009E300120135B7FB011201352BFC0112013597BA
:1009F300FC01120135C0FC011201353AFD0112015F
:100A030035D3FD0112013538FE011201354DFE01CA
:100A130012013593FE01120135ACFE0112013511AD
:100A2300FF0112013514FF01120135118303120175
:100A33003539830312013577830312013535840376
:100A43001201359C8403120135B88403120135E089
:100A530084031201351085031201351F850312012A
:100A6300359C8503120135C285031201353190018E
:100A7300120135CF9101120135EA93011201352696
:100A83009401120135539401120135389501120175
:100A9300357F9501120135C39501120135D59501B5
:100AA3001201351596011201354296011201358D59
:100AB3009601120135CD9601120135FB9601120103
:100AC300354D9701120135DD97011201357B9A01EE
:100AD300120135919C01120135CF9C011201356041
:100AE3009E01120135A59E011201351C9F011201C1
:100AF30035669F01120135919F0112013505AC0244
:100B030012013584AC0212013546B2021201355589
:100B1300B302120135BDB40212013554B5021201FC
:100B230035F055001201353956001201356656006D
:100B3300120135995600120135A65600120135B23D
:100B43005600120135C45600120135AB570012018D
:100B5300350958001201353E5800120135815900FC
:100B6300120135CE5900120135F259001201355FD9
:100B73005A001201351D5B00120135D65B001201CC
:100B830035435C00120135F55C00120135055D004B
:100B93001201358C5D001201354B5E001201357870
:100BA3005E00120135F15E001201354E5F00120145
:100BB30035985F001201352E6000120135F960008F
:100BC300120135AE61001201352362001201358432
:100BD3006200120135EE6200120135276300120133
:100BE30035C96300120135D9640012013519650056
:100BF3001201353665001201355565001201359C29
:100C03006500120135C16500120135EE6500120160
:100C130035686600120135A96600120135CD6700FB
:100C23001201357D6800120135D468001201353E8A
:100C330069001201355769001201353BA202120106
:100C4300358EA2021201359AA2021201356FA30258
:100C530012013596A302120135D1A3021201353DCB
:100C6300A40212013579A402120135B2A4021201C1
:100C730035CAA4021201351FA50212013538A50297
:100C830012013581A50212013594A502120135AE78
:100C9300A502120135C4A502120135F7A6021201FD
:100CA300353EA80212013540A9021201353AAA02C3
:100CB300120135F4FF0112013598E901120135C81B
:100CC300E90112013590ED01120135E7EE01120140
:100CD30035B0EF0112013530F10112013501F20196
:100CE3001201353EF20112013561F2011201359F05
:100CF300F201120135A8F201120135F2F2011201DB
:100D030035FCF201120135A6F3011201357FF4011E
:100D1300120135D3F40112013535F501120135887D
:100D2300F501120135B7F501120135F4F501120190
:100D330035896900120135F06C00120135F66C003B
:100D4300120135787200120135F17600120135C7B0
:100D53007A0012013569F202120135DFF202120143
:100D630035F5F20212013536F30212013570F30242
:100D7300120135E9F30212013524F4021201359709
:100D8300F402120135D5F402120135DEF402120128
:100D930035EAF40212013506F50212013531F50286
:100DA30012013547F50212013570F502120135D3F0
:100DB300F502120135167B00120135297B00120161
:100DC30035437B001201356C7B00120135AF7B008C
:100DD300120135EE7B001201352C7C001201359196
:100DE3007C00120135A67C00120135B17C00120192
:100DF30035BE7C00120135D57C00120135E37C0041
:100E0300120135EE7C00120135FA7C001201350D1A
:100E13007D00120135187D001201353B7D00120162
:100E230035E27D00120135F27D001201350C7E00A2
:100E3300120135297E00120135457E001201356A03
:100E43007E00120135757E001201358A7E00120183
:100E5300359E7E00120135FF7E00120135057F00AD
:100E63001201350B7F00120135117F001201352964
:100E73007F001201355C7F0012013589CD0112011B
:100E8300350DCE01120135BCCE011201351BD00147
:100E93001201353CD20112013528D3011201355D0F
:100EA300D3011201357FD3011201352ED401120172
:100EB3003526D6011201354FD601120135E1D6018F
:100EC30012013513D70112013520D70112013577ED
:100ED300D7011201359DD7011201350ADA0112013A
:100EE300350DDB0112013565DB0112013518BF0138
:100EF30012013522C00112013509C1011201351356
:100F0300C10112013535C10112013541C10112017F
:100F130035DAC20112013509C30112013525C401B5
:100F23001201357EC401120135E4C501120135C336
:100F3300C6011201351FC7011201358CC701120109
:100F430035C7C70112013506C801120135BFCA01F1
:100F5300120135D9CA0112013565CB01120135736E
:100F6300CB01120135CCCB01120135DACB011201D1
:100F7300354DCC01120135B1CC01120135FBCC0149
:100F8300120135D38C02120135F58C021201351B87
:100F93008F02120135309202120135489302120179
:100FA30035FB9302120135DD94021201357A900369
:100FB3001201359F9003120135119103120135AED1
:100FC300BD02120135B7BD02120135C0BD021201C7
:100FD3003597BE0212013548C0021201357EC002A8
:100FE300120135B8C002120135EEC00212013528D4
:100FF300C1021201355CC10212013588C10212011E
:1010030035D1C1021201350BC20212013554C2029D
:10101300120135ACC202120135E1C2021201353CA4
:10102300C30212013576C302120135C7C30212018E
:1010330035FDC30212013537C40212013565C402FE
:1010430012013588C40212013538FF0112013564DB
:10105300FF01120135BFFF01120135C9FF01120162
:1010630035D9FF011201354BCC0212013555CC02A3
:1010730012013593CC02120135DCCC021201351674
:10108300CD0212013570CD0212013591CD0212014C
:10109300359ACD02120135EBCD0212013514CE0281
:1010A3001201351ECE021201358ACE021201351805
:1010B300CF0212013566CF021201359CCF02120115
:1010C3003523D00212013563D0021201359BD002C1
:1010D300120135ADD002120135CCD002120135D543
:1010E300D00212013594D10212013547980312013F
:1010F30035128B03120135488B031201357E8B03A6
:10110300120135D78C03120135E89B03120135FE1A
:101113009B03120135089C03120135529C031201F3
:10112300359DFF021201353FE50212013558E502F4
:10113300120135FCE5021201353CE6021201355578
:10114300E60212013589E602120135D6E6021201E2
:10115300350AE7021201354CE7021201354CE90268
:10116300120135B9E9021201354199031201356AB9
:101173009903120135939903120135AB99031201B7
:1011830035ED9903120135008003120135258003E3
:10119300120135518003120135A59D03120135CD8E
:1011A3004100120135314400120135E345001201BB
:1011B30035D546001201355A4700120135D847008C
:1011C300120135054800120135294B00120135A3E0
:1011D3004B00120135924C00120135CC4C00120128
:1011E300350C4D00120135C64E00120135194F0062
:1011F300120135624F00120135D04F001201350242
:1012030050001201351A50001201352F51001201FE
:10121300353F51001201356F5200120135915200D2
:10122300120135C752001201356C5400120135AB5F
:101233005400120135CB5500120135E3FF011201B1
:10124300355C9D031201359B9D03120135189E03E6
:10125300120135329A03120135429A0312013557AE
:101263009A031201350B9B031201354397031201B5
:1012730035C897031201352E9803120135019503E2
:101283001201352895031201357E9503120135901D
:101293009503120135E095031201351E96031201E1
:1012A30035219603120135E5D602120135F9D6022E
:1012B30012013572D7021201354BD80212013509DA
:1012C300DB021201356EDB02120135C5DB021201AE
:1012D30035F87F00120135DD8803120135688A0372
:1012E300120135C98A031201350F8B031201351F11
:1012F3009203120135749203120135E29203120133
:101303003552930312013532FD021201355CFD02A1
:1013130012013531FE0212013525FF021201357E1D
:10132300B5021201353BB60212013576B60212013F
:10133300359EB60212013500B7021201354CB702D1
:10134300120135A5B70212013536B802120135383C
:10135300B902120135F5BA0212013577BB02120147
:1013630035DCBB02120135F3BB0212013503BD02AA
:1013730012013541BD02120135B3DB011201353DC6
:10138300DF01120135C5E0011201351CE101120133
:10139300353BE101120135B9E10112013557E30192
:1013A3001201353BE40112013525E801120135F53F
:1013B300E80112013533EE021201358EF0021201FB
:1013C30035A0F10212013540F2021201359CF902F7
:1013D300120135E1F902120135FEF902120135AFAE
:1013E300FA0212013502FB02120135DDFB02120182
:1013F30035F9FC02120135CB8E03120135108F0330
:10140300120135648F03120135E28F031201354156
:101413009003120135EC9D03120135D97F00E0667C
:10142300701008A3E066700A08A3E066700408A3BE
:10143300E06622C3E7960809E7960809E7960809D4
:10144300E79622C3E09608A3E09608A3E09608A3D4
:10145300E09622C008C3E096F50808A3E096420888
:1014630008A3E096420808A3E09645087001D3D08C
:101473000822080808EAC0E0EBC0E086F0E7A4FA17
:10148300180986F0E7A42AFA180986F0E7A42AFACD
:10149300180986F0E7A42AFA1986F0E7A4FBE5F019
:1014A3002AFA190886F0E7A42BFBE5F03AFA1908A3
:1014B30086F0E7A42BFBE5F03AFA18180986F0E763
:1014C300A4C5F02BFBE43AFA1908E7C5F0C6A42635
:1014D300F6E5F03BFBE43AFA1886F0E7A4F6E5F00C
:1014E3000826F6E43B08F6E43A08F6D0E0FBD0E041
:1014F300FA22E4CFC0E0E4CEC0E0E4CDC0E0E4CC27
:10150300C0E075F020E626F608E633F608E633F683
:1015130008E633F6181818EC33FCED33FDEE33FE12
:10152300EF33FFC3EC9709ED9709EE9709EF97198E
:101533001919400FFFEC97FC09ED97FD09EE97FE93
:10154300191906D5F0BFECF709EDF709EEF709EF26
:10155300F7191919D0E0FCD0E0FDD0E0FED0E0FF90
:10156300226016080808C6C313C618C613C618C6D1
:1015730013C618C613C6D5E0EA2270090808082264
:101583006016181818C6C333C608C633C608C63350
:10159300C608C633C6D5E0EA22E627F60809E637C9
:1015A300F60809E637F60809E637F622E026F608D4
:1015B300A3E036F608A3E036F608A3E036F622E009
:1015C30026F008A3E036F008A3E036F008A3E036DF
:1015D300F022C3E697F60809E697F60809E697F6B8
:1015E3000809E697F622C3E096F008A3E096F00810
:1015F300A3E096F008A3E096F022E056F608A3E0F5
:1016030056F608A3E056F608A3E056F622E056F095
:1016130008A3E056F008A3E056F008A3E056F02232
:10162300E0F608A3E0F608A3E0F608A3E0F622E656
:10163300F008A3E6F008A3E6F008A3E6F022E0FA38
:10164300A3E0FBA3E0FCA3E0FD22EAF0A3EBF0A3FD
:10165300ECF0A3EDF022E0F8A3E0F9A3E0FAA3E0B5
:10166300FB22E8F0A3E9F0A3EAF0A3EBF022CAC05F
:10167300E0E6F0A308DAFAD0E0FA22CAC0E0E0A379
:10168300C582CCC582C583CDC583F0A3C582CCC535
:1016930082C583CDC583DAE6D0E0CA22C3E498F8D5
:1016A300E499F91216E08026C3E49AFAE49BFBE975
:1016B30020E7E91216E0E498F8E499F922C3E498E4
:1016C300F8E499F91216E0E498F8E499F9C3E49A76
:1016D300FAE49BFB22EB20E7CFE920E7E0B9001017
:1016E300BB0008E88AF084F8AAF022E4FBC8FA22D7
:1016F300EB70227B10C833C8C933C9335007C39A70
:10170300C3DBF280069A50012ADBEAC833F4C8C966
:1017130033F4C9FA2275F008E4C833C8C933C933AE
:10172300C99AC99B5004C92AC93BD5F0ECFBC833FD
:10173300F4C8E4C9FA22600D08C6A2E713C618C6A6
:1017430013C6D5E0F322600C08C6C313C618C6132C
:10175300C6D5E0F422700422600D18C6C333C60850
:10176300C633C6D5E0F41822251810AF08F5184083
:101773000C15198008F51840021519D2AF2200C0C4
:10178300D0251810AF08F518500C05198008F51866
:1017930050020519D2AFD0D0222518F58210AF0818
:1017A300F518400C15198008F51840021519D2AF29
:1017B300851983222518F582E43519F58322251826
:1017C300F8E43519F9222518FAE43519FB2225180E
:1017D300FCE43519FD22E4732518C582C0E0E51940
:1017E30034FFC583C0E0E518C3958224F810AF0821
:1017F3008583198582188008858319858218D2AF5D
:10180300CEF0A3E520F0A37808E608F0A3DEFAEF14
:10181300F0A3E58124FAF8E608F0A3E608F0A3E6CE
:1018230008F0A30808E608F0A3E608F0A31581155D
:1018330081D0E0FED0E0F8158115811581E8C0E084
:10184300EEC0E0222518C582C0E0E51934FFC58348
:10185300C0E0E518C3958224F910AF088583198584
:1018630082188008858319858218D2AFCEF0A3E54C
:1018730020F0A37808E608F0A3DEFAEFF0A3E581F1
:1018830024FBF8E608F0A3E608F0A30808E608F04E
:10189300A3E608F0A315811581D0E0FED0E0F8158A
:1018A300811581E8C0E0EEC0E022851983851882A6
:1018B300E0A3FEE0A3F5207808E0A3F608DFFAE052
:1018C300A3FFE0A3C0E0E0A3C0E0E0A3C0E0E0A387
:1018D300C0E0E0A3C0E010AF0885821885831980BB
:1018E30008858218858319D2AFD083D08202013252
:1018F300851983851882E0A3FEE0A3F5207808E02C
:10190300A3F608DFFAE0A3FFE0A3C0E0E0A3C0E092
:10191300E0A3C0E0E0A3C0E010AF08858218858390
:10192300198008858218858319D2AFD083D082228B
:10193300C0D02518C582C0E0E51934FFC583C0E0D7
:10194300E518C3958224F310AF088583198582189F
:101953008008858319858218D2AFC8F0A3E9F0A364
:10196300EAF0A3EBF0A37908E709F0A3D8FAECF0C7
:10197300A3EDF0A3EEF0A3EFF0A3D0E0F0A3D0E04B
:10198300F0A3D0E0F0A3E520F0A3E5F0F0A32285D7
:101993001983851882E0C0E0A3E0F9A3E0FAA3E08D
:1019A300FBA37808E0F608A3DFFAE0FCA3E0FDA3BD
:1019B300E0FEA3E0FFA3E0C0E0A3E0C0E0A3E0F506
:1019C300D0A3E0F520A3E0A3F5F010AF08858319B9
:1019D3008582188008858319858218D2AFD082D07A
:1019E30083D0E0F8D0E0327404800674028002747D
:1019F30001C0E0F40412179CD0E0121671227404A3
:101A0300800474028000CCC0E0EDC0E0E518C39C04
:101A1300CCAD1950011D10AF068C188D1980068CA2
:101A2300188D19D2AF12167ED0E0FDD0E0FC22D083
:101A330083D082E9C0E0E493A3C386F0C5F095F0B8
:101A4300F908E493A386F0C5F095F0700BE493A333
:101A5300C3994005E9048002A3E475F002A425823A
:101A6300F582E5F03583F583D0E0F9E493A3C0E094
:101A7300E493C0E022D083D082ECC0E0EDC0E0E488
:101A830093A3FCE493A3FDED4C600D121AC4EC2464
:101A9300FFFCED34FFFD80EFE493A3FCE493A3FD8F
:101AA300ED4C600D121B03EC24FFFCED34FFFD80B5
:101AB300EFD0E0FDD0E0FCE493A3C0E0E493C0E00A
:101AC30022C0E0C3E49396087401939618400FE490
:101AD3009366700808740193661870007019A3A3C5
:101AE300C3E49396087401939618A3A3400DD0E022
:101AF300D0E0D0E0021AB4A3A3A3A3A3A3D0E0220F
:101B0300C0E0C0F088F0E49366700808740193663F
:101B1300187000A8F0A3A3700BD0F0D0E0D0E0D0F1
:0B1B2300E0021AB4A3A3D0F0D0E0222F
:101B300074F5121847EAFEEBFFEE2434F8EF340098
:101B4000F988088909EE2435121C5CF8EE24371256
:101B50001C5CF50AEC850AF0A4FCAAF0850AF0EDFD
:101B6000A42AFDE82CF8E43DF97A257B001216E062
:101B7000EA850882850983F074075AF87401B80071
:101B8000028004C333D8FCFBEA131313541FF8EE8E
:101B900028F8EF3400F9E8245DF582E9121C5F5B58
:101BA0006003EA801CEE2436121C5CF5F0EA84A87F
:101BB000F0EE28F8EF3400F9E82438F582E9121C39
:101BC0005FF97F040218F374F5121847EAFEEBFF81
:101BD000EE2434121C5CC0E0EE2435F582EF3400B4
:101BE000F583D0E0F08E828F83A3A3A3A3A3E0FAB2
:101BF000A3E0FB8E828F83A3A3A3A3A3A3A3E0FCF4
:101C0000A3E0FDECC39AF50AED9BF50BEE247FF5FE
:101C100008EF3400F509850882F583E06401702B34
:101C2000EE2480F582EF3400F583121A05121C654C
:101C30007402121781E960137CDC7D04EEFAEFFB7D
:101C4000120BDB850882850983E4F0AC0AAD0BEE4C
:101C5000FAEFFB121B301226F9021BC2F582EF3499
:101C600000F583E022C082C083851882851983E055
:101C7000F8A3E0F9C3EA9CEB9D5010C3EC98ED99F2
:101C8000401BC3EA98EB995014800EC3EA98EB9975
:101C90004007C3EC98ED994004790180027900D0A7
:101CA00083D08222EAC39CFAEB9DFB2274ED1218CA
:101CB000479003A2E064086005E06407702C90611F
:101CC000C8E060269003D0E0F874FF68601CE875F7
:101CD000F003A4C8AAF02AF974D228FE740339FFCD
:101CE0008E828F83A3A3A3E070057900021E4CEEC1
:101CF0002468F510EF3400F511906060E0851082E3
:101D0000851183F0750A45750B0575080075090086
:101D1000E5D914F50EE5D95403F50F601CEE2482C5
:101D2000F50CEF3400F50D7403650F6058E50E6097
:101D300013EE2467121C5C700B793DEEFAEFFB1278
:101D40000BFF80A6900540E064016026850C82852B
:101D50000D83E06004780480027800850E08E508B1
:101D6000C398FA95E0FB120A7F8A088B09EA4509B5
:101D70007006120E5D021CEA850C82850D83E070F0
:101D8000048A0A8B0B78008016E5D9C0E08812E53A
:101D90000A2512F582E50B3400F583D0E0F008E85F
:101DA000C3950E40E4850C82850D83E0602874FCA9
:101DB000250EF50E780A1219EEAC0EA90FEEFAEF09
:101DC000FB120CAD7402121781E9700AAA08AB0964
:101DD0001212F5021D397403650F6058850E0C75DB
:101DE0000D00780C1219EEAC0AAD0BAA08AB091263
:101DF0000C717402121781851082851183E0F874CA
:101E000080687005750C7F8002880CE50CF50A78F7
:101E10000A1219F2E50FF50A780A1219F2A90EACA6
:101E200008AD099003D0E0FA7B0012091774021282
:101E3000178180139003A2E06408600BAC0AAD0B1D
:101E4000EEFAEFFB120D43120E6979017F0C0218B6
:101E5000F374F312184774FC12176BEAFEEBFF8958
:101E600008A2AFE433F509C2AFEE2463F50AEF34FC
:101E700000F50B8010AA0AAB0B120C291212F59078
:101E800004E3E004F0850A82850B83E0F8A3E0F91F
:101E9000E849602FE82402FAE93400FBEA2402F55D
:101EA0000CEB3400F50D780C1219EE8A828B83E06E
:101EB000FCA3E0F9EEFAEFFB120C1D74021217817D
:101EC000E960B29004E3E060579004E4E0F8900425
:101ED000E3E0C398500C7402650870449004E5E098
:101EE000603E8E828F83A3A3A3A3E0851882851909
:101EF00083121F3074021217B7E8121F309004E2E9
:101F0000E028F074021217B7AC82AD838518828581
:101F10001983AA82AB8379011209239004E3E4F0C8
:101F2000E509A2E092AF74041217817F060218F34C
:101F3000F0A3E4F09004E3E0F82200008521878517
:101F400022C622C0E074EF121933A2AFE433FEC2FE
:101F5000AF759B00906182E0A2E05012E591A2E093
:101F6000500C7591FE740165217003121CACE0A247
:101F7000E55051E591A2E5504B7591DF9003A2E049
:101F800064076005E0640870237401652170357989
:101F9000019003D0E0FA75F003A4CAA8F028FB74FE
:101FA000D22AFA74033BFB121E518018E0640D70B4
:101FB000139003C4E004F064287002E4F07A00E0B7
:101FC000F9120E6F906182E0A2E6400302206AE5FA
:101FD00091A2E6400302206A7591BF9003A2E064DB
:101FE000057008120D85120D918003120D8B75215D
:101FF00000120DFDE99003A3F07900120DF1120B10
:10200000457A017B009003A1E0F91210C19078039A
:10201000E064427055900544E014F0704DC2AF1278
:10202000202200782AD0E0F618D0E0F6E59F540789
:1020300070057509FF800375097FC4C0E07829E643
:10204000F50808E65509F509740B7808121749D008
:10205000E02508F8906270E0A2E740F8E8C333900A
:102060006272F0906270E0D2E0F0906181E0A2E3F1
:102070005009E5E9A2E3500375E9F7A3E0A2E750B0
:1020800009E591A2E7500375917FEEA2E092AF7F40
:1020900004021992C0E0C0D0C082C083906183E086
:1020A000A2E05009E5BFA2E0500375BFFEE0A2E147
:1020B0005009E5BFA2E1500375BFFDE0A2E250095F
:1020C000E5BFA2E2500375BFFBE0A2E35009E5BF04
:1020D000A2E3500375BFF7E0A2E45009E5BFA2E414
:1020E000500375BFEFE0A2E55009E5BFA2E550033C
:1020F00075BFDFE0A2E65009E5BFA2E6500375BF59
:10210000BFD083D082D0D0D0E032C0E074F21219B8
:1021100033E5A7A2E4500FE5A1A2E4500953A7EFCD
:1021200075A1EF12215EE5A7A2E5500CE5A1A2E59D
:10213000500653A7DF75A1DFE5A7A2E15009E5A18D
:10214000A2E1500375A1FDE5A7A2E2500CE5A1A212
:10215000E2500653A7FB75A1FB7F0102199274F8A8
:102160001218477521019003A2E0640670077A00F7
:102170007B00120D6DA2AFE433FED2AF9003A8E056
:10218000640170187A207B009003A1E0F912114BD2
:102190007A207B009003A1E0F91210C7906182E0E1
:1021A000D2E6F0900541E0602185C62280169003BA
:1021B000A7E064017008E5C654F84405F5C653BEAF
:1021C000FC121F3C7401652160E4EEA2E092AF7F37
:1021D000010218F38E238F24858228858327851892
:1021E00082851983E0CEA3E0CF852882852783EB03
:1021F000C9EAC8EDCBECCA75F010C3E833C8E933BF
:10220000C9EA33CAEB33CBC3EA9EF526EB9FF5252B
:10221000B35004AB25AA26EC33CCED33CDD5F0DAA0
:10222000AE23AF242274E912184774FA12176BEA2E
:10223000FEEBFF8C088D099003A2E024F7C3940500
:102240005006751001022350120CE38A0A8B0BEA28
:10225000450B700302234D120DA38A0C8B0D120D3A
:10226000A3EA650C7003EB650D60ECEEFCEFFD85F9
:102270001882851983AA82AB83120DA9850A8285EB
:102280000B83A3A3780C121623908FC3780C12151E
:10229000FD8518828519837814121623908FC378D0
:1022A000141215FD780C7914121436501F780C791D
:1022B000141215D5908F63780C1214564047850C74
:1022C00010850D11850E12850F138045908F638543
:1022D00014108515118516128517137810790C12B4
:1022E00015D57810121456501C7510007511007514
:1022F0001200751301781079141215D57810790C25
:1023000012159C800C751001751100751200751363
:10231000007409781012157D908F8B780C1216239B
:102320007810790C1214F59003A2E06408600AE0BA
:1023300064066005E064057020908F6778101214C1
:10234000565016908F6B78101215AF800C751000D8
:102350007511007512007513008508828509837850
:102360001012163274061217817F100218F374F7D8
:10237000121847120DBB90053FE064017010906287
:1023800045E4F0A3F053F4F343FE0C5390F3120D25
:102390005BE5C654804449F5C6E59E547F644970A8
:1023A000F8906185740FF090053DE0F47002A3E0B1
:1023B000602C75080175090090053DE0780812173A
:1023C00058E508F4FAA3E0600814600A14600C8071
:1023D0000DEA52808008EA52908003EA52A0790008
:1023E0007F020218F374F7121847E9FEEAFF74013E
:1023F0006E700C7A807B009003A1E0F91210C190FE
:102400002764E493F46008E493F9120B27800953DE
:10241000C680E59E547F70FA120D6190053FE0641E
:10242000017003120B5D90053DE0F47002A3E060C3
:102430002A75080175090090053DE07808121758C3
:10244000AA08A3E0600814600A14600C800DEA4238
:10245000808008EA42908003EA42A0120CE38A08D6
:102460008B09A808A909E8496017E5E170FCE82490
:1024700014F582E93400F583E0F874FF686002889F
:10248000E174016F700A7A019003A1E0F91211154D
:102490000223E074F11218478A088B098C0A8D0B0D
:1024A000908FC378081215FD740F1217B7780C12AD
:1024B0001623908FC3780C1215FD7808790C12142E
:1024C00036908F6350107808790C1215D578081261
:1024D00014564014800E780C79081215D5780C1219
:1024E000145650047901800279007F080218F374B1
:1024F000ED1218478A088B098C0A8D0B908FC378D0
:10250000081215FD74131217B7780C121623908F4A
:10251000C3780C1215FD780C790812143640117826
:1025200008790C1215D5AA08AB09AC0AAD0B8022AC
:102530007510007511007512007513017810790C73
:102540001215D57810790812159CAA10AB11AC128F
:10255000AD137F0C0218F3908FC378081216238AEC
:10256000828B8378081216107F040218F374F51218
:1025700018478C828D8378081216238A828B837881
:10258000081215E91225C1C3E098F0A3E0991225BD
:10259000B3401E908F9F78081216238A828B83780F
:1025A000081215C28E828F83E02420F0A3E0344EFF
:1025B000F080A4F08E828F83C3E09420A3E0944E39
:1025C00022EA2404F8EB3400F9E8FEE9FF8C828D5E
:1025D00083A3A3A3A3E0F8A3E0F98E828F832274E0
:1025E000F5121847E9FE9004F7E0FAA3E0FBEEC30A
:1025F00033F8E433F974E728F582748E39F583E013
:102600002AF508A3E03BF50978081219EE908FCF60
:102610001216411221D474021217818A088B098C78
:102620000A8D0B74107808121564AA08AB097F0490
:102630000218F374F11218478A0C8B0D8C0E8D0F53
:10264000740F1217B7E0FAA3E0FB74111217B7E08A
:10265000F508A3E0F50978081219EEEA2401F50857
:10266000EB3400F509E4F50AF50B780C790812143F
:1026700075908F777808121623780C7908121475E4
:10268000AA0CAB0DAC0EAD0F1221D474021217813F
:102690008B09EA450960047A0180027A00EC2AFC81
:1026A000ED3400FD74131217B7E0F8A3E0F9E8FE6B
:1026B000E9FFECF8EDF97A717B021216E0880889DF
:1026C00009E4F50AF50B8E828F837808121632EC36
:1026D000F8EDF97A717B021216E08A088B0974050D
:1026E00078081217588E828F83A3A3A3A3E508F05E
:1026F000A3E509F07F080218F3C082C083E9906067
:1027000000F0D083D08222C2AF02000022C0E07469
:10271000F2121933A2AFE433FED2AFE589A2E04052
:1027200006E589A2E15003121295758900758900AA
:10273000C2C5751A00EEA2E092AF7F01021992C0E5
:10274000E0C0D0E8C0E0E9C0E0E5A8D2AFC2C775FC
:102750001A00A2E7A2E792AFD0E0F9D0E0F8D0D01B
:03276000D0E03294
:10276400FFFFFFFFFFFFFFFFC082C083E9900A0461
:10277400F00229FB74F71217DBE99002E1F07C19EF
:102784007D037AFF7BFF1208699002E274FFF0A3D5
:10279400F0A3E4F0A3F079051207F19002E1E0F967
:1027A4001207137A877B08120A317F010218AD746D
:1027B400F41217DB8A088B09EB548060309002E135
:1027C400E0F91210A98A0A8B0BAE0AAF0BEE4F6028
:1027D400138E828F83E064B07003120809EEFAEF5F
:1027E400FB121097AA08E5096480FB80047A007B39
:1027F400000229CA74F21217DB74FC12176BEAFE8A
:10280400EBFFEE4F603874021217B7EEF0A3EF122D
:102814002C2FECF0A3ED122C2FAA82AB8312070D00
:10282400E9F508707374121217B71237E3E50A4515
:102834000B60658E828F831228A6EE4F7005750893
:102844000280557A067B001210FD8A0C8B0DA80CB1
:10285400A90DE8497005750813803D88828983E4D1
:102864001228B0A3A3EEF0A3EF123C7CE50AF0A378
:10287400E50BF09002E71229389002E76017E0FCBC
:10288400A3E08003EAFCEBFD8C828D83122938706F
:10289400F38C828D83123708A908740412178102FD
:1028A4003E7EA3A3A3A3E0FEA3E0FF22F0A3F0884F
:1028B4008289832274F21217DB890AE975F017A45E
:1028C400FEAFF09002E6E4F09002E4122938600AC8
:1028D4001211039002E4E4F0A3F0EEFAEFFB1210FD
:1028E400FD8A088B09EA4509602FEEFCEFFD7900AB
:1028F4001210859002E4E508F0A3E509F07B00805E
:1029040008122922E4F0A3F00BEBC3950A40F2E588
:102914000A9002E6F0790080027913023E7EEB759C
:10292400F017A4F8A9F09002E4E028FAA3E0398AA9
:1029340082F5832212349EEA4B2274F41217DB755B
:102944000800750900740C1217B7123C50FEE9FF19
:10295400800CE5082401F508E5093400F509C3E510
:10296400089CE5099D503285080A85090B74037893
:102974000A121758EA250AF8EB350BF9888289837D
:10298400A3A3A3A3A3A31237E3EE650A7003EF6521
:102994000B70BFE8FAE9FB80047A007B008027749F
:1029A400F41217DB7900EAA2E0501B75084C750994
:1029B4008F78081219EE7C047D007A067B0A1207D0
:1029C400EB74021217817F040218ADC082C0839099
:1029D40002E7122A02601C88828983A3A3E06A703A
:1029E40003A3E06B8882898370E8A3A3A3A31234B2
:1029F4009A80047A007B00D083D082020132123F95
:102A040051E8492274EE1217DB74FC12176BEAFECC
:102A1400EBFF851882851983E4F0A3F0EE240212FB
:102A240036ECEE2405122C1DEE2404F50EEF1230C4
:102A340002E024FE603924FC604624FE605224FE39
:102A4400605E24FE7003022B2224FE7003022B9A84
:102A540024FE7003022BA924FE7003022BB824FC6D
:102A64007003022BC724FE7003022BD6022C139092
:102A740003007417F0A3E4122C3712048B022C13F6
:102A8400851882851983AC82AD8312080F022BE36B
:102A9400851882851983AC82AD83120815022BE355
:102AA400850C08850D0974021217B7AC82AD8385B5
:102AB400088285098312349A1207318A0C8B0DAC73
:102AC4000CAD0DEC4D6042E4F50CF50D780C1219CB
:102AD400EE750C00750D03780C1219EE750C01756A
:102AE4000D03780C1219EE74081217B7121A05792F
:102AF400161234941208517408121781E9F50C70F7
:102B04000B1234901204A3800F750C018508828582
:102B14000983122C25123708850C08022BE674024F
:102B24001217B7AC82AD83850C82850D8312349A5B
:102B34001207318A108B11AC10AD11EC4D60438536
:102B44000C82850D83A3A3121A0575100075110359
:102B540078101219EE75100175110378101219EE20
:102B640074081217B7121A05791612349412085100
:102B74007408121781E9F509700B1234901204A934
:102B8400800F750901850C82850D83122C2512375F
:102B940008850908804C851882851983AC82AD8329
:102BA40012081B803A851882851983AC82AD831282
:102BB4000821802B851882851983AC82AD83120885
:102BC40027801C851882851983AC82AD8312082D59
:102BD400800D851882851983AC82AD83120833E990
:102BE400F508E50860298E828F83A3E06414601FD2
:102BF400850E82850F83E0900300122C2F123F4D27
:102C0400900301123708E508A3122C37120485EE4D
:102C1400FAEFFB1207AF0235F4F50CEF3400F50DB3
:102C240022123F5185188285198322F085188285E6
:102C3400198322F07C007D03850A82850B8312347C
:102C44009E2274EE1217DB74FC12176B8A0A8B0B2C
:102C54008C0E8D0FEA2405F508EB3400F5097C157C
:102C64007D0079007A007B03121085E5082402F5C3
:102C74000CE509122C20851882851983858210851C
:102C8400831178101219EE850882850983A3A3A302
:102C9400A312314A1219EEE5082405F510E50934AA
:102CA40000F51178101219EE850C82850D8312340B
:102CB400A412072B74061217818A108B11AE10AF61
:102CC40011E50A2402F50AE50B1236EFEE4F700304
:102CD400022E0C801774021217B712349A88828954
:102CE40083EAF0A3EBF0900300E004F0900300E02B
:102CF400C394054003022E0CE4F510F5117810126C
:102D040019EE7510E975110278101219EE7510EAB2
:102D140075110278101219EE74061217B7121A05FB
:102D24007910EEFCEFFD1234941208517408121756
:102D340081E9705E850882850983A3A3A3A3A3A365
:102D4400A3E0F89002E9E068704812314A1219EEE3
:102D54007CEA7D02E5082408FAE5093400FB121038
:102D64007F7402121781E960298E828F83A3A3A343
:102D7400A312349A900300E0F5107402781012172D
:102D84005874012510F58274033511F583EAF0A314
:102D9400EBF074021217B785821085831178101234
:102DA40019EE74021217B7121A05850C82850D8369
:102DB400123F6212073774041217818A108B11AE06
:102DC40010AF11900300E0F5107511007402781033
:102DD40012175874002510F874033511F988828984
:102DE40083A31229387003022CD0E82403F8E934B1
:102DF40000F9EE4F6003022CD98882898374FFF0B6
:102E0400A3F0900300E004F0900300E0600A1234A1
:102E1400901204977900800B850882850983123605
:102E2400FF790A0235F474EA1217DB74FE12176B89
:102E34008C128D13EA2405F50CEB1240CC1228AA4F
:102E4400750800750900EA2402F510EB3400F51149
:102E540085188285198385820A85830B780A12195D
:102E6400EE850C82850D83A3A3A3A312300C121943
:102E7400EEE50C2405F50AE50D1236EF780A121971
:102E8400EE850C82850D83123F6012072B740612A7
:102E940017818A0A8B0BEA450B7003022FBDEA24C3
:102EA40004F50EEB1230021228AA8A828B83A3A3A4
:102EB400A3E0F985108285118312349A120719E967
:102EC400F5096003022FBDE4F514F5157814121901
:102ED400EE7514E975150278141219EE7514EA7575
:102EE400150278141219EE74061217B7121A05791E
:102EF40013AC0AAD0B85108285118312349A120823
:102F0400517408121781E9F5096003022FBD90027C
:102F1400E9E0F8E5087009E02402900301F0801765
:102F2400900301E0FCE82402FAE43400FBEA6C704C
:102F340001EB6003022FC1850882AA8212314194F9
:102F4400141231395073850E82850F83E0C0E0740A
:102F5400022A122FF9D0E0F00508850E82850F832E
:102F6400A3E0C0E085080A7402250A122FF9D0E014
:102F7400F005089002E912300C1219EE7CEA7D0289
:102F840085080A7402250AFA74033400FB12106DD2
:102F940074021217819002E9E02508F50874FF6EA7
:102FA400700374FF6F6012EE24010EEF3400FFE52E
:102FB40008C394145003022E54E508601312338599
:102FC40085108285118312349A12049D790080142D
:102FD400E509700375090A851282851383EEF0A34F
:102FE400EFF0A90974021217817F0E0218AD85084B
:102FF4000C7402250CF58274033400F5832234002A
:10300400F50F850E82F58322123C8F2274EE12177F
:10301400DB74FE12176B8C0E8D0FEA2405F50CEB96
:10302400122C20750B00900300E4F0F50AEA240248
:10303400F508EB3400F5098049900300E0FA9002AA
:10304400E9E0F81231419417123139400D90030030
:10305400E0F87416C3989002E9F012314A1219EE9E
:103064007CEA7D0274012AFA74033400FB12106DA9
:1030740074021217819002E9E0F8900300E028F04E
:10308400050AE50C2416F582E50D122FFDE0F8E59E
:103094000AC3984003023122900300E0C3941650FF
:1030A4007DE50AC333F8E433F9E50C28FEE50D3970
:1030B400FF851882851983AC82AD838E828F83123B
:1030C400349A1207318A108B11AC10AD11EC4D708B
:1030D40005750B018043E4F510F51178101219EE13
:1030E4007510E975110278101219EE7510EA751150
:1030F4000278101219EE74061217B7121A0579160F
:1031040085088285098312349A12085174081217AB
:1031140081E9F50B700302303D1236FB80107C0010
:103124007D0385088285098312349A1204AFA90BA2
:1031340074020235F6E99400C365D03322EA28F814
:10314400E43400F9E822E0F51075110078102274D7
:10315400EA1217DB74FC12176B8A0C8B0D8C128D20
:1031640013EA2405F50AEB1236EF75080075090019
:10317400E50A2402F510E50B3400F5117402121768
:10318400B785820E85830F780E1219EE850A828523
:103194000B83A3A3A3A3123C3B1219EEE50A240557
:1031A400F50EE50B3400F50F780E1219EE8510823A
:1031B4008511831236F512349412072B74061217F4
:1031C400818A0E8B0FAE0EAF0FE50C2402F50EE5CF
:1031D4000D3400F50F80408882898374FFF0050860
:1031E400122FF274FFF005089002E9E0F50C750D5A
:1031F40000780C1219EE7CEA7D0285080C74022515
:103204000CFA74033400FB12106D740212178190CF
:1032140002E9E02508F508EE4F60718E828F83A3E2
:10322400A3A3E0F9850E82850F8312349A1207193D
:10323400E9F509EE2404122C1DE97044E4F514F5B3
:103244001578141219EE7514E9751502781412190B
:10325400EE7514EA75150278141219EE7408121733
:10326400B7121A057911EEFCEFFD850E82850F83E6
:1032740012349A1208517408121781E9F50960276B
:10328400850C82850D8312337B123708E5087003A1
:10329400023361123385850E82850F8312349A12AC
:1032A40004B57900023376850882AA82EA9002E99D
:1032B4007009E02404900301F08022E0F8900301F7
:1032C400E0F514E82404FCE43400FDEC651470011A
:1032D400ED70C0123141941212313950B6850C820E
:1032E400850D83E0C0E074022A122FF9D0E0F005C6
:1032F40008850C82850D83A3E0C0E0122FF2D0E094
:1033040012339785820C85830D780C1219EE7404A0
:103314001217B7121A05851082851183123F6212A3
:10332400073774041217818A0C8B0DAE0CAF0D8510
:10333400080C7402250CF874033400F9EE4F700382
:103344000231DB851882851983E0888289831233F0
:1033540097A3E0C0E0122FF2D0E00231E9E5097052
:103364000375090A850A82850B8312337B12370899
:10337400A9097404022FEA123F518512828513832E
:1033840022900301E0F5F0E50884900300F07C004E
:103394007D0322F005088518828519832274EC12B6
:1033A40017DB74FE12176B8A088B098C0E8D0FEADB
:1033B4002405FEEB3400FF851882851983AC82ADA9
:1033C400838E828F8312349A1207318A0A8B0BEE12
:1033D4002418122C1DEA450B700302346B1235DDE0
:1033E400503285188285198312349A1208458A103E
:1033F4008B11EA4511606B7912AC0AAD0B8508821A
:1034040085098312349A8510828511831217D9E9AC
:10341400F50A7058E4F50AF50B780A1219EE8E8253
:103424008F83A3A3E0F50A780A1219EEEE2403129F
:1034340036EC780A1219EE8E828F831234A41208A5
:10344400577406121781E9F50A7021850C82850DDF
:1034540083E0701F85088285098312349A1204BBA5
:103464008011750A0E8009750A018004E50A60035B
:103474001236FB850C82850D83E06004790080029E
:10348400A90A74021217817F0C0218AD7C007D0317
:10349400850A82850B8312349E22E0FAA3E0FB2284
:1034A400E0FCA3E0FD85088285098312349E227422
:1034B400EE1217DB74FE12176B8A088B098C0C8DC5
:1034C4000DEA2405FEEB3400FF750E008518828595
:1034D4001983AC82AD838E828F8312349A120731A2
:1034E4008A0A8B0BEA450B70030235C91235DD508D
:1034F4003585188285198312349A1208458A0E8BF1
:103504000FEA450F605E7912AC0AAD0B850882851F
:10351400098312349A850E82850F831217D9E9F52F
:103524000E60030235CC8508828509831237E3AA2D
:103534000AFB1208398A108B11A810A911E84970E6
:103544001E7AFF7BFF1208398A108B11A810A9116B
:10355400E849606C88828983E50AF0A3E50BF0757D
:103564000A008007750E0E805F050A9002E6E0FAF5
:10357400E50AC39A504AE50A75F017A4FAABF08835
:10358400828983A3A3E02AFAA3E03BFB8A828B838C
:103594001236F5EC4D70D2750A17750B00780A12C5
:1035A40019EEEEFCEFFD12106D7402121781EEFCA1
:1035B400EFFD85088285098312349A1204C18014B0
:1035C400750E098003750E01123F49850C82850D25
:1035D40083123708A90E023134E5082402F508E500
:1035E400093400F5098A828B83A3A3A3E0A2E52210
:1035F40074041217817F0A0218AD74EC1217DB8C65
:10360400108D11EA2405F50CEB122C20750F00EA3D
:103614002402F50AEB1236EF850A82F58312349AF6
:103624001208398A088B09EA450970030236E175E4
:103634000E008071850C82850D83E06401704F8ECD
:10364400828F83A3A3121A058E828F83A3A3A3A3BD
:10365400E0F51275130078121219EEEE2405F51236
:10366400EF3400F51378121219EE1234941208573D
:103674007406121781E9F50F6014850C82850D8399
:10368400E4F0123F498510828511831237087C17B4
:103694007D007900EEFAEFFB1210858E828F83E4B1
:1036A400F0A3F0050E9002E6E0F8E50EC398501E74
:1036B400E50E75F017A4F8A9F0850882850983A39F
:1036C400A31240D61236F5EC4D6003023638850855
:1036D4008285098374FFF0A3F0E50F700612349419
:1036E4001204C7A90F02348BF50AEF3400F50B223C
:1036F400A3E0FCA3E0FD228E828F83123F51850E4E
:1037040082850F83E8F0A3E9F022C082C08390028F
:10371400E2E06A7003A3E06B70067AE27B02800445
:103724007A007B000229FBC082C08378008C828DE2
:1037340083E06A7003A3E06B7010E875F003A4F8EB
:10374400A9F0EC28FAED39FB8015088C828D83A34F
:10375400A3A3E06A7003A3E06B60DF7A007B00023E
:1037640029FB74F61217DB1208038A828B83E58225
:10377400458370067A007B008007A3A3A3A31234B9
:103784009A023DFA74F21217DBE9FE740E1217B7AF
:103794001237E374101217B7123C5B8C828D83E0EE
:1037A40064027036A3123F57F50CA3E0F9A80C7419
:1037B400026870037429697021750C02750D007814
:1037C4000C1219EE78081219EE780A1219EEEEF9B5
:1037D40012087B740612178180027901023E7EE092
:1037E400F50AA3E0F50B2274E81217DB74FB121739
:1037F4006BE9851882851983F08A168B17ECFEED28
:10380400FF751000741D1217B7123F4D741D121767
:10381400B71237088E828F83A3A3A3E0A2E4502DAE
:10382400741D1217B712349A1208458A828B83E5E5
:103834008245837003023C2C790AEEFCEFFDAA1644
:10384400AB171217D9E9F5106003023C2F741F124D
:1038540017B7123C5B74211217B71237E3742312A3
:1038640017B7E0F50EA3E0F50F8E828F83E06402B4
:103874006003023BDAA3123F4D850882850983A3C6
:10388400858212858313EE2406122C1D8882898377
:10389400E0FAA3E0F9EA2400F514E439F515781404
:1038A400121A78010000280128CF38070002289452
:1038B40039032801390029CB3A0129F63A0229971C
:1038C4003A0329CB3A0429753BDA3BE50E450F60F0
:1038D40003023BD5850C82850D83123C50FAE9FB2B
:1038E4008A828B83E0850A82850B83123C861219B7
:1038F400EE8A828B83A3E0FCA3E0023B5FE50E45E6
:103904000F6003023BD5850A82850B837401F01294
:103914003C63850882850983F07C007D008E828F5C
:1039240083A3A3A3A3E02401FAA3E03400FB1207BA
:1039340031EA4B60418A828B83E02402F8850A8253
:10394400850B83E028F0EA2404F8EB3400F988823C
:103954008983E0851282851383123C98123C861277
:1039640019EE8A828B831236F4E5082403FAE509FA
:103974003400FB023B64850A82850B83E02404F057
:103984007C047D007900AA12AB13121085023C2F2F
:10399400E50E450F6003023BD5123C63FEA3E0FF36
:1039A400850A82850B837404F0EE85088285098379
:1039B400F0EF851282851383F074031217B7AC827B
:1039C400AD83EEFAEFFB1207318A0C8B0DEA450D3D
:1039D4007003023A788A828B83A3A31228A6740107
:1039E4001217B785820E85830F780E1219EE7405AF
:1039F4001217B7121A057CFF7DFF120737740412E1
:103A040017818B0FEA450F7033850C82850D831265
:103A14003C3B1219EE850C82850D83A3121A057C9A
:103A2400027D007A047B901205637404121781E905
:103A3400700A74011217B774FFF0A3F08E828F839B
:103A4400E064027039750C02750D00780C1219EEE1
:103A54008E828F831236F4E5082404FAE5093400D3
:103A6400FB12106D7402121781850A82850B83E0A4
:103A74002402800974011217B7EEF0A3EFF0740169
:103A84001217B7123C4CF074011217B7A3123C443E
:103A9400023BCFE50E450F6003023BD5850C8285C2
:103AA4000D831236F5AA16AB1712086F850A8285A4
:103AB4000B837402F0EA850882850983F0851282FB
:103AC400851383EB023BD2E50E450F6003023BD521
:103AD400123C63F8A3E0F9850A82850B837402F033
:103AE400E8850882850983F0E985128285138302BB
:103AF4003BD2850C82850D8312349A121067EAFC3E
:103B04008C82A882C3950EE4950F405FE8650E7021
:103B140002E50F70047C008022851882851983E0F9
:103B2400FAE50E2AFAE50F3400FBC3EA98EB940099
:103B34005003E08005E50ECCC39CFCEC850A82852D
:103B44000B83F08C0A750B00780A1219EE850C822F
:103B5400850D83E0250EFCA3E0350FFDAA08AB0913
:103B640012106D7402121781023C2F751007023C6B
:103B74002FE50E450F705A850C82850D83123F4D3B
:103B8400850A82850B8374071228B2123C441228DA
:103B9400B2A3E0851282851383F0E82402FAE934A3
:103BA40000FB8A828B83123C44123C73123C4CA36C
:103BB400123C7C123C55F0E82405F8E93400F988FD
:103BC400828983123C55A3123C98A3A3A3A3F0803B
:103BD4005A75100B8055741D1217B712349A1208B7
:103BE400038A828B83E5824583603D123F4D880CB6
:103BF400890DE8450D6031780E1219EE780A121914
:103C0400EE78081219EE74061217B7E0F9EEFCEF1D
:103C1400FDAA16AB17850C82850D831217D974067D
:103C2400121781E9F510800375100EA9107405129E
:103C340017817F100218ADE0F50E750F00780E2283
:103C4400E085088285098322123CA222123F51E8B2
:103C540022123CA2A3A322E0F508A3E0F5092285E1
:103C64000C82850D83E0F8A3E0F5838882E022A32B
:103C7400A3F08A828B83A322F088828983A3A3A3DF
:103C8400A322F08A828B83123C8F22E0F50A750B03
:103C940000780A22F088828983A3123CA222E0855C
:103CA4000882850983A3A32274EE1217DB74FE1223
:103CB400176B8A0A8B0BECFAEDFB74141217B7E03E
:103CC400F510A3E0F51174161217B7E0FE7418127C
:103CD40017B7E0F50EA3E0F50F851882851983ACBC
:103CE40082AD831207318A0C8B0DEA450D6049853C
:103CF400188285198312349A1208038A828B83E509
:103D0400824583602FA3A3123C5BE5084509602428
:103D1400780E1219EE78101219EEEEF9AC0CAD0D06
:103D2400AA0AAB0B8508828509831217D974041279
:103D340017818006790E8002790102313474F612FB
:103D440017DB74FE12176B740C1217B7123C5085F4
:103D54001882851983F074011217B7E9F0E4F508A5
:103D6400F50978081219EE75080278081219EE742C
:103D7400041217B785820885830978081219EE1290
:103D8400085774061217817402121781806874F739
:103D94001217DBEAFEEBFF89087C197D0312086F1A
:103DA400EA5402600BA908EEFAEFFB120725800221
:103DB40079010227AE74F61217DB74FF6A7003747C
:103DC400FF6B70168C828D83123DFFE4F08C828D24
:103DD40083A3A3A3123DFFA3801812083F8A088B74
:103DE40009A808A909E849600D8882898374FF122B
:103DF40028B0A3A3E4F07F020218AD74FFF0A3F08F
:103E04008C828D83A3A32274F61217DB12083F8AD7
:103E1400828B83E58245836006A3A3E0FA80027A5D
:103E2400007B0080D174F21217DB8A088B09ECFE48
:103E3400EDFF740E1217B7E0F50A12083F8A0C8BD7
:103E44000DA80CA90DE8497026EEFCEFFD7AFF7B66
:103E5400FF12083F8A0C8B0DA80CA90DE8497004C9
:103E64007911801688828983E508F0A3E509F08832
:103E7400828983A3A3E50AF079007F060218AD7452
:103E8400EE1217DBEAFEEBFF8C088D09890C741423
:103E94001217B7123F4D74161217B712349A750DD4
:103EA40000E8496003023F417402650C6003023F6D
:103EB4003C74121217B7123F57FCA3E0F9EC24002C
:103EC400F50EE439F50FEAF4F8EBF4F9EC58F8E5FB
:103ED4000F59F9E849705CE5082406F8ED3400F957
:103EE400880A890B8882F583123F6212086F8A1050
:103EF4008B11E50E65107004E50F65116042780EB4
:103F04001219EE850A82850B83123F6212087574BA
:103F140002121781E9F50D7027780E1219EE850843
:103F240082850983A3A3123F6012088D74021217BD
:103F340081800D750D808008750D0D8003750D0B46
:103F4400A90D0235F98E828F83123F5122E0F8A326
:103F5400E0F922123F5188828983E022A3A3E0FC86
:103F6400A3E0FDEEFAEFFB2274E81217DB74E7120C
:103F7400176B851882851983EAF0A3EBF08C168DF4
:103F840017890E75080075090074311217B7E0F52A
:103F940012A3E0F51374331217B7E0F514A3E0F598
:103FA4001574351217B7E0F50FE50975F003A4F899
:103FB400A9F08518828519831240D6E0F47003A312
:103FC400E0F470030240B9EE2402F50CEF1240CC89
:103FD400E070030240B985160A85170B780A121996
:103FE400EEAC14AD15AA12AB131207F77402121734
:103FF400818A0A8B0BEA450B70030240B9E4F51081
:10400400F51178101219EE74061217B7858210850F
:10401400831178101219EE74091217B7858210856E
:10402400831178101219EE851282851383A3A3A33A
:10403400A3121A057914AC0AAD0B8E828F83123445
:104044009A1208517408121781E97069850A8285E9
:104054000B83A3A3A3A3123F4D74021217B7123705
:1040640008850C82850D83E0A2E05018A90E740225
:104074001217B7AC82AD838E828F8312349A1207E3
:1040840049E94208850C82850D83E0A2E15026E5CA
:104094000FF50A780A1219F2A90E74031217B7ACB5
:1040A40082AD838E828F8312349A12074374011275
:1040B4001781E942080509E509C394025003023F48
:1040C400ADA9087419023C333400F50D850C82F552
:1040D4008322E028FEA3E039FF8E828F832274F2CC
:1040E4001217DBEAFEEBFF890B7401650B600E749B
:1040F40002650B706A7901120A4FE97062EEFAEFF9
:10410400FB1208398A088B09EA45096047750A00D9
:10411400800B7C177D007900121085050A9002E659
:10412400E0F8E50AC3985021E50A75F017A4F8A948
:10413400F0850882850983A3A3E028FAA3E039FB6C
:104144008A828B83122A0270C98508828509837446
:10415400FFF0A3F07C197D03EEFAEFFB120869026D
:104164003E7E74F21217DB8A088B09ECFEEDFF74B5
:104174000E1217B71237E3900A04E0F4603D7A098F
:104184007B00121091EA4B60328A828B8374B1F007
:10419400A3E4123C75A3123C73A3E508F0A3E5095C
:1041A4001241C2EEF0A3EF1241C2A3A3E50AF0A3A9
:1041B400E50BF0900A04E0F912109D023E7EF08AAD
:1041C400828B83A3A3A3A3A32274F01217DB74FA34
:1041D40012176B8908ECFEEDFF7509008A0A8B0B38
:1041E400780A121A32000410F54310422E42484253
:1041F40060427E429642B942D142E5420F438C432B
:104204009D43B443CF43F543F54325437401650807
:1042140060030243F08E828F83E0F8C3940340036B
:104224000243F0E8900AF00243CC7402650860038C
:104234000243F08E828F83124B9D900AF1E8F0A323
:10424400E90243CC7401650860030243F012441D83
:1042540040030243F0E89007660243CC740165080A
:1042640060030243F08E828F83E0F8C39405400319
:104274000243F0E89007670243CC740165086003C9
:104284000243F012441D40030243F0E89007680221
:1042940043CC7410650860030243F0750A10750B73
:1042A40000780A1219EE7A697B0712106D740212F3
:1042B40017810244167401650860030243F0124436
:1042C4001D40030243F0E89007790243CC74016572
:1042D4000860030243F08E828F83E0900AF4024365
:1042E400CC7404650860030243F08E828F83780CDB
:1042F400121623908FCF780C12145650030243F0F9
:1043040090077B780C121632024416E960030243CC
:10431400F01206D1E970051211FF805690080E8044
:10432400637407650860030243F0750A06750B00A1
:10433400780A1219EE8E828F83A3AC82AD83740245
:104344001217C912107374021217817C007D00AA1F
:1043540018AB198E828F83E0F91211ABE9F50AC309
:10436400940A40030244131206D1E9700CA90A12FC
:1043740012057950121373806E740F250AF582E4C6
:104384003408F5837401804074016508705E12443A
:104394001D5059E890077A802F74016508704D8E7E
:1043A400828F83E0F8C3940A5042E8900AF380189D
:1043B4007401650870368E828F83E0F874F928C31F
:1043C400940A5028E8900AF5F08047740165087053
:1043D4001B90080DE0F88E828F83E090080DF0E8C2
:1043E4007030E06401702B1211F380267509188077
:1043F40021C3EA9427EB9400501574026508700FEA
:104404008E828F83124EC012056FE9F50980037501
:104414000902A90974060247FD8E828F83E0F8C35E
:10442400940222740E1217817F040218AD74F012E4
:1044340017DB74B112176B8C0E8D0F908F347420B0
:104444001217D1740612167E74201217D11211ABF2
:10445400E9F50B745F1217B7E0F50CE9C3940A4051
:10446400030245AF75F006E9A4F50974411217D1AA
:104474007A0E74202509F912136DE97009744D122E
:1044840017B7E0FE80027E00900AF0E06402700537
:1044940075080180037508007408650C70047422A3
:1044A400800274212509FF7C1B7D0079007426128B
:1044B40017C9121085EEA2E0E433F50A7426121728
:1044C400D17A1BEFF912136DE9702574401217B7F6
:1044D400E024F9C3940A501878081219F2742712C8
:1044E40017D1A90AAA0EAB0F120611740112178173
:1044F4007C147D007900740C1217C9121085740C99
:104504001217D17A1074242509F912136DE9703049
:104514007C1079FF740C1217C91210E5E97021742C
:104524001C1217B7AC82AD837A0474252509F912DD
:10453400136D740C1217D1A90AAA0EAB0F1205F948
:10454400AC18AD197A0C7470250BF912136DE9705F
:1045540049AA18AB191211DB7F00EF75F003A4F818
:10456400A9F0851882851983E58228F8E583124C21
:10457400C5124EBA601D88828983A3A3E0F508752D
:10458400090078081219EEAA0EAB0F12085D740226
:104594001217810FEFC3940440C0EEA2E1500C90B7
:1045A4000765E0F9AA0EAB0F1208637404650C707A
:1045B40027900AF0E06402701F7A00900779E060A7
:1045C400010A900766E06004780480027800E84AF3
:1045D400F9AA0EAB0F1206B97900744F0247FD74A5
:1045E400F11217DB74F012176B8A0C8B0D8C088D8B
:1045F400097E0AE9600C14600914603A14607502BB
:1046040046C91211EDE9FEC3940A40030246C9E506
:1046140008450970030246C9750A06750B00780A35
:104624001219EEAC0CAD0DAA08AB0912106D740290
:104634001217810246C97F00750A06750B00780AB5
:104644001219EEAC0CAD0DEF75F00EA4F8A9F074D0
:104654008728FA740739FB12107F7402121781E954
:1046640070090FEFC3940A505C80CDEFFEC3940A27
:10467400505380427F00AC18AD197A1075F006EFE4
:10468400A42423F912136DE9701C7C1079FFAA1875
:10469400AB191210E5E9700EAC0CAD0DAA18AB19EC
:1046A4001205DBE960090FEFC3940A501880C7EFC5
:1046B400FEC3940A500FE50845096009AA08AB092E
:1046C400EEF91211E7EEF974101217817F07021840
:1046D400AD74F41217DBE9FF7E1574FF6A7003747E
:1046E400FF6B7028750800EFFC7A027B00A90812A2
:1046F40011C9E960027E000508E508C3940A40E791
:10470400EF604E7A177B12120A618045120A438ABF
:10471400088B09EA450960387C007D00EA2405FA23
:10472400E43509FB850882850983A3A3A3A3E0F9E3
:104734001211ABE9C3940A500BEFFC7A027B00120E
:1047440011C97E00EF600AAA08AB09121217800192
:104754001EEEF902442C74F21217DB8C088D097ECC
:1047640015740E1217B7E0F50AA3E0F50B74FF6A8F
:10477400700374FF6B701D7F00AC0AAD0BAA08AB0D
:1047840009EFF91211CFE960027E000FEFC3940A1A
:10479400503B80E5120A438A828B83E5824583601D
:1047A4002B7C007D00E5822405FAE43583FBA3A37A
:1047B400A3A3E0F91211ABE9C3940A5010AC0AADFB
:1047C4000BAA08AB091211CF7E0080011EEEF97FFF
:1047D400060218ADC082C08390077FEAF0A3EBF015
:1047E400900765E0FC7D007A267B0012056F900738
:1047F40065E0F91207D90252C01217817F08021826
:10480400AD74F01217DB74EC12176BEAFEEBFFEEDB
:10481400240CF50CE43FF50DEE2405F50EE43FF50C
:104824000FEE2409F50AE43FF50BEE2403F508E442
:104834003FF5098E828F83A3A3E024FA7003024A12
:10484400C124FD70030249DF1470030248DC1460C4
:104854001024FD70030249B6147003024A16024B79
:10486400181255C2604AE0F5838882E0F50EA3E091
:10487400F50FE50E450F6038850C82850D83E0F554
:104884000C780C1219F2EE240BF582E43FF583E068
:10489400F9850A82850B83124EC00A0A0AAB098580
:1048A4000E82850F831217D97401121781024B18D7
:1048B400850A82850B83121A0590077B1216411212
:1048C400060B7402121781E97003024B18790185F3
:1048D4000A82850B83024A8C8E828F83A385820A87
:1048E40085830BE06003024999850E82850F83E07E
:1048F400A2E040030249999008191255C5600302C9
:1049040049997C0E7D007900AA18AB19121085858F
:104914000C82850D8312528BEA4B6010750C067560
:104924000D00780C1219EEEA2410801B1252851225
:104934000A43EA4B7003024B18750C06750D007898
:104944000C1219EEEA2405FCE43BFD74021217C9AB
:1049540012106D7402121781850E82850F83E0A2F6
:10496400E25004D2F08002C2F0A2F0E433F8740CF6
:104974001217B7E048F0EEFCEFFDAA18AB191211BC
:10498400E1E970117A027B00900765E0F91210C129
:104994007900024B1A1255C27003024B18124B1FB6
:1049A4007003024B18850A82850B83E0FC790102AF
:1049B4004AB51255C27003024B1812524A890BE8C9
:1049C400450B7003024B188E828F83A3E0FC79029F
:1049D4001252858882850B83024ABC7C007D00EEDE
:1049E4002404FAE43FFB850882850983E0F9121167
:1049F400ABE9F8C3940A4003024B18EE240AFCE422
:104A04003FFD7A0475F006E8A42425F91213670221
:104A14004B1812528590077AE06007900AF3E0F988
:104A24008069900AF0E070047905805F120A438A75
:104A34000C8B0DA80CA90DE82404F50CE439F50D34
:104A44008E828F83A3A3A3A3A3A3A3E0A2E05041D8
:104A5400E8497003024B18850C82850D83E0FE60E3
:104A640030850A82850B83E054107025740E12176A
:104A7400D1E82405FAE439FBEEF91211ABE970111F
:104A8400790385088285098312528B120605024B2D
:104A940018AC0EAD0F850C82850D83E0F91252859A
:104AA4001212231255C2606C124B1F60677C00798E
:104AB400001252858E828F831217D980571206D125
:104AC400E9705190080EE0640170151211FF90080E
:104AD4000EE4F07C0AFDF97A0F7B08121085802C15
:104AE400750A00850A08740F2508FEE43408FF8E51
:104AF400828F83E06401700BA90A1212058E828FE3
:104B040083E4F0050AE50AC3940A40D779501213E6
:104B1400731211F3790174140247FD12524EE8FE28
:104B2400E9FFEE4F2274F41217DB74F212176BEAEA
:104B3400FE8C0975F006E9A42420F508AC18AD191B
:104B44007A0EF912136DE9704B7C0679FFAA18AB43
:104B5400191210E5E9703D740C1217B7124B9DE859
:104B6400F50BE5096005EE420B8004EEF4520B856B
:104B74000B82AA82E86A7001E96015740C1217B7F7
:104B8400EAF0A3E4F0AC18AD197A0EA90812136781
:104B9400790180027900024427E0F8A3E0F9227445
:104BA400F21217DB74E612176B89098A0C8B0DEC71
:104BB400FEEDFF740C1217D17A0E75F006E9A424E9
:104BC40020F912136DE96003024C887C0679FF74A6
:104BD4000C1217C91210E5E96003024C88747025A1
:104BE40009F508AC18AD197A0CF912136DE96003D4
:104BF400024C84AA18AB191211DBE50C450D701D8B
:104C04007C0C7900AA18AB191210E5E970727C0CBF
:104C14007D007900AA18AB191210858051AC18AD2B
:104C240019AA0CAB0D1211D58A0A8B0BA80AA90B71
:104C3400E8497022EE4F604CAC18AD197A007B0045
:104C44001211D5EAF8EBF9EA4B603988828983E5D9
:104C54000CF0A3E50DF0124D01FAEE6A7001EF605D
:104C64001FEEF04F700888828983E4F0A3F0AA183D
:104C7400AB191211DBAC18AD197A0CA90812136721
:104C8400790180027900741A1217810247D374F7EC
:104C94001217DB7F00EF75F003A4F8A9F0EC28F8F5
:104CA400ED124CC5E06A7003A3E06B7006E8FAE904
:104CB400FB800B0FEFC3940440DB7A007B00024FB0
:104CC400FD39F9888289832274F71217DB7E00EE9E
:104CD40075F003A4F8A9F0EA28F8EB124CC5E0F447
:104CE400FCA3E0F4FD88828983ECF0A3EDF0124D7F
:104CF40001F4F00EEEC3940440D5024FFDE8240203
:104D0400F582E439F583E02274F41217DB74F412AB
:104D1400176BEAFEEBFF8C0A8D0B9008191255C530
:104D2400704FEE4F7003024E9BEC450B7003024E26
:104D34009B1211EDE9900AF6F0C3940A403375080A
:104D4400007C0679FFE50875F00EA4FAABF07481D7
:104D54002AFA74073BFB1210E5E96003024DF405DF
:104D640008E508C3940A40D975090AE509900AF6CA
:104D7400F0900AF6E0C3940A4003024E9B75F006D5
:104D8400E0A4F890081912528BEA4B7069EEFCEF1C
:104D9400FD7A0E742028F91213677C0C7D0079FFCC
:104DA400AA18AB19121085AC18AD197A0C900AF632
:104DB400E02470F912136775080E7509007808125B
:104DC40019EEEEFCEFFD900AF6E075F00EA4F8A9DA
:104DD400F0748128FA740739FB12106D74021217EB
:104DE40081900819E50AF0A3E50BF07900024E9DC5
:104DF400850809024D6F124EA22406124EB46019A2
:104E04007A1B742128F9121367124EAB2406F5821B
:104E1400E438F583E4F0A380D1124EA2240A124EA2
:104E2400B460107A1B742228F9121367124EAB2453
:104E34000A80DB124EA2240C124EB460107A107455
:104E44002328F9121367124EAB240C80C1124EA210
:104E54002408124EB460347A10742428F9121367AB
:104E6400124EAB2408F582E438F583E02410FCA349
:104E7400E03400FD7A0475F006900AF6E0A42425D7
:104E8400F9121367124EAB2408808390080DE0607A
:104E94000312122912121D7901740C02442990087C
:104EA40019E0F9A3E0C922900819E0F8A3E0C822A8
:104EB400F582E439F583124EC0EC4D22E0FCA3E008
:104EC400FD2274F41217DB74F212176BEAFEEBFF87
:104ED400E9C3940A5004EE4F700479028034AC188C
:104EE400AD197A0E75F006E9A42420F912136DE9C0
:104EF400F508701C750A06750B00780A1219EE7411
:104F0400021217D1EEFAEFFB12106D740212178120
:104F1400A90802442774F41217DBEAFEEBFF7508B4
:104F240000750A06750B00780A1219EEEEFCEFFD07
:104F3400E50875F00EA4F8A9F0748128FA7407390D
:104F4400FB12107F7402121781E96004A908800B18
:104F54000508E508C3940A40C8790A02442C74F78A
:104F64001217DB750800E50875F00EA4F8A9F074B3
:104F74008128FE740739FFEEFCEFFD7A0E75F0060A
:104F8400E508A42420F912136DE960297C067D004C
:104F940079FFEEFAEFFB1210857C067D0079FFEEB7
:104FA4002CFAE43FFB121085EE240CF582E43FF565
:104FB40083E4F0A3F00508E508C3940A40A8900828
:104FC4000DE0600312122912121D802D74F71217BE
:104FD400DB7E007F007C0679FFEF75F00EA4FAAB50
:104FE400F074812AFA74073BFB1210E5E970010E94
:104FF4000FEFC3940A40DEEEF97F010218AD74F797
:105004001217DB7E00EEF91212050EEEC3940A505D
:1050140003E960F180E374F31217DB74CB12176BAE
:10502400E9FF900AF6E06F701B7A017B0090076538
:10503400E0F91210C77A027B00900765E0F91210BC
:10504400C712123575F006EFA4FE74202EF508740D
:10505400271217D17A0EA90812136DE960030251C1
:10506400207C0679FF74271217C91210E5E9600342
:105074000251207C0E7D0079FF74271217C912108B
:10508400857C1B7D0079FF740C1217C91210857C76
:105094000C7D0079FFAA18AB19121085742712171A
:1050A400D17A0EA908121367E9F508740C1217D106
:1050B4007A1B74212EF9121367E9F50C740C12177C
:1050C400D17A1B74222EF9121367E9F50B740C12B2
:1050D40017D17A1074232EF9121367E9F509740CA9
:1050E4001217D17A1074242EF9121367E9F50A7491
:1050F4000C1217D17A0474252EF9121367E9FEAC49
:1051040018AD197A0C74702FF9121367E9F8E50CCD
:10511400450B4509450A4E4842088003750800A915
:105124000874351217817F050218AD74F71217DB66
:10513400E9900765F01211F3024FFD74F41217DBC6
:10514400EAFEEBFF548070030251D7900765E0F943
:105154001210A98A088B09EA4509607078018A82CD
:105164008B83E02450603D14600624E1604F80523C
:10517400A3A3A3A3E0704E8A828B83A3A3A3A3A3B8
:10518400A3A3121A058A828B83A3A3A3A3A3124EFB
:10519400C08A828B83A3A312528B1211B77402129A
:1051A40017818021A3A3A3A3E0641E701879008A49
:1051B400828B83A3A312528B1211B180081211C3E4
:1051C400E9F8E86007AA08AB09121097EEFAEF6451
:1051D400808065EE540260237C007D007A007B00B1
:1051E4001211E1E960117A017B00900765E0F91280
:1051F40010C1EE6402803F7A028046EEA2E0503F86
:1052040012525B12528B12122FE9602F1255C26098
:105214001F12524A88088909E8450960137C0079FD
:105224000112525B12528B8508828509831217D9A9
:10523400121235EE6401FAEFFB80087A0180027ADB
:10524400007B0002442C12524E22E0F5838882A394
:10525400A3E0F8A3E0F922900819E0F8A3E0F583AD
:105264008882A3A3A3227F020218ADC082C08390C8
:105274000765E0F98A828B83A312528B120863803C
:105284003B850882850983E0FAA3E0FB22C082C043
:105294008374FF12176B1211F9E9C3940285188203
:1052A400851983400474028002740AF0AC18AD19A5
:1052B4007A0179051206E97401121781D083D0822C
:1052C40002013274F41217DB74E812176B8A088B2C
:1052D40009E9FE8C0A8D0B7C187D007900AA18ABB5
:1052E40019121085851882851983E508F0A3E5094C
:1052F400F0900767E0C0E074021217B7D0E0F090B6
:105304000768E0C0E074031217B7D0E0F0900AF524
:10531400E0C0E074171217B7D0E0F074151217B795
:10532400E054FEF8A3E0F9900AF4E0A2E0E433FAD2
:10533400E84AF874151217B7125462A2E15004D265
:10534400F08002C2F0E854FDFAA2F0E43325E0F85C
:10535400EA48F874151217B7125462A2E35004D243
:10536400F08002C2F0E854F7FAA2F0E433F50875CD
:1053740009007403780812175812545B1217B712F5
:105384005462A2E45004D2F08002C2F0E854EFFA6E
:10539400A2F0E433F5087404780812175812545B29
:1053A4001217B7125462A2E55004D2F08002C2F080
:1053B400E854DFFAA2F0E433F5087405780812170C
:1053C4005812545B1217B7125462A2E25004D2F07E
:1053D4008002C2F0E854FBFAA2F0E433F508740248
:1053E400780812175812545B1217B7E8F0A3E9F0C3
:1053F400900768E0601D75081078081219EE7C6942
:105404007D0774061217B7AA82AB8312106D74025B
:10541400121781900779E06010EE60097415121775
:10542400B7E04402F078018002780074141217B7D0
:10543400E048F0900766E060047804800278007425
:10544400141217B7E048F0AC0AAD0BAA18AB191246
:1054540005FF7418024429EA4508F8741522E8F097
:10546400A3E9F0900AF4E02274F71217DB1208DBC8
:10547400750800E50875F00EA4F8A9F0748128FEFB
:10548400740739FF7C0679FFEEFAEFFB1210E5E9A9
:105494007009EEFAEFFB79001208E10508E508C38C
:1054A400940A40CF024FFD74F61217DB74FD1217F5
:1054B4006BEAFEEBFF90081B1255C5703975081D89
:1054C40075090878081219EE75080275090078083C
:1054D4001219EE7508F475098F78081219EE7CFF1D
:1054E4007DFF7A017B0012072B7406121781900846
:1054F4001BEAF0A3EBF090081B1255C5700302558C
:10550400ACE4F508F50978081219EE74041217C111
:105514008808890978081219EE74041217C18808DA
:10552400890978081219EE90081D121A057902905B
:10553400081B1255BA1208517408121781E9703603
:10554400851882851983E0FA74011217B7E0F8E42C
:10555400C8F9EA28F508E439F509EA450960177835
:10556400081219EE90081B12525EA31255BA1211BA
:10557400B77402121781E4F508F50978081219EED8
:1055840090081D121A057CFF7DFF90081B12528B98
:10559400120737740412178190081BEAF0A3EBF08A
:1055A40090081B1255C570047901800279007403B8
:1055B40012178102526A124EC0EEFAEFFB229007D4
:1055C4007F124B9DE84922C082C08390081912556E
:1055D400C5601090081912528B121097900819E4A4
:1055E400F0A3F0900AF6740AF00252C0C082C0839D
:1055F4009061907404F0A37448F0A3E4F090618087
:105604007440F09061BC7407F09061877469F09005
:1056140061B67416F07900120B4B7902120B51909B
:105624002764E493F46006E493F9120B27790512D6
:105634000E510259EBC082C083E9540FF990618581
:10564400E0696012E5C654804449F5C6E59E547F7E
:10565400644970F8E9F053C680E59E547F70FA02FD
:1056640059EB74F71217DBE5A8FE53A87E120B332F
:10567400C2BA539AFEC289759B00C2C2120B397515
:10568400A91175B905120B3FD2BA439A0174805E11
:1056940042A8025F82C082C083906181E4F0A302C9
:1056A40059E875E90075910075BF00020132C082A6
:1056B400C083906181E4F0A374C0F0A3E40259EACA
:1056C400C082C08374F812176B9003A412691B7014
:1056D400030257A39003A4E054406023790885187B
:1056E40082851983AA82AB83120C47851882851997
:1056F40083AA82AB831208FF9003A4E054BFF0E0B6
:1057040054806010790C7A657B05120C479003A4D1
:10571400E0547FF0E0A2E0500F7900120B4B120925
:10572400059003A4E054FEF0E05402600F790112E6
:105734000B4B1209059003A4E054FDF0E0540460FF
:105744000F7900120B5112090B9003A4E054FBF0E3
:10575400E05408600F7901120B5112090B9003A455
:10576400E054F7F0E05410600F7902120B51120963
:105774000B9003A4E054EFF0E05420600F7903127F
:105784000B5112090B9003A4E054DFF0A3E0540181
:10579400600D120B5D1209119003A5E054FEF07424
:1057A400081217810259EBC082C083E960051460B6
:1057B4002A804F90619A7433F0A37455F09061A0DD
:1057C400743AF090053FE064017009C2919003A619
:1057D4007467802D9003A67461802690619A743F4B
:1057E400F0A3745AF09061A0747FF090053FE064D8
:1057F400017009D2919003A6747180059003A67478
:105804006AF00259EBC082C083E9600B14600D1486
:10581400601714600C802090276880159027698099
:105824001090053FE06401700590276A800390277B
:105834006BE493906186F00259EB74EE1217DB74FB
:10584400F412176B851882851983AC82AD83758336
:105854008F7582BB740412167E90276893F46003DC
:10586400025968907808E0C39402500302594874BE
:10587400041217B7AC82AD8375838F7582267408C2
:1058840012167EFC7EFF7FFF8E0C7D008C8285824B
:105894000E800F74086D606D74096D6068740A6D14
:1058A40060638D087509007402780812175812593C
:1058B40072121623A909E50AC9F888107418780821
:1058C400121564E5104508FAE9FBE50EC333F8E464
:1058D40033F974041217B7E58228F582E583391287
:1058E4005E72C3E89AE99B4008E8C39AF8E99B8092
:1058F40006EAC398F8EB99F9C3E89EE99F5006E8D5
:10590400FEE9FF8D0C0DEDC39413408774FF6E7098
:105914000374FF6F6024850C08740278081217580A
:10592400125972121623851882851983E582250E71
:10593400F582E583126311E508F00CECC39404507E
:105944000302588875080175090078081219EE7465
:10595400021217B7AC82AD837ADA7B091212717422
:1059640002121781740C1217817F0A0218AD744851
:105974002508F58274783509F583780822C082C039
:1059840083906186E0F890276BE493687009902710
:105994006AE493906186F09061AE7468F0A3746ACF
:1059A400F090624574FBF0A304F053F4FD43FE024F
:1059B40090053F7401F09061A0E0643A70047900AE
:1059C40080027901120B4B0259EBC082C083900410
:1059D400F1E06401700A9004F6E06004790C80023E
:1059E40079008003F0A3F0D083D082020132C08218
:1059F400C08375E1F19004F4E0604D146009146013
:105A040051146049147050120B6F9004EAE0F97A53
:105A1400EB7B04120DD3908FB7121641120E09902E
:105A24008FC7121641120DDF9004F5E0F9120DEB49
:105A34007901120E45125B0E241612630E7487F060
:105A4400A3740BF07900809F120B7580BD120B7B41
:105A540080B8120B8180B3791280EB74F41217DBD7
:105A640075D90D9004D5E0A2E0E4331313F8125B6A
:105A740004484401F5D97800125B7140FB78008832
:105A84000874D61268717404125B7B40F275E19558
:105A94009004D5E0F97AD67B04120DD9900A2674C5
:105AA400FDF0A3740A125B81125BC5125BBC125C2D
:105AB400D99004F4E064019004E8700B125B1712AF
:105AC4001623908F878009125B17121623908F83F9
:105AD40078081215AF908FC378081215FD125B0E6B
:105AE400240E12630E7808121632125B0E2414125E
:105AF400630E7413F09003A27402F07F040218ADD5
:105B04009004EAE0C4333354C0229004E8E0F8A3DC
:105B1400E0C8221267A978082274F61217DB125C17
:105B2400AA8AD97800125B7140FB78008006125C67
:105B340022125D5FE8C39940F5125C9C125B7140D0
