:020000040000FA
:0600000002011A02209823
:03002B0002274366
:0300530002210E79
:03006B0002271158
:10008300021F47E5C754F84401F5C7790122000070
:100093000080FB120086B90003020104E479217891
:1000A30008B800028004F709D8FCE479297802B87B
:1000B30000028004F709D8FCE490028178CB790729
:1000C3008002F0A3D8FCD9FA781A90014A7A01BACF
:1000D30000028007E493A3F608DAF97A4B7B0990D0
:1000E300014B781D79048015E493A3AD82AE838A16
:1000F300828B83F0A3AA82AB838D828E83D8E9D9C6
:10010300E775822375839E740312012C75829175A2
:100113008300740012012C75D00075813F7518811E
:10012300751902759F00020096C09FF59FE473D076
:100133009F22D083D082C09FE493C0E0740193C018
:10014300E0740293F59F2201FF0000B40000280031
:100153002800283075A000A000A000A0000008001F
:1001630008E001F000100010001000100010001053
:100173000050005000500010001000D00700000095
:100183000000000F0001000500307507001000019A
:100193000081FF00000000FF650683066B06FF0277
:1001A300020208025000A0000000E80302368F019B
:1001B3000000F38F020490010000A209020A9001DB
:1001C3000000B302020490010000A309020C900195
:1001D3000000C902020490010000A409020E90016C
:1001E3000000CB02020490010000A5090210900850
:1001F3000000CC02020490010000A6090212900143
:100203000000A709FF0100FF2002368F010000F65E
:100213008F0204900100000B0A02149000000000FA
:10022300000208900300001903950C950C950C959A
:100233000C950C950C950C950C950C950C950C95B3
:100243000C950C710F890F6B0F6D100201060302E1
:10025300F0FF4561737920436F6E6E656374204DC3
:100263006F64756C65000085100000FFFF020202D9
:10027300020202020202010D000000100102368F89
:10028300010000F98F020490010000700A0224901B
:100293000100006907020490010000710A02229024
:1002A300010000218F020490010000720A022090D5
:1002B300010000058F020490010000730A021E90E2
:1002C3000100007F8E020490010000740A021C905A
:1002D300010000A38E020490010000750A023C9005
:1002E300010000B58E020490010000760A021A9004
:1002F300010000918E020490010000770A02189019
:10030300010000F78E020490010000780A02369083
:10031300010000790A01E803053F100AFF000130DC
:100323007503020106000000000000000000000049
:1003330000000000000000000000000000000000BA
:1003430000FFFF0600800CE8030A436861726163E3
:100353007465726973746963203100024368617262
:10036300616374657269737469632032000843685A
:100373006172616374657269737469632033001019
:10038300436861726163746572697374696320346D
:1003930000024368617261637465726973746963AF
:1003A30020350002368F010000FC8F02049001000B
:1003B300004C0B022A90030000350902069001004D
:1003C300004D0B0204900100005E0B022C90010013
:1003D3000036090206900100005F0B020490010041
:1003E30000700B022E9002000037090206900100F4
:1003F30000710B020490010000820B023090000098
:100403000038090208900300003909020690010030
:1004130000830B020490010000940B02329004004D
:10042300003F09020690010000950B104B657920EF
:1004330050726573732053746174650002368F01C3
:100443000000FF8F0204900100002E0C023A90007E
:1004530000004409020890030000450902069001C8
:1004630000002F0C120135678C031201357E8C03BB
:10047300120135AF8C03120135EA8C0312013514D6
:100483008D031201353E8D03120135558D03120183
:10049300356C8D03120135838D03120135AC8D0349
:1004A300120135BF8D03120135D58D03120135E8D5
:1004B3008D031201350F8E031201350198021201CB
:1004C300350599021201353D9902120135609902F1
:1004D3001201356B99021201358E99021201359D75
:1004E3009A02120135729B02120135ED9B02120131
:1004F30035759C02120135B09C02120135E79C024E
:10050300120135759D021201354E9E02120135AE60
:100513009E02120135B99E02120135389F02120163
:10052300353B9F021201353E9F02120135CD9F02DA
:10053300120135D09F0212013500A0021201352AA3
:10054300A00212013518A102120135CAA10212013B
:1005530035D9DB0212013501DC021201352FDC0231
:1005630012013566DC02120135C4DC021201350FBB
:10057300DD021201355ADD021201359ADD02120144
:1005830035E0DD021201350EDE02120135CBDE024B
:10059300120135D5DE02120135E2DE0212013515F4
:1005A300DF02120135E1DF02120135EDDF02120134
:1005B3003505E0021201350FE002120135D19B032C
:1005C300120135DF9B03120135F79B031201350F2F
:1005D3009C0312013535B001120135E1B00112015E
:1005E300355CB1011201357DB201120135B9B20199
:1005F30012013562B30112013549B401120135AD5F
:10060300B50112013504B60112013585B601120197
:100613003575B701120135C2B70112013548B8016A
:100623001201357AB8011201358EBA01120135D0A3
:10063300BA01120135EEBA0112013571BB01120183
:100643003545BC011201350DBD0112013528C50226
:10065300120135FBC502120135A4C602120135F79A
:10066300C602120135A7C70212013533C8021201AF
:10067300351FC9021201354EC90212013561CA0282
:10068300120135A9CA021201357ECB02120135BA15
:10069300CB02120135D6CB02120135409D03120164
:1006A30035CDF102120135E3F10212013509F202EF
:1006B30012013525F3021201352FF30212013564BD
:1006C300F4021201355CF502120135BED1021201AA
:1006D30035EED20212013521D3021201356BD3025A
:1006E30012013532D50212013546A001120135B08F
:1006F300A0011201350FA2011201351FA20112013F
:10070300354CA201120135A3A2011201354CA301FC
:1007130012013553A4011201351DA5011201357DC6
:10072300A601120135C0A60112013565A701120108
:1007330035B2A701120135D8A701120135E6A90187
:10074300120135EBA901120135F0AB011201353D60
:10075300AC01120135B0AC01120135E3AC01120159
:100763003585AD011201352EAE0112013566AE019C
:1007730012013569AE01120135B1AE01120135F135
:10078300AE0112013548AF01120135F582031201A2
:10079300350D83031201355583031201356B830332
:1007A300120135B28303120135C684031201355396
:1007B30085031201359E850312013570270012014E
:1007C300357C2700120135B72700120135FC2700BD
:1007D300120135BC2800120135422900120135A748
:1007E3002900120135D329001201350C2A00120108
:1007F300354A2C001201352E2E001201351430001B
:10080300120135573100120135A53300120135B7F6
:10081300340012013502360012013512370012017D
:10082300352F37001201356A37001201358C370036
:10083300120135EF3700120135B03C001201354586
:100843003D00120135963D00120135BD3D001201F8
:10085300350F3E001201352D3E00120135873E0053
:10086300120135703F00120135E640001201356A6E
:10087300410012013596E002120135A0E002120197
:1008830035E3E002120135FEE0021201358EE1028A
:10089300120135B6E102120135F3E1021201352AE4
:1008A300E20212013553E202120135C8E2021201DB
:1008B30035DDE202120135F2E20212013523E302D1
:1008C30012013537E3021201355CE302120135965A
:1008D300E302120135C2E302120135FAE302120107
:1008E3003579E402120135C2E402120135ECE40267
:1008F30012013517E502120135D9960312013500AD
:1009030080021201352E80021201357C8102120110
:10091300355C82021201357B8202120135F88202B4
:100923001201353B830212013591840212013552C3
:100933008502120135D987021201357A8802120124
:10094300357089021201356D8A02120135C78B0297
:10095300120135528C02120135559403120135BE32
:1009630094031201351295031201353995031201CF
:10097300356A9503120135C6E90212013533EA02DD
:100983001201357AEA0212013592EB021201358E19
:10099300EC0212013571ED02120135DDF60112018F
:1009A300351FF701120135F1F701120135CAF801BC
:1009B300120135C4F901120135A6FA011201350FEE
:1009C300FB01120135C5FB0112013539FC0112018E
:1009D30035A5FC01120135CEFC0112013548FD019C
:1009E300120135E1FD0112013546FE011201355BAD
:1009F300FE01120135A1FE01120135BAFE011201F9
:100A0300351FFF0112013522FF011201350DFC02D2
:100A130012013535FC0212013573FC021201353126
:100A2300FD0212013598FD02120135B4FD021201D7
:100A330035DCFD021201350CFE021201351BFE02EC
:100A430012013598FE02120135BEFE021201353F36
:100A53009001120135DD9101120135F89301120164
:100A63003534940112013561940112013546950123
:100A73001201358D9501120135D19501120135E32E
:100A83009501120135239601120135509601120189
:100A9300359B9601120135DB960112013509970149
:100AA3001201355B9701120135EB9701120135896C
:100AB3009A011201359F9C01120135DD9C0112013F
:100AC300356E9E01120135B39E011201352A9F0135
:100AD300120135749F011201359F9F0112013505E3
:100AE300AC0212013584AC0212013546B202120186
:100AF3003555B302120135BDB40212013554B502A6
:100B0300120135F455001201353D56001201356AC4
:100B130056001201359D5600120135AA56001201E6
:100B230035B65600120135C85600120135AF5700CD
:100B33001201350D58001201354258001201358556
:100B43005900120135D25900120135F6590012012C
:100B530035635A00120135215B00120135DA5B005F
:100B6300120135475C00120135F95C0012013509A9
:100B73005D00120135905D001201354F5E001201D8
:100B8300357C5E00120135F55E00120135525F00BF
:100B93001201359C5F00120135326000120135FDF0
:100BA3006000120135B261001201352762001201A3
:100BB30035886200120135F262001201352B6300A1
:100BC300120135CD6300120135DD64001201351DBC
:100BD30065001201353A65001201355965001201AD
:100BE30035A06500120135C56500120135F26500B7
:100BF3001201356C6600120135AD6600120135D164
:100C03006700120135816800120135D868001201AE
:100C1300354269001201355B69001201353BA202BE
:100C23001201358EA2021201359AA2021201356F0A
:100C3300A30212013596A302120135D1A3021201B8
:100C4300353DA40212013579A402120135B2A40282
:100C5300120135CAA4021201351FA502120135384B
:100C6300A50212013581A50212013594A5021201D4
:100C730035AEA502120135C4A502120135F7A6024D
:100C83001201353EA80212013540A9021201353A7C
:100C9300AA02120135EE7F00120135A6E901120105
:100CA30035D6E9011201359EED01120135F5EE014C
:100CB300120135BEEF011201353EF1011201350F6C
:100CC300F2011201354CF2011201356FF2011201EA
:100CD30035ADF201120135B6F20112013500F3010F
:100CE3001201350AF301120135B4F3011201358DF6
:100CF300F401120135E1F40112013543F50112014A
:100D03003596F501120135C5F50112013502F601DB
:100D13001201358D6900120135F46C00120135FAA8
:100D23006C001201357C7200120135F57600120158
:100D330035CB7A0012013533EE02120135A9EE02EA
:100D4300120135BFEE0212013500EF021201353AEE
:100D5300EF02120135B3EF02120135EEEF02120179
:100D63003561F0021201359FF002120135A8F0023D
:100D7300120135B4F002120135D0F002120135FB35
:100D8300F00212013511F1021201353AF10212019A
:100D9300359DF1021201351A7B001201352D7B00BE
:100DA300120135477B00120135707B00120135B308
:100DB3007B00120135F27B00120135307C001201F9
:100DC30035957C00120135AA7C00120135B57C00F3
:100DD300120135C27C00120135D97C00120135E7BE
:100DE3007C00120135F27C00120135FE7C001201F9
:100DF30035117D001201351C7D001201353F7D0048
:100E0300120135E67D00120135F67D001201351021
:100E13007E001201352D7E00120135497E0012013C
:100E2300356E7E00120135797E001201358E7E000B
:100E3300120135A27E00120135037F00120135092C
:100E43007F001201350F7F00120135157F0012015B
:100E5300352D7F00120135607F0012013597CD01DA
:100E63001201351BCE01120135CACE0112013529FB
:100E7300D0011201354AD20112013536D3011201D4
:100E8300356BD3011201358DD3011201353CD401E9
:100E930012013534D6011201355DD601120135EF49
:100EA300D60112013521D7011201352ED7011201C6
:100EB3003585D701120135ABD70112013518DA0197
:100EC3001201351BDB0112013573DB0112013526DB
:100ED300BF0112013530C00112013517C1011201E2
:100EE3003521C10112013543C1011201354FC10141
:100EF300120135E8C20112013517C301120135335E
:100F0300C4011201358CC401120135F2C50112016D
:100F130035D1C6011201352DC7011201359AC7011A
:100F2300120135D5C70112013514C801120135CD9F
:100F3300CA01120135E7CA0112013573CB0112014F
:100F43003581CB01120135DACB01120135E8CB0132
:100F53001201355BCC01120135BFCC0112013509F9
:100F6300CD01120135D38C02120135F58C02120129
:100F7300351B8F021201353092021201354893025C
:100F8300120135FB9302120135DD9402120135CEB5
:100F93008F03120135F38F0312013565900312019C
:100FA30035AEBD02120135B7BD02120135C0BD0217
:100FB30012013597BE0212013548C0021201357E77
:100FC300C002120135B8C002120135EEC00212018F
:100FD3003528C1021201355CC10212013588C102F4
:100FE300120135D1C1021201350BC202120135546F
:100FF300C202120135ACC202120135E1C202120172
:10100300353CC30212013576C302120135C7C30250
:10101300120135FDC30212013537C40212013565D1
:10102300C40212013588C40212013546FF011201C0
:101033003572FF01120135CDFF01120135D7FF01D2
:10104300120135E7FF01120135F997031201350447
:101053009803120135619803120135DF98031201D9
:1010630035218E03120135118F03120135A58F032C
:10107300120135008003120135AD80031201353CA6
:1010830082031201355582031201354BCC02120142
:101093003555CC0212013593CC02120135DCCC025A
:1010A30012013516CD0212013570CD0212013591B0
:1010B300CD021201359ACD02120135EBCD02120198
:1010C3003514CE021201351ECE021201358ACE022C
:1010D30012013518CF0212013566CF021201359C79
:1010E300CF0212013523D00212013563D00212015F
:1010F300359BD002120135ADD002120135CCD0029E
:10110300120135D5D00212013594D10212013506F0
:10111300FF02120135688A031201359E8A03120108
:1011230035D48A031201352D8C03120135A89C0393
:10113300120135BE9C03120135C89C0312013512FE
:101143009D03120135C49D031201353FE5021201CF
:101153003558E502120135FCE5021201353CE60281
:1011630012013555E60212013589E602120135D620
:10117300E6021201350AE7021201354CE7021201B9
:10118300354CE902120135B9E902120135019A031E
:101193001201352A9A03120135539A031201356B52
:1011A3009A03120135AD9A03120135FCF8021201BC
:1011B3003521F9021201354DF902120135C49E039E
:1011C300120135D14100120135354400120135E7D2
:1011D3004500120135D946001201355E4700120160
:1011E30035DC47001201350948001201352D4B004B
:1011F300120135A74B00120135964C00120135D070
:101203004C00120135104D00120135CA4E00120177
:10121300351D4F00120135664F00120135D44F00C2
:101223001201350650001201351E500012013533EC
:10123300510012013543510012013573520012015E
:1012430035955200120135CB52001201357054000E
:10125300120135AF5400120135CF5500120135DDAF
:101263007F001201357B9E03120135BA9E031201E2
:1012730035559F03120135F29A03120135029B0380
:10128300120135179B03120135CB9B03120135FD68
:101293009803120135829903120135E8990312016B
:1012A30035B09503120135D795031201352D9603F9
:1012B3001201353F96031201358F9603120135CD86
:1012C3009603120135D09603120135E5D6021201B9
:1012D30035F9D60212013572D7021201354BD80205
:1012E30012013509DB021201356EDB02120135C52D
:1012F300DB02120135F87F00120135338803120136
:1013030035BE89031201351F8A03120135658A032D
:10131300120135739103120135C891031201353659
:101323009203120135A69203120135C885031201F7
:1013330035F28503120135C78603120135BB8703D6
:101343001201357EB5021201353BB6021201357624
:10135300B6021201359EB60212013500B702120120
:10136300354CB702120135A5B70212013536B80262
:1013730012013538B902120135F5BA021201357777
:10138300BB02120135DCBB02120135F3BB021201B1
:101393003503BD0212013541BD02120135C1DB0126
:1013A3001201354BDF01120135D3E0011201352A59
:1013B300E10112013549E101120135C7E1011201D1
:1013C3003565E30112013549E40112013533E801C2
:1013D30012013503E90112013566F502120135AB3D
:1013E300F502120135C8F50212013579F602120130
:1013F30035CCF602120135A7F702120135C3F80204
:10140300120135FA92031201353F9303120135BDE0
:1014130093031201351C94031201350B9F03120130
:1014230035379F03E066701008A3E066700A08A3CF
:10143300E066700408A3E06622C3E7960809E7960E
:101443000809E7960809E79622C3E09608A3E09601
:1014530008A3E09608A3E09622C008C3E096F50827
:1014630008A3E096420808A3E096420808A3E09682
:1014730045087001D3D00822080808EAC0E0EBC091
:10148300E086F0E7A4FA180986F0E7A42AFA180917
:1014930086F0E7A42AFA180986F0E7A42AFA19863F
:1014A300F0E7A4FBE5F02AFA190886F0E7A42BFB82
:1014B300E5F03AFA190886F0E7A42BFBE5F03AFACF
:1014C30018180986F0E7A4C5F02BFBE43AFA1908CB
:1014D300E7C5F0C6A426F6E5F03BFBE43AFA188626
:1014E300F0E7A4F6E5F00826F6E43B08F6E43A084C
:1014F300F6D0E0FBD0E0FA22E4CFC0E0E4CEC0E0D7
:10150300E4CDC0E0E4CCC0E075F020E626F608E6C2
:1015130033F608E633F608E633F6181818EC33FC0E
:10152300ED33FDEE33FEEF33FFC3EC9709ED97097F
:10153300EE9709EF97191919400FFFEC97FC09ED86
:1015430097FD09EE97FE191906D5F0BFECF709EDE3
:10155300F709EEF709EFF7191919D0E0FCD0E0FD10
:10156300D0E0FED0E0FF226016080808C6C313C609
:1015730018C613C618C613C618C613C6D5E0EA2282
:101583007009080808226016181818C6C333C6085D
:10159300C633C608C633C608C633C6D5E0EA22E654
:1015A30027F60809E637F60809E637F60809E637A5
:1015B300F622E026F608A3E036F608A3E036F6089E
:1015C300A3E036F622E026F008A3E036F008A3E015
:1015D30036F008A3E036F022C3E697F60809E6974B
:1015E300F60809E697F60809E697F622C3E096F0AF
:1015F30008A3E096F008A3E096F008A3E096F02293
:10160300E056F608A3E056F608A3E056F608A3E072
:1016130056F622E056F008A3E056F008A3E056F091
:1016230008A3E056F022E0F608A3E0F608A3E0F6EC
:1016330008A3E0F622E6F008A3E6F008A3E6F00824
:10164300A3E6F022E0FAA3E0FBA3E0FCA3E0FD2283
:10165300EAF0A3EBF0A3ECF0A3EDF022E0F8A3E0B3
:10166300F9A3E0FAA3E0FB22E8F0A3E9F0A3EAF090
:10167300A3EBF022CAC0E0E6F0A308DAFAD0E0FA5E
:1016830022CAC0E0E0A3C582CCC582C583CDC58391
:10169300F0A3C582CCC582C583CDC583DAE6D0E08D
:1016A300CA22C3E498F8E499F91216E68026C3E443
:1016B3009AFAE49BFBE920E7E91216E6E498F8E4DA
:1016C30099F922C3E498F8E499F91216E6E498F834
:1016D300E499F9C3E49AFAE49BFB22EB20E7CFE910
:1016E30020E7E0B90010BB0008E88AF084F8AAF00C
:1016F30022E4FBC8FA22EB70227B10C833C8C9333B
:10170300C9335007C39AC3DBF280069A50012ADB20
:10171300EAC833F4C8C933F4C9FA2275F008E4C837
:1017230033C8C933C933C99AC99B5004C92AC93BB1
:10173300D5F0ECFBC833F4C8E4C9FA22600D08C63F
:10174300A2E713C618C613C6D5E0F322600C08C679
:10175300C313C618C613C6D5E0F422700422600D65
:1017630018C6C333C608C633C6D5E0F418222518F5
:1017730010AF08F518400C15198008F5184002152C
:1017830019D2AF2200C0D0251810AF08F518500C9D
:1017930005198008F51850020519D2AFD0D02225BB
:1017A30018F58210AF08F518400C15198008F518C4
:1017B30040021519D2AF851983222518F582E43525
:1017C30019F583222518F8E43519F9222518FAE4C6
:1017D3003519FB222518FCE43519FD22E47325187D
:1017E300C582C0E0E51934FFC583C0E0E518C395A1
:1017F3008224F810AF0885831985821880088583B1
:1018030019858218D2AFCEF0A3E520F0A37808E6BD
:1018130008F0A3DEFAEFF0A3E58124FAF8E608F076
:10182300A3E608F0A3E608F0A30808E608F0A3E699
:1018330008F0A315811581D0E0FED0E0F8158115DD
:10184300811581E8C0E0EEC0E0222518C582C0E022
:10185300E51934FFC583C0E0E518C3958224F91068
:10186300AF088583198582188008858319858218B6
:10187300D2AFCEF0A3E520F0A37808E608F0A3DE0C
:10188300FAEFF0A3E58124FBF8E608F0A3E608F0FD
:10189300A30808E608F0A3E608F0A315811581D094
:1018A300E0FED0E0F815811581E8C0E0EEC0E0224B
:1018B300851983851882E0A3FEE0A3F5207808E06C
:1018C300A3F608DFFAE0A3FFE0A3C0E0E0A3C0E0D3
:1018D300E0A3C0E0E0A3C0E0E0A3C0E010AF088550
:1018E30082188583198008858218858319D2AFD021
:1018F30083D082020132851983851882E0A3FEE03A
:10190300A3F5207808E0A3F608DFFAE0A3FFE0A33D
:10191300C0E0E0A3C0E0E0A3C0E0E0A3C0E010AFFC
:10192300088582188583198008858218858319D2D2
:10193300AFD083D08222C0D02518C582C0E0E5197C
:1019430034FFC583C0E0E518C3958224F310AF08C4
:101953008583198582188008858319858218D2AFFB
:10196300C8F0A3E9F0A3EAF0A3EBF0A37908E70931
:10197300F0A3D8FAECF0A3EDF0A3EEF0A3EFF0A3FD
:10198300D0E0F0A3D0E0F0A3D0E0F0A3E520F0A3F3
:10199300E5F0F0A322851983851882E0C0E0A3E077
:1019A300F9A3E0FAA3E0FBA37808E0F608A3DFFAC3
:1019B300E0FCA3E0FDA3E0FEA3E0FFA3E0C0E0A3FF
:1019C300E0C0E0A3E0F5D0A3E0F520A3E0A3F5F0A9
:1019D30010AF08858319858218800885831985824D
:1019E30018D2AFD082D083D0E0F8D0E03274048034
:1019F30006740280027401C0E0F4041217A2D0E05E
:101A0300121677227404800474028000CCC0E0EDC7
:101A1300C0E0E518C39CCCAD1950011D10AF068C76
:101A2300188D1980068C188D19D2AF121684D0E048
:101A3300FDD0E0FC22D083D082E9C0E0E493A3C3CD
:101A430086F0C5F095F0F908E493A386F0C5F09508
:101A5300F0700BE493A3C3994005E9048002A3E467
:101A630075F002A42582F582E5F03583F583D0E095
:101A7300F9E493A3C0E0E493C0E022D083D082ECE6
:101A8300C0E0EDC0E0E493A3FCE493A3FDED4C6060
:101A93000D121ACAEC24FFFCED34FFFD80EFE49332
:101AA300A3FCE493A3FDED4C600D121B09EC24FF92
:101AB300FCED34FFFD80EFD0E0FDD0E0FCE493A328
:101AC300C0E0E493C0E022C0E0C3E493960874014D
:101AD300939618400FE49366700808740193661890
:101AE30070007019A3A3C3E4939608740193961826
:101AF300A3A3400DD0E0D0E0D0E0021ABAA3A3A381
:101B0300A3A3A3D0E022C0E0C0F088F0E493667002
:101B1300080874019366187000A8F0A3A3700BD093
:101B2300F0D0E0D0E0D0E0021ABAA3A3D0F0D0E026
:101B33002274F512184DEAFEEBFFEE2434F8EF346D
:101B430000F988088909EE2435121C60F8EE243761
:101B5300121C60F50AEC850AF0A4FCAAF0850AF0D1
:101B6300EDA42AFDE82CF8E43DF97A257B00121652
:101B7300E6EA850882850983F074075AF87401B888
:101B830000028004C333D8FCFBEA131313541FF879
:101B9300EE28F8EF3400F9E8245DF582E9121C63BE
:101BA3005B6003EA801CEE2436121C60F5F0EA84C5
:101BB300A8F0EE28F8EF3400F9E82438F582E912AA
:101BC3001C63F97F040218F974F512184DEAFEEB51
:101BD300FFEE2434121C60C0E0EE2435F582EF34AE
:101BE30000F583D0E0F08E828F83A3A3A3A3A3E0A9
:101BF300FAA3E0FB8E828F83A3A3A3A3A3A3A3E0F3
:101C0300FCA3E0FDECC39AF50AED9BF50BEE247FF4
:101C1300F508EF3400F509850882F583E064017067
:101C23002BEE2480F582EF3400F583121A0B121C7D
:101C3300697402121787E960137CDC7D04EEFAEF06
:101C4300FB120BBD850882850983E4F0AC0AAD0B5A
:101C5300EEFAEFFB121B341226FD021BC6F582EFD0
:101C63003400F583E022C082C083851882851983FE
:101C7300E0F8A3E0F9C3EA9CEB9D5010C3EC98EDA8
:101C830099401BC3EA98EB995014800EC3EA98EB72
:101C9300994007C3EC98ED994004790180027900DB
:101CA300D083D08222EAC39CFAEB9DFB2274ED120F
:101CB300184D9003A2E064086005E06407702C905F
:101CC30061C8E060269003D0E0F874FF68601CE808
:101CD30075F003A4C8AAF02AF974D228FE74033954
:101CE300FF8E828F83A3A3A3E070057900021E50A9
:101CF300EE2468F510EF3400F511906060E0851074
:101D030082851183F0750A45750B05750800750901
:101D130000E5D914F50EE5D95403F50F601CEE2444
:101D230082F50CEF3400F50D7403650F6058E50E72
:101D33006013EE2467121C60700B793DEEFAEFFB23
:101D4300120BE180A6900540E064016026850C82B9
:101D5300850D83E06004780480027800850E08E531
:101D630008C398FA95E0FB120A618A088B09EA45D1
:101D7300097006120E3F021CEE850C82850D83E06E
:101D830070048A0A8B0B78008016E5D9C0E08812AC
:101D9300E50A2512F582E50B3400F583D0E0F0085F
:101DA300E8C3950E40E4850C82850D83E0602874BA
:101DB300FC250EF50E780A1219F4AC0EA90FEEFAF3
:101DC300EFFB120C8F7402121787E9700AAA08AB93
:101DD30009121319021D3D7403650F6058850E0C1B
:101DE300750D00780C1219F4AC0AAD0BAA08AB09F7
:101DF300120C537402121787851082851183E0F841
:101E03007480687005750C7F8002880CE50CF50AF8
:101E1300780A1219F8E50FF50A780A1219F8A90ECB
:101E2300AC08AD099003D0E0FA7B001208F9740204
:101E330012178780139003A2E06408600BAC0AAD0D
:101E43000BEEFAEFFB120D25120E4B79017F0C02FC
:101E530018F974F312184D74FC121771EAFEEBFFB4
:101E63008908A2AFE433F509C2AFEE2463F50AEFA4
:101E73003400F50B8010AA0AAB0B120C0B121319CA
:101E83009004E3E004F0850A82850B83E0F8A3E085
:101E9300F9E849602FE82402FAE93400FBEA240256
:101EA300F50CEB3400F50D780C1219F48A828B8350
:101EB300E0FCA3E0F9EEFAEFFB120BFF740212173A
:101EC30087E960B29004E3E060579004E4E0F8909F
:101ED30004E3E0C398500C7402650870449004E571
:101EE300E0603E8E828F83A3A3A3A3E0851882853F
:101EF3001983121F3474021217BDE8121F349004A1
:101F0300E2E028F074021217BDAC82AD838518821B
:101F1300851983AA82AB8379011209059004E3E44E
:101F2300F0E509A2E092AF74041217877F06021846
:101F3300F9F0A3E4F09004E3E0F8220000852187A0
:101F43008522C622C0E074EF121939A2AFE433FE32
:101F5300C2AF759B00906182E0A2E05012E591A2AE
:101F6300E0500C7591FE740165217003121CB0E002
:101F7300A2E55051E591A2E5504B7591DF9003A284
:101F8300E064076005E0640870237401652170351F
:101F930079019003D0E0FA75F003A4CAA8F028FBF6
:101FA30074D22AFA74033BFB121E558018E0640DA9
:101FB30070139003C4E004F064287002E4F07A0024
:101FC300E0F9120E51906182E0A2E6400302206E16
:101FD300E591A2E6400302206E7591BF9003A2E053
:101FE30064057008120D67120D738003120D6D7571
:101FF3002100120DDFE99003A3F07900120DD31233
:102003000B277A017B009003A1E0F91210E5907889
:1020130003E064427055900544E014F0704DC2AF84
:1020230012202600782AD0E0F618D0E0F6E59F5477
:102033000770057509FF800375097FC4C0E078291F
:10204300E6F50808E65509F509740B780812174FE9
:10205300D0E02508F8906270E0A2E740F8E8C333C7
:10206300906272F0906270E0D2E0F0906181E0A241
:10207300E35009E5E9A2E3500375E9F7A3E0A2E71A
:102083005009E591A2E7500375917FEEA2E092AF6C
:102093007F04021998C0E0C0D0C082C083906183DE
:1020A300E0A2E05009E5BFA2E0500375BFFEE0A245
:1020B300E15009E5BFA2E1500375BFFDE0A2E25084
:1020C30009E5BFA2E2500375BFFBE0A2E35009E5B7
:1020D300BFA2E3500375BFF7E0A2E45009E5BFA236
:1020E300E4500375BFEFE0A2E55009E5BFA2E55058
:1020F3000375BFDFE0A2E65009E5BFA2E650037512
:10210300BFBFD083D082D0D0D0E032C0E074F2120F
:102113001939E5A7A2E4500FE5A1A2E4500953A79A
:10212300EF75A1EF122162E5A7A2E5500CE5A1A28C
:10213300E5500653A7DF75A1DFE5A7A2E15009E546
:10214300A1A2E1500375A1FDE5A7A2E2500CE5A110
:10215300A2E2500653A7FB75A1FB7F0102199874F5
:10216300F812184D7521019003A2E0640670077AF6
:10217300007B00120D4FA2AFE433FED2AF9003A851
:10218300E0640170187A207B009003A1E0F912113A
:102193006F7A207B009003A1E0F91210EB9061822B
:1021A300E0D2E6F0900541E0602185C622801690DA
:1021B30003A7E064017008E5C654F84405F5C65367
:1021C300BEFC121F407401652160E4EEA2E092AFF1
:1021D3007F010218F98E238F248582288583278522
:1021E3001882851983E0CEA3E0CF852882852783D3
:1021F300EBC9EAC8EDCBECCA75F010C3E833C8E904
:1022030033C9EA33CAEB33CBC3EA9EF526EB9FF51A
:1022130025B35004AB25AA26EC33CCED33CDD5F052
:10222300DAAE23AF242274E912184D74FA1217712F
:10223300EAFEEBFF8C088D099003A2E024F7C39418
:10224300055006751001022354120CC58A0A8B0B24
:10225300EA450B7003022351120D858A0C8B0D1274
:102263000D85EA650C7003EB650D60ECEEFCEFFD8C
:10227300851882851983AA82AB83120D8B850A8206
:10228300850B83A3A3780C121629908FDF780C1289
:1022930016038518828519837814121629908FDF07
:1022A3007814121603780C791412143C501F780C0E
:1022B30079141215DB908F6F780C12145C404785EC
:1022C3000C10850D11850E12850F138045908F6FAD
:1022D3008514108515118516128517137810790C3E
:1022E3001215DB781012145C501C75100075110068
:1022F300751200751301781079141215DB781079B3
:102303000C1215A2800C7510017511007512007561
:10231300130074097810121583908FCB780C121662
:10232300297810790C1214FB9003A2E06408600A68
:10233300E064066005E064057020908F73781012E6
:10234300145C5016908F7778101215B5800C7510A9
:1023530000751100751200751300850882850983C5
:10236300781012163874061217877F100218F97442
:10237300F712184D120D9D90053FE0640170109007
:102383006245E4F0A3F053F4F343FE0C5390F312CD
:102393000D3DE5C654804449F5C6E59E547F644926
:1023A30070F8906185740FF090053DE0F47002A31E
:1023B300E0602C75080175090090053DE07808126E
:1023C300175EE508F4FAA3E0600814600A14600CD1
:1023D300800DEA52808008EA52908003EA52A07985
:1023E300007F020218F974F712184DE9FEEAFF7430
:1023F300016E700C7A807B009003A1E0F91210E566
:10240300902768E493F46008E493F9120B098009B8
:1024130053C680E59E547F70FA120D4390053FE04A
:1024230064017003120B3F90053DE0F47002A3E0DA
:10243300602A75080175090090053DE078081217B8
:102443005EAA08A3E0600814600A14600C800DEA19
:1024530042808008EA42908003EA42A0120CC58AB7
:10246300088B09A808A909E8496017E5E170FCE8A9
:102473002414F582E93400F583E0F874FF68600200
:1024830088E174016F700A7A019003A1E0F91211D7
:10249300390223E474F112184D8A088B098C0A8DD2
:1024A3000B908FDF7808121603740F1217BD780C88
:1024B300121629908FDF780C1216037808790C1204
:1024C300143C908F6F50107808790C1215DB780844
:1024D30012145C4014800E780C79081215DB780C0A
:1024E30012145C50047901800279007F080218F904
:1024F30074ED12184D8A088B098C0A8D0B908FDFAF
:10250300780812160374131217BD780C121629904B
:102513008FDF780C121603780C790812143C4011E3
:102523007808790C1215DBAA08AB09AC0AAD0B804D
:10253300227510007511007512007513017810795A
:102543000C1215DB781079081215A2AA10AB11AC86
:1025530012AD137F0C0218F9908FDF780812162939
:102563008A828B8378081216167F040218F974F591
:1025730012184D8C828D8378081216298A828B83D8
:1025830078081215EF1225C5C3E098F0A3E099125D
:1025930025B7401E908F9B78081216298A828B8359
:1025A30078081215C88E828F83E02420F0A3E034CC
:1025B3004EF080A4F08E828F83C3E09420A3E09436
:1025C3004E22EA2404F8EB3400F9E8FEE9FF8C829A
:1025D3008D83A3A3A3A3E0F8A3E0F98E828F8322C4
:1025E30074F512184DE9FE9004F7E0FAA3E0FBEE50
:1025F300C333F8E433F974E728F582748E39F5832D
:10260300E02AF508A3E03BF50978081219F4908F46
:10261300D31216471221D874021217878A088B091E
:102623008C0A8D0B7410780812156AAA08AB097FFF
:10263300040218F974F112184D8A0C8B0D8C0E8D4F
:102643000F740F1217BDE0FAA3E0FB74111217BD4C
:10265300E0F508A3E0F50978081219F4EA2401F576
:1026630008EB3400F509E4F50AF50B780C79081248
:10267300147B908F837808121629780C790812142A
:102683007BAA0CAB0DAC0EAD0F1221D8740212173E
:10269300878B09EA450960047A0180027A00EC2AF3
:1026A300FCED3400FD74131217BDE0F8A3E0F9E864
:1026B300FEE9FFECF8EDF97A717B021216E6880861
:1026C3008909E4F50AF50B8E828F83780812163890
:1026D300ECF8EDF97A717B021216E68A088B09741D
:1026E30005780812175E8E828F83A3A3A3A3E50840
:1026F300F0A3E509F07F080218F9C082C083E990CE
:102703006000F0D083D08222C2AF02000022C0E07A
:1027130074F2121939A2AFE433FED2AFE589A2E015
:102723004006E589A2E150031212B9758900758943
:1027330000C2C5751A00EEA2E092AF7F010219989C
:10274300C0E0C0D0E8C0E0E9C0E0E5A8D2AFC2C7AE
:10275300751A00A2E7A2E792AFD0E0F9D0E0F8D073
:04276300D0D0E032C0
:10276800FFFFFFFFFFFFFFFFC082C083E9900A0A57
:10277800F00229FF74F71217E1E99002E1F07C19E1
:102788007D037AFF7BFF12084B9002E274FFF0A3EF
:10279800F0A3E4F0A3F079051207D39002E1E0F981
:1027A8001206F57A697B08120A137F010218B374BE
:1027B800F41217E18A088B09EB548060309002E12B
:1027C800E0F91210CD8A0A8B0BAE0AAF0BEE4F6000
:1027D800138E828F83E064B070031207EBEEFAEF7A
:1027E800FB1210BBAA08E5096480FB80047A007B11
:1027F800000229CE74F21217E174FC121771EAFE76
:10280800EBFFEE4F603874021217BDEEF0A3EF1223
:102818002C33ECF0A3ED122C33AA82AB831206EF13
:10282800E9F508707374121217BD1237E7E50A4507
:102838000B60658E828F831228AAEE4F700575088B
:102848000280557A067B001211218A0C8B0DA80C88
:10285800A90DE8497005750813803D88828983E4CD
:102868001228B4A3A3EEF0A3EF123C80E50AF0A36C
:10287800E50BF09002E712293C9002E76017E0FCB4
:10288800A3E08003EAFCEBFD8C828D8312293C7067
:10289800F38C828D8312370CA908740412178702EF
:1028A8003E82A3A3A3A3E0FEA3E0FF22F0A3F08847
:1028B8008289832274F21217E1890AE975F017A454
:1028C800FEAFF09002E6E4F09002E412293C600AC0
:1028D8001211279002E4E4F0A3F0EEFAEFFB1211D4
:1028E800218A088B09EA4509602FEEFCEFFD790083
:1028F8001210A99002E4E508F0A3E509F07B008036
:1029080008122926E4F0A3F00BEBC3950A40F2E580
:102918000A9002E6F0790080027913023E82EB7594
:10292800F017A4F8A9F09002E4E028FAA3E0398AA5
:1029380082F583221234A2EA4B2274F41217E1754D
:102948000800750900740C1217BD123C54FEE9FF0B
:10295800800CE5082401F508E5093400F509C3E50C
:10296800089CE5099D503285080A85090B7403788F
:102978000A12175EEA250AF8EB350BF98882898373
:10298800A3A3A3A3A3A31237E7EE650A7003EF6519
:102998000B70BFE8FAE9FB80047A007B008027749B
:1029A800F41217E17900EAA2E0501B75085C75097A
:1029B8008F78081219F47C047D007A0C7B0A1207C0
:1029C800CD74021217877F040218B3C082C08390A7
:1029D80002E7122A06601C88828983A3A3E06A7032
:1029E80003A3E06B8882898370E8A3A3A3A31234AE
:1029F8009E80047A007B00D083D082020132123F8D
:102A080055E8492274EE1217E174FC121771EAFEB8
:102A1800EBFF851882851983E4F0A3F0EE240212F7
:102A280036F0EE2405122C21EE2404F50EEF1230B8
:102A380006E024FE603924FC604624FE605224FE31
:102A4800605E24FE7003022B2624FE7003022B9E78
:102A580024FE7003022BAD24FE7003022BBC24FC61
:102A68007003022BCB24FE7003022BDA022C179082
:102A780003007417F0A3E4122C3B12046D022C1708
:102A8800851882851983AC82AD831207F1022BE782
:102A9800851882851983AC82AD831207F7022BE76C
:102AA800850C08850D0974021217BDAC82AD8385AB
:102AB800088285098312349E1207138A0C8B0DAC89
:102AC8000CAD0DEC4D6042E4F50CF50D780C1219C7
:102AD800F4750C00750D03780C1219F4750C01755A
:102AE8000D03780C1219F474081217BD121A0B7919
:102AF800161234981208337408121787E9F50C7007
:102B08000B123494120485800F750C018508828598
:102B18000983122C2912370C850C08022BEA74023F
:102B28001217BDAC82AD83850C82850D8312349E4D
:102B38001207138A108B11AC10AD11EC4D60438550
:102B48000C82850D83A3A3121A0B7510007511034F
:102B580078101219F475100175110378101219F410
:102B680074081217BD121A0B79161234981208330A
:102B78007408121787E9F509700B12349412048B44
:102B8800800F750901850C82850D83122C29123757
:102B98000C850908804C851882851983AC82AD8321
:102BA8001207FD803A851882851983AC82AD83129D
:102BB8000803802B851882851983AC82AD8312089F
:102BC80009801C851882851983AC82AD8312080F91
:102BD800800D851882851983AC82AD83120815E9AA
:102BE800F508E50860298E828F83A3E06414601FCE
:102BF800850E82850F83E0900300122C33123F511B
:102C080090030112370CE508A3122C3B120467EE5F
:102C1800FAEFFB1207910235F8F50CEF3400F50DC9
:102C280022123F5585188285198322F085188285DE
:102C3800198322F07C007D03850A82850B83123478
:102C4800A22274EE1217E174FC1217718A0A8B0B18
:102C58008C0E8D0FEA2405F508EB3400F5097C1578
:102C68007D0079007A007B031210A9E5082402F59B
:102C78000CE509122C248518828519838582108514
:102C8800831178101219F4850882850983A3A3A3F8
:102C9800A312314E1219F4E5082405F510E509349C
:102CA80000F51178101219F4850C82850D83123401
:102CB800A812070D74061217878A108B11AE10AF71
:102CC80011E50A2402F50AE50B1236F3EE4F7003FC
:102CD800022E10801774021217BD12349E88828942
:102CE80083EAF0A3EBF0900300E004F0900300E027
:102CF800C394054003022E10E4F510F51178101264
:102D080019F47510E975110278101219F47510EAA2
:102D180075110278101219F474061217BD121A0BE5
:102D28007910EEFCEFFD123498120833740812176C
:102D380087E9705E850882850983A3A3A3A3A3A35B
:102D4800A3E0F89002E9E068704812314E1219F4D5
:102D58007CEA7D02E5082408FAE5093400FB121034
:102D6800A37402121787E960298E828F83A3A3A315
:102D7800A312349E900300E0F51074027810121725
:102D88005E74012510F58274033511F583EAF0A30A
:102D9800EBF074021217BD8582108583117810122A
:102DA80019F474021217BD121A0B850C82850D8353
:102DB800123F6612071974041217878A108B11AE16
:102DC80010AF11900300E0F510751100740278102F
:102DD80012175E74002510F874033511F98882897A
:102DE80083A312293C7003022CD4E82403F8E934A5
:102DF80000F9EE4F6003022CDD8882898374FFF0AE
:102E0800A3F0900300E004F0900300E0600A12349D
:102E1800941204797900800B85088285098312371A
:102E280003790A0235F874EA1217E174FE12177171
:102E38008C128D13EA2405F50CEB1240D01228AE43
:102E4800750800750900EA2402F510EB3400F51145
:102E580085188285198385820A85830B780A121959
:102E6800F4850C82850D83A3A3A3A3123010121935
:102E7800F4E50C2405F50AE50D1236F3780A121963
:102E8800F4850C82850D83123F6412070D740612B7
:102E980017878A0A8B0BEA450B7003022FC1EA24B5
:102EA80004F50EEB1230061228AE8A828B83A3A398
:102EB800A3E0F985108285118312349E1206FBE97E
:102EC800F5096003022FC1E4F514F51578141219F9
:102ED800F47514E975150278141219F47514EA7565
:102EE800150278141219F474061217BD121A0B7908
:102EF80013AC0AAD0B85108285118312349E12081B
:102F0800337408121787E9F5096003022FC190028C
:102F1800E9E0F8E5087009E02402900301F0801761
:102F2800900301E0FCE82402FAE43400FBEA6C7048
:102F380001EB6003022FC5850882AA8212314594ED
:102F48001412313D5073850E82850F83E0C0E07402
:102F5800022A122FFDD0E0F00508850E82850F8326
:102F6800A3E0C0E085080A7402250A122FFDD0E00C
:102F7800F005089002E91230101219F47CEA7D027B
:102F880085080A7402250AFA74033400FB121091AA
:102F980074021217879002E9E02508F50874FF6E9D
:102FA800700374FF6F6012EE24010EEF3400FFE52A
:102FB80008C394145003022E58E50860131233898D
:102FC80085108285118312349E12047F7900801443
:102FD800E509700375090A851282851383EEF0A34B
:102FE800EFF0A90974021217877F0E0218B385083B
:102FF8000C7402250CF58274033400F58322340026
:10300800F50F850E82F58322123C932274EE121777
:10301800E174FE1217718C0E8D0FEA2405F50CEB86
:10302800122C24750B00900300E4F0F50AEA240240
:10303800F508EB3400F5098049900300E0FA9002A6
:10304800E9E0F8123145941712313D400D90030024
:10305800E0F87416C3989002E9F012314E1219F490
:103068007CEA7D0274012AFA74033400FB12109181
:1030780074021217879002E9E0F8900300E028F044
:10308800050AE50C2416F582E50D123001E0F8E595
:103098000AC3984003023126900300E0C3941650F7
:1030A8007DE50AC333F8E433F9E50C28FEE50D396C
:1030B800FF851882851983AC82AD838E828F831237
:1030C800349E1207138A108B11AC10AD11EC4D70A1
:1030D80005750B018043E4F510F51178101219F409
:1030E8007510E975110278101219F47510EA751146
:1030F8000278101219F474061217BD121A0B7916F9
:1031080085088285098312349E12083374081217C1
:1031180087E9F50B70030230411236FF80107C00FE
:103128007D0385088285098312349E120491A90BB8
:1031380074020235FAE99400C365D03322EA28F80C
:10314800E43400F9E822E0F51075110078102274D3
:10315800EA1217E174FC1217718A0C8B0D8C128D10
:1031680013EA2405F50AEB1236F375080075090011
:10317800E50A2402F510E50B3400F5117402121764
:10318800BD85820E85830F780E1219F4850A828513
:103198000B83A3A3A3A3123C3F1219F4E50A240549
:1031A800F50EE50B3400F50F780E1219F485108230
:1031B8008511831236F912349812070D7406121706
:1031C800878A0E8B0FAE0EAF0FE50C2402F50EE5C5
:1031D8000D3400F50F80408882898374FFF005085C
:1031E800122FF674FFF005089002E9E0F50C750D52
:1031F80000780C1219F47CEA7D0285080C7402250B
:103208000CFA74033400FB121091740212178790A1
:1032180002E9E02508F508EE4F60718E828F83A3DE
:10322800A3A3E0F9850E82850F8312349E1206FB54
:10323800E9F509EE2404122C21E97044E4F514F5AB
:103248001578141219F47514E97515027814121901
:10325800F47514EA75150278141219F47408121723
:10326800BD121A0B7911EEFCEFFD850E82850F83D6
:1032780012349E1208337408121787E9F50960277B
:10328800850C82850D8312337F12370CE508700395
:10329800023365123389850E82850F8312349E129C
:1032A8000497790002337A850882AA82EA9002E9B3
:1032B8007009E02404900301F08022E0F8900301F3
:1032C800E0F514E82404FCE43400FDEC6514700116
:1032D800ED70C0123145941212313D50B6850C8202
:1032E800850D83E0C0E074022A122FFDD0E0F005BE
:1032F80008850C82850D83A3E0C0E0122FF6D0E08C
:1033080012339B85820C85830D780C1219F4740492
:103318001217BD121A0B851082851183123F66128F
:10332800071974041217878A0C8B0DAE0CAF0D8524
:10333800080C7402250CF874033400F9EE4F70037E
:103348000231DF851882851983E0888289831233E8
:103358009BA3E0C0E0122FF6D0E00231EDE5097042
:103368000375090A850A82850B8312337F12370C8D
:10337800A9097404022FEE123F5585128285138322
:1033880022900301E0F5F0E50884900300F07C004A
:103398007D0322F005088518828519832274EC12B2
:1033A80017E174FE1217718A088B098C0E8D0FEACB
:1033B8002405FEEB3400FF851882851983AC82ADA5
:1033C800838E828F8312349E1207138A0A8B0BEE28
:1033D8002418122C21EA450B700302346F1235E1D0
:1033E800503285188285198312349E1208278A1054
:1033F8008B11EA4511606B7912AC0AAD0B85088216
:1034080085098312349E8510828511831217DFE99E
:10341800F50A7058E4F50AF50B780A1219F48E8249
:103428008F83A3A3E0F50A780A1219F4EE24031295
:1034380036F0780A1219F48E828F831234A8120893
:10344800397406121787E9F50A7021850C82850DF3
:1034580083E0701F85088285098312349E12049DBB
:103468008011750A0E8009750A018004E50A600357
:103478001236FF850C82850D83E060047900800296
:10348800A90A74021217877F0C0218B37C007D0307
:10349800850A82850B831234A222E0FAA3E0FB227C
:1034A800E0FCA3E0FD8508828509831234A222741A
:1034B800EE1217E174FE1217718A088B098C0C8DB5
:1034C8000DEA2405FEEB3400FF750E008518828591
:1034D8001983AC82AD838E828F8312349E120713B8
:1034E8008A0A8B0BEA450B70030235CD1235E15081
:1034F8003585188285198312349E1208278A0E8B07
:103508000FEA450F605E7912AC0AAD0B850882851B
:10351800098312349E850E82850F831217DFE9F521
:103528000E60030235D08508828509831237E7AA21
:103538000AFB12081B8A108B11A810A911E8497000
:103548001E7AFF7BFF12081B8A108B11A810A91185
:10355800E849606C88828983E50AF0A3E50BF07579
:103568000A008007750E0E805F050A9002E6E0FAF1
:10357800E50AC39A504AE50A75F017A4FAABF08831
:10358800828983A3A3E02AFAA3E03BFB8A828B8388
:103598001236F9EC4D70D2750A17750B00780A12BD
:1035A80019F4EEFCEFFD1210917402121787EEFC6D
:1035B800EFFD85088285098312349E1204A38014C6
:1035C800750E098003750E01123F4D850C82850D1D
:1035D8008312370CA90E023138E5082402F508E5F4
:1035E800093400F5098A828B83A3A3A3E0A2E5220C
:1035F80074041217877F0A0218B374EC1217E18C4F
:10360800108D11EA2405F50CEB122C24750F00EA35
:103618002402F50AEB1236F3850A82F58312349EEA
:1036280012081B8A088B09EA450970030236E575FA
:103638000E008071850C82850D83E06401704F8EC9
:10364800828F83A3A3121A0B8E828F83A3A3A3A3B3
:10365800E0F51275130078121219F4EE2405F5122C
:10366800EF3400F51378121219F41234981208394D
:103678007406121787E9F50F6014850C82850D838F
:10368800E4F0123F4D85108285118312370C7C17A8
:103698007D007900EEFAEFFB1210A98E828F83E489
:1036A800F0A3F0050E9002E6E0F8E50EC398501E70
:1036B800E50E75F017A4F8A9F0850882850983A39B
:1036C800A31240DA1236F9EC4D600302363C850845
:1036D8008285098374FFF0A3F0E50F700612349811
:1036E8001204A9A90F02348FF50AEF3400F50B2252
:1036F800A3E0FCA3E0FD228E828F83123F55850E46
:1037080082850F83E8F0A3E9F022C082C08390028B
:10371800E2E06A7003A3E06B70067AE27B02800441
:103728007A007B000229FFC082C08378008C828DDA
:1037380083E06A7003A3E06B7010E875F003A4F8E7
:10374800A9F0EC28FAED39FB8015088C828D83A34B
:10375800A3A3E06A7003A3E06B60DF7A007B00023A
:1037680029FF74F61217E11207E58A828B83E58236
:10377800458370067A007B008007A3A3A3A31234B5
:103788009E023DFE74F21217E1E9FE740E1217BD97
:103798001237E774101217BD123C5F8C828D83E0DC
:1037A80064027036A3123F5BF50CA3E0F9A80C7411
:1037B800026870037429697021750C02750D007810
:1037C8000C1219F478081219F4780A1219F4EEF99F
:1037D80012085D740612178780027901023E82E0A2
:1037E800F50AA3E0F50B2274E81217E174FB12172F
:1037F80071E9851882851983F08A168B17ECFEED1E
:10380800FF751000741D1217BD123F51741D121759
:10381800BD12370C8E828F83A3A3A3E0A2E4502DA0
:10382800741D1217BD12349E1208278A828B83E5F5
:103838008245837003023C30790AEEFCEFFDAA163C
:10384800AB171217DFE9F5106003023C33741F123F
:1038580017BD123C5F74211217BD1237E77423128B
:1038680017BDE0F50EA3E0F50F8E828F83E06402AA
:103878006003023BDEA3123F51850882850983A3BA
:10388800858212858313EE2406122C21888289836F
:10389800E0FAA3E0F9EA2400F514E439F515781400
:1038A800121A7E010000280128D338070002289840
:1038B80039032805390029CF3A0129FA3A02299B08
:1038C8003A0329CF3A0429793BDE3BE50E450F60E0
:1038D80003023BD9850C82850D83123C54FAE9FB1F
:1038E8008A828B83E0850A82850B83123C8A1219AF
:1038F800F48A828B83A3E0FCA3E0023B63E50E45D8
:103908000F6003023BD9850A82850B837401F0128C
:103918003C67850882850983F07C007D008E828F54
:1039280083A3A3A3A3E02401FAA3E03400FB1207B6
:1039380013EA4B60418A828B83E02402F8850A826D
:10394800850B83E028F0EA2404F8EB3400F9888238
:103958008983E0851282851383123C9C123C8A126B
:1039680019F48A828B831236F8E5082403FAE509EC
:103978003400FB023B68850A82850B83E02404F04F
:103988007C047D007900AA12AB131210A9023C3303
:10399800E50E450F6003023BD9123C67FEA3E0FF2A
:1039A800850A82850B837404F0EE85088285098375
:1039B800F0EF851282851383F074031217BDAC8271
:1039C800AD83EEFAEFFB1207138A0C8B0DEA450D57
:1039D8007003023A7C8A828B83A3A31228AA7401FB
:1039E8001217BD85820E85830F780E1219F474059F
:1039F8001217BD121A0B7CFF7DFF120719740412EF
:103A080017878B0FEA450F7033850C82850D83125B
:103A18003C3F1219F4850C82850D83A3121A0B7C86
:103A2800027D007A027B901205457404121787E91B
:103A3800700A74011217BD74FFF0A3F08E828F8391
:103A4800E064027039750C02750D00780C1219F4D7
:103A58008E828F831236F8E5082404FAE5093400CB
:103A6800FB1210917402121787850A82850B83E076
:103A78002402800974011217BDEEF0A3EFF074015F
:103A88001217BD123C50F074011217BDA3123C4826
:103A9800023BD3E50E450F6003023BD9850C8285B6
:103AA8000D831236F9AA16AB17120851850A8285BA
:103AB8000B837402F0EA850882850983F0851282F7
:103AC800851383EB023BD6E50E450F6003023BD915
:103AD800123C67F8A3E0F9850A82850B837402F02B
:103AE800E8850882850983F0E985128285138302B7
:103AF8003BD6850C82850D8312349E12108BEAFC0E
:103B08008C82A882C3950EE4950F405FE8650E701D
:103B180002E50F70047C008022851882851983E0F5
:103B2800FAE50E2AFAE50F3400FBC3EA98EB940095
:103B38005003E08005E50ECCC39CFCEC850A828529
:103B48000B83F08C0A750B00780A1219F4850C8225
:103B5800850D83E0250EFCA3E0350FFDAA08AB090F
:103B68001210917402121787023C33751007023C39
:103B780033E50E450F705A850C82850D83123F512F
:103B8800850A82850B8374071228B6123C481228CE
:103B9800B6A3E0851282851383F0E82402FAE9349B
:103BA80000FB8A828B83123C48123C77123C50A35C
:103BB800123C80123C59F0E82405F8E93400F988F1
:103BC800828983123C59A3123C9CA3A3A3A3F0802F
:103BD8005A75100B8055741D1217BD12349E1207AA
:103BE800E58A828B83E5824583603D123F51880CCC
:103BF800890DE8450D6031780E1219F4780A12190A
:103C0800F478081219F474061217BDE0F9EEFCEF07
:103C1800FDAA16AB17850C82850D831217DF740673
:103C2800121787E9F510800375100EA91074051294
:103C380017877F100218B3E0F50E750F00780E2273
:103C4800E085088285098322123CA622123F55E8A6
:103C580022123CA6A3A322E0F508A3E0F5092285D9
:103C68000C82850D83E0F8A3E0F5838882E022A327
:103C7800A3F08A828B83A322F088828983A3A3A3DB
:103C8800A322F08A828B83123C9322E0F50A750BFB
:103C980000780A22F088828983A3123CA622E08554
:103CA8000882850983A3A32274EE1217E174FE1219
:103CB80017718A0A8B0BECFAEDFB74141217BDE02E
:103CC800F510A3E0F51174161217BDE0FE74181272
:103CD80017BDE0F50EA3E0F50F851882851983ACB2
:103CE80082AD831207138A0C8B0DEA450D60498556
:103CF800188285198312349E1207E58A828B83E520
:103D0800824583602FA3A3123C5FE5084509602420
:103D1800780E1219F478101219F4EEF9AC0CAD0DF6
:103D2800AA0AAB0B8508828509831217DF7404126F
:103D380017878006790E8002790102313874F612ED
:103D480017E174FE121771740C1217BD123C5485DA
:103D58001882851983F074011217BDE9F0E4F5089B
:103D6800F50978081219F475080278081219F4741C
:103D7800041217BD85820885830978081219F41280
:103D8800083974061217877402121787806874F747
:103D98001217E1EAFEEBFF89087C197D031208512E
:103DA800EA5402600BA908EEFAEFFB12070780023B
:103DB80079010227B274F61217E174FF6A7003746E
:103DC800FF6B70168C828D83123E03E4F08C828D1B
:103DD80083A3A3A3123E03A380181208218A088B89
:103DE80009A808A909E849600D8882898374FF1227
:103DF80028B4A3A3E4F07F020218B374FFF0A3F081
:103E08008C828D83A3A32274F61217E11208218AEB
:103E1800828B83E58245836006A3A3E0FA80027A59
:103E2800007B0080D174F21217E18A088B09ECFE3E
:103E3800EDFF740E1217BDE0F50A1208218A0C8BEB
:103E48000DA80CA90DE8497026EEFCEFFD7AFF7B62
:103E5800FF1208218A0C8B0DA80CA90DE8497004E3
:103E68007911801688828983E508F0A3E509F0882E
:103E7800828983A3A3E50AF079007F060218B37448
:103E8800EE1217E1EAFEEBFF8C088D09890C741419
:103E98001217BD123F5174161217BD12349E750DBC
:103EA80000E8496003023F457402650C6003023F65
:103EB8004074121217BD123F5BFCA3E0F9EC24001A
:103EC800F50EE439F50FEAF4F8EBF4F9EC58F8E5F7
:103ED8000F59F9E849705CE5082406F8ED3400F953
:103EE800880A890B8882F583123F661208518A1066
:103EF8008B11E50E65107004E50F65116042780EB0
:103F08001219F4850A82850B83123F6612085774CA
:103F180002121787E9F50D7027780E1219F4850833
:103F280082850983A3A3123F6412086F74021217D3
:103F380087800D750D808008750D0D8003750D0B3C
:103F4800A90D0235FD8E828F83123F5522E0F8A31A
:103F5800E0F922123F5588828983E022A3A3E0FC7E
:103F6800A3E0FDEEFAEFFB2274E81217E174E71202
:103F78001771851882851983EAF0A3EBF08C168DEA
:103F880017890E75080075090074311217BDE0F520
:103F980012A3E0F51374331217BDE0F514A3E0F58E
:103FA8001574351217BDE0F50FE50975F003A4F88F
:103FB800A9F08518828519831240DAE0F47003A30A
:103FC800E0F470030240BDEE2402F50CEF1240D07D
:103FD800E070030240BD85160A85170B780A12198E
:103FE800F4AC14AD15AA12AB131207D97402121748
:103FF800878A0A8B0BEA450B70030240BDE4F51073
:10400800F51178101219F474061217BD85821085FF
:10401800831178101219F474091217BD858210855E
:10402800831178101219F4851282851383A3A3A330
:10403800A3121A0B7914AC0AAD0B8E828F8312343B
:104048009E1208337408121787E97069850A8285F9
:104058000B83A3A3A3A3123F5174021217BD1237F7
:104068000C850C82850D83E0A2E05018A90E74021D
:104078001217BDAC82AD838E828F8312349E1207D5
:104088002BE94208850C82850D83E0A2E15026E5E4
:104098000FF50A780A1219F8A90E74031217BDACA5
:1040A80082AD838E828F8312349E1207257401128B
:1040B8001787E942080509E509C394025003023F3E
:1040C800B1A9087419023C373400F50D850C82F546
:1040D8008322E028FEA3E039FF8E828F832274F2C8
:1040E8001217E1EAFEEBFF890B7401650B600E7491
:1040F80002650B706A7901120A31E97062EEFAEF13
:10410800FB12081B8A088B09EA45096047750A00F3
:10411800800B7C177D0079001210A9050A9002E631
:10412800E0F8E50AC3985021E50A75F017A4F8A944
:10413800F0850882850983A3A3E028FAA3E039FB68
:104148008A828B83122A0670C9850882850983743E
:10415800FFF0A3F07C197D03EEFAEFFB12084B0287
:104168003E8274F21217E18A088B09ECFEEDFF74A7
:104178000E1217BD1237E7900A0AE0F4603D7A097B
:104188007B001210B5EA4B60328A828B8374B1F0DF
:10419800A3E4123C79A3123C77A3E508F0A3E50950
:1041A8001241C6EEF0A3EF1241C6A3A3E50AF0A39D
:1041B800E50BF0900A0AE0F91210C1023E82F08A7B
:1041C800828B83A3A3A3A3A32274F01217E174FA2A
:1041D8001217718908ECFEEDFF7509008A0A8B0B2E
:1041E800780A121A38000410F943144232424C4239
:1041F800644282429A42BD42D542E9421343904307
:10420800A143B843D343F943F943294374016508EB
:1042180060030243F48E828F83E0F8C39403400363
:104228000243F4E8900B180243D074026508600357
:104238000243F48E828F83124BA1900B19E8F0A3EE
:10424800E90243D07401650860030243F412442173
:1042580040030243F4E89007720243D074016508F2
:1042680060030243F48E828F83E0F8C39405400311
:104278000243F4E89007730243D0740165086003B1
:104288000243F412442140030243F4E89007740205
:1042980043D07410650860030243F4750A10750B67
:1042A80000780A1219F47A757B07121091740212B9
:1042B800178702441A7401650860030243F4124424
:1042C8002140030243F4E89007850243D074016556
:1042D8000860030243F48E828F83E0900B1C024334
:1042E800D07404650860030243F48E828F83780CCF
:1042F800121629908FD3780C12145C50030243F4E1
:10430800900787780C12163802441AE960030243B2
:10431800F41206B3E97005121223805690081A8029
:10432800637407650860030243F4750A06750B0099
:10433800780A1219F48E828F83A3AC82AD8374023B
:104348001217CF12109774021217877C007D00AAEB
:1043580018AB198E828F83E0F91211CFE9F50AC3E1
:10436800940A40030244171206B3E9700CA90A1212
:1043780012297950121397806E741B250AF582E46E
:104388003408F5837401804074016508705E124436
:10439800215059E8900786802F74016508704D8E6A
:1043A800828F83E0F8C3940A5042E8900B1B801870
:1043B8007401650870368E828F83E0F874F928C31B
:1043C800940A5028E8900B1DF08047740165087026
:1043D8001B900819E0F88E828F83E0900819F0E8A6
:1043E8007030E06401702B1212178026750918804E
:1043F80021C3EA9427EB9400501574026508700FE6
:104408008E828F83124EC4120551E9F50980037517
:104418000902A90974060248018E828F83E0F8C355
:10442800940222740E1217877F040218B374F012D4
:1044380017E174B11217718C0E8D0F908F44742090
:104448001217D7740612168474201217D71211CFB8
:10445800E9F50B745F1217BDE0F50CE9C3940A4047
:10446800030245B375F006E9A4F50974411217D79C
:104478007A0E74202509F9121391E97009744D1206
:1044880017BDE0FE80027E00900B18E06402700504
:1044980075080180037508007408650C700474229F
:1044A800800274212509FF7C1B7D00790074261287
:1044B80017CF1210A9EEA2E0E433F50A74261217FA
:1044C800D77A1BEFF9121391E9702574401217BDC2
:1044D800E024F9C3940A501878081219F8742712BE
:1044E80017D7A90AAA0EAB0F1205F3740112178782
:1044F8007C147D007900740C1217CF1210A9740C6B
:104508001217D77A1074242509F9121391E970301B
:104518007C1079FF740C1217CF121109E9702174FD
:104528001C1217BDAC82AD837A0474252509F912D3
:104538001391740C1217D7A90AAA0EAB0F1205DB38
:10454800AC18AD197A0C7470250BF9121391E97037
:1045580049AA18AB191211FF7F00EF75F003A4F8F0
:10456800A9F0851882851983E58228F8E583124C1D
:10457800C9124EBE601D88828983A3A3E0F5087521
:10458800090078081219F4AA0EAB0F12083F74023A
:104598001217870FEFC3940440C0EEA2E1500C90AD
:1045A8000771E0F9AA0EAB0F1208457404650C7088
:1045B80027900B18E06402701F7A00900785E0606E
:1045C800010A900772E06004780480027800E84AE3
:1045D800F9AA0EAB0F12069B7900744F02480174BA
:1045E800F11217E174F01217718A0C8B0D8C088D7B
:1045F800097E0AE9600C14600914603A14607502B7
:1046080046CD121211E9FEC3940A40030246CDE5D5
:1046180008450970030246CD750A06750B00780A2D
:104628001219F4AC0CAD0DAA08AB09121091740262
:104638001217870246CD7F00750A06750B00780AA7
:104648001219F4AC0CAD0DEF75F00EA4F8A9F074C6
:104658009328FA740739FB1210A37402121787E91A
:1046680070090FEFC3940A505C80CDEFFEC3940A23
:10467800505380427F00AC18AD197A1075F006EFE0
:10468800A42423F9121391E9701C7C1079FFAA184D
:10469800AB19121109E9700EAC0CAD0DAA18AB19C3
:1046A8001205BDE960090FEFC3940A501880C7EFDF
:1046B800FEC3940A500FE50845096009AA08AB092A
:1046C800EEF912120BEEF974101217877F07021811
:1046D800B374F41217E1E9FF7E1574FF6A7003746E
:1046E800FF6B7028750800EFFC7A027B00A908129E
:1046F80011EDE960027E000508E508C3940A40E769
:10470800EF604E7A3B7B12120A438045120A258AD3
:10471800088B09EA450960387C007D00EA2405FA1F
:10472800E43509FB850882850983A3A3A3A3E0F9DF
:104738001211CFE9C3940A500BEFFC7A027B0012E6
:1047480011ED7E00EF600AAA08AB0912123B800146
:104758001EEEF902443074F21217E18C088D097EBE
:1047680015740E1217BDE0F50AA3E0F50B74FF6A85
:10477800700374FF6B701D7F00AC0AAD0BAA08AB09
:1047880009EFF91211F3E960027E000FEFC3940AF2
:10479800503B80E5120A258A828B83E58245836037
:1047A8002B7C007D00E5822405FAE43583FBA3A376
:1047B800A3A3E0F91211CFE9C3940A5010AC0AADD3
:1047C8000BAA08AB091211F37E0080011EEEF97FD7
:1047D800060218B3C082C08390078BEAF0A3EBF0FF
:1047E800900771E0FC7D007A267B00120551900746
:1047F80071E0F91207BB0252C41217877F0802182A
:10480800B374F01217E174EC121771EAFEEBFFEEC5
:10481800240CF50CE43FF50DEE2405F50EE43FF508
:104828000FEE2409F50AE43FF50BEE2403F508E43E
:104838003FF5098E828F83A3A3E024FA7003024A0E
:10484800C524FD70030249E31470030248E01460B4
:104858001024FD70030249BA147003024A1A024B6D
:104868001C1255C6604AE0F5838882E0F50EA3E085
:10487800F50FE50E450F6038850C82850D83E0F550
:104888000C780C1219F8EE240BF582E43FF583E05E
:10489800F9850A82850B83124EC40A0A0AAB098578
:1048A8000E82850F831217DF7401121787024B1CC3
:1048B800850A82850B83121A0B90078712164712F6
:1048C80005ED7402121787E97003024B1C79018504
:1048D8000A82850B83024A908E828F83A385820A7F
:1048E80085830BE0600302499D850E82850F83E076
:1048F800A2E0400302499D9008251255C9600302B1
:10490800499D7C0E7D007900AA18AB191210A98563
:104918000C82850D8312528FEA4B6010750C067558
:104928000D00780C1219F4EA2410801B1252891217
:104938000A25EA4B7003024B1C750C06750D0078AE
:104948000C1219F4EA2405FCE43BFD74021217CF9B
:104958001210917402121787850E82850F83E0A2C8
:10496800E25004D2F08002C2F0A2F0E433F8740CF2
:104978001217BDE048F0EEFCEFFDAA18AB191212B1
:1049880005E970117A027B00900771E0F91210E5D1
:104998007900024B1E1255C67003024B1C124B23A2
:1049A8007003024B1C850A82850B83E0FC790102A7
:1049B8004AB91255C67003024B1C12524E890BE8B5
:1049C800450B7003024B1C8E828F83A3E0FC790297
:1049D8001252898882850B83024AC07C007D00EED2
:1049E8002404FAE43FFB850882850983E0F9121163
:1049F800CFE9F8C3940A4003024B1CEE240AFCE4F6
:104A08003FFD7A0475F006E8A42425F912138B02F9
:104A18004B1C125289900786E06007900B1BE0F947
:104A28008069900B18E070047905805F120A258A66
:104A38000C8B0DA80CA90DE82404F50CE439F50D30
:104A48008E828F83A3A3A3A3A3A3A3E0A2E05041D4
:104A5800E8497003024B1C850C82850D83E0FE60DB
:104A680030850A82850B83E054107025740E121766
:104A7800D7E82405FAE439FBEEF91211CFE97011F1
:104A8800790385088285098312528F1205E7024B44
:104A98001CAC0EAD0F850C82850D83E0F91252898E
:104AA8001212471255C6606C124B2360677C00795E
:104AB800001252898E828F831217DF80571206B335
:104AC800E9705190081AE0640170151212239008D9
:104AD8001AE4F07C0AFDF97A1B7B081210A9802CD5
:104AE800750A00850A08741B2508FEE43408FF8E41
:104AF800828F83E06401700BA90A1212298E828FBB
:104B080083E4F0050AE50AC3940A40D779501213E2
:104B18009712121779017414024801125252E8FED2
:104B2800E9FFEE4F2274F41217E174F2121771EADA
:104B3800FE8C0975F006E9A42420F508AC18AD1917
:104B48007A0EF9121391E9704B7C0679FFAA18AB1B
:104B580019121109E9703D740C1217BD124BA1E826
:104B6800F50BE5096005EE420B8004EEF4520B8567
:104B78000B82AA82E86A7001E96015740C1217BDED
:104B8800EAF0A3E4F0AC18AD197A0EA90812138B59
:104B980079018002790002442BE0F8A3E0F922743D
:104BA800F21217E174E612177189098A0C8B0DEC61
:104BB800FEEDFF740C1217D77A0E75F006E9A424DF
:104BC80020F9121391E96003024C8C7C0679FF747A
:104BD8000C1217CF121109E96003024C8C7470256E
:104BE80009F508AC18AD197A0CF9121391E96003AC
:104BF800024C88AA18AB191211FFE50C450D701D5F
:104C08007C0C7900AA18AB19121109E970727C0C96
:104C18007D007900AA18AB191210A98051AC18AD03
:104C280019AA0CAB0D1211F98A0A8B0BA80AA90B49
:104C3800E8497022EE4F604CAC18AD197A007B0041
:104C48001211F9EAF8EBF9EA4B603988828983E5B1
:104C58000CF0A3E50DF0124D05FAEE6A7001EF6055
:104C68001FEEF04F700888828983E4F0A3F0AA1839
:104C7800AB191211FFAC18AD197A0CA90812138BD5
:104C8800790180027900741A1217870247D774F7DE
:104C98001217E17F00EF75F003A4F8A9F0EC28F8EB
:104CA800ED124CC9E06A7003A3E06B7006E8FAE9FC
:104CB800FB800B0FEFC3940440DB7A007B000250AB
:104CC8000139F9888289832274F71217E17E00EE90
:104CD80075F003A4F8A9F0EA28F8EB124CC9E0F43F
:104CE800FCA3E0F4FD88828983ECF0A3EDF0124D7B
:104CF80005F4F00EEEC3940440D5025001E82402F6
:104D0800F582E439F583E02274F41217E174F412A1
:104D18001771EAFEEBFF8C0A8D0B9008251255C916
:104D2800704FEE4F7003024E9FEC450B7003024E1E
:104D38009F121211E9900B1EF0C3940A40337508B4
:104D4800007C0679FFE50875F00EA4FAABF0748DC7
:104D58002AFA74073BFB121109E96003024DF805B2
:104D680008E508C3940A40D975090AE509900B1E9D
:104D7800F0900B1EE0C3940A4003024E9F75F006A4
:104D8800E0A4F890082512528FEA4B7069EEFCEF08
:104D9800FD7A0E742028F912138B7C0C7D0079FFA4
:104DA800AA18AB191210A9AC18AD197A0C900B1EE1
:104DB800E02470F912138B75080E75090078081233
:104DC80019F4EEFCEFFD900B1EE075F00EA4F8A9A7
:104DD800F0748D28FA740739FB12109174021217B7
:104DE80087900825E50AF0A3E50BF07900024EA1AB
:104DF800850809024D73124EA62406124EB8601992
:104E08007A1B742128F912138B124EAF2406F582EF
:104E1800E438F583E4F0A380D1124EA6240A124E9A
:104E2800B860107A1B742228F912138B124EAF2423
:104E38000A80DB124EA6240C124EB860107A107449
:104E48002328F912138B124EAF240C80C1124EA6E0
:104E58002408124EB860347A10742428F912138B7F
:104E6800124EAF2408F582E438F583E02410FCA341
:104E7800E03400FD7A0475F006900B1EE0A42425AA
:104E8800F912138B124EAF24088083900819E06042
:104E98000312124D1212417901740C02442D90082C
:104EA80025E0F9A3E0C922900825E0F8A3E0C8228C
:104EB800F582E439F583124EC4EC4D22E0FCA3E000
:104EC800FD2274F41217E174F2121771EAFEEBFF77
:104ED800E9C3940A5004EE4F700479028034AC1888
:104EE800AD197A0E75F006E9A42420F9121391E998
:104EF800F508701C750A06750B00780A1219F47407
:104F0800021217D7EEFAEFFB1210917402121787EC
:104F1800A90802442B74F41217E1EAFEEBFF7508A6
:104F280000750A06750B00780A1219F4EEFCEFFDFD
:104F3800E50875F00EA4F8A9F0748D28FA740739FD
:104F4800FB1210A37402121787E96004A908800BEA
:104F58000508E508C3940A40C8790A02443074F782
:104F68001217E1750800E50875F00EA4F8A9F074A9
:104F78008D28FE740739FFEEFCEFFD7A0E75F006FA
:104F8800E508A42420F9121391E960297C067D0024
:104F980079FFEEFAEFFB1210A97C067D0079FFEE8F
:104FA8002CFAE43FFB1210A9EE240CF582E43FF53D
:104FB80083E4F0A3F00508E508C3940A40A8900824
:104FC80019E0600312124D121241802D74F7121766
:104FD800E17E007F007C0679FFEF75F00EA4FAAB46
:104FE800F0748D2AFA74073BFB121109E970010E5F
:104FF8000FEFC3940A40DEEEF97F010218B374F78D
:105008001217E17E00EEF91212290EEEC3940A502F
:1050180003E960F180E374F31217E174CB1217719E
:10502800E9FF900B1EE06F701B7A017B00900771FF
:10503800E0F91210EB7A027B00900771E0F9121088
:10504800EB12125975F006EFA4FE74202EF50874C1
:10505800271217D77A0EA908121391E96003025193
:10506800247C0679FF74271217CF121109E960030F
:105078000251247C0E7D0079FF74271217CF12107D
:10508800A97C1B7D0079FF740C1217CF1210A97C24
:105098000C7D0079FFAA18AB191210A974271217F2
:1050A800D77A0EA90812138BE9F508740C1217D7D2
:1050B8007A1B74212EF912138BE9F50C740C121754
:1050C800D77A1B74222EF912138BE9F50B740C1284
:1050D80017D77A1074232EF912138BE9F509740C7B
:1050E8001217D77A1074242EF912138BE9F50A7463
:1050F8000C1217D77A0474252EF912138BE9FEAC1B
:1051080018AD197A0C74702FF912138BE9F8E50CA5
:10511800450B4509450A4E4842088003750800A911
:105128000874351217877F050218B374F71217E150
:10513800E9900771F012121702500174F41217E186
:10514800EAFEEBFF548070030251DB900771E0F92F
:105158001210CD8A088B09EA4509607078018A82A5
:105168008B83E02450603D14600624E1604F805238
:10517800A3A3A3A3E0704E8A828B83A3A3A3A3A3B4
:10518800A3A3121A0B8A828B83A3A3A3A3A3124EF1
:10519800C48A828B83A3A312528F1211DB7402126A
:1051A80017878021A3A3A3A3E0641E701879008A3F
:1051B800828B83A3A312528F1211D580081211E794
:1051C800E9F8E86007AA08AB091210BBEEFAEF6429
:1051D800808065EE540260237C007D007A007B00AD
:1051E800121205E960117A017B00900771E0F9124B
:1051F80010E5EE6402803F7A028046EEA2E0503F5E
:1052080012525F12528F121253E9602F1255C66064
:105218001F12524E88088909E8450960137C0079F5
:105228000112525F12528F8508828509831217DF97
:10523800121259EE6401FAEFFB80087A0180027AB3
:10524800007B0002443012525222E0F5838882A388
:10525800A3E0F8A3E0F922900825E0F8A3E0F5839D
:105268008882A3A3A3227F020218B3C082C08390BE
:105278000771E0F98A828B83A312528F1208458046
:105288003B850882850983E0FAA3E0FB22C082C03F
:105298008374FF12177112121DE9C39402851882D4
:1052A800851983400474028002740AF0AC18AD19A1
:1052B8007A0179051206CB7401121787D083D08240
:1052C80002013274F41217E174E81217718A088B1C
:1052D80009E9FE8C0A8D0B7C187D007900AA18ABB1
:1052E800191210A9851882851983E508F0A3E50924
:1052F800F0900773E0C0E074021217BDD0E0F090A0
:105308000774E0C0E074031217BDD0E0F0900B1DE5
:10531800E0C0E074171217BDD0E0F074151217BD85
:10532800E054FEF8A3E0F9900B1CE0A2E0E433FAA5
:10533800E84AF874151217BD125466A2E15004D257
:10534800F08002C2F0E854FDFAA2F0E43325E0F858
:10535800EA48F874151217BD125466A2E35004D235
:10536800F08002C2F0E854F7FAA2F0E433F50875C9
:1053780009007403780812175E12545F1217BD12E1
:105388005466A2E45004D2F08002C2F0E854EFFA66
:10539800A2F0E433F5087404780812175E12545F1B
:1053A8001217BD125466A2E55004D2F08002C2F072
:1053B800E854DFFAA2F0E433F50874057808121708
:1053C8005E12545F1217BD125466A2E25004D2F066
:1053D8008002C2F0E854FBFAA2F0E433F508740244
:1053E800780812175E12545F1217BDE8F0A3E9F0AF
:1053F800900774E0601D75081078081219F47C7520
:105408007D0774061217BDAA82AB8312109174022D
:10541800121787900785E06010EE6009741512175F
:10542800BDE04402F078018002780074141217BDC0
:10543800E048F0900772E060047804800278007415
:10544800141217BDE048F0AC0AAD0BAA18AB19123C
:1054580005E1741802442DEA4508F8741522E8F0AD
:10546800A3E9F0900B1CE02274F71217E11208BDB3
:10547800750800E50875F00EA4F8A9F0748D28FEEB
:10548800740739FF7C0679FFEEFAEFFB121109E980
:105498007009EEFAEFFB79001208C30508E508C3A6
:1054A800940A40CF02500174F61217E174FD1217E6
:1054B80071EAFEEBFF9008271255C9703975082963
:1054C80075090878081219F4750802750900780832
:1054D8001219F475080875099078081219F47CFFF8
:1054E8007DFF7A017B0012070D740612178790085A
:1054F80027EAF0A3EBF09008271255C9700302556C
:10550800B0E4F508F50978081219F474041217C7FD
:105518008808890978081219F474041217C78808CA
:10552800890978081219F4900829121A0B7902903F
:1055380008271255BE1208337408121787E9703607
:10554800851882851983E0FA74011217BDE0F8E422
:10555800C8F9EA28F508E439F509EA450960177831
:10556800081219F4900827125262A31255BE12119C
:10557800DB7402121787E4F508F50978081219F4A4
:10558800900829121A0B7CFF7DFF90082712528F72
:105598001207197404121787900827EAF0A3EBF092
:1055A8009008271255C970047901800279007403A4
:1055B80012178702526E124EC4EEFAEFFB229007C2
:1055C8008B124BA1E84922C082C08390082512554E
:1055D800C9601090082512528F1210BB900825E45C
:1055E800F0A3F0900B1E740AF00252C4C082C0836C
:1055F8009061907404F0A37448F0A3E4F090618083
:105608007440F09061BC7407F09061877469F09001
:1056180061B67416F07900120B2D7902120B3390D3
:105628002768E493F46006E493F9120B09790512EC
:105638000E330259EFC082C083E9540FF990618597
:10564800E0696012E5C654804449F5C6E59E547F7A
:10565800644970F8E9F053C680E59E547F70FA02F9
:1056680059EF74F71217E1E5A8FE53A87E120B153F
:10567800C2BA539AFEC289759B00C2C2120B1B752F
:10568800A91175B905120B21D2BA439A0174805E2B
:1056980042A8025F86C082C083906181E4F0A302C1
:1056A80059EC75E90075910075BF00020132C0829E
:1056B800C083906181E4F0A374C0F0A3E40259EEC2
:1056C800C082C08374F81217719003A412691F7006
:1056D800030257A79003A4E0544060237908851873
:1056E80082851983AA82AB83120C298518828519B1
:1056F80083AA82AB831208E19003A4E054BFF0E0D0
:1057080054806010790C7A657B05120C299003A4EB
:10571800E0547FF0E0A2E0500F7900120B2D120840
:10572800E79003A4E054FEF0E05402600F79011200
:105738000B2D1208E79003A4E054FDF0E054046038
:105748000F7900120B331208ED9003A4E054FBF01C
:10575800E05408600F7901120B331208ED9003A48E
:10576800E054F7F0E05410600F7902120B3312087E
:10577800ED9003A4E054EFF0E05420600F79031299
:105788000B331208ED9003A4E054DFF0A3E05401BA
:10579800600D120B3F1208F39003A5E054FEF0745D
:1057A800081217870259EFC082C083E960051460A8
:1057B8002A804F90619A7433F0A37455F09061A0D9
:1057C800743AF090053FE064017009C2919003A615
:1057D8007467802D9003A67461802690619A743F47
:1057E800F0A3745AF09061A0747FF090053FE064D4
:1057F800017009D2919003A6747180059003A67474
:105808006AF00259EFC082C083E9600B14600D147E
:10581800601714600C802090276C801590276D808D
:105828001090053FE06401700590276E8003902773
:105838006FE493906186F00259EF74EE1217E174E9
:10584800F4121771851882851983AC82AD8375832C
:105858008F7582D7740412168490276C93F46003B2
:1058680002596C907808E0C39402500302594C74B2
:10587800041217BDAC82AD8375838F75822E7408B0
:10588800121684FC7EFF7FFF8E0C7D008C82858241
:105898000E800F74086D606D74096D6068740A6D10
:1058A80060638D087509007402780812175E125932
:1058B80076121629A909E50AC9F888107418780813
:1058C80012156AE5104508FAE9FBE50EC333F8E45A
:1058D80033F974041217BDE58228F582E58339127D
:1058E8005E76C3E89AE99B4008E8C39AF8E99B808A
:1058F80006EAC398F8EB99F9C3E89EE99F5006E8D1
:10590800FEE9FF8D0C0DEDC39413408774FF6E7094
:105918000374FF6F6024850C087402780812175E00
:10592800125976121629851882851983E582250E63
:10593800F582E583126315E508F00CECC394045076
:105948000302588C75080175090078081219F47457
:10595800021217BDAC82AD837ADB7B0912129574F3
:1059680002121787740C1217877F0A0218B374483B
:105978002508F58274783509F583780822C082C035
:1059880083906186E0F890276FE493687009902708
:105998006EE493906186F09061AE7468F0A3746AC7
:1059A800F090624574FBF0A304F053F4FD43FE024B
:1059B80090053F7401F09061A0E0643A70047900AA
:1059C80080027901120B2D0259EFC082C083900426
:1059D800F1E06401700A9004F6E06004790C80023A
:1059E80079008003F0A3F0D083D082020132C08214
:1059F800C08375E1F19004F4E0604D14600914600F
:105A080051146049147050120B519004EAE0F97A6D
:105A1800EB7B04120DB5908FC3121647120DEB9055
:105A28008FE3121647120DC19004F5E0F9120DCD5F
:105A38007901120E27125B1224161263127469F090
:105A4800A3740BF07900809F120B5780BD120B5D79
:105A580080B8120B6380B3791280EB74F41217E1EB
:105A680075D90D9004D5E0A2E0E4331313F8125B66
:105A780008484401F5D97800125B7540FB78008826
:105A88000874D61268757404125B7F40F275E1954C
:105A98009004D5E0F97AD67B04120DBB900A2C74D9
:105AA800DFF0A3740A125B85125BC9125BC0125C3B
:105AB800DD9004F4E064019004E8700B125B1B12A3
:105AC8001629908FA38009125B1B121629908F93B9
:105AD80078081215B5908FDF7808121603125B123A
:105AE800240E1263127808121638125B122414124C
:105AF80063127413F09003A27402F07F040218B3C7
:105B08009004EAE0C4333354C0229004E8E0F8A3D8
:105B1800E0C8221267AD78082274F61217E1125C09
:105B2800AE8AD97800125B7540FB78008006125C5B
