:020000040000FA
:06000000020107021EECE4
:03002B0002234766
:0300330002231F86
:03005300021F6227
:03006B000222F777
:10008300021D9BE5C754F84401F5C779012200001E
:100093000080FB120086B900030200F1E4792178A5
:1000A30008B800028004F709D8FCE479297802B87B
:1000B30000028004F709D8FCE490028178C3790731
:1000C3008002F0A3D8FCD9FA7A437B0990013778F0
:1000D3007E79028015E493A3AD82AE838A828B83FB
:1000E300F0A3AA82AB838D828E83D8E9D9E7758288
:1000F300D17583B5740312011975829175830074E8
:100103000012011975D00075813F751881751902A8
:10011300759F00020096C09FF59FE473D09F22D085
:1001230083D082C09FE493C0E0740193C0E0740263
:1001330093F59F22FF0000B4000028002800283018
:1001430075A000A000A000A00000080008E001F0D6
:10015300001000100010001000100010005000509C
:1001630000500010001000D0070000000000000F36
:100173000001000500307507001000010081FF0039
:10018300000000FFAC04CA04B204FF02020208022A
:100193005000A0000000E80302FF8F010000F08F71
:1001A30002FB8F0100009A0902F78F010000B302DE
:1001B30002FB8F0100009B0902F58F010000C902B9
:1001C30002FB8F0100009C0902F38F010000CB02A8
:1001D30002FB8F0100009D0902FD8F080000CC0285
:1001E30002FB8F0100009E090205900100009F0998
:1001F300FF0100FF2002FF8F0100004D8F02FB8FE4
:10020300010000030A020F90000000000002F98FB2
:100213000300001903CA0ACA0ACA0ACA0ACA0ACACE
:100223000ACA0ACA0ACA0ACA0ACA0ACA0ACA0AA055
:100233000DB80D9A0DFFFF02020202FF8F010000AD
:10024300ED8F02FB8F010000460A020990010000B6
:10025300000002FB8F010000470A02079001000023
:10026300000002FB8F010000480A02119001000008
:10027300000001E803053F100AFF00013075030287
:100283000106000000000000000000000000000064
:100293000000000000000000000000000000FFFF5D
:1002A3000600800CE803020106030200005C120052
:1002B300001201229BA903120122B2A903120122F7
:1002C300E3A9031201221EAA0312012248AA031260
:1002D300012272AA0312012289AA03120122A0AAEF
:1002E30003120122B7AA03120122E0AA0312012278
:1002F300F3AA0312012209AB0312012233AB031247
:10030300012263A20212012267A3021201229FA308
:1003130002120122C2A302120122CDA30212012260
:10032300F0A302120122FFA402120122D4A5021299
:1003330001224FA602120122D7A60212012212A7FE
:100343000212012249A702120122D7A70212012297
:10035300B0A80212012210A9021201221BA9021243
:1003630001229AA9021201229DA902120122A0A927
:10037300021201222FAA0212012232AA0212012220
:1003830062AA021201228CAA021201227AAB021281
:1003930001222CAC021201220080031201222880C8
:1003A300031201225680031201228D8003120122BF
:1003B300EB80031201223681031201228181031291
:1003C3000122C18103120122078203120122358215
:1003D30003120122F28203120122FC820312012280
:1003E3000983031201223C830312012208840312AE
:1003F30001221484031201222C8403120122368465
:1004030003120122BAB103120122C8B1031201225D
:10041300E0B103120122F8B10312012215C3011244
:100423000122C1C3011201223CC4011201225DC594
:100433000112012299C50112012242C601120122B1
:1004430029C7011201228DC801120122E4C8011239
:10045300012265C90112012255CA01120122A2CA51
:100463000112012228CB011201225ACB01120122CF
:100473006ECD01120122B0CD01120122CECD0112A7
:10048300012251CE0112012225CF01120122EDCF0B
:10049300011201226CDF021201223FE0021201224B
:1004A300E8E0021201223BE102120122EBE1021217
:1004B300012277E20212012263E30212012292E394
:1004C30002120122A5E402120122EDE4021201222A
:1004D300C2E502120122FEE5021201221AE602120D
:1004E300012271FF01120122D8FB01120122EEFB4E
:1004F3000112012214FC0112012230FD011201221A
:100503003AFD011201226FFE0112012267FF01125F
:100513000122E2EC0212012212EE0212012245EE46
:10052300021201228FEE0212012256F00212012260
:1005330073B301120122DDB3011201223CB5011292
:1005430001224CB50112012279B501120122D0B565
:100553000112012279B60112012280B70112012290
:100563004AB801120122AAB901120122EDB90112FE
:10057300012292BA01120122B8BA01120122C6BCA9
:1005830001120122CBBC01120122D0BE01120122B1
:100593001DBF0112012290BF01120122C3BF01122C
:1005A300012265C0011201220EC10112012246C1BE
:1005B3000112012249C10112012291C1011201223A
:1005C300D1C10112012228C2011201229CA00312EF
:1005D3000122B4A003120122FCA00312012212A1E2
:1005E3000312012259A1031201226DA20312012257
:1005F300FAA20312012245A303120122A040001212
:100603000122AC4000120122E740001201222C41DA
:1006130000120122EC410012012272420012012257
:100623009E4200120122D7420012012215450012F8
:100633000122F94600120122DF4800120122224A58
:1006430000120122704C00120122824D001201227D
:10065300CD4E00120122DD4F00120122FA4F00128B
:100663000122355000120122575000120122BA50C4
:10067300001201227B5500120122105600120122A2
:10068300615600120122885600120122DA56001226
:100693000122F8560012012252570012012251582A
:1006A30000120122D55800120122BD840312012237
:1006B300C784031201220A8503120122258503122E
:1006C3000122B58503120122DD85031201221A8658
:1006D300031201225186031201227A860312012298
:1006E300EF860312012204870312012219870312E2
:1006F30001224A87031201225E87031201228387A4
:1007030003120122BD8703120122E987031201228A
:10071300218803120122A08803120122E98803120F
:1007230001221389031201223E8903120122A1B07F
:10073300031201220080021201222E8002120122E2
:100743007C81021201225C82021201227B8202124C
:100753000122F882021201223B83021201229184B8
:1007630002120122528502120122D98702120122AA
:100773007A88021201227089021201226D8A021202
:100783000122C78B02120122528C02120122EAAC0F
:100793000312012253AD03120122A7AD031201225A
:1007A300CEAD03120122FFAD0312012266890312AB
:1007B3000122D389031201221A8A03120122328BE6
:1007C300031201222E8C03120122118D0312012226
:1007D300E0BF0212012222C002120122F4C002125F
:1007E3000122CDC102120122C7C202120122A9C3F2
:1007F3000212012212C402120122C8C402120122EF
:100803003CC502120122A8C502120122D1C502125F
:1008130001224BC602120122E4C60212012249C779
:10082300021201225EC702120122A4C70212012290
:10083300BDC70212012222C80212012225C80212D8
:100843000122CA9A03120122F29A03120122309B57
:1008530003120122EE9B03120122559C0312012273
:10086300719C03120122999C03120122C99C031259
:100873000122D89C03120122559D031201227B9D64
:10088300031201226CA3011201220AA50112012203
:1008930025A70112012261A7011201228EA70112CD
:1008A300012273A801120122BAA801120122FEA893
:1008B3000112012210A90112012250A901120122E1
:1008C3007DA901120122C8A90112012208AA01125D
:1008D300012236AA0112012288AA0112012218ABB1
:1008E30001120122B6AD01120122CCAF0112012285
:1008F3000AB0011201229BB101120122E0B10112DF
:10090300012257B201120122A1B201120122CCB27B
:100913000112012267B602120122E6B60212012277
:10092300A8BC02120122B7BD021201221FBF02128C
:100933000122B6BF021201223C590012012285593D
:1009430000120122B25900120122E55900120122BC
:10095300F25900120122FE5900120122105A00120C
:100963000122F75A00120122555B001201228A5B11
:1009730000120122CD5C001201221A5D0012012235
:100983003E5D00120122AB5D00120122695E00127E
:100993000122225F001201228F5F001201224160B7
:1009A30000120122516000120122D86000120122BC
:1009B300976100120122C461001201223D620012FC
:1009C30001229A6200120122E462001201227A6378
:1009D30000120122456400120122FA64001201226E
:1009E3006F6500120122D065001201223A660012DF
:1009F3000122736600120122156700120122256885
:100A0300001201226568001201228268001201228D
:100A1300A16800120122E868001201220D69001288
:100A230001223A6900120122B46900120122F56918
:100A330000120122196B00120122C96B001201225C
:100A4300206C001201228A6C00120122A36C001296
:100A530001229DAC02120122F0AC02120122FCAC75
:100A630002120122D1AD02120122F8AD02120122BB
:100A730033AE021201229FAE02120122DBAE02123A
:100A8300012214AF021201222CAF0212012281AF04
:100A9300021201229AAF02120122E3AF02120122D3
:100AA300F6AF0212012210B00212012226B0021286
:100AB300012259B102120122A0B202120122A2B3F1
:100AC300021201229CB402120122F5FF011201223B
:100AD300A1EE01120122D1EE0112012299F20112BB
:100AE3000122F0F301120122B9F40112012239F6B5
:100AF300011201220AF70112012247F70112012212
:100B03006AF701120122A8F701120122B1F70112BB
:100B13000122FBF70112012205F801120122AFF8AD
:100B23000112012288F901120122DCF901120122CA
:100B33003EFA0112012291FA01120122C0FA0112B6
:100B43000122FDFA01120122D56C001201223C7030
:100B530000120122427000120122C4750012012208
:100B63003D7A00120122137E001201222591031205
:100B730001229B9103120122B19103120122F291EE
:100B8300031201222C9203120122A59203120122C5
:100B9300E092031201225393031201229193031251
:100BA30001229A9303120122A69303120122C293F4
:100BB30003120122ED930312012203940312012273
:100BC300479403120122DFF602120122F2F6021207
:100BD30001220CF70212012235F70212012278F7E3
:100BE30002120122B7F702120122F5F702120122C3
:100BF3005AF8021201226FF8021201227AF8021245
:100C0300012287F8021201229EF802120122ACF897
:100C130002120122B7F802120122C3F802120122C2
:100C2300D6F802120122E1F80212012204F902129B
:100C33000122ABF902120122BBF902120122D5F9FA
:100C430002120122F2F9021201220EFA0212012209
:100C530033FA021201223EFA0212012253FA02125D
:100C6300012267FA02120122C8FA02120122CEFA05
:100C730002120122D4FA02120122DAFA021201222A
:100C8300F2FA0212012225FB0212012277E001127D
:100C93000122FBE001120122AAE10112012209E370
:100CA300011201222AE50112012216E60112012294
:100CB3004BE6011201226DE6011201221CE701122B
:100CC300012214E9011201223DE901120122CFE9B7
:100CD3000112012201EA011201220EEA011201228C
:100CE30065EA011201228BEA01120122F8EC0112DA
:100CF3000122FBED0112012253EE0112012206D261
:100D03000112012210D301120122F7D30112012291
:100D130001D40112012223D4011201222FD4011282
:100D23000122C8D501120122F7D50112012213D7DE
:100D3300011201226CD701120122D2D80112012221
:100D4300B1D9011201220DDA011201227ADA01125C
:100D53000122B5DA01120122F4DA01120122ADDD1A
:100D630001120122C7DD0112012253DE0112012209
:100D730061DE01120122BADE01120122C8DE011274
:100D830001223BDF011201229FDF01120122E9DF71
:100D930001120122D38C02120122F58C02120122CC
:100DA3001B8F021201223092021201224893021277
:100DB3000122FB9302120122DD940212012245ABB0
:100DC300031201226AAB03120122DCAB03120122DC
:100DD300F2D702120122FBD70212012204D8021217
:100DE3000122DBD8021201228CDA02120122C2DABA
:100DF30002120122FCDA0212012232DB0212012268
:100E03006CDB02120122A0DB02120122CCDB0212F4
:100E1300012215DC021201224FDC0212012298DCAE
:100E230002120122F0DC0212012225DD021201224C
:100E330080DD02120122BADD021201220BDE021250
:100E4300012241DE021201227BDE02120122A9DE0F
:100E530002120122CCDE0212012261B3031201222B
:100E63008DB303120122E8B303120122F2B303127A
:100E7300012202B403120122EB7F00120122627EDF
:100E830000120122037F001201227F7F0012012240
:100E9300BA7F0012012263D00212012278D002121B
:100EA3000122D4D0021201223FD10212012287D1A2
:100EB30002120122F1D10212012220D202120122D6
:100EC3002ED20212012290D202120122CED202129B
:100ED3000122E9D20212012284D30212012229D46F
:100EE30002120122ACD402120122E5D40212012221
:100EF30070D502120122C7D50212012226D6021290
:100F0300012238D6021201225ED60212012267D6CE
:100F130002120122BBD70212012245AE03120122A3
:100F230023AF031201226FA303120122B4A30312FE
:100F33000122FAA303120122C3A5031201224FB512
:100F4300031201226AB5031201227AB503120122A8
:100F53000CB40312012249C80212012269C8021209
:100F63000122DFC9021201222DCA021201224DCA37
:100F730002120122B5CA0212012237CB0212012248
:100F83007DCB0212012209CC0212012252D002129D
:100F930001227FAF03120122B0AF03120122DAAFA5
:100FA3000312012238B003120122D38D031201224E
:100FB3002E8E03120122378E03120122AFB40312C5
:100FC30001227423001201228D26001201223F28E0
:100FD30000120122E32800120122862900120122B5
:100FE3003D2A001201226C2A001201222A2F00122C
:100FF3000122C12F00120122FD30001201226531AE
:1010030000120122193200120122CF3400120122F0
:10101300093500120122733500120122D135001265
:1010230001222F36001201228C36001201227B3757
:1010330000120122C13700120122063800120122D8
:101043002938001201226C39001201228039001262
:101053000122893A00120122C83A00120122F43A0D
:1010630000120122433B00120122643B00120122C1
:10107300A23B00120122E93D001201222A3E001286
:101083000122C83E00120122333F001201226C40AC
:1010930000120122F7FE0212012208FF02120122AE
:1010A300C39D031201228EA00312012270B6031204
:1010B300012291B203120122A1B203120122BEB294
:1010C300031201225EB303120122C397031201220A
:1010D3006D9803120122AF9A03120122E7A70312AC
:1010E300012217A80312012287A803120122E3A8F1
:1010F300031201225EA90312012277940312012233
:101103008F9403120122FB950312012216960312F8
:1011130001223696031201228496031201229E961F
:1011230003120122B89603120122CE960312012262
:10113300ED96031201220E9703120122399703122F
:1011430001228E970312012209F2021201222BF2CD
:1011530002120122C0F202120122BEF30212012284
:101163007FF60212012207A6031201226EA60312C2
:10117300012219A7031201228FA703120122A2FB46
:1011830002120122D5FB02120122DBFC0212012210
:1011930030FE02120122019802120122DD9802128E
:1011A3000122249902120122619902120122CF998C
:1011B30002120122299A02120122999A0212012291
:1011C300719B02120122649C02120122E89C02120A
:1011D30001228B9E02120122169F02120122A69F58
:1011E300021201223FA00212012256A00212012282
:1011F30091A102120122E7A102120122159001120C
:101203000122B99401120122AA9701120122D39754
:1012130001120122FC9701120122AE980112012250
:101223008C9A01120122DE9B0112012225A10112D7
:1012330001225EA101120122A2A101120122AEA28A
:10124300011201228FE602120122F2E702120122A9
:1012530021EA02120122D4EA02120122D7EA02127F
:1012630001220FEC0212012212EC0212012226B615
:101273000312012252B603E066701008A3E0667001
:101283000A08A3E066700408A3E06622C3E7960891
:1012930009E7960809E7960809E79622C3E0960846
:1012A300A3E09608A3E09608A3E09622C008C3E053
:1012B30096F50808A3E096420808A3E096420808BA
:1012C300A3E09645087001D3D00822080808EAC0B5
:1012D300E0EBC0E086F0E7A4FA180986F0E7A42A59
:1012E300FA180986F0E7A42AFA180986F0E7A42A6F
:1012F300FA1986F0E7A4FBE5F02AFA190886F0E765
:10130300A42BFBE5F03AFA190886F0E7A42BFBE5DA
:10131300F03AFA18180986F0E7A4C5F02BFBE43A73
:10132300FA1908E7C5F0C6A426F6E5F03BFBE43A54
:10133300FA1886F0E7A4F6E5F00826F6E43B08F68B
:10134300E43A08F6D0E0FBD0E0FA22E4CFC0E0E4D0
:10135300CEC0E0E4CDC0E0E4CCC0E075F020E626EA
:10136300F608E633F608E633F608E633F6181818F7
:10137300EC33FCED33FDEE33FEEF33FFC3EC9709A3
:10138300ED9709EE9709EF97191919400FFFEC979D
:10139300FC09ED97FD09EE97FE191906D5F0BFEC90
:1013A300F709EDF709EEF709EFF7191919D0E0FC82
:1013B300D0E0FDD0E0FED0E0FF226016080808C6AA
:1013C300C313C618C613C618C613C618C613C6D584
:1013D300E0EA227009080808226016181818C6C324
:1013E30033C608C633C608C633C608C633C6D5E0F7
:1013F300EA22E627F60809E637F60809E637F6088B
:1014030009E637F622E026F608A3E036F608A3E05D
:1014130036F608A3E036F622E026F008A3E036F01D
:1014230008A3E036F008A3E036F022C3E697F608F7
:1014330009E697F60809E697F60809E697F622C340
:10144300E096F008A3E096F008A3E096F008A3E086
:1014530096F022E056F608A3E056F608A3E056F607
:1014630008A3E056F622E056F008A3E056F008A3DE
:10147300E056F008A3E056F022E0F608A3E0F608F1
:10148300A3E0F608A3E0F622E6F008A3E6F008A33B
:10149300E6F008A3E6F022E0FAA3E0FBA3E0FCA356
:1014A300E0FD22EAF0A3EBF0A3ECF0A3EDF022E0E1
:1014B300F8A3E0F9A3E0FAA3E0FB22E8F0A3E9F044
:1014C300A3EAF0A3EBF022CAC0E0E6F0A308DAFA3D
:1014D300D0E0FA22CAC0E0E0A3C582CCC582C583AE
:1014E300CDC583F0A3C582CCC582C583CDC583DAC0
:1014F300E6D0E0CA22C3E498F8E499F912153980DA
:1015030026C3E49AFAE49BFBE920E7E9121539E4E0
:1015130098F8E499F922C3E498F8E499F912153993
:10152300E498F8E499F9C3E49AFAE49BFB22EB20EC
:10153300E7CFE920E7E0B90010BB0008E88AF084B0
:10154300F8AAF022E4FBC8FA22EB70227B10C8331E
:10155300C8C933C9335007C39AC3DBF280069A5014
:10156300012ADBEAC833F4C8C933F4C9FA2275F097
:1015730008E4C833C8C933C933C99AC99B5004C9DD
:101583002AC93BD5F0ECFBC833F4C8E4C9FA22609E
:101593000D08C6A2E713C618C613C6D5E0F322602A
:1015A3000C08C6C313C618C613C6D5E0F4227004CC
:1015B30022600D18C6C333C608C633C6D5E0F41877
:1015C30022251810AF08F518400C15198008F518D6
:1015D30040021519D2AF2200C0D0251810AF08F56C
:1015E30018500C05198008F51850020519D2AFD010
:1015F300D0222518F58210AF08F518400C15198074
:1016030008F51840021519D2AF851983222518F55C
:1016130082E43519F583222518F8E43519F92225D2
:1016230018FAE43519FB222518FCE43519FD22E4E8
:10163300732518C582C0E0E51934FFC583C0E0E512
:1016430018C3958224F810AF088583198582188002
:1016530008858319858218D2AFCEF0A3E520F0A3C5
:101663007808E608F0A3DEFAEFF0A3E58124FAF8A0
:10167300E608F0A3E608F0A3E608F0A30808E608E6
:10168300F0A3E608F0A315811581D0E0FED0E0F8C1
:10169300158115811581E8C0E0EEC0E0222518C54B
:1016A30082C0E0E51934FFC583C0E0E518C3958225
:1016B30024F910AF0885831985821880088583195A
:1016C300858218D2AFCEF0A3E520F0A37808E60810
:1016D300F0A3DEFAEFF0A3E58124FBF8E608F0A31C
:1016E300E608F0A30808E608F0A3E608F0A31581CE
:1016F3001581D0E0FED0E0F815811581E8C0E0EE59
:10170300C0E022851983851882E0A3FEE0A3F520BB
:101713007808E0A3F608DFFAE0A3FFE0A3C0E0E067
:10172300A3C0E0E0A3C0E0E0A3C0E0E0A3C0E010FA
:10173300AF088582188583198008858218858319E7
:10174300D2AFD083D08202011F851983851882E02E
:10175300A3FEE0A3F5207808E0A3F608DFFAE0A3F0
:10176300FFE0A3C0E0E0A3C0E0E0A3C0E0E0A3C0CB
:10177300E010AF0885821885831980088582188553
:101783008319D2AFD083D08222C0D02518C582C09E
:10179300E0E51934FFC583C0E0E518C3958224F35F
:1017A30010AF08858319858218800885831985827F
:1017B30018D2AFC8F0A3E9F0A3EAF0A3EBF0A37942
:1017C30008E709F0A3D8FAECF0A3EDF0A3EEF0A339
:1017D300EFF0A3D0E0F0A3D0E0F0A3D0E0F0A3E5D6
:1017E30020F0A3E5F0F0A322851983851882E0C0D9
:1017F300E0A3E0F9A3E0FAA3E0FBA37808E0F6088E
:10180300A3DFFAE0FCA3E0FDA3E0FEA3E0FFA3E077
:10181300C0E0A3E0C0E0A3E0F5D0A3E0F520A3E09F
:10182300A3F5F010AF088583198582188008858396
:1018330019858218D2AFD082D083D0E0F8D0E032BD
:1018430074048006740280027401C0E0F40412156B
:10185300F5D0E01214CA227404800474028000CC10
:10186300C0E0EDC0E0E518C39CCCAD1950011D10DC
:10187300AF068C188D1980068C188D19D2AF1214EF
:10188300D7D0E0FDD0E0FC22D083D082E9C0E0E4F1
:1018930093A3C386F0C5F095F0F908E493A386F00B
:1018A300C5F095F0700BE493A3C3994005E9048058
:1018B30002A3E475F002A42582F582E5F03583F5F1
:1018C30083D0E0F9E493A3C0E0E493C0E022D083A3
:1018D300D082ECC0E0EDC0E0E493A3FCE493A3FD6D
:1018E300ED4C600D12191DEC24FFFCED34FFFD805F
:1018F300EFE493A3FCE493A3FDED4C600D12195C9C
:10190300EC24FFFCED34FFFD80EFD0E0FDD0E0FCE4
:10191300E493A3C0E0E493C0E022C0E0C3E4939661
:10192300087401939618400FE493667008087401D5
:1019330093661870007019A3A3C3E4939608740107
:10194300939618A3A3400DD0E0D0E0D0E002190D88
:10195300A3A3A3A3A3A3D0E022C0E0C0F088F0E434
:10196300936670080874019366187000A8F0A3A327
:10197300700BD0F0D0E0D0E0D0E002190DA3A3D0DB
:04198300F0D0E0229E
:1019880074F51216A0EAFEEBFFEE2434F8EF3400EB
:10199800F988088909EE2435121AB4F8EE243712AA
:1019A8001AB4F50AEC850AF0A4FCAAF0850AF0ED51
:1019B800A42AFDE82CF8E43DF97A257B00121539B4
:1019C800EA850882850983F074075AF87401B8001B
:1019D800028004C333D8FCFBEA131313541FF8EE38
:1019E80028F8EF3400F9E8245DF582E9121AB75BAC
:1019F8006003EA801CEE2436121AB4F5F0EA84A8D3
:101A0800F0EE28F8EF3400F9E82438F582E9121AE4
:101A1800B7F97F0402174C74F51216A0EAFEEBFF23
:101A2800EE2434121AB4C0E0EE2435F582EF340007
:101A3800F583D0E0F08E828F83A3A3A3A3A3E0FA5B
:101A4800A3E0FB8E828F83A3A3A3A3A3A3A3E0FC9D
:101A5800A3E0FDECC39AF50AED9BF50BEE247FF5A8
:101A680008EF3400F509850882F583E06401702BDE
:101A7800EE2480F582EF3400F58312185E121ABD49
:101A880074021215DAE960137CDC7D04EEFAEFFBD0
:101A98001209F2850882850983E4F0AC0AAD0BEEE1
:101AA800FAEFFB1219881222E3021A1AF582EF34B0
:101AB80000F583E022C082C083851882851983E0FF
:101AC800F8A3E0F9C3EA9CEB9D5010C3EC98ED999C
:101AD800401BC3EA98EB995014800EC3EA98EB991F
:101AE8004007C3EC98ED994004790180027900D051
:101AF80083D08222EAC39CFAEB9DFB2274ED121676
:101B0800A09003A2E064086005E06407702C90616F
:101B1800C8E060269003D0E0F874FF68601CE875A0
:101B2800F003A4C8AAF02AF974D228FE740339FF76
:101B38008E828F83A3A3A3E070057900021CA4EE14
:101B48002468F510EF3400F511906060E08510828C
:101B5800851183F0750A45750B0575080075090030
:101B6800E5D914F50EE5D95403F50F601CEE24826F
:101B7800F50CEF3400F50D7403650F6058E50E6041
:101B880013EE2467121AB4700B793DEEFAEFFB12CC
:101B98000A1680A6900540E064016026850C8285BF
:101BA8000D83E06004780480027800850E08E5085B
:101BB800C398FA95E0FB1208968A088B09EA45094A
:101BC8007006120C6E021B42850C82850D83E07034
:101BD800048A0A8B0B78008016E5D9C0E08812E5E4
:101BE8000A2512F582E50B3400F583D0E0F008E809
:101BF800C3950E40E4850C82850D83E0602874FC53
:101C0800250EF50E780A121847AC0EA90FEEFAEF5A
:101C1800FB120AC474021215DAE9700AAA08AB09A1
:101C280012116C021B917403650F6058850E0C75B8
:101C38000D00780C121847AC0AAD0BAA08AB0912B4
:101C48000A8874021215DA851082851183E0F87407
:101C580080687005750C7F8002880CE50CF50A78A1
:101C68000A12184BE50FF50A780A12184BA90EACA0
:101C780008AD099003D0E0FA7B0012072E74021217
:101C880015DA80139003A2E06408600BAC0AAD0B70
:101C9800EEFAEFFB120B5A120C7A79017F0C02173D
:101CA8004C74F31216A074FC1215C4EAFEEBFF89FB
:101CB80008A2AFE433F509C2AFEE2463F50AEF34A6
:101CC80000F50B8010AA0AAB0B120A4012116C9097
:101CD80004E3E004F0850A82850B83E0F8A3E0F9C9
:101CE800E849602FE82402FAE93400FBEA2402F507
:101CF8000CEB3400F50D780C1218478A828B83E0C0
:101D0800FCA3E0F9EEFAEFFB120A3474021215DABA
:101D1800E960B29004E3E060579004E4E0F89004CE
:101D2800E3E0C398500C7402650870449004E5E041
:101D3800603E8E828F83A3A3A3A3E08518828519B2
:101D480083121D887402121610E8121D889004E28E
:101D5800E028F07402121610AC82AD8385188285D3
:101D68001983AA82AB83790112073A9004E3E4F05D
:101D7800E509A2E092AF74041215DA7F0602174C47
:101D8800F0A3E4F09004E3E0F822000085218785C1
:101D980022C622C0E074EF12178CA2AFE433FEC251
:101DA800AF759B00906182E0A2E05012E591A2E03D
:101DB800500C7591FE740165217003121B04E0A29A
:101DC800E55051E591A2E5504B7591DF9003A2E0F3
:101DD80064076005E0640870237401652170357933
:101DE800019003D0E0FA75F003A4CAA8F028FB74A8
:101DF800D22AFA74033BFB121CA98018E0640D7008
:101E0800139003C4E004F064287002E4F07A00E060
:101E1800F9120C80906182E0A2E64003021EC2E53E
:101E280091A2E64003021EC27591BF9003A2E0642E
:101E3800057008120B9C120BA88003120BA27521C7
:101E480000120C0EE99003A3F07900120C0212099B
:101E58005C7A017B009003A1E0F9120EF090780300
:101E6800E064427055900544E014F0704DC2AF1222
:101E78001E7A00782AD0E0F618D0E0F6E59F5407DD
:101E880070057509FF800375097FC4C0E07829E6ED
:101E9800F50808E65509F509740B78081215A2D05B
:101EA800E02508F8906270E0A2E740F8E8C33390B4
:101EB8006272F0906270E0D2E0F0906181E0A2E39B
:101EC8005009E5E9A2E3500375E9F7A3E0A2E7505A
:101ED80009E591A2E7500375917FEEA2E092AF7FEA
:101EE800040217EBC0E0C0D0C082C083906183E0D9
:101EF800A2E05009E5BFA2E0500375BFFEE0A2E1F1
:101F08005009E5BFA2E1500375BFFDE0A2E2500908
:101F1800E5BFA2E2500375BFFBE0A2E35009E5BFAD
:101F2800A2E3500375BFF7E0A2E45009E5BFA2E4BD
:101F3800500375BFEFE0A2E55009E5BFA2E55003E5
:101F480075BFDFE0A2E65009E5BFA2E6500375BF02
:101F5800BFD083D082D0D0D0E032C0E074F2121764
:101F68008CE5A7A2E4500FE5A1A2E4500953A7EF1E
:101F780075A1EF121FB6E5A7A2E5500CE5A1A2E5F1
:101F8800500653A7DF75A1DFE5A7A2E15009E5A137
:101F9800A2E1500375A1FDE5A7A2E2500CE5A1A2BC
:101FA800E2500653A7FB75A1FB7F010217EB74F8FB
:101FB8001216A07521019003A2E0640670077A004A
:101FC8007B00120B84A2AFE433FED2AF9003A8E0EB
:101FD800640170187A207B009003A1E0F9120F7A4F
:101FE8007A207B009003A1E0F9120EF6906182E05E
:101FF800D2E6F0900541E0602185C6228016900364
:10200800A7E064017008E5C654F84405F5C653BE58
:10201800FC121D947401652160E4EEA2E092AF7F8A
:102028000102174C8E238F248582288583278518E3
:1020380082851983E0CEA3E0CF852882852783EBAC
:10204800C9EAC8EDCBECCA75F010C3E833C8E93368
:10205800C9EA33CAEB33CBC3EA9EF526EB9FF525D5
:10206800B35004AB25AA26EC33CCED33CDD5F0DA4A
:10207800AE23AF242274F11216A08A088B098C0AA9
:102088008D0B908FD17808121456740F1216107891
:102098000C12147C908FD1780C1214567808790C95
:1020A80012128F908FE150107808790C12142E7844
:1020B800081212AF4014800E780C790812142E788A
:1020C8000C1212AF50047901800279007F080217C0
:1020D8004C74ED1216A08A088B098C0A8D0B908F10
:1020E800D178081214567413121610780C12147C36
:1020F800908FD1780C121456780C790812128F40F0
:10210800117808790C12142EAA08AB09AC0AAD0B89
:102118008022751000751100751200751301781072
:10212800790C12142E781079081213F5AA10AB1135
:10213800AC12AD137F0C02174C908FD17808121493
:102148007C8A828B8378081214697F0402174C7486
:10215800F51216A08C828D83780812147C8A828BE3
:102168008378081214421221ABC3E098F0A3E099D7
:1021780012219D401E908FD9780812147C8A828B78
:1021880083780812141B8E828F83E02420F0A3E04A
:10219800344EF080A4F08E828F83C3E09420A3E0B5
:1021A800944E22EA2404F8EB3400F9E8FEE9FF8CA7
:1021B800828D83A3A3A3A3E0F8A3E0F98E828F8383
:1021C8002274F51216A0E9FE9004F7E0FAA3E0FBEA
:1021D800EEC333F8E433F974C828F582748E39F500
:1021E80083E02AF508A3E03BF50978081218479020
:1021F8008FB912149A12202C74021215DA8A088BDD
:10220800098C0A8D0B741078081213BDAA08AB0943
:102218007F0402174C74F11216A08A0C8B0D8C0ED9
:102228008D0F740F121610E0FAA3E0FB741112164A
:1022380010E0F508A3E0F5097808121847EA240128
:10224800F508EB3400F509E4F50AF50B780C790884
:102258001212CE908F85780812147C780C790812A7
:1022680012CEAA0CAB0DAC0EAD0F12202C740212BC
:1022780015DA8B09EA450960047A0180027A00ECD4
:102288002AFCED3400FD7413121610E0F8A3E0F9EF
:10229800E8FEE9FFECF8EDF97A717B02121539884E
:1022A800088909E4F50AF50B8E828F8378081214E1
:1022B8008BECF8EDF97A717B021215398A088B09D3
:1022C800740578081215B18E828F83A3A3A3A3E5A2
:1022D80008F0A3E509F07F0802174CC082C083E923
:1022E800906000F0D083D08222C2AF02000022C0EA
:1022F800E074F212178CA2AFE433FED2AFE589A2E4
:10230800E150031210F4758900C2C5EEF8EEA2E0A0
:1023180092AF7F010217EBC0E074F212178CA2AFE4
:10232800E433FED2AFE58BA2E050031210F4758BB4
:1023380000C2E8EEF8EEA2E092AF7F010217EBC010
:10234800E0C0D0E8C0E0E9C0E0A2AFE433F8D2AF23
:10235800C2C7E8F9E8A2E092AFD0E0F9D0E0F8D03F
:10236800D0D0E032FFFFFFFFFFFFFFFF74F012162F
:102378003474F81215C48A0E8B0FE9FF8C0C8D0D7E
:102388007E00850E08850F09780812188B00041046
:102398005926BC23DF23FE232124442467249824C0
:1023A800BB24D2240225BA25DD2500262E2659264F
:1023B80059262B2574016F7019850C82850D83E0D1
:1023C800C39403500D850C82850D83E0900A81F03B
:1023D80080027E1802268174026F7015850C828532
:1023E8000D83E0F8A3E0F9900A82E8F0A3E9F08011
:1023F800027E1802268174016F7019850C82850D82
:1024080083E0C39402500D850C82850D83E090070C
:102418006AF080027E1802268174016F7019850C9B
:1024280082850D83E0C39405500D850C82850D834C
:10243800E090076BF080027E1802268174016F70AD
:1024480019850C82850D83E0C39402500D850C829A
:10245800850D83E090076CF080027E180226817457
:10246800106F70277508107509007808121847ACA6
:102478000CAD0D7A6D7B07120E9C74021215DA8A68
:10248800088B0985088285098380027E18022681C7
:1024980074016F7019850C82850D83E0C394025016
:1024A8000D850C82850D83E090077DF080027E18F3
:1024B80002268174016F700D850C82850D83E09072
:1024C8000A85F080027E1802268174046F702690B7
:1024D8008FB9780812147C850C82850D83780812D0
:1024E800129F5011850C82850D831214B290077FBC
:1024F8001214BE80027E18022681EF70211204FA9F
:10250800E9701312103AE9F50879501211F6E9F555
:1025180009121028800A9008127401F080027E18AF
:1025280002268174076F60030225B57508067509D0
:10253800007808121847850C82850D83A3AC82ADFC
:10254800837404121622120EA274021215DA851868
:1025580082851983EAF0A3EBF07C007D00740212F7
:102568001622850C82850D83E0F9120FCEE9F50A53
:10257800E50AC3940A50321204FAE97015A90A123E
:102588001040E9F50879501211F6E9F509121028FA
:10259800801D850A0875090074132508F5827408DA
:1025A8003509F5837401F080067E0280027E1802E8
:1025B800268174016F7019850C82850D83E0C394A0
:1025C80002500D850C82850D83E090077EF0800215
:1025D8007E1802268174016F7019850C82850D831F
:1025E800E0C3940A500D850C82850D83E0900A841F
:1025F800F080027E1802268174016F7025850C8296
:10260800850D83E0C394074019850C82850D83E00E
:10261800C39411500D850C82850D83E0900A86F0D5
:1026280080577E18805374016F7022900811E0F56E
:1026380008850C82850D83E0900811F0E508703953
:10264800900811E064017031121028802C7E1880E7
:1026580028C3E50E9427E50F9400501B74026F7091
:1026680016850C82850D83E0FCA3E0FDAA0EAB0F56
:10267800120398E9FE80027E02EEF974081215DA58
:102688007F0802170674F012163474D71215C4E9BD
:10269800C0E0851882851983D0E0F0740112161005
:1026A800EAF0A3EBF08C0E8D0F908F6A740312166C
:1026B8002A74061214D7740312162A7401121610FB
:1026C800E0FAA3E0FB851882851983E0F9120FCEA2
:1026D800E9FEEEC3940A400302281AEEF912100A22
:1026E800E9FF900A81E064027004740180027400BA
:1026F800F508780812184B743A121610E0FDEFFC32
:10270800EEF9AA0EAB0F12107C74011215DA7C14C4
:102718007D0079007415121622120EB48A088B09EE
:1027280085080A85090B741512162A7A1075F006A1
:10273800EEA42424F91211F0E9703B7C1079FF749F
:1027480015121622120F14E9702C7425121610ACEB
:1027580082AD837A0475F006EEA42425F91211F0EF
:10276800E9F508741512162AEFA2E0E433F9AA0E67
:10277800AB0F120422E9740912162A7A0C74702E0F
:10278800F91211F0E970797409121622120FFE7508
:102798000800E508C394045067E508F87900E8756F
:1027A800F003A4C8AAF075F000A42AFA75F003E9AA
:1027B800A42AF97409121610E58228F50CE5833964
:1027C800F50D850C82850D83E0F8A3E0F9E84960F2
:1027D8002B850C82850D83A3A3E0F50A750B007881
:1027E8000A121847850C82850D83E0FCA3E0FDAA38
:1027F8000EAB0F12067A74021215DAE905088092F8
:10280800EFA2E1500D900769E0F9AA0EAB0F12068E
:1028180080E97439121610E06404700F900A81E0A0
:1028280064027007AA0EAB0F121076790074291291
:1028380015DA7F0802170674F2121634890B8A0813
:102848008B09ECFEEDFF750A0AE50B600B146008B6
:1028580014604114605F807CAA08AB0912101CE95F
:10286800F50AE50AC3940A506BEE4F6067750C06CB
:10287800750D00780C121847AC08AD09EEFAEFFB9D
:10288800120E9C74021215DA8A0C8B0D850C828547
:102898000D838040AA08AB09121016E9F50AE50A6B
:1028A800C3940A502FEE4F602BEEFAEFFBA90A12E1
:1028B8001010E9801FAA08AB09121022E9F50AE5F1
:1028C8000AC3940A500EEE4F600AEEFAEFFBA90A0B
:1028D800121010E9A90A7F0602170674F2121634BC
:1028E8008A0C8B0DE9FF7E1574FF650C700474FF6C
:1028F800650D702A750800E508C3940A5014EFFCAA
:102908007A027B00A908120FECE960027E00050834
:1029180080E5EF60627A647B101208788059AA0C0F
:10292800AB0D12085A8A088B0985080A85090BE538
:102938000A450B60407C007D00E50A2405FAE43571
:102948000BFB850A82850B83A3A3A3A3E0F9120FCF
:10295800CEE9F508E508C3940A500EEFFC7A027B2D
:1029680000A908120FECE97E00EF600BAA0AAB0B76
:1029780012106480027E14EEF97F0602170674F0C6
:1029880012163474FE1215C4851882851983EAF06C
:10299800A3EBF08C0A8D0B7412121610E0F50EA33F
:1029A800E0F50F7E15851882851983E064FF7004B1
:1029B800A3E064FF701D7F00EFC3940A506BAC0E58
:1029C800AD0FAA0AAB0BEFF9120FF2E960027E0015
:1029D8000F80E5851882851983E0FAA3E0FB1208C9
:1029E8005A8A0C8B0D850C08850D09E50845096088
:1029F800367C007D00E5082405FAE43509FB8508E6
:102A080082850983A3A3A3A3E0F9120FCEE9FFEF00
:102A1800C3940A5014AC0EAD0FAA0AAB0BEFF9120F
:102A28000FF2E97E0080027E14EEF974021215DAC4
:102A38007F0802170674F7121634EAFEEBFF9007B8
:102A480083EEF0A3EFF0900769E0FC7D007A267B27
:102A580000120398E9F508900769E0F91205FC7F70
:102A68000102170674F212163474EC1215C48A0A9D
:102A78008B0B850A82850B83A3A3E024FA700302DB
:102A88002EB024FD7003022D28147003022B5C1451
:102A9800601024FD7003022CD0147003022D6B0209
:102AA8002F1EAE0AAF0B900783E0F8A3E0F9E849C0
:102AB8006066900783E0F8A3E0F5838882E0F8A3D6
:102AC800E0F9E8496052EE240CF582E43FF583E032
:102AD800F508780812184BEE240BF582E43FF583CD
:102AE800E0F98E828F83A3A3A3A3A3A3A3A3A3E048
:102AF800FCA3E0FDEE2403FAE43FFB900783E0F833
:102B0800A3E0F5838882E0F8A3E0F58388821216B3
:102B18003274011215DA80398E828F83A3A3A3A39E
:102B2800A3A3A3A3A312185E90077F12149A1204FA
:102B38003474021215DAE9601879018E828F83A342
:102B4800A3A3A3A3A3A3A3A3E0FAA3E0FB12042EC9
:102B5800E9022F1EAE0AAF0B8E828F83A3E06003BB
:102B6800022C7E8E828F83A3A3A3A3A3E0A2E040BE
:102B780003022C7E90081DE0F8A3E0F9E849600301
:102B8800022C7E7C0E7D007900AA18AB19120EB4B7
:102B98008A088B09AA08AB09EE240CF582E43FF5F4
:102BA80083E0F8A3E0F9E84960367508067509007E
:102BB8007808121847EE240CF582E43FF583E024E8
:102BC80010FCA3E03400FD7402121622120E9C744D
:102BD800021215DA8A088B09850882850983804FD5
:102BE8008E828F83A3A3A3E0FAA3E0FB12085A8A7C
:102BF8000C8B0D850C08850D09E5084509602D75B8
:102C08000C06750D00780C121847E5082405FCE43D
:102C18003509FD7402121622120E9C74021215DA7E
:102C28008A0C8B0D850C82850D838003022F1E8EE6
:102C3800828F83A3A3A3A3A3E0A2E25004D2F080CF
:102C480002C2F0A2F0E433F87900740C121610E016
:102C580048F0A3E049F0EEFCEFFDAA18AB191210FA
:102C680004E970127A027B00900769E0F9120EF00D
:102C7800E97900022F20900783E0F8A3E0F9E849FA
:102C88006043900783E0F8A3E0F5838882A3A3E07C
:102C9800F8A3E0F9E849602D8E828F83A3E0FC79E0
:102CA800018E828F83A3A3A3E0FAA3E0FB9007839E
:102CB800E0F8A3E0F5838882A3A3E0F8A3E0F58316
:102CC8008882121632022F1EAE0AAF0B900783E0DD
:102CD800F8A3E0F9E8496045900783E0F8A3E0F538
:102CE800838882A3A3E0F8A3E0F9E849602F850A66
:102CF80082850B83A3E0FC79028E828F83A3A3A332
:102D0800E0FAA3E0FB900783E0F8A3E0F58388826C
:102D1800A3A3E0F8A3E0F5838882121632022F1EDF
:102D2800850A08850B097C007D00E5082404FAE47F
:102D38003509FB850882850983A3A3A3E0F9120F4F
:102D4800CEE9FEEEC3940A5017E508240AFCE435E0
:102D580009FD7A0475F006EEA42425F91211EAE9B2
:102D6800022F1EAE0AAF0B90077EE06018900A840F
:102D7800E0F98E828F83A3A3A3E0FAA3E0FB1204F9
:102D88002EE9022F1E900A81E0701579058E828F38
:102D980083A3A3A3E0FAA3E0FB12042EE9022F1EEB
:102DA8008E828F83A3A3A3E0FAA3E0FB12085A8ABA
:102DB8000C8B0D850C08850D098E828F83A3A3A328
:102DC800A3A3A3A3E0A2E05071E5084509606885C4
:102DD8000882850983A3A3A3A3E0605E8E828F8304
:102DE800A3A3A3A3A3A3A3A3A3E0F8A3E0F9E8C420
:102DF800540FF87900E85401F8E95400F9E8A2E022
:102E08004038740E12162AE5082405FAE43509FB41
:102E1800850882850983A3A3A3A3E0F9120FCEE94D
:102E2800701879038E828F83A3A3A3E0FAA3E0FB33
:102E380012042EE9022F1E022F1EEE2405FCE43F89
:102E4800FD850882850983A3A3A3A3E0F98E828F59
:102E580083A3A3A3E0FAA3E0FB121070900783E01A
:102E6800F8A3E0F9E849603E900783E0F8A3E0F5AD
:102E7800838882A3A3E0F8A3E0F9E84960287C00EE
:102E880079008E828F83A3A3A3E0FAA3E0FB9007C7
:102E980083E0F8A3E0F5838882A3A3E0F8A3E0F534
:102EA800838882121632806E1204FAE970689008DC
:102EB80012E06401701A12103AE9FE9008127400C8
:102EC800F07C0A7D0079007A137B08120EB4803CEE
:102ED8007E00EEC3940A50348E08750900741325D9
:102EE80008F58274083509F583E06401701BEEF972
:102EF800121040E9F88E0875090074132508F58248
:102F080074083509F5837400F00E80C679501211E3
:102F1800F6E9FE121028790174141215DA7F0602F8
:102F2800170674F312163474F21215C48908EAFEEF
:102F3800EBFF8C09AC18AD197A0E75F006E508A4FC
:102F48002420F91211F0E970647C0679FFAA18AB05
:102F580019120F14E97056740C121610E0F8A3E059
:102F6800F9E8F50CE5096005EE420C8004EEF45230
:102F78000C850C0A750B00740C121610E0650A70AB
:102F880004A3E0650B6022E50CF87900740C1216B6
:102F980010E8F0A3E9F0AC18AD197A0E75F006E563
:102FA80008A42420F91211EAE97901800279007451
:102FB8000E1215DA7F0502170674F012163474E63D
:102FC8001215C489098A0E8B0FECFEEDFF740C12E2
:102FD800162A7A0E75F006E509A42420F91211F0D4
:102FE800E960030230F17C0679FF740C1216221294
:102FF8000F14E960030230F1AC18AD197A0C747043
:103008002509F91211F0E960030230ED750800AAEC
:1030180018AB19120FFEE50E450F702E7C0C7900C7
:10302800AA18AB19120F14E960030230D37C0C7D87
:10303800007900AA18AB19120EB48A0A8B0B850AFC
:1030480082850B837508010230D3AC18AD19AA0E1E
:10305800AB0F120FF88A0C8B0D850C0A850D0BE54A
:103068000A450B7030EE4F601BAC18AD197A007B27
:1030780000120FF88A0C8B0DA80CA90D880A890B71
:10308800E849700479008063850A82850B83E50E20
:10309800F0A3E50FF0850A82850B83A3A3E0F879F6
:1030A80000EE687002EF696022EEC0E0850A828552
:1030B8000B83A3A3D0E0F0EE4F700D850A82850B39
:1030C800837400F0A37400F0750801E5086016AA7F
:1030D80018AB19120FFEAC18AD197A0C74702509CB
:1030E800F91211EAE9790180027900741A1215DAE5
:1030F8007F0802170674F7121634EAFEEBFF7B000E
:10310800EBC39404504EEBF87900E875F003A4C8BB
:10311800AAF075F000A42AFA75F003E9A42AF9ECDC
:1031280028F582ED39F583E06E7003A3E06F702116
:10313800EBF87900E875F003A4C8AAF075F000A4CC
:103148002AFA75F003E9A42AF9EC28FAED39FB808C
:10315800070B80AC7A007B007F0102170674F71218
:1031680016347F00EFC394044003023214EFF87959
:1031780000E875F003A4C8ACF075F000A42CFC7549
:10318800F003E9A42CF9EA28F582EB39F583E0F499
:10319800FCA3E0F4FDEFF87900E875F003A4C8AEED
:1031A800F075F000A42EFE75F003E9A42EF9EA28C4
:1031B800F582EB39F583ECF0A3EDF0EFF87900E850
:1031C80075F003A4C8ACF075F000A42CFC75F003EE
:1031D800E9A42CF9EA28F582EB39F583A3A3E0F4F6
:1031E800C0E0EFF87900E875F003A4C8ACF075F01A
:1031F80000A42CFC75F003E9A42CF9EA28F582EB6D
:1032080039F583A3A3D0E0F00F02316C7F010217D8
:103218000674F012163474F41215C4EAFEEBFF8C2F
:10322800088D0990081DE0F8A3E0F9E849702CEE34
:103238004F6006E5084509700579010234C5EEFAC4
:10324800EFFB12101CE9900A87F0900A87E0C394FC
:103258000A400812102EE9900A87F0900A87E0C306
:10326800940A40030234C390081DE0F8A3E0F9E88B
:1032780049600302330FEEFCEFFD7A0E75F00690FD
:103288000A87E0A42420F91211EAE9F50B7C0C7DE9
:103298000079FFAA18AB19120EB48A0C8B0D850C95
:1032A8000E850D0FAC18AD197A0C900A87E02470C2
:1032B800F91211EAE9F50A750C0E750D00780C1271
:1032C8001847EEFCEFFD900A87E0F87900E875F002
:1032D8000EA4C8AAF075F000A42AFA75F00EE9A4A5
:1032E8002AF9748528FA740739FB120E9C740212A5
:1032F80015DA8A0C8B0DA80CA90D90081DE508F0AD
:10330800A3E509F00234BF90081DE0F8A3E0C82443
:1033180006F582C83400F583E0F8A3E0F9E84960CF
:103328004390081DE0F8A3E0C82406F582C83400DD
:10333800F583E0FCA3E0FD7A1B75F006900A87E0B0
:10334800A42421F91211EAE9F890081DE0F9A3E094
:10335800C92406F582C93400F5837400F0A374000B
:10336800F00234BF90081DE0F8A3E0C8240AF582F3
:10337800C83400F583E0F8A3E0F9E8496043900811
:103388001DE0F8A3E0C8240AF582C83400F583E0FC
:10339800FCA3E0FD7A1B75F006900A87E0A42422BE
:1033A800F91211EAE9F890081DE0F9A3E0C9240A26
:1033B800F582C93400F5837400F0A37400F0023478
:1033C800BF90081DE0F8A3E0C8240CF582C83400BB
:1033D800F583E0F8A3E0F9E849604390081DE0F8B8
:1033E800A3E0C8240CF582C83400F583E0FCA3E010
:1033F800FD7A1075F006900A87E0A42423F91211CB
:10340800EAE9F890081DE0F9A3E0C9240CF582C99F
:103418003400F5837400F0A37400F00234BF900800
:103428001DE0F8A3E0C82408F582C83400F583E05D
:10343800F8A3E0F9E849606F90081DE0F8A3E0C838
:103448002408F582C83400F583E0FCA3E0FD7A1077
:1034580075F006900A87E0A42424F91211EAE9F528
:103468000A90081DE0F8A3E0C82408F582C83400D3
:10347800F583E02410FCA3E03400FD7A0475F0061F
:10348800900A87E0A42425F91211EAE9F890081DAA
:10349800E0F9A3E0C92408F582C93400F583740073
:1034A800F0A37400F08010900811E06003121082FD
:1034B80012106A79018006790080027901740C1271
:1034C80015DA7F0802170674F712163474F212150B
:1034D800C4E9FEAC18AD197A0E75F006EEA42420E6
:1034E800F91211F0E9700E740C121610E0F8A3E04E
:1034F800F9E8F980027900740E1215DA7F010217D3
:103508000674F412163474F21215C48909EAFEEB33
:10351800FFE509C3940A5004EE4F70047902804114
:10352800AC18AD197A0E75F006E509A42420F91235
:1035380011F0E9F508E5087026750A06750B00789C
:103548000A121847740212162AEEFAEFFB120E9CA2
:1035580074021215DA8A0A8B0B850A82850B83A9F5
:1035680008740E1215DA7F0402170674F412163462
:10357800EAFEEBFF750800E508C3940A5044750A93
:1035880006750B00780A121847EEFCEFFDE508F8FF
:103598007900E875F00EA4C8AAF075F000A42AFA1C
:1035A80075F00EE9A42AF9748B28FA740739FB120E
:1035B8000EAE74021215DAE96004A908800605083F
:1035C80080B5790A7F0402170674F4121634EAFEED
:1035D800EBFF750800E508C3940A5044750A0675A0
:1035E8000B00780A121847EEFCEFFDE508F87900A1
:1035F800E875F00EA4C8AAF075F000A42AFA75F0D0
:103608000EE9A42AF9748528FA740739FB120EAE5C
:1036180074021215DAE96004A9088006050880B565
:10362800790A7F0402170674F712163474F012151B
:10363800C4EAFEEBFF750800E508C3940A5039ACEC
:1036480018AD197A1075F006E508A42423F91211AB
:10365800F0E970207C1079FFAA18AB19120F14E951
:103668007012EEFCEFFDAA18AB19120404E97004FD
:10367800A9088006050880C0790A74101215DA7F37
:103688000102170674F4121634750800E508C3948D
:103698000A400302376AE508F87900E875F00EA4D5
:1036A800C8AAF075F000A42AFA75F00EE9A42AF960
:1036B800748528FC740739FD7A0E75F006E508A4B0
:1036C8002420F91211F0E970030237657C067D00A9
:1036D80079FFE508FA7B00EA75F00EA4CAA8F07530
:1036E800F000A428F875F00EEBA428FB74852AFADC
:1036F80074073BFB120EB48A0A8B0BAE0AAF0B7C25
:10370800067D0079FFE508FA7B00EA75F00EA4CA89
:10371800A8F075F000A428F875F00EEBA428FB7447
:103728008B2AFA74073BFB120EB48A0A8B0BAC0A7D
:10373800AD0BE508F87900E875F00EA4C8AAF07595
:10374800F000A42AFA75F00EE9A42AF9749128F574
:1037580082740739F5837400F0A37400F005080239
:103768003694900811E0600312108212106A7F04E8
:1037780002170674F71216347E00EEC3940A50320C
:103788007C0679FFEEFA7B00EA75F00EA4CAA8F071
:1037980075F000A428F875F00EEBA428FB74852AB0
:1037A800FA74073BFB120F14E96004EEF980050E6A
:1037B80080C8790A7F0102170674F71216347E0052
:1037C8007F00EFC3940A502F7C0679FFEFFA7B0045
:1037D800EA75F00EA4CAA8F075F000A428F875F0F0
:1037E8000EEBA428FB74852AFA74073BFB120F140E
:1037F800E970010E0F80CBEEF97F0102170674F70E
:103808001216347E007F00EFC3940A500DEE700A42
:10381800EFF9121040E9FE0F80EDEEF97F01021773
:103828000674F012163474C91215C4E9FE900A879A
:10383800E06E701D7A017B00900769E0F9120EF6C0
:10384800E97A027B00900769E0F9120EF6E9121096
:103858008E742912162A7A0E75F006EEA42420F921
:103868001211F0E9600302395D7C0679FF742912B0
:103878001622120F14E9600302395D7C0E7D00796F
:10388800FF7429121622120EB4851882851983EA4C
:10389800F0A3EBF07C1B7D0079FF740E1216221248
:1038A8000EB48A0A8B0B850A0E850B0F7C0C7D00E3
:1038B80079FF7402121622120EB48A0C8B0D850C35
:1038C8000A850D0B742912162A7A0E75F006EEA4D5
:1038D8002420F91211EAE9F508740E12162A7A1B47
:1038E80075F006EEA42421F91211EAE94208740ED3
:1038F80012162A7A1B75F006EEA42422F91211EA90
:10390800E94208740E12162A7A1075F006EEA424FD
:1039180023F91211EAE94208740E12162A7A107570
:10392800F006EEA42424F91211EAE94208740E12F2
:10393800162A7A0475F006EEA42425F91211EAE98C
:103948004208740212162A7A0C74702EF91211EABF
:10395800E942088003750800A90874371215DA7F50
:103968000802170674F7121634E9FEEE900769F09C
:103978001210287F0102170674F2121634890AEA17
:10398800FEEBFFEE5400F8EF5480F9E849603590FB
:103998000769E0F9120ED88A0C8B0DA80CA90D88BE
:1039A800088909E8496012AA08AB09121052E960AF
:1039B80008AA08AB09120EC6E9EE6400FAEF6480A3
:1039C800FB023A84EE5402602D7C007D007A007B75
:1039D80000121004E960187A017B00900769E0F989
:1039E800120EF0E9EE6402FAEF6400FB023A847A00
:1039F800027B00023A84EEA2E0507D90081DE0F8B8
:103A0800A3E0F5838882A3A3A3E0FAA3E0FB121046
:103A180088E9605E900783E0F8A3E0F9E84960452B
:103A2800900783E0F8A3E0F5838882A3A3E0F8A3D6
:103A3800E0F9E849602F7C00790190081DE0F8A3BF
:103A4800E0F5838882A3A3A3E0FAA3E0FB900783B1
:103A5800E0F8A3E0F5838882A3A3E0F8A3E0F58368
:103A6800888212163212108EEE6401FAEF6400FB9F
:103A7800800A7A017B0080047A007B007F060217A7
:103A88000674F7121634EAFEEBFF7508018E828F72
:103A980083E02450601314601924E1701CEEFAEFDF
:103AA800FB120FE6E9F5088010EEFAEFFB1210584A
:103AB8008007EEFAEFFB12105EA9087F01021706D5
:103AC80074F7121634EAFEEBFF8E828F83A3A3A34A
:103AD800A3E0641E701179008E828F83A3A3E0FA9D
:103AE800A3E0FB120FD4E97F0102170674F6121641
:103AF800348A088B09850882850983A3A3A3A3E0D8
:103B08007034AE08AF098E828F83A3A3A3A3A3A3A7
:103B1800A312185E8E828F83A3A3A3A3A3E0FCA3A2
:103B2800E0FD8E828F83A3A3E0FAA3E0FB120FDAF5
:103B380074021215DAE97F0202170674F7121634B6
:103B4800EAFEEBFF900769E0F98E828F83A3E0FA23
:103B5800A3E0FB120680E97F01021706C082C0833A
:103B680074FF1215C4121034E9C39402400B85186F
:103B7800828519837402F0800985188285198374F7
:103B88000AF0AC18AD197A017905120512E9740129
:103B98001215DAD083D08202011F74F2121634741F
:103BA800E81215C48A088B09E9FE8C0A8D0B7C186B
:103BB8007D007900AA18AB19120EB48A0C8B0DACD3
:103BC8000CAD0D851882851983E508F0A3E509F089
:103BD80090076BE0C0E07402121610D0E0F0900776
:103BE8006CE0C0E07403121610D0E0F0900A86E092
:103BF800C0E07417121610D0E0F07415121610E019
:103C080054FEF8A3E054FFF9900A85E0A2E0E433FB
:103C1800FA7B00E84AF8E94BF97415121610E8F037
:103C2800A3E9F0900A85E0A2E15004D2F08002C234
:103C3800F07415121610E054FDFAA3E054FFFBA22D
:103C4800F0E433F87900E828F8E933F9EA48F8EBC2
:103C580049F97415121610E8F0A3E9F0900A85E006
:103C6800A2E35004D2F08002C2F07415121610E0DC
:103C780054F7FAA3E054FFFBA2F0E433F50C750DFA
:103C8800007403780C1215B1EA450CF8EB450DF9F0
:103C98007415121610E8F0A3E9F0900A85E0A2E482
:103CA8005004D2F08002C2F07415121610E054EFDE
:103CB800FAA3E054FFFBA2F0E433F50C750D007491
:103CC80004780C1215B1EA450CF8EB450DF974159A
:103CD800121610E8F0A3E9F0900A85E0A2E5500476
:103CE800D2F08002C2F07415121610E054DFFAA365
:103CF800E054FFFBA2F0E433F50C750D0074057871
:103D08000C1215B1EA450CF8EB450DF974151216AD
:103D180010E8F0A3E9F0900A85E0A2E25004D2F09E
:103D28008002C2F07415121610E054FBFAA3E05496
:103D3800FFFBA2F0E433F50C750D007402780C1249
:103D480015B1EA450CF8EB450DF97415121610E893
:103D5800F0A3E9F090076CE0602A750C10750D006F
:103D6800780C1218477C6D7D077406121610AA820B
:103D7800AB83120E9C74021215DA8A0C8B0D850C1B
:103D880082850D8390077DE06011EE600E74151238
:103D98001610E04402F0A3E04400F090077DE060D4
:103DA80006780179008004780079007414121610DE
:103DB800E048F090076AE0600678047900800478AB
:103DC8000079007414121610E048F0AC0AAD0BAA82
:103DD80018AB19120428E974181215DA7F060217AD
:103DE8000674F7121634EAFEEBFF75080090077D9B
:103DF800E0600678017900800478007900E84208DC
:103E080090076AE0600678047900800478007900F9
:103E1800E84208A908EEFAEFFB1204E2E97F010282
:103E2800170674F212163474E31215C48A0C8B0D3B
:103E3800E9FF8C0A8D09742B121610E0F508740836
:103E48006509700A75F006EFA42422FE800875F053
:103E580006EFA42421FE7C1B7D0079007402121653
:103E680022120EB4851882851983EAF0A3EBF07448
:103E78000212162A7A1BEEF91211F0E97038741C36
:103E8800121610E0C39407402D741C121610E0C3DC
:103E980094115022E508F50B780B12184B74031295
:103EA800162AE50AA2E0E433F9AA0CAB0D12043A8B
:103EB80074011215DAE9741D1215DA7F0602170665
:103EC80074F71216341206F2E97E00EEC3940A5013
:103ED800557C0679FFEEFA7B00EA75F00EA4CAA8B5
:103EE800F075F000A428F875F00EEBA428FB748593
:103EF8002AFA74073BFB120F14E97027EEF87900D1
:103F0800E875F00EA4C8AAF075F000A42AFA75F0B6
:103F18000EE9A42AF9748528FA740739FB79001286
:103F280006F8E90E80A57F0102170674F61216340A
:103F380074FD1215C4EAFEEBFF90081FE0F8A3E039
:103F4800F9E8497039750821750908780812184781
:103F580075080275090078081218477508F9750977
:103F68008F78081218477CFF7DFF7A017B001205C5
:103F78005474061215DA90081FEAF0A3EBF09008C3
:103F88001FE0F8A3E0F9E8497003024050E4F5089F
:103F9800F5097808121847740412161A880889094E
:103FA8007808121847740412161A880889097808BC
:103FB80012184790082112185E790290081FE0FC39
:103FC800A3E0FDEEFAEFFB12066E74081215DAE9AB
:103FD800704A851882851983E0FA7B0074011216ED
:103FE80010E0F87900E4C8F9EA28F508EB39F50992
:103FF800E50845096026780812184790081FE0F878
:10400800A3E0F5838882A3A3A3A3E0FCA3E0FDEECD
:10401800FAEFFB120FDA74021215DAE9E4F508F583
:1040280009780812184790082112185E7CFF7DFF56
:1040380090081FE0FAA3E0FB12056074041215DA79
:1040480090081FEAF0A3EBF090081FE0F8A3E0F94E
:10405800E849700479018002790074031215DA7F47
:1040680002021706C082C08390081DE0F8A3E0F999
:10407800E849601790081DE0FAA3E0FB120EC6E9B4
:10408800F890081D7400F0A37400F0900A87740A71
:10409800F0D083D08202011FC082C083E9900A0257
:1040A800F00242CA74F7121634E99002E1F07C1962
:1040B8007D037AFF7BFF1206869002E274FFF0A36D
:1040C800F0A3E4F0A3F079051206149002E1E0F9F8
:1040D80012053C7A9E7B061208487F010217067477
:1040E800F41216348A088B09EB548060309002E190
:1040F800E0F9120ED88A0A8B0BAE0AAF0BEE4F60AE
:10410800138E828F83E064B07003120626EEFAEFF6
:10411800FB120EC6AA08E5096480FB80047A007BBE
:104128000002429974F212163474FC1215C4EAFEA5
:10413800EBFFEE4F60387402121610EEF0A3EF1288
:1041480044FEECF0A3ED1244FEAA82AB83120536BE
:10415800E9F508707374121216101250B2E50A4588
:104168000B60658E828F831241DAEE4F70057508F9
:104178000280557A067B00120F328A0C8B0DA80C30
:10418800A90DE8497005750813803D88828983E484
:104198001241E4A3A3EEF0A3EF12554BE50AF0A3F6
:1041A800E50BF09002E712426C9002E76017E0FC22
:1041B800A3E08003EAFCEBFD8C828D8312426C70D5
:1041C800F38C828D83124FD7A90874041215DA0272
:1041D800574DA3A3A3A3E0FEA3E0FF22F0A3F0881A
:1041E8008289832274F2121634890AE975F017A4B9
:1041F800FEAFF09002E6E4F09002E412426C600A2E
:10420800120F389002E4E4F0A3F0EEFAEFFB120F7D
:10421800328A088B09EA4509602FEEFCEFFD790028
:10422800120EB49002E4E508F0A3E509F07B0080E3
:1042380008124256E4F0A3F00BEBC3950A40F2E5EE
:104248000A9002E6F079008002791302574DEB7567
:10425800F017A4F8A9F09002E4E028FAA3E0398A5C
:1042680082F58322124D6DEA4B2274F412163479CA
:1042780000EAA2E0501B75087675098F78081218B5
:10428800477C047D007A047B0A12060E740212151C
:10429800DA7F04021706C082C0839002E71242D177
:1042A800601C88828983A3A3E06A7003A3E06B88FB
:1042B80082898370E8A3A3A3A3124D6980047A00BE
:1042C8007B00D083D08202011F125820E849227453
:1042D800EE12163474FC1215C4EAFEEBFF85188240
:1042E800851983E4F0A3F0EE2402124FBBEE2405F7
:1042F8001244ECEE2404F50EEF1248D1E024FE60DF
:104308003924FC604624FE605224FE605E24FE7060
:10431800030243F124FE700302446924FE70030281
:10432800447824FE700302448724FC7003024496F8
:1043380024FE70030244A50244E29003007417F0BF
:10434800A3E41245061202BA0244E28518828519CE
:1043580083AC82AD8312062C0244B285188285197B
:1043680083AC82AD831206320244B2850C08850DF7
:10437800097402121610AC82AD8385088285098300
:10438800124D6912055A8A0C8B0DAC0CAD0DEC4D13
:104398006042E4F50CF50D780C121847750C0075A1
:1043A8000D03780C121847750C01750D03780C1263
:1043B8001847740812161012185E7916124D6312F7
:1043C800066E74081215DAE9F50C700B124D5F12BF
:1043D80002D2800F750C018508828509831244F486
:1043E800124FD7850C080244B57402121610AC821D
:1043F800AD83850C82850D83124D6912055A8A108A
:104408008B11AC10AD11EC4D6043850C82850D838A
:10441800A3A312185E7510007511037810121847BF
:1044280075100175110378101218477408121610C8
:1044380012185E7916124D6312066E74081215DA98
:10444800E9F509700B124D5F1202D8800F7509014A
:10445800850C82850D831244F4124FD78509088094
:104468004C851882851983AC82AD83120638803A50
:10447800851882851983AC82AD8312063E802B8510
:104488001882851983AC82AD83120644801C851876
:1044980082851983AC82AD8312064A800D85188205
:1044A800851983AC82AD83120650E9F508E50860EA
:1044B800298E828F83A3E06414601F850E82850F86
:1044C80083E09003001244FE12581C900301124F1F
:1044D800D7E508A31245061202B4EEFAEFFB12055F
:1044E800D2024EC3F50CEF3400F50D221258208588
:1044F800188285198322F085188285198322F07C19
:10450800007D03850A82850B83124D6D2274EE129D
:10451800163474FC1215C48A0A8B0B8C0E8D0FEAA4
:104528002405F508EB3400F5097C157D0079007A3F
:10453800007B03120EB4E5082402F50CE5091244C9
:10454800EF8518828519838582108583117810126A
:104558001847850882850983A3A3A3A3124A1912C1
:104568001847E5082405F510E5093400F511781019
:10457800121847850C82850D83124D7312055474E9
:10458800061215DA8A108B11AE10AF11E50A240253
:10459800F50AE50B124FBEEE4F70030246DB80179B
:1045A8007402121610124D6988828983EAF0A3EB0F
:1045B800F0900300E004F0900300E0C3940540038A
:1045C8000246DBE4F510F51178101218477510E96A
:1045D80075110278101218477510EA7511027810D3
:1045E800121847740612161012185E7910EEFCEFB6
:1045F800FD124D6312066E74081215DAE9705E85B5
:104608000882850983A3A3A3A3A3A3A3E0F8900228
:10461800E9E0687048124A191218477CEA7D02E5F9
:10462800082408FAE5093400FB120EAE74021215CC
:10463800DAE960298E828F83A3A3A3A3124D699020
:104648000300E0F510740278101215B174012510FA
:10465800F58274033511F583EAF0A3EBF0740212C6
:10466800161085821085831178101218477402126B
:10467800161012185E850C82850D831258311205AA
:104688006074041215DA8A108B11AE10AF11900302
:1046980000E0F510751100740278101215B174005D
:1046A8002510F874033511F988828983A312426CA6
:1046B800700302459FE82403F8E93400F9EE4F60DF
:1046C800030245A88882898374FFF0A3F090030051
:1046D800E004F0900300E0600A124D5F1202C67910
:1046E80000800B850882850983124FCE790A024E15
:1046F800C374EA12163474FE1215C48C128D13EAB0
:104708002405F50CEB12583B1241DE7508007509BB
:1047180000EA2402F510EB3400F51185188285199A
:104728008385820A85830B780A121847850C82854F
:104738000D83A3A3A3A31248DB121847E50C240595
:10474800F50AE50D124FBE780A121847850C8285C6
:104758000D8312582F12055474061215DA8A0A8B23
:104768000BEA450B700302488CEA2404F50EEB12A1
:1047780048D11241DE8A828B83A3A3A3E0F9851076
:1047880082851183124D69120542E9F50960030219
:10479800488CE4F514F51578141218477514E97562
:1047A800150278141218477514EA75150278141250
:1047B8001847740612161012185E7913AC0AAD0B5E
:1047C800851082851183124D6912066E74081215C0
:1047D800DAE9F509600302488C9002E9E0F8E50897
:1047E8007009E02402900301F08017900301E0FCB7
:1047F800E82402FAE43400FBEA6C7001EB6003027F
:104808004890850882AA82124A109414124A0850C5
:1048180073850E82850F83E0C0E074022A1248C8AF
:10482800D0E0F00508850E82850F83A3E0C0E085FF
:10483800080A7402250A1248C8D0E0F00508900258
:10484800E91248DB1218477CEA7D0285080A7402DF
:10485800250AFA74033400FB120E9C74021215DA4E
:104868009002E9E02508F50874FF6E700374FF6F85
:104878006012EE24010EEF3400FFE508C3941450D3
:1048880003024723E5086013124C548510828511F2
:1048980083124D691202CC79008014E50970037502
:1048A800090A851282851383EEF0A3EFF0A9097433
:1048B800021215DA7F0E02170685080C7402250C01
:1048C800F58274033400F583223400F50F850E82D7
:1048D800F5832212555E2274EE12163474FE1215F8
:1048E800C48C0E8D0FEA2405F50CEB1244EF750B02
:1048F80000900300E4F0F50AEA2402F508EB34001E
:10490800F5098049900300E0FA9002E9E0F8124ABC
:10491800109417124A08400D900300E0F87416C36B
:10492800989002E9F0124A191218477CEA7D02743D
:10493800012AFA74033400FB120E9C74021215DA71
:104948009002E9E0F8900300E028F0050AE50C245D
:1049580016F582E50D1248CCE0F8E50AC398400345
:104968000249F1900300E0C39416507DE50AC33371
:10497800F8E433F9E50C28FEE50D39FF8518828542
:104988001983AC82AD838E828F83124D6912055ACA
:104998008A108B11AC10AD11EC4D7005750B0180B0
:1049A80043E4F510F51178101218477510E97511E0
:1049B8000278101218477510EA751102781012184B
:1049C80047740612161012185E7916850882850932
:1049D80083124D6912066E74081215DAE9F50B7028
:1049E8000302490C124FCA80107C007D038508829F
:1049F800850983124D691202DEA90B7402024EC5A5
:104A0800E99400C365D03322EA28F8E43400F9E8D1
:104A180022E0F51075110078102274EA1216347429
:104A2800FC1215C48A0C8B0D8C128D13EA2405F523
:104A38000AEB124FBE750800750900E50A2402F555
:104A480010E50B3400F511740212161085820E85DC
:104A5800830F780E121847850A82850B83A3A3A3B8
:104A6800A312550A121847E50A2405F50EE50B347A
:104A780000F50F780E121847851082851183124FA2
:104A8800C4124D6312055474061215DA8A0E8B0F80
:104A9800AE0EAF0FE50C2402F50EE50D3400F50F50
:104AA80080408882898374FFF005081248C174FF2A
:104AB800F005089002E9E0F50C750D00780C121865
:104AC800477CEA7D0285080C7402250CFA740334CD
:104AD80000FB120E9C74021215DA9002E9E0250818
:104AE800F508EE4F60718E828F83A3A3A3E0F9854A
:104AF8000E82850F83124D69120542E9F509EE24ED
:104B0800041244ECE97044E4F514F515781412180D
:104B1800477514E975150278141218477514EA7563
:104B280015027814121847740812161012185E79B4
:104B380011EEFCEFFD850E82850F83124D6912067A
:104B48006E74081215DAE9F5096027850C82850D5F
:104B580083124C4A124FD7E5087003024C30124CAE
:104B680054850E82850F83124D691202E479000282
:104B78004C45850882AA82EA9002E97009E024047B
:104B8800900301F08022E0F8900301E0F514E82496
:104B980004FCE43400FDEC65147001ED70C0124AA9
:104BA800109412124A0850B6850C82850D83E0C015
:104BB800E074022A1248C8D0E0F00508850C828506
:104BC8000D83A3E0C0E01248C1D0E0124C66858294
:104BD8000C85830D780C12184774041216101218DD
:104BE8005E85108285118312583112056074041293
:104BF80015DA8A0C8B0DAE0CAF0D85080C740225E6
:104C08000CF874033400F9EE4F7003024AAA8518B1
:104C180082851983E088828983124C66A3E0C0E00C
:104C28001248C1D0E0024AB8E509700375090A853F
:104C38000A82850B83124C4A124FD7A909740402C1
:104C480048B912582085128285138322900301E007
:104C5800F5F0E50884900300F07C007D0322F00560
:104C6800088518828519832274EC12163474FE1292
:104C780015C48A088B098C0E8D0FEA2405FEEB34C7
:104C880000FF851882851983AC82AD838E828F835D
:104C9800124D6912055A8A0A8B0BEE24181244EC3D
:104CA800EA450B7003024D3A124EAC503285188219
:104CB800851983124D691206628A108B11EA451113
:104CC800606B7912AC0AAD0B850882850983124D99
:104CD80069851082851183121632E9F50A7058E445
:104CE800F50AF50B780A1218478E828F83A3A3E082
:104CF800F50A780A121847EE2403124FBB780A12F5
:104D080018478E828F83124D73120674740612151B
:104D1800DAE9F50A7021850C82850D83E0701F851C
:104D28000882850983124D691202EA8011750A0EFC
:104D38008009750A018004E50A6003124FCA850CD0
:104D480082850D83E0600479008002A90A7402124A
:104D580015DA7F0C0217067C007D03850A82850B15
:104D680083124D6D22E0FAA3E0FB22E0FCA3E0FDF4
:104D7800850882850983124D6D2274EE12163474EB
:104D8800FE1215C48A088B098C0C8D0DEA2405FEC9
:104D9800EB3400FF750E00851882851983AC82AD4F
:104DA800838E828F83124D6912055A8A0A8B0BEA09
:104DB800450B7003024E98124EAC5035851882850B
:104DC8001983124D691206628A0E8B0FEA450F602D
:104DD8005E7912AC0AAD0B850882850983124D698C
:104DE800850E82850F83121632E9F50E6003024E96
:104DF8009B8508828509831250B2AA0AFB120656BF
:104E08008A108B11A810A911E849701E7AFF7BFF40
:104E18001206568A108B11A810A911E849606C88EF
:104E2800828983E50AF0A3E50BF0750A008007750F
:104E38000E0E805F050A9002E6E0FAE50AC39A5072
:104E48004AE50A75F017A4FAABF088828983A3A310
:104E5800E02AFAA3E03BFB8A828B83124FC4EC4D15
:104E680070D2750A17750B00780A121847EEFCEF16
:104E7800FD120E9C74021215DAEEFCEFFD85088215
:104E8800850983124D691202F08014750E0980039A
:104E9800750E01125818850C82850D83124FD7A9FB
:104EA8000E024A03E5082402F508E5093400F5096D
:104EB8008A828B83A3A3A3E0A2E52274041215DAE5
:104EC8007F0A02170674EC1216348C108D11EA242E
:104ED80005F50CEB1244EF750F00EA2402F50AEB16
:104EE800124FBE850A82F583124D691206568A084A
:104EF8008B09EA45097003024FB0750E0080718571
:104F08000C82850D83E06401704F8E828F83A3A38A
:104F180012185E8E828F83A3A3A3A3E0F5127513E4
:104F2800007812121847EE2405F512EF3400F51335
:104F38007812121847124D6312067474061215DAA5
:104F4800E9F50F6014850C82850D83E4F01258187A
:104F5800851082851183124FD77C177D007900EE6A
:104F6800FAEFFB120EB48E828F83E4F0A3F0050EE5
:104F78009002E6E0F8E50EC398501EE50E75F017AE
:104F8800A4F8A9F0850882850983A3A312584512BD
:104F98004FC4EC4D6003024F07850882850983746E
:104FA800FFF0A3F0E50F7006124D631202F6A90F89
:104FB800024D5AF50AEF3400F50B22A3E0FCA3E0FA
:104FC800FD228E828F83125820850E82850F83E8FA
:104FD800F0A3E9F022C082C0839002E2E06A700385
:104FE800A3E06B70067AE27B0280047A007B000201
:104FF80042CAC082C08378008C828D83E06A7003C5
:10500800A3E06B7010E875F003A4F8A9F0EC28FA97
:10501800ED39FB8015088C828D83A3A3A3E06A7009
:1050280003A3E06B60DF7A007B000242CA74F612C9
:1050380016341206208A828B83E582458370067AAD
:10504800007B008007A3A3A3A3124D690256C9746D
:10505800F2121634E9FE740E1216101250B27410C1
:1050680012161012552A8C828D83E064027036A3C2
:10507800125826F50CA3E0F9A80C740268700374A2
:1050880029697021750C02750D00780C1218477883
:1050980008121847780A121847EEF912069874068B
:1050A8001215DA8002790102574DE0F50AA3E0F5FE
:1050B8000B2274E812163474FB1215C4E9851882A1
:1050C800851983F08A168B17ECFEEDFF75100074B6
:1050D8001D12161012581C741D121610124FD78E5E
:1050E800828F83A3A3A3E0A2E4502D741D1216108F
:1050F800124D691206628A828B83E58245837003AA
:105108000254FB790AEEFCEFFDAA16AB1712163211
:10511800E9F51060030254FE741F12161012552A86
:1051280074211216101250B27423121610E0F50EE4
:10513800A3E0F50F8E828F83E0640260030254A916
:10514800A312581C850882850983A385821285834A
:1051580013EE24061244EC88828983E0FAA3E0F96E
:10516800EA2400F514E439F51578141218D1010071
:10517800002801289E510700022863520328D051B5
:1051880000299A530129C5530229665303299A53C2
:1051980004294454A954E50E450F60030254A4851C
:1051A8000C82850D8312551FFAE9FB8A828B83E0F6
:1051B800850A82850B831255551218478A828B837C
:1051C800A3E0FCA3E002542EE50E450F6003025451
:1051D800A4850A82850B837401F0125532850882F2
:1051E800850983F07C007D008E828F83A3A3A3A30F
:1051F800E02401FAA3E03400FB12055AEA4B6041AF
:105208008A828B83E02402F8850A82850B83E02852
:10521800F0EA2404F8EB3400F988828983E08512E7
:10522800828513831255671255551218478A828B47
:1052380083124FC3E5082403FAE5093400FB02543E
:1052480033850A82850B83E02404F07C047D007991
:1052580000AA12AB13120EB40254FEE50E450F60FD
:10526800030254A4125532FEA3E0FF850A82850B7F
:10527800837404F0EE850882850983F0EF85128235
:10528800851383F07403121610AC82AD83EEFAEF27
:10529800FB12055A8A0C8B0DEA450D700302534721
:1052A8008A828B83A3A31241DA74011216108582B5
:1052B8000E85830F780E12184774051216101218EF
:1052C8005E7CFF7DFF12056074041215DA8B0FEA0D
:1052D800450F7033850C82850D8312550A121847C5
:1052E800850C82850D83A312185E7C027D007A0DE1
:1052F8007B9012038C74041215DAE9700A74011297
:10530800161074FFF0A3F08E828F83E06402703968
:10531800750C02750D00780C1218478E828F831257
:105328004FC3E5082404FAE5093400FB120E9C7407
:10533800021215DA850A82850B83E024028009743B
:1053480001121610EEF0A3EFF074011216101255A8
:105358001BF07401121610A312551302549EE50E89
:10536800450F60030254A4850C82850D83124FC437
:10537800AA16AB1712068C850A82850B837402F075
:10538800EA850882850983F0851282851383EB02FA
:1053980054A1E50E450F60030254A4125532F8A338
:1053A800E0F9850A82850B837402F0E88508828516
:1053B8000983F0E98512828513830254A1850C8242
:1053C800850D83124D69120E96EAFC8C82A882C361
:1053D800950EE4950F405FE8650E7002E50F7004C6
:1053E8007C008022851882851983E0FAE50E2AFA66
:1053F800E50F3400FBC3EA98EB94005003E0800506
:10540800E50ECCC39CFCEC850A82850B83F08C0AE4
:10541800750B00780A121847850C82850D83E025E4
:105428000EFCA3E0350FFDAA08AB09120E9C74020E
:105438001215DA0254FE7510070254FEE50E450FE8
:10544800705A850C82850D8312581C850A82850B3B
:105458008374071241E61255131241E6A3E0851240
:1054680082851383F0E82402FAE93400FB8A828BF0
:105478008312551312554212551BA312554B125540
:1054880024F0E82405F8E93400F988828983125564
:1054980024A3125567A3A3A3A3F0805A75100B8009
:1054A80055741D121610124D691206208A828B83BC
:1054B800E5824583603D12581C880C890DE8450D2E
:1054C8006031780E121847780A12184778081218AF
:1054D800477406121610E0F9EEFCEFFDAA16AB179A
:1054E800850C82850D8312163274061215DAE9F5D9
:1054F80010800375100EA91074051215DA7F1002BA
:105508001706E0F50E750F00780E22E085088285F3
:1055180009832212557122125820E822125571A3CC
:10552800A322E0F508A3E0F50922850C82850D8306
:10553800E0F8A3E0F5838882E022A3A3F08A828BB7
:1055480083A322F088828983A3A3A3A322F08A825B
:105558008B8312555E22E0F50A750B00780A22F05B
:1055680088828983A312557122E085088285098380
:10557800A3A32274EE12163474FE1215C48A0A8B81
:105588000BECFAEDFB7414121610E0F510A3E0F51D
:10559800117416121610E0FE7418121610E0F50EAB
:1055A800A3E0F50F851882851983AC82AD831205B7
:1055B8005A8A0C8B0DEA450D604985188285198336
:1055C800124D691206208A828B83E5824583602FFB
:1055D800A3A312552AE50845096024780E12184736
:1055E8007810121847EEF9AC0CAD0DAA0AAB0B8572
:1055F800088285098312163274041215DA80067936
:105608000E80027901024A0374F612163474FE12EF
:1056180015C4740C12161012551F8518828519832B
:10562800F07401121610E9F0E4F508F5097808128B
:10563800184775080278081218477404121610855E
:1056480082088583097808121847120674740612AE
:1056580015DA74021215DA806874F7121634EAFE45
:10566800EBFF89087C197D0312068CEA5402600B53
:10567800A908EEFAEFFB12054E800279010240E21A
:1056880074F612163474FF6A700374FF6B70168C0C
:10569800828D831256CEE4F08C828D83A3A3A3124D
:1056A80056CEA3801812065C8A088B09A808A90997
:1056B800E849600D8882898374FF1241E4A3A3E45A
:1056C800F07F0202170674FFF0A3F08C828D83A38B
:1056D800A32274F612163412065C8A828B83E58242
:1056E80045836006A3A3E0FA80027A007B0080D19C
:1056F80074F21216348A088B09ECFEEDFF740E1250
:105708001610E0F50A12065C8A0C8B0DA80CA90D80
:10571800E8497026EEFCEFFD7AFF7BFF12065C8AF3
:105728000C8B0DA80CA90DE8497004791180168816
:10573800828983E508F0A3E509F088828983A3A319
:10574800E50AF079007F0602170674EE121634EAAD
:10575800FEEBFF8C088D09890C7414121610125870
:105768001C7416121610124D69750D00E849600375
:105778000258107402650C600302580B741212165A
:1057880010125826FCA3E0F9EC2400F50EE439F5D4
:105798000FEAF4F8EBF4F9EC58F8E50F59F9E84991
:1057A800705CE5082406F8ED3400F9880A890B884E
:1057B80082F58312583112068C8A108B11E50E651A
:1057C800107004E50F65116042780E121847850ABB
:1057D80082850B8312583112069274021215DAE987
:1057E800F50D7027780E121847850882850983A35E
:1057F800A312582F1206A474021215DA800D750D23
:10580800808008750D0D8003750D0BA90D024EC81B
:105818008E828F8312582022E0F8A3E0F9221258D2
:105828002088828983E022A3A3E0FCA3E0FDEEFAAE
:10583800EFFB223400F50D850C82F58322E028FE6B
:10584800A3E039FF8E828F832274F2121634EAFEA7
:10585800EBFF890B7401650B600E7402650B706AAF
:105868007901120866E97062EEFAEFFB1206568AB1
:10587800088B09EA45096047750A00800B7C177D8B
:10588800007900120EB4050A9002E6E0F8E50AC3B2
:10589800985021E50A75F017A4F8A9F085088285C3
:1058A8000983A3A3E028FAA3E039FB8A828B831239
:1058B80042D170C985088285098374FFF0A3F07C02
:1058C800197D03EEFAEFFB12068602574D74F212A9
:1058D80016348A088B09ECFEEDFF740E12161012AE
:1058E80050B2900A02E0F4603D7A097B00120EC0C3
:1058F800EA4B60328A828B8374B1F0A3E412554478
:10590800A3125542A3E508F0A3E509125931EEF0B8
:10591800A3EF125931A3A3E50AF0A3E50BF0900A0F
:1059280002E0F9120ECC02574DF08A828B83A3A3B2
:10593800A3A3A322C082C0839061907404F0A374CF
:1059480048F0A3E4F09061807440F09061BC740763
:10595800F09061877469F09061B67416F07900125E
:105968000962790212096890236CE493F46006E4F2
:1059780093F912093E7905120C62025D37C082C0A4
:1059880083E9540FF9906185E0696012E5C6548097
:105998004449F5C6E59E547F644970F8E9F053C65A
:1059A80080E59E547F70FA025D3774F7121634E56D
:1059B800A8FE53A87E12094AC2BA539AFEC2897534
:1059C8009B00C2C212095075A91175B90512095672
:1059D800D2BA439A0174805E42A80262CEC082C0E5
:1059E80083906181E4F0A3025D3475E9007591004C
:1059F80075BF0002011FC082C083906181E4F0A3DB
:105A080074C0F0A3E4025D36C082C08374F8121536
:105A1800C49003A4126C677003025AEF9003A4E0C9
:105A2800544060237908851882851983AA82AB833C
:105A3800120A5E851882851983AA82AB831207161B
:105A48009003A4E054BFF0E054806010790C7A65AC
:105A58007B05120A5E9003A4E0547FF0E0A2E050B8
:105A68000F790012096212071C9003A4E054FEF09B
:105A7800E05402600F790112096212071C9003A416
:105A8800E054FDF0E05404600F7900120968120731
:105A9800229003A4E054FBF0E05408600F7901124F
:105AA80009681207229003A4E054F7F0E05410604C
:105AB8000F79021209681207229003A4E054EFF04C
:105AC800E05420600F79031209681207229003A49A
:105AD800E054DFF0A3E05401600D120974120728A6
:105AE8009003A5E054FEF074081215DA025D37C081
:105AF80082C083E9600514602A804F90619A7433EC
:105B0800F0A37455F09061A0743AF090053FE064FA
:105B1800017009C2919003A67467802D9003A67442
:105B280061802690619A743FF0A3745AF09061A046
