:020000040000FA
:0600000002011A02208C2F
:03002B0002273772
:0300530002210285
:03006B0002270564
:10008300021F3BE5C754F84401F5C779012200007C
:100093000080FB120086B90003020104E479217891
:1000A30008B800028004F709D8FCE479297802B87B
:1000B30000028004F709D8FCE490028178CB790729
:1000C3008002F0A3D8FCD9FA781A90014A7A01BACF
:1000D30000028007E493A3F608DAF97A4B7B0990D0
:1000E300014B780879048015E493A3AD82AE838A2B
:1000F300828B83F0A3AA82AB838D828E83D8E9D9C6
:10010300E775823775839E740312012C758291758E
:100113008300740012012C75D00075813F7518811E
:10012300751902759F00020096C09FF59FE473D076
:100133009F22D083D082C09FE493C0E0740193C018
:10014300E0740293F59F2201FF0000B40000280031
:100153002800283075A000A000A000A0000008001F
:1001630008E001F000100010001000100010001053
:100173000050005000500010001000D00700000095
:100183000000000F0001000500307507001000019A
:100193000081FF00000000FF50066E065606FF02B6
:1001A300020208025000A0000000E80302328F019F
:1001B3000000EF8F020090010000A20902069001E7
:1001C3000000B302020090010000A309020890019D
:1001D3000000C902020090010000A409020A900174
:1001E3000000CB02020090010000A509020C900858
:1001F3000000CC02020090010000A609020E90014B
:100203000000A709FF0100FF2002328F010000F266
:100213008F0200900100000B0A0210900000000002
:10022300000204900300001903800C800C800C80F2
:100233000C800C800C800C800C800C800C800C805B
:100243000C800C5C0F740F560F5E10020106030244
:10025300F0FF76100000FFFF020202020202020218
:1002630002010D000000100102328F010000F58F22
:100273000200900100005B0A022090010000690760
:100283000200900100005C0A021E90010000138F1F
:100293000200900100005D0A021C90010000058F1E
:1002A3000200900100005E0A021A900100007F8E96
:1002B3000200900100005F0A021890010000A38E63
:1002C300020090010000600A023890010000B58E20
:1002D300020090010000610A021690010000918E55
:1002E300020090010000620A021490010000F78EE0
:1002F300020090010000630A023290010000640AC8
:1003030001E803053F100AFF0001307503020106EF
:1003130000000000000000000000000000000000DA
:10032300000000000000000000000000FFFF0600C6
:10033300800CE8030A4368617261637465726973D0
:10034300746963203100024368617261637465728A
:10035300697374696320320008436861726163746E
:100363006572697374696320330010436861726155
:10037300637465726973746963203400024368614E
:100383007261637465726973746963203500023244
:100393008F010000F88F020090010000370B022646
:1003A300900300003509020290010000380B02009F
:1003B30090010000490B0228900100003609020257
:1003C300900100004A0B0200900100005B0B022A1F
:1003D3009002000037090202900100005C0B02004A
:1003E300900100006D0B022C9000000038090204FC
:1003F3009003000039090202900100006E0B020015
:10040300900100007F0B022E900400003F090202BE
:1004130090010000800B104B657920507265737357
:100423002053746174650002328F010000FB8F0258
:100433000090010000190C023690000000440902EC
:10044300049003000045090202900100001A0C12F7
:1004530001356B8C03120135828C03120135B38C89
:1004630003120135EE8C03120135188D0312013589
:10047300428D03120135598D03120135708D03121C
:100483000135878D03120135B08D03120135C38DFC
:1004930003120135D98D03120135EC8D0312013599
:1004A300138E0312013501980212013505990212C8
:1004B30001353D99021201356099021201356B999C
:1004C300021201358E99021201359D9A02120135ED
:1004D300729B02120135ED9B02120135759C0212CB
:1004E3000135B09C02120135E79C02120135759D5E
:1004F300021201354E9E02120135AE9E02120135E3
:10050300B99E02120135389F021201353B9F021238
:1005130001353E9F02120135CD9F02120135D09F56
:100523000212013500A0021201352AA00212013580
:1005330018A102120135CAA102120135D9DB021238
:10054300013501DC021201352FDC0212013566DCB4
:1005530002120135C4DC021201350FDD021201352E
:100563005ADD021201359ADD02120135E0DD021275
:1005730001350EDE02120135CBDE02120135D5DE66
:1005830002120135E2DE0212013515DF02120135D6
:10059300E1DF02120135EDDF0212013505E002123F
:1005A30001350FE002120135E59B03120135F39B80
:1005B300031201350B9C03120135239C03120135F1
:1005C30031B001120135DDB00112013558B101120C
:1005D300013579B201120135B5B2011201355EB3AD
:1005E3000112013545B401120135A9B501120135D6
:1005F30000B60112013581B60112013571B701123E
:100603000135BEB70112013544B80112013576B880
:10061300011201358ABA01120135CCBA0112013532
:10062300EABA011201356DBB0112013541BC011259
:10063300013509BD0112013528C502120135FBC57B
:1006430002120135A4C602120135F7C602120135A2
:10065300A7C70212013533C8021201351FC902129E
:1006630001354EC90212013561CA02120135A9CA08
:10067300021201357ECB02120135BACB02120135CB
:10068300D6CB02120135549D03120135CDF102126E
:100693000135E3F10212013509F20212013525F3A6
:1006A300021201352FF30212013564F402120135EF
:1006B3005CF502120135BED102120135EED20212EF
:1006C300013521D3021201356BD30212013532D524
:1006D3000212013542A001120135ACA0011201350D
:1006E3000BA2011201351BA20112013548A201120E
:1006F30001359FA20112013548A3011201354FA410
:100703000112013519A50112013579A6011201352E
:10071300BCA60112013561A701120135AEA7011272
:100723000135D4A701120135E2A901120135E7A968
:1007330001120135ECAB0112013539AC011201355F
:10074300ACAC01120135DFAC0112013581AD0112F0
:1007530001352AAE0112013562AE0112013565AED3
:1007630001120135ADAE01120135EDAE01120135B5
:1007730044AF01120135F9820312013511830312CB
:1007830001355983031201356F8303120135B68393
:1007930003120135CA84031201355785031201354B
:1007A300A285031201356427001201357027001258
:1007B3000135AB2700120135F02700120135B028AF
:1007C300001201353629001201359B29001201352B
:1007D300C72900120135002A001201353E2C0012F0
:1007E3000135222E001201350830001201354B313C
:1007F30000120135993300120135AB340012013573
:10080300F635001201350637001201352337001281
:1008130001355E3700120135803700120135E337A9
:1008230000120135A43C00120135393D0012013597
:100833008A3D00120135B13D00120135033E00121D
:100843000135213E001201357B3E00120135643F24
:1008530000120135DA40001201355E410012013504
:1008630096E002120135A0E002120135E3E0021224
:100873000135FEE0021201358EE102120135B6E1C7
:1008830002120135F3E1021201352AE202120135A7
:1008930053E202120135C8E202120135DDE202120F
:1008A3000135F2E20212013523E30212013537E387
:1008B300021201355CE30212013596E3021201359F
:1008C300C2E302120135FAE30212013579E402129E
:1008D3000135C2E402120135ECE40212013517E5D9
:1008E30002120135DD960312013500800212013533
:1008F3002E80021201357C81021201355C820212C4
:1009030001357B8202120135F882021201353B83E5
:10091300021201359184021201355285021201350A
:10092300D987021201357A880212013570890212C1
:1009330001356D8A02120135C78B02120135528CC3
:1009430002120135599403120135C2940312013581
:100953001695031201353D95031201356E95031269
:100963000135C6E90212013533EA021201357AEA8A
:100973000212013592EB021201358EEC021201359F
:1009830071ED02120135D9F6011201351BF701127F
:100993000135EDF701120135C6F801120135C0F931
:1009A30001120135A2FA011201350BFB01120135C7
:1009B300C1FB0112013535FC01120135A1FC011205
:1009C3000135CAFC0112013544FD01120135DDFD7B
:1009D3000112013542FE0112013557FE01120135A4
:1009E3009DFE01120135B6FE011201351BFF0112F6
:1009F30001351EFF011201350080031201352880E5
:100A03000312013566800312013524810312013577
:100A13008B8103120135A78103120135CF810312A4
:100A23000135FF81031201350E82031201358B82DA
:100A330003120135B182031201353B9001120135D6
:100A4300D99101120135F493011201353094011249
:100A530001355D94011201354295011201358995E5
:100A630001120135CD9501120135DF9501120135D2
:100A73001F96011201354C9601120135979601120A
:100A83000135D796011201350597011201355797A4
:100A930001120135E79701120135859A01120135DB
:100AA3009B9C01120135D99C011201356A9E0112EA
:100AB3000135AF9E01120135269F01120135709F4A
:100AC300011201359B9F0112013505AC021201355C
:100AD30084AC0212013546B20212013555B302123B
:100AE3000135BDB40212013554B502120135E85582
:100AF300001201353156001201355E5600120135E0
:100B03009156001201359E5600120135AA56001265
:100B13000135BC5600120135A357001201350158A7
:100B2300001201353658001201357959001201358A
:100B3300C65900120135EA5900120135575A0012FD
:100B43000135155B00120135CE5B001201353B5CAC
:100B530000120135ED5C00120135FD5C0012013518
:100B6300845D00120135435E00120135705E001290
:100B73000135E95E00120135465F00120135905FD1
:100B830000120135266000120135F16000120135B3
:100B9300A661001201351B62001201357C6200124E
:100BA3000135E662001201351F6300120135C1638E
:100BB30000120135D16400120135116500120135AF
:100BC3002E65001201354D65001201359465001242
:100BD3000135B96500120135E6650012013560661D
:100BE30000120135A16600120135C56700120135F7
:100BF300756800120135CC680012013536690012A0
:100C030001354F69001201353BA2021201358EA254
:100C1300021201359AA2021201356FA302120135A5
:100C230096A302120135D1A3021201353DA402128B
:100C3300013579A402120135B2A402120135CAA406
:100C4300021201351FA50212013538A50212013522
:100C530081A50212013594A502120135AEA5021237
:100C63000135C4A502120135F7A6021201353EA8CB
:100C73000212013540A9021201353AAA02120135C6
:100C8300EF7F00120135A2E901120135D2E9011209
:100C930001359AED01120135F1EE01120135BAEF7A
:100CA300011201353AF1011201350BF2011201353E
:100CB30048F2011201356BF201120135A9F201125A
:100CC3000135B2F201120135FCF20112013506F3CE
:100CD30001120135B0F30112013589F40112013516
:100CE300DDF4011201353FF50112013592F50112D0
:100CF3000135C1F501120135FEF501120135816996
:100D030000120135E86C00120135EE6C001201355A
:100D1300707200120135E97600120135BF7A0012B4
:100D2300013533EE02120135A9EE02120135BFEE91
:100D33000212013500EF021201353AEF02120135BA
:100D4300B3EF02120135EEEF0212013561F0021228
:100D530001359FF002120135A8F002120135B4F0FB
:100D630002120135D0F002120135FBF002120135F7
:100D730011F1021201353AF1021201359DF102120D
:100D830001350E7B00120135217B001201353B7BBF
:100D930000120135647B00120135A77B0012013577
:100DA300E67B00120135247C00120135897C001298
:100DB30001359E7C00120135A97C00120135B67CF9
:100DC30000120135CD7C00120135DB7C00120135A8
:100DD300E67C00120135F27C00120135057D00121C
:100DE3000135107D00120135337D00120135DA7DA6
:100DF30000120135EA7D00120135047E001201352F
:100E0300217E001201353D7E00120135627E001203
:100E130001356D7E00120135827E00120135967E0A
:100E230000120135F77E00120135FD7E00120135F7
:100E3300037F00120135097F00120135217F001263
:100E43000135547F0012013593CD0112013517CEC0
:100E530001120135C6CE0112013525D0011201352B
:100E630046D20112013532D30112013567D3011283
:100E7300013589D30112013538D40112013530D639
:100E83000112013559D601120135EBD60112013594
:100E93001DD7011201352AD70112013581D701125D
:100EA3000135A7D70112013514DA0112013517DB19
:100EB300011201356FDB0112013522BF0112013529
:100EC3002CC00112013513C1011201351DC10112DC
:100ED30001353FC1011201354BC101120135E4C295
:100EE3000112013513C3011201352FC4011201355B
:100EF30088C401120135EEC501120135CDC60112B8
:100F0300013529C70112013596C701120135D1C731
:100F13000112013510C801120135C9CA0112013588
:100F2300E3CA011201356FCB011201357DCB0112EA
:100F33000135D6CB01120135E4CB0112013557CC73
:100F430001120135BBCC0112013505CD011201356A
:100F5300D38C02120135F58C021201351B8F02125C
:100F63000135309202120135489302120135FB9389
:100F730002120135DD9402120135D28F03120135BD
:100F8300F78F03120135699003120135AEBD0212CA
:100F93000135B7BD02120135C0BD0212013597BE3E
:100FA3000212013548C0021201357EC0021201351A
:100FB300B8C002120135EEC00212013528C1021277
:100FC30001355CC10212013588C102120135D1C15C
:100FD300021201350BC20212013554C2021201354D
:100FE300ACC202120135E1C2021201353CC3021246
:100FF300013576C302120135C7C302120135FDC3A1
:101003000212013537C40212013565C402120135DB
:1010130088C40212013542FF011201356EFF01122D
:101023000135C9FF01120135D3FF01120135E3FF79
:1010330001120135F69703120135049803120135A5
:101043000F98031201356C9803120135EA980312C5
:101053000135258E03120135158F03120135A98F32
:10106300031201350DFC02120135BAFC02120135DF
:1010730051FE021201356AFE021201354BCC0212F7
:10108300013555CC0212013593CC02120135DCCC6B
:101093000212013516CD0212013570CD021201354F
:1010A30091CD021201359ACD02120135EBCD021218
:1010B300013514CE021201351ECE021201358ACE3D
:1010C3000212013518CF0212013566CF0212013523
:1010D3009CCF0212013523D00212013563D00212D4
:1010E30001359BD002120135ADD002120135CCD0AF
:1010F30002120135D5D00212013594D10212013505
:101103000C9A031201356C8A03120135A28A031269
:101113000135D88A03120135318C03120135BC9C89
:1011230003120135D29C03120135DC9C03120135F5
:10113300269D03120135D89D031201353FE50212A6
:10114300013558E502120135FCE5021201353CE692
:101153000212013555E60212013589E60212013504
:10116300D6E6021201350AE7021201354CE70212F4
:1011730001354CE902120135B9E9021201350FFFBD
:101183000212013538FF0212013561FF02120135E7
:1011930079FF02120135BBFF02120135FCF802127E
:1011A300013521F9021201354DF902120135D89E9C
:1011B30003120135C54100120135294400120135DE
:1011C300DB4500120135CD460012013552470012AE
:1011D3000135D04700120135FD4700120135214B7F
:1011E300001201359B4B001201358A4C0012013568
:1011F300C44C00120135044D00120135BE4E0012DD
:101203000135114F001201355A4F00120135C84FF5
:1012130000120135FA4F0012013512500012013548
:101223002751001201353751001201356752001260
:101233000135895200120135BF5200120135645441
:1012430000120135A35400120135C35500120135B4
:10125300EDFF011201358F9E03120135CE9E03125D
:1012630001354B9F03120135069B03120135169B73
:10127300031201352B9B03120135DF9B031201354A
:101283000899031201358D9903120135F39903125D
:101293000135B49503120135DB95031201353196FF
:1012A3000312013543960312013593960312013558
:1012B300D19603120135D49603120135E5D60212F5
:1012C3000135F9D60212013572D7021201354BD816
:1012D3000212013509DB021201356EDB0212013500
:1012E300C5DB02120135F87F00120135378803127E
:1012F3000135C28903120135238A03120135698A34
:1013030003120135779103120135CC910312013594
:101313003A9203120135AA9203120135CC850312C6
:101323000135F68503120135CB8603120135BF87DC
:10133300031201357EB5021201353BB602120135A7
:1013430076B6021201359EB60212013500B70212BB
:1013530001354CB702120135A5B70212013536B873
:101363000212013538B902120135F5BA02120135FC
:1013730077BB02120135DCBB02120135F3BB02124B
:10138300013503BD0212013541BD02120135BDDB3A
:101393000112013547DF01120135CFE0011201359A
:1013A30026E10112013545E101120135C3E10112C4
:1013B300013561E30112013545E4011201352FE8DE
:1013C30001120135FFE80112013566F502120135FC
:1013D300ABF502120135C8F50212013579F6021296
:1013E3000135CCF602120135A7F702120135C3F815
:1013F30002120135FE9203120135439303120135A4
:10140300C193031201352094031201351F9F031268
:101413000135D17F00E066701008A3E066700A080A
:10142300A3E066700408A3E06622C3E7960809E711
:10143300960809E7960809E79622C3E09608A3E011
:101443009608A3E09608A3E09622C008C3E096F5A9
:101453000808A3E096420808A3E096420808A3E020
:101463009645087001D3D00822080808EAC0E0EBCB
:10147300C0E086F0E7A4FA180986F0E7A42AFA1870
:101483000986F0E7A42AFA180986F0E7A42AFA19CC
:1014930086F0E7A4FBE5F02AFA190886F0E7A42B07
:1014A300FBE5F03AFA190886F0E7A42BFBE5F03ADE
:1014B300FA18180986F0E7A4C5F02BFBE43AFA19E9
:1014C30008E7C5F0C6A426F6E5F03BFBE43AFA18B4
:1014D30086F0E7A4F6E5F00826F6E43B08F6E43ADE
:1014E30008F6D0E0FBD0E0FA22E4CFC0E0E4CEC0BF
:1014F300E0E4CDC0E0E4CCC0E075F020E626F608D9
:10150300E633F608E633F608E633F6181818EC3334
:10151300FCED33FDEE33FEEF33FFC3EC9709ED979C
:1015230009EE9709EF97191919400FFFEC97FC097A
:10153300ED97FD09EE97FE191906D5F0BFECF709F3
:10154300EDF709EEF709EFF7191919D0E0FCD0E030
:10155300FDD0E0FED0E0FF226016080808C6C313E2
:10156300C618C613C618C613C618C613C6D5E0EAEE
:10157300227009080808226016181818C6C333C653
:1015830008C633C608C633C608C633C6D5E0EA2242
:10159300E627F60809E637F60809E637F60809E606
:1015A30037F622E026F608A3E036F608A3E036F67F
:1015B30008A3E036F622E026F008A3E036F008A3FD
:1015C300E036F008A3E036F022C3E697F60809E612
:1015D30097F60809E697F60809E697F622C3E09618
:1015E300F008A3E096F008A3E096F008A3E096F0D5
:1015F30022E056F608A3E056F608A3E056F608A341
:10160300E056F622E056F008A3E056F008A3E056B1
:10161300F008A3E056F022E0F608A3E0F608A3E002
:10162300F608A3E0F622E6F008A3E6F008A3E6F046
:1016330008A3E6F022E0FAA3E0FBA3E0FCA3E0FDAD
:1016430022EAF0A3EBF0A3ECF0A3EDF022E0F8A381
:10165300E0F9A3E0FAA3E0FB22E8F0A3E9F0A3EAB0
:10166300F0A3EBF022CAC0E0E6F0A308DAFAD0E078
:10167300FA22CAC0E0E0A3C582CCC582C583CDC52A
:1016830083F0A3C582CCC582C583CDC583DAE6D0FA
:10169300E0CA22C3E498F8E499F91216D78026C366
:1016A300E49AFAE49BFBE920E7E91216D7E498F8F9
:1016B300E499F922C3E498F8E499F91216D7E49867
:1016C300F8E499F9C3E49AFAE49BFB22EB20E7CF11
:1016D300E920E7E0B90010BB0008E88AF084F8AA23
:1016E300F022E4FBC8FA22EB70227B10C833C8C98E
:1016F30033C9335007C39AC3DBF280069A50012AD9
:10170300DBEAC833F4C8C933F4C9FA2275F008E434
:10171300C833C8C933C933C99AC99B5004C92AC934
:101723003BD5F0ECFBC833F4C8E4C9FA22600D08DA
:10173300C6A2E713C618C613C6D5E0F322600C0889
:10174300C6C313C618C613C6D5E0F42270042260BC
:101753000D18C6C333C608C633C6D5E0F418222510
:101763001810AF08F518400C15198008F518400239
:101773001519D2AF2200C0D0251810AF08F51850A4
:101783000C05198008F51850020519D2AFD0D022E4
:101793002518F58210AF08F518400C15198008F5C7
:1017A3001840021519D2AF851983222518F582E452
:1017B3003519F583222518F8E43519F9222518FA85
:1017C300E43519FB222518FCE43519FD22E47325C1
:1017D30018C582C0E0E51934FFC583C0E0E518C32E
:1017E300958224F810AF08858319858218800885AF
:1017F3008319858218D2AFCEF0A3E520F0A3780831
:10180300E608F0A3DEFAEFF0A3E58124FAF8E60890
:10181300F0A3E608F0A3E608F0A30808E608F0A39F
:10182300E608F0A315811581D0E0FED0E0F815811C
:1018330015811581E8C0E0EEC0E0222518C582C0FD
:10184300E0E51934FFC583C0E0E518C3958224F9A8
:1018530010AF0885831985821880088583198582CE
:1018630018D2AFCEF0A3E520F0A37808E608F0A3E2
:10187300DEFAEFF0A3E58124FBF8E608F0A3E6081F
:10188300F0A30808E608F0A3E608F0A31581158184
:10189300D0E0FED0E0F815811581E8C0E0EEC0E0AD
:1018A30022851983851882E0A3FEE0A3F52078083A
:1018B300E0A3F608DFFAE0A3FFE0A3C0E0E0A3C0E3
:1018C300E0E0A3C0E0E0A3C0E0E0A3C0E010AF0805
:1018D3008582188583198008858218858319D2AF7C
:1018E300D083D082020132851983851882E0A3FE5A
:1018F300E0A3F5207808E0A3F608DFFAE0A3FFE011
:10190300A3C0E0E0A3C0E0E0A3C0E0E0A3C0E01018
:10191300AF08858218858319800885821885831905
:10192300D2AFD083D08222C0D02518C582C0E0E5D3
:101933001934FFC583C0E0E518C3958224F310AFC3
:10194300088583198582188008858319858218D2B2
:10195300AFC8F0A3E9F0A3EAF0A3EBF0A37908E79B
:1019630009F0A3D8FAECF0A3EDF0A3EEF0A3EFF0A7
:10197300A3D0E0F0A3D0E0F0A3D0E0F0A3E520F003
:10198300A3E5F0F0A322851983851882E0C0E0A3C4
:10199300E0F9A3E0FAA3E0FBA37808E0F608A3DFED
:1019A300FAE0FCA3E0FDA3E0FEA3E0FFA3E0C0E0B8
:1019B300A3E0C0E0A3E0F5D0A3E0F520A3E0A3F506
:1019C300F010AF08858319858218800885831985EF
:1019D3008218D2AFD082D083D0E0F8D0E032740442
:1019E3008006740280027401C0E0F404121793D0DD
:1019F300E0121668227404800474028000CCC0E0F4
:101A0300EDC0E0E518C39CCCAD1950011D10AF0625
:101A13008C188D1980068C188D19D2AF121675D0BB
:101A2300E0FDD0E0FC22D083D082E9C0E0E493A3C0
:101A3300C386F0C5F095F0F908E493A386F0C5F0EA
:101A430095F0700BE493A3C3994005E9048002A3C6
:101A5300E475F002A42582F582E5F03583F583D0A1
:101A6300E0F9E493A3C0E0E493C0E022D083D08202
:101A7300ECC0E0EDC0E0E493A3FCE493A3FDED4CE4
:101A8300600D121ABBEC24FFFCED34FFFD80EFE484
:101A930093A3FCE493A3FDED4C600D121AFAEC241E
:101AA300FFFCED34FFFD80EFD0E0FDD0E0FCE493DC
:101AB300A3C0E0E493C0E022C0E0C3E493960874BB
:101AC30001939618400FE4936670080874019366B7
:101AD3001870007019A3A3C3E49396087401939636
:101AE30018A3A3400DD0E0D0E0D0E0021AABA3A32B
:101AF300A3A3A3A3D0E022C0E0C0F088F0E49366E0
:101B030070080874019366187000A8F0A3A3700B03
:101B1300D0F0D0E0D0E0D0E0021AABA3A3D0F0D055
:021B2300E022BE
:101B280074F512183EEAFEEBFFEE2434F8EF3400A9
:101B3800F988088909EE2435121C54F8EE24371266
:101B48001C54F50AEC850AF0A4FCAAF0850AF0ED0D
:101B5800A42AFDE82CF8E43DF97A257B001216D773
:101B6800EA850882850983F074075AF87401B80079
:101B7800028004C333D8FCFBEA131313541FF8EE96
:101B880028F8EF3400F9E8245DF582E9121C575B68
:101B98006003EA801CEE2436121C54F5F0EA84A88F
:101BA800F0EE28F8EF3400F9E82438F582E9121C41
:101BB80057F97F040218EA74F512183EEAFEEBFFA3
:101BC800EE2434121C54C0E0EE2435F582EF3400C4
:101BD800F583D0E0F08E828F83A3A3A3A3A3E0FABA
:101BE800A3E0FB8E828F83A3A3A3A3A3A3A3E0FCFC
:101BF800A3E0FDECC39AF50AED9BF50BEE247FF507
:101C080008EF3400F509850882F583E06401702B3C
:101C1800EE2480F582EF3400F5831219FC121C5D66
:101C28007402121778E960137CDC7D04EEFAEFFB8E
:101C3800120BA8850882850983E4F0AC0AAD0BEE87
:101C4800FAEFFB121B281226F1021BBAF582EF34B9
:101C580000F583E022C082C083851882851983E05D
:101C6800F8A3E0F9C3EA9CEB9D5010C3EC98ED99FA
:101C7800401BC3EA98EB995014800EC3EA98EB997D
:101C88004007C3EC98ED994004790180027900D0AF
:101C980083D08222EAC39CFAEB9DFB2274ED1218D2
:101CA8003E9003A2E064086005E06407702C906130
:101CB800C8E060269003D0E0F874FF68601CE875FF
:101CC800F003A4C8AAF02AF974D228FE740339FFD5
:101CD8008E828F83A3A3A3E070057900021E44EED1
:101CE8002468F510EF3400F511906060E0851082EB
:101CF800851183F0750A45750B057508007509008F
:101D0800E5D914F50EE5D95403F50F601CEE2482CD
:101D1800F50CEF3400F50D7403650F6058E50E609F
:101D280013EE2467121C54700B793DEEFAEFFB1288
:101D38000BCC80A6900540E064016026850C828566
:101D48000D83E06004780480027800850E08E508B9
:101D5800C398FA95E0FB120A4C8A088B09EA4509F0
:101D68007006120E2A021CE2850C82850D83E07033
:101D7800048A0A8B0B78008016E5D9C0E08812E542
:101D88000A2512F582E50B3400F583D0E0F008E867
:101D9800C3950E40E4850C82850D83E0602874FCB1
:101DA800250EF50E780A1219E5AC0EA90FEEFAEF1A
:101DB800FB120C7A7402121778E9700AAA08AB09A8
:101DC80012130A021D317403650F6058850E0C75D5
:101DD8000D00780C1219E5AC0AAD0BAA08AB091274
:101DE8000C3E7402121778851082851183E0F8740E
:101DF80080687005750C7F8002880CE50CF50A7800
:101E08000A1219E9E50FF50A780A1219E9A90EACC0
:101E180008AD099003D0E0FA7B001208E4740212BE
:101E2800177880139003A2E06408600BAC0AAD0B2E
:101E3800EEFAEFFB120D10120E3679017F0C021824
:101E4800EA74F312183E74FC121762EAFEEBFF897B
:101E580008A2AFE433F509C2AFEE2463F50AEF3404
:101E680000F50B8010AA0AAB0B120BF612130A909E
:101E780004E3E004F0850A82850B83E0F8A3E0F927
:101E8800E849602FE82402FAE93400FBEA2402F565
:101E98000CEB3400F50D780C1219E58A828B83E07F
:101EA800FCA3E0F9EEFAEFFB120BEA7402121778C2
:101EB800E960B29004E3E060579004E4E0F890042D
:101EC800E3E0C398500C7402650870449004E5E0A0
:101ED800603E8E828F83A3A3A3A3E0851882851911
:101EE80083121F2874021217AEE8121F289004E20A
:101EF800E028F074021217AEAC82AD838518828593
:101F08001983AA82AB8379011208F09004E3E4F004
:101F1800E509A2E092AF74041217787F060218EA66
:101F2800F0A3E4F09004E3E0F8220000852187851F
:101F380022C622C0E074EF12192AA2AFE433FEC20F
:101F4800AF759B00906182E0A2E05012E591A2E09B
:101F5800500C7591FE740165217003121CA4E0A257
:101F6800E55051E591A2E5504B7591DF9003A2E051
:101F780064076005E0640870237401652170357991
:101F8800019003D0E0FA75F003A4CAA8F028FB7406
:101F9800D22AFA74033BFB121E498018E0640D70C4
:101FA800139003C4E004F064287002E4F07A00E0BF
:101FB800F9120E3C906182E0A2E64003022062E53D
:101FC80091A2E640030220627591BF9003A2E064EB
:101FD800057008120D52120D5E8003120D587521FE
:101FE80000120DCAE99003A3F07900120DBE120B7E
:101FF800127A017B009003A1E0F91210D6907803C1
:10200800E064427055900544E014F0704DC2AF1280
:10201800201A00782AD0E0F618D0E0F6E59F540799
:1020280070057509FF800375097FC4C0E07829E64B
:10203800F50808E65509F509740B7808121740D019
:10204800E02508F8906270E0A2E740F8E8C3339012
:102058006272F0906270E0D2E0F0906181E0A2E3F9
:102068005009E5E9A2E3500375E9F7A3E0A2E750B8
:1020780009E591A2E7500375917FEEA2E092AF7F48
:1020880004021989C0E0C0D0C082C083906183E097
:10209800A2E05009E5BFA2E0500375BFFEE0A2E14F
:1020A8005009E5BFA2E1500375BFFDE0A2E2500967
:1020B800E5BFA2E2500375BFFBE0A2E35009E5BF0C
:1020C800A2E3500375BFF7E0A2E45009E5BFA2E41C
:1020D800500375BFEFE0A2E55009E5BFA2E5500344
:1020E80075BFDFE0A2E65009E5BFA2E6500375BF61
:1020F800BFD083D082D0D0D0E032C0E074F21219C1
:102108002AE5A7A2E4500FE5A1A2E4500953A7EFDE
:1021180075A1EF122156E5A7A2E5500CE5A1A2E5AD
:10212800500653A7DF75A1DFE5A7A2E15009E5A195
:10213800A2E1500375A1FDE5A7A2E2500CE5A1A21A
:10214800E2500653A7FB75A1FB7F0102198974F8B9
:1021580012183E7521019003A2E0640670077A0008
:102168007B00120D3AA2AFE433FED2AF9003A8E091
:10217800640170187A207B009003A1E0F9121160C5
:102188007A207B009003A1E0F91210DC906182E0D4
:10219800D2E6F0900541E0602185C62280169003C2
:1021A800A7E064017008E5C654F84405F5C653BEB7
:1021B800FC121F347401652160E4EEA2E092AF7F47
:1021C800010218EA8E238F248582288583278518A3
:1021D80082851983E0CEA3E0CF852882852783EB0B
:1021E800C9EAC8EDCBECCA75F010C3E833C8E933C7
:1021F800C9EA33CAEB33CBC3EA9EF526EB9FF52534
:10220800B35004AB25AA26EC33CCED33CDD5F0DAA8
:10221800AE23AF242274E912183E74FA121762EA48
:10222800FEEBFF8C088D099003A2E024F7C3940508
:102238005006751001022348120CB08A0A8B0BEA6B
:10224800450B7003022345120D708A0C8B0D120D7D
:1022580070EA650C7003EB650D60ECEEFCEFFD8534
:102268001882851983AA82AB83120D76850A828526
:102278000B83A3A3780C12161A908FDB780C121517
:10228800F4851882851983781412161A908FDB78D2
:10229800141215F4780C791412142D501F780C7937
:1022A800141215CC908F6B780C12144D4047850C86
:1022B80010850D11850E12850F138045908F6B8543
:1022C80014108515118516128517137810790C12BC
:1022D80015CC781012144D501C751000751100752E
:1022E8001200751301781079141215CC7810790C36
:1022F800121593800C751001751100751200751375
:102308000074097810121574908FC7780C12161A79
:102318007810790C1214EC9003A2E06408600AE0CB
:1023280064066005E064057020908F6F78101214C1
:102338004D5016908F7378101215A6800C751000EA
:102348007511007512007513008508828509837858
:102358001012162974061217787F100218EA74F7FB
:1023680012183E120D8890053FE0640170109062CB
:1023780045E4F0A3F053F4F343FE0C5390F3120D2D
:1023880028E5C654804449F5C6E59E547F644970E3
:10239800F8906185740FF090053DE0F47002A3E0B9
:1023A800602C75080175090090053DE07808121742
:1023B8004FE508F4FAA3E0600814600A14600C8082
:1023C8000DEA52808008EA52908003EA52A0790010
:1023D8007F020218EA74F712183EE9FEEAFF740158
:1023E8006E700C7A807B009003A1E0F91210D690F1
:1023F800275CE493F46008E493F9120AF480095323
:10240800C680E59E547F70FA120D2E90053FE06459
:10241800017003120B2A90053DE0F47002A3E060FE
:102428002A75080175090090053DE0780812174FD4
:10243800AA08A3E0600814600A14600C800DEA4240
:10244800808008EA42908003EA42A0120CB08A0811
:102458008B09A808A909E8496017E5E170FCE82498
:1024680014F582E93400F583E0F874FF68600288A7
:10247800E174016F700A7A019003A1E0F912112A40
:102488000223D874F112183E8A088B098C0A8D0B26
:10249800908FDB78081215F4740F1217AE780C12AF
:1024A800161A908FDB780C1215F47808790C121430
:1024B8002D908F6B50107808790C1215CC78081273
:1024C800144D4014800E780C79081215CC780C1233
:1024D800144D50047901800279007F080218EA74CB
:1024E800ED12183E8A088B098C0A8D0B908FDB78C9
:1024F800081215F474131217AE780C12161A908F6E
:10250800DB780C1215F4780C790812142D40117828
:1025180008790C1215CCAA08AB09AC0AAD0B8022BD
:102528007510007511007512007513017810790C7B
:102538001215CC78107908121593AA10AB11AC12A9
:10254800AD137F0C0218EA908FDB780812161A8AEE
:10255800828B8378081216077F040218EA74F51232
:10256800183E8C828D83780812161A8A828B83789B
:10257800081215E01225B9C3E098F0A3E0991225D6
:10258800AB401E908F97780812161A8A828B837830
:10259800081215B98E828F83E02420F0A3E0344E10
:1025A800F080A4F08E828F83C3E09420A3E0944E41
:1025B80022EA2404F8EB3400F9E8FEE9FF8C828D66
:1025C80083A3A3A3A3E0F8A3E0F98E828F832274E8
:1025D800F512183EE9FE9004F7E0FAA3E0FBEEC31B
:1025E80033F8E433F974E728F582748E39F583E01B
:1025F8002AF508A3E03BF50978081219E5908FCF72
:102608001216381221CC74021217788A088B098C9A
:102618000A8D0B7410780812155BAA08AB097F04A1
:102628000218EA74F112183E8A0C8B0D8C0E8D0F6D
:10263800740F1217AEE0FAA3E0FB74111217AEE0A4
:10264800F508A3E0F50978081219E5EA2401F50868
:10265800EB3400F509E4F50AF50B780C7908121447
:102668006C908F7F780812161A780C790812146CFF
:10267800AA0CAB0DAC0EAD0F1221CC740212177858
:102688008B09EA450960047A0180027A00EC2AFC89
:10269800ED3400FD74131217AEE0F8A3E0F9E8FE7C
:1026A800E9FFECF8EDF97A717B021216D7880889F0
:1026B80009E4F50AF50B8E828F837808121629EC47
:1026C800F8EDF97A717B021216D78A088B0974051E
:1026D800780812174F8E828F83A3A3A3A3E508F06F
:1026E800A3E509F07F080218EAC082C083E9906078
:1026F80000F0D083D08222C2AF02000022C0E07472
:10270800F212192AA2AFE433FED2AFE589A2E04063
:1027180006E589A2E150031212AA7589007589009D
:10272800C2C5751A00EEA2E092AF7F01021989C0F6
:10273800E0C0D0E8C0E0E9C0E0E5A8D2AFC2C77504
:102748001A00A2E7A2E792AFD0E0F9D0E0F8D0D023
:03275800D0E0329C
:10275C00FFFFFFFFFFFFFFFFC082C083E9900A0A63
:10276C00F00229F374F71217D2E99002E1F07C1908
:10277C007D037AFF7BFF1208369002E274FFF0A310
:10278C00F0A3E4F0A3F079051207BE9002E1E0F9A2
:10279C001206E07A547B081209FE7F010218A47419
:1027AC00F41217D28A088B09EB548060309002E146
:1027BC00E0F91210BE8A0A8B0BAE0AAF0BEE4F601B
:1027CC00138E828F83E064B070031207D6EEFAEF9B
:1027DC00FB1210ACAA08E5096480FB80047A007B2C
:1027EC00000229C274F21217D274FC121762EAFEAC
:1027FC00EBFFEE4F603874021217AEEEF0A3EF123F
:10280C002C27ECF0A3ED122C27AA82AB831206DA4C
:10281C00E9F508707374121217AE1237DBE50A452E
:10282C000B60658E828F8312289EEE4F70057508A3
:10283C000280557A067B001211128A0C8B0DA80CA3
:10284C00A90DE8497005750813803D88828983E4D9
:10285C001228A8A3A3EEF0A3EF123C74E50AF0A390
:10286C00E50BF09002E71229309002E76017E0FCCC
:10287C00A3E08003EAFCEBFD8C828D83122930707F
:10288C00F38C828D83123700A90874041217780216
:10289C003E76A3A3A3A3E0FEA3E0FF22F0A3F0885F
:1028AC008289832274F21217D2890AE975F017A46F
:1028BC00FEAFF09002E6E4F09002E4122930600AD8
:1028CC001211189002E4E4F0A3F0EEFAEFFB1211EF
:1028DC00128A088B09EA4509602FEEFCEFFD79009E
:1028EC0012109A9002E4E508F0A3E509F07B008051
:1028FC000812291AE4F0A3F00BEBC3950A40F2E599
:10290C000A9002E6F0790080027913023E76EB75AC
:10291C00F017A4F8A9F09002E4E028FAA3E0398AB1
:10292C0082F58322123496EA4B2274F41217D27574
:10293C000800750900740C1217AE123C48FEE9FF32
:10294C00800CE5082401F508E5093400F509C3E518
:10295C00089CE5099D503285080A85090B7403789B
:10296C000A12174FEA250AF8EB350BF9888289838E
:10297C00A3A3A3A3A3A31237DBEE650A7003EF6531
:10298C000B70BFE8FAE9FB80047A007B00802774A7
:10299C00F41217D27900EAA2E0501B750858750999
:1029AC008F78081219E57C047D007A0C7B0A1207DB
:1029BC00B874021217787F040218A4C082C08390E6
:1029CC0002E71229FA601C88828983A3A3E06A704B
:1029DC0003A3E06B8882898370E8A3A3A3A31234BA
:1029EC009280047A007B00D083D082020132123FA5
:1029FC0049E8492274EE1217D274FC121762EAFEEF
:102A0C00EBFF851882851983E4F0A3F0EE24021203
:102A1C0036E4EE2405122C15EE2404F50EEF122FDD
:102A2C00FAE024FE603924FC604624FE605224FE49
:102A3C00605E24FE7003022B1A24FE7003022B929C
:102A4C0024FE7003022BA124FE7003022BB024FC85
:102A5C007003022BBF24FE7003022BCE022C0B90B2
:102A6C0003007417F0A3E4122C2F120458022C0B41
:102A7C00851882851983AC82AD831207DC022BDBAF
:102A8C00851882851983AC82AD831207E2022BDB99
:102A9C00850C08850D0974021217AEAC82AD8385C6
:102AAC0008828509831234921206FE8A0C8B0DACB7
:102ABC000CAD0DEC4D6042E4F50CF50D780C1219D3
:102ACC00E5750C00750D03780C1219E5750C017584
:102ADC000D03780C1219E574081217AE1219FC7953
:102AEC001612348C12081E7408121778E9F50C7043
:102AFC000B123488120470800F750C0185088285C6
:102B0C000983122C1D123700850C08022BDE74026F
:102B1C001217AEAC82AD83850C82850D8312349274
:102B2C001206FE8A108B11AC10AD11EC4D60438572
:102B3C000C82850D83A3A31219FC7510007511036B
:102B4C0078101219E575100175110378101219E53A
:102B5C0074081217AE1219FC791612348C12081E56
:102B6C007408121778E9F509700B12348812047680
:102B7C00800F750901850C82850D83122C1D12376F
:102B8C0000850908804C851882851983AC82AD8339
:102B9C001207E8803A851882851983AC82AD8312BE
:102BAC0007EE802B851882851983AC82AD831207C2
:102BBC00F4801C851882851983AC82AD831207FAC8
:102BCC00800D851882851983AC82AD83120800E9CB
:102BDC00F508E50860298E828F83A3E06414601FDA
:102BEC00850E82850F83E0900300122C27123F453F
:102BFC00900301123700E508A3122C2F120452EE99
:102C0C00FAEFFB12077C0235ECF50CEF3400F50DF6
:102C1C0022123F4985188285198322F085188285F6
:102C2C00198322F07C007D03850A82850B83123484
:102C3C00962274EE1217D274FC1217628A0A8B0B4E
:102C4C008C0E8D0FEA2405F508EB3400F5097C1584
:102C5C007D0079007A007B0312109AE5082402F5B6
:102C6C000CE509122C18851882851983858210852C
:102C7C00831178101219E5850882850983A3A3A313
:102C8C00A31231421219E5E5082405F510E50934C3
:102C9C0000F51178101219E5850C82850D8312341C
:102CAC009C1206F874061217788A108B11AE10AFAE
:102CBC0011E50A2402F50AE50B1236E7EE4F700314
:102CCC00022E04801774021217AE12349288828975
:102CDC0083EAF0A3EBF0900300E004F0900300E033
:102CEC00C394054003022E04E4F510F5117810127C
:102CFC0019E57510E975110278101219E57510EACD
:102D0C0075110278101219E574061217AE1219FC1F
:102D1C007910EEFCEFFD12348C12081E7408121799
:102D2C0078E9705E850882850983A3A3A3A3A3A376
:102D3C00A3E0F89002E9E06870481231421219E5FC
:102D4C007CEA7D02E5082408FAE5093400FB121040
:102D5C00947402121778E960298E828F83A3A3A33F
:102D6C00A3123492900300E0F5107402781012173D
:102D7C004F74012510F58274033511F583EAF0A325
:102D8C00EBF074021217AE85821085831178101245
:102D9C0019E574021217AE1219FC850C82850D838D
:102DAC00123F5A12070474041217788A108B11AE52
:102DBC0010AF11900300E0F510751100740278103B
:102DCC0012174F74002510F874033511F988828995
:102DDC0083A31229307003022CC8E82403F8E934C9
:102DEC0000F9EE4F6003022CD18882898374FFF0C6
:102DFC00A3F0900300E004F0900300E0600A1234AA
:102E0C00881204647900800B850882850983123648
:102E1C00F7790A0235EC74EA1217D274FE121762B3
:102E2C008C128D13EA2405F50CEB1240C41228A267
:102E3C00750800750900EA2402F510EB3400F51151
:102E4C0085188285198385820A85830B780A121965
:102E5C00E5850C82850D83A3A3A3A312300412195C
:102E6C00E5E50C2405F50AE50D1236E7780A12198A
:102E7C00E5850C82850D83123F581206F8740612F4
:102E8C0017788A0A8B0BEA450B7003022FB5EA24DC
:102E9C0004F50EEB122FFA1228A28A828B83A3A3BD
:102EAC00A3E0F98510828511831234921206E6E9AB
:102EBC00F5096003022FB5E4F514F5157814121911
:102ECC00E57514E975150278141219E57514EA758F
:102EDC00150278141219E574061217AE1219FC7942
:102EEC0013AC0AAD0B851082851183123492120833
:102EFC001E7408121778E9F5096003022FB59002C9
:102F0C00E9E0F8E5087009E02402900301F080176D
:102F1C00900301E0FCE82402FAE43400FBEA6C7054
:102F2C0001EB6003022FB9850882AA821231399411
:102F3C00141231315073850E82850F83E0C0E0741A
:102F4C00022A122FF1D0E0F00508850E82850F833E
:102F5C00A3E0C0E085080A7402250A122FF1D0E024
:102F6C00F005089002E91230041219E57CEA7D02A2
:102F7C0085080A7402250AFA74033400FB121082C5
:102F8C0074021217789002E9E02508F50874FF6EB8
:102F9C00700374FF6F6012EE24010EEF3400FFE536
:102FAC0008C394145003022E4CE508601312337DB1
:102FBC0085108285118312349212046A7900801470
:102FCC00E509700375090A851282851383EEF0A357
:102FDC00EFF0A90974021217787F0E0218A4850865
:102FEC000C7402250CF58274033400F58322340032
:102FFC00F50F850E82F58322123C872274EE121790
:10300C00D274FE1217628C0E8D0FEA2405F50CEBB0
:10301C00122C18750B00900300E4F0F50AEA240258
:10302C00F508EB3400F5098049900300E0FA9002B2
:10303C00E9E0F81231399417123131400D90030048
:10304C00E0F87416C3989002E9F01231421219E5B7
:10305C007CEA7D0274012AFA74033400FB1210829C
:10306C0074021217789002E9E0F8900300E028F05F
:10307C00050AE50C2416F582E50D122FF5E0F8E5AE
:10308C000AC398400302311A900300E0C39416500F
:10309C007DE50AC333F8E433F9E50C28FEE50D3978
:1030AC00FF851882851983AC82AD838E828F831243
:1030BC0034921206FE8A108B11AC10AD11EC4D70CF
:1030CC0005750B018043E4F510F51178101219E524
:1030DC007510E975110278101219E57510EA751161
:1030EC000278101219E574061217AE1219FC791633
:1030FC0085088285098312349212081E74081217EF
:10310C0078E9F50B70030230351236F380107C0031
:10311C007D0385088285098312349212047CA90BE5
:10312C0074020235EEE99400C365D03322EA28F824
:10313C00E43400F9E822E0F51075110078102274DF
:10314C00EA1217D274FC1217628A0C8B0D8C128D3A
:10315C0013EA2405F50AEB1236E775080075090029
:10316C00E50A2402F510E50B3400F5117402121770
:10317C00AE85820E85830F780E1219E5850A82853D
:10318C000B83A3A3A3A3123C331219E5E50A240570
:10319C00F50EE50B3400F50F780E1219E58510824B
:1031AC008511831236ED12348C1206F87406121740
:1031BC00788A0E8B0FAE0EAF0FE50C2402F50EE5E0
:1031CC000D3400F50F80408882898374FFF0050868
:1031DC00122FEA74FFF005089002E9E0F50C750D6A
:1031EC0000780C1219E57CEA7D0285080C74022526
:1031FC000CFA74033400FB121082740212177890CC
:10320C0002E9E02508F508EE4F60718E828F83A3EA
:10321C00A3A3E0F9850E82850F831234921206E681
:10322C00E9F509EE2404122C15E97044E4F514F5C3
:10323C001578141219E57514E9751502781412191C
:10324C00E57514EA75150278141219E5740812174D
:10325C00AE1219FC7911EEFCEFFD850E82850F8301
:10326C0012349212081E7408121778E9F5096027B7
:10327C00850C82850D83123373123700E5087003B9
:10328C0002335912337D850E82850F8312349212CC
:10329C000482790002336E850882AA82EA9002E9E0
:1032AC007009E02404900301F08022E0F8900301FF
:1032BC00E0F514E82404FCE43400FDEC6514700122
:1032CC00ED70C0123139941212313150B6850C8226
:1032DC00850D83E0C0E074022A122FF1D0E0F005D6
:1032EC0008850C82850D83A3E0C0E0122FEAD0E0A4
:1032FC0012338F85820C85830D780C1219E57404BA
:10330C001217AE1219FC851082851183123F5A12C6
:10331C00070474041217788A0C8B0DAE0CAF0D8554
:10332C00080C7402250CF874033400F9EE4F70038A
:10333C000231D3851882851983E088828983123300
:10334C008FA3E0C0E0122FEAD0E00231E1E5097072
:10335C000375090A850A82850B83123373123700B1
:10336C00A9097404022FE2123F4985128285138346
:10337C0022900301E0F5F0E50884900300F07C0056
:10338C007D0322F005088518828519832274EC12BE
:10339C0017D274FE1217628A088B098C0E8D0FEAF5
:1033AC002405FEEB3400FF851882851983AC82ADB1
:1033BC00838E828F831234921206FE8A0A8B0BEE56
:1033CC002418122C15EA450B70030234631235D500
:1033DC0050328518828519831234921208128A1081
:1033EC008B11EA4511606B7912AC0AAD0B85088222
:1033FC008509831234928510828511831217D0E9C6
:10340C00F50A7058E4F50AF50B780A1219E58E8264
:10341C008F83A3A3E0F50A780A1219E5EE240312B0
:10342C0036E4780A1219E58E828F8312349C1208C6
:10343C00247406121778E9F50A7021850C82850D23
:10344C0083E0701F850882850983123492120488E8
:10345C008011750A0E8009750A018004E50A600363
:10346C001236F3850C82850D83E0600479008002AE
:10347C00A90A74021217787F0C0218A47C007D0331
:10348C00850A82850B8312349622E0FAA3E0FB2294
:10349C00E0FCA3E0FD850882850983123496227432
:1034AC00EE1217D274FE1217628A088B098C0C8DDF
:1034BC000DEA2405FEEB3400FF750E00851882859D
:1034CC001983AC82AD838E828F831234921206FEE6
:1034DC008A0A8B0BEA450B70030235C11235D550A5
:1034EC00358518828519831234921208128A0E8B34
:1034FC000FEA450F605E7912AC0AAD0B8508828528
:10350C000983123492850E82850F831217D0E9F548
:10351C000E60030235C48508828509831237DBAA45
:10352C000AFB1208068A108B11A810A911E8497021
:10353C001E7AFF7BFF1208068A108B11A810A911A6
:10354C00E849606C88828983E50AF0A3E50BF07585
:10355C000A008007750E0E805F050A9002E6E0FAFD
:10356C00E50AC39A504AE50A75F017A4FAABF0883D
:10357C00828983A3A3E02AFAA3E03BFB8A828B8394
:10358C001236EDEC4D70D2750A17750B00780A12D5
:10359C0019E5EEFCEFFD1210827402121778EEFCA6
:1035AC00EFFD85088285098312349212048E8014F3
:1035BC00750E098003750E01123F41850C82850D35
:1035CC0083123700A90E02312CE5082402F508E518
:1035DC00093400F5098A828B83A3A3A3E0A2E52218
:1035EC0074041217787F0A0218A474EC1217D28C88
:1035FC00108D11EA2405F50CEB122C18750F00EA4E
:10360C002402F50AEB1236E7850A82F5831234920E
:10361C001208068A088B09EA450970030236D97527
:10362C000E008071850C82850D83E06401704F8ED5
:10363C00828F83A3A31219FC8E828F83A3A3A3A3CF
:10364C00E0F51275130078121219E5EE2405F51247
:10365C00EF3400F51378121219E512348C12082489
:10366C007406121778E9F50F6014850C82850D83AA
:10367C00E4F0123F418510828511831237007C17CC
:10368C007D007900EEFAEFFB12109A8E828F83E4A4
:10369C00F0A3F0050E9002E6E0F8E50EC398501E7C
:1036AC00E50E75F017A4F8A9F0850882850983A3A7
:1036BC00A31240CE1236EDEC4D6003023630850875
:1036CC008285098374FFF0A3F0E50F700612348C29
:1036DC00120494A90F023483F50AEF3400F50B227F
:1036EC00A3E0FCA3E0FD228E828F83123F49850E5E
:1036FC0082850F83E8F0A3E9F022C082C083900298
:10370C00E2E06A7003A3E06B70067AE27B0280044D
:10371C007A007B000229F3C082C08378008C828DF2
:10372C0083E06A7003A3E06B7010E875F003A4F8F3
:10373C00A9F0EC28FAED39FB8015088C828D83A357
:10374C00A3A3E06A7003A3E06B60DF7A007B000246
:10375C0029F374F61217D21207D08A828B83E58272
:10376C00458370067A007B008007A3A3A3A31234C1
:10377C0092023DF274F21217D2E9FE740E1217AED9
:10378C001237DB74101217AE123C538C828D83E00F
:10379C0064027036A3123F4FF50CA3E0F9A80C7429
:1037AC00026870037429697021750C02750D00781C
:1037BC000C1219E578081219E5780A1219E5EEF9D8
:1037CC00120848740612177880027901023E76E0DE
:1037DC00F50AA3E0F50B2274E81217D274FB12174A
:1037EC0062E9851882851983F08A168B17ECFEED39
:1037FC00FF751000741D1217AE123F45741D121781
:10380C00AE1237008E828F83A3A3A3E0A2E4502DC7
:10381C00741D1217AE1234921208128A828B83E531
:10382C008245837003023C24790AEEFCEFFDAA1654
:10383C00AB171217D0E9F5106003023C27741F1266
:10384C0017AE123C5374211217AE1237DB742312CD
:10385C0017AEE0F50EA3E0F50F8E828F83E06402C5
:10386C006003023BD2A3123F45850882850983A3DE
:10387C00858212858313EE2406122C158882898387
:10388C00E0FAA3E0F9EA2400F514E439F51578140C
:10389C00121A6F010000280128C738070002288C73
:1038AC00390328F9380029C33A0129EE3A02298F45
:1038BC003A0329C33A04296D3BD23BE50E450F6010
:1038CC0003023BCD850C82850D83123C48FAE9FB43
:1038DC008A828B83E0850A82850B83123C7E1219C7
:1038EC00E58A828B83A3E0FCA3E0023B57E50E45FF
:1038FC000F6003023BCD850A82850B837401F012A5
:10390C003C5B850882850983F07C007D008E828F6C
:10391C0083A3A3A3A3E02401FAA3E03400FB1206C3
:10392C00FEEA4B60418A828B83E02402F8850A828E
:10393C00850B83E028F0EA2404F8EB3400F9888244
:10394C008983E0851282851383123C90123C7E128F
:10395C0019E58A828B831236ECE5082403FAE50913
:10396C003400FB023B5C850A82850B83E02404F067
:10397C007C047D007900AA12AB1312109A023C272A
:10398C00E50E450F6003023BCD123C5BFEA3E0FF4E
:10399C00850A82850B837404F0EE85088285098381
:1039AC00F0EF851282851383F074031217AEAC828C
:1039BC00AD83EEFAEFFB1206FE8A0C8B0DEA450D79
:1039CC007003023A708A828B83A3A312289E74011F
:1039DC001217AE85820E85830F780E1219E57405C9
:1039EC001217AE1219FC7CFF7DFF1207047404122F
:1039FC0017788B0FEA450F7033850C82850D831277
:103A0C003C331219E5850C82850D83A31219FC7CBD
:103A1C00027D007AFE7B8F1205307404121778E950
:103A2C00700A74011217AE74FFF0A3F08E828F83AC
:103A3C00E064027039750C02750D00780C1219E5F2
:103A4C008E828F831236ECE5082404FAE5093400E3
:103A5C00FB1210827402121778850A82850B83E0A0
:103A6C002402800974011217AEEEF0A3EFF074017A
:103A7C001217AE123C44F074011217AEA3123C3C68
:103A8C00023BC7E50E450F6003023BCD850C8285DA
:103A9C000D831236EDAA16AB1712083C850A8285E7
:103AAC000B837402F0EA850882850983F085128203
:103ABC00851383EB023BCAE50E450F6003023BCD39
:103ACC00123C5BF8A3E0F9850A82850B837402F043
:103ADC00E8850882850983F0E985128285138302C3
:103AEC003BCA850C82850D8312349212107CEAFC41
:103AFC008C82A882C3950EE4950F405FE8650E702A
:103B0C0002E50F70047C008022851882851983E001
:103B1C00FAE50E2AFAE50F3400FBC3EA98EB9400A1
:103B2C005003E08005E50ECCC39CFCEC850A828535
:103B3C000B83F08C0A750B00780A1219E5850C8240
:103B4C00850D83E0250EFCA3E0350FFDAA08AB091B
:103B5C001210827402121778023C27751007023C6F
:103B6C0027E50E450F705A850C82850D83123F4553
:103B7C00850A82850B8374071228AA123C3C1228F2
:103B8C00AAA3E0851282851383F0E82402FAE934B3
:103B9C0000FB8A828B83123C3C123C6B123C44A38C
:103BAC00123C74123C4DF0E82405F8E93400F98815
:103BBC00828983123C4DA3123C90A3A3A3A3F08053
:103BCC005A75100B8055741D1217AE1234921207D1
:103BDC00D08A828B83E5824583603D123F45880CF9
:103BEC00890DE8450D6031780E1219E5780A121925
:103BFC00E578081219E574061217AEE0F9EEFCEF41
:103C0C00FDAA16AB17850C82850D831217D074068E
:103C1C00121778E9F510800375100EA910740512AF
:103C2C0017787F100218A4E0F50E750F00780E229D
:103C3C00E085088285098322123C9A22123F49E8CA
:103C4C0022123C9AA3A322E0F508A3E0F5092285F1
:103C5C000C82850D83E0F8A3E0F5838882E022A333
:103C6C00A3F08A828B83A322F088828983A3A3A3E7
:103C7C00A322F08A828B83123C8722E0F50A750B13
:103C8C0000780A22F088828983A3123C9A22E0856C
:103C9C000882850983A3A32274EE1217D274FE1234
:103CAC0017628A0A8B0BECFAEDFB74141217AEE058
:103CBC00F510A3E0F51174161217AEE0FE7418128D
:103CCC0017AEE0F50EA3E0F50F851882851983ACCD
:103CDC0082AD831206FE8A0C8B0DEA450D60498578
:103CEC0018828519831234921207D08A828B83E54D
:103CFC00824583602FA3A3123C53E5084509602439
:103D0C00780E1219E578101219E5EEF9AC0CAD0D20
:103D1C00AA0AAB0B8508828509831217D07404128A
:103D2C0017788006790E8002790102312C74F61214
:103D3C0017D274FE121762740C1217AE123C48851F
:103D4C001882851983F074011217AEE9F0E4F508B6
:103D5C00F50978081219E575080278081219E57446
:103D6C00041217AE85820885830978081219E512AA
:103D7C00082474061217787402121778806874F786
:103D8C001217D2EAFEEBFF89087C197D0312083C5E
:103D9C00EA5402600BA908EEFAEFFB1206F280025D
:103DAC0079010227A674F61217D274FF6A70037495
:103DBC00FF6B70168C828D83123DF7E4F08C828D34
:103DCC0083A3A3A3123DF7A3801812080C8A088BB7
:103DDC0009A808A909E849600D8882898374FF1233
:103DEC0028A8A3A3E4F07F020218A474FFF0A3F0A8
:103DFC008C828D83A3A32274F61217D212080C8A1C
:103E0C00828B83E58245836006A3A3E0FA80027A65
:103E1C00007B0080D174F21217D28A088B09ECFE59
:103E2C00EDFF740E1217AEE0F50A12080C8A0C8B1B
:103E3C000DA80CA90DE8497026EEFCEFFD7AFF7B6E
:103E4C00FF12080C8A0C8B0DA80CA90DE849700404
:103E5C007911801688828983E508F0A3E509F0883A
:103E6C00828983A3A3E50AF079007F060218A47463
:103E7C00EE1217D2EAFEEBFF8C088D09890C741434
:103E8C001217AE123F4574161217AE123492750DFE
:103E9C0000E8496003023F397402650C6003023F7D
:103EAC003474121217AE123F4FFCA3E0F9EC24004D
:103EBC00F50EE439F50FEAF4F8EBF4F9EC58F8E503
:103ECC000F59F9E849705CE5082406F8ED3400F95F
:103EDC00880A890B8882F583123F5A12083C8A1093
:103EEC008B11E50E65107004E50F65116042780EBC
:103EFC001219E5850A82850B83123F5A1208427407
:103F0C0002121778E9F50D7027780E1219E585085D
:103F1C0082850983A3A3123F5812085A7402121700
:103F2C0078800D750D808008750D0D8003750D0B57
:103F3C00A90D0235F18E828F83123F4922E0F8A33E
:103F4C00E0F922123F4988828983E022A3A3E0FC96
:103F5C00A3E0FDEEFAEFFB2274E81217D274E7121D
:103F6C001762851882851983EAF0A3EBF08C168D05
:103F7C0017890E75080075090074311217AEE0F53B
:103F8C0012A3E0F51374331217AEE0F514A3E0F5A9
:103F9C001574351217AEE0F50FE50975F003A4F8AA
:103FAC00A9F08518828519831240CEE0F47003A322
:103FBC00E0F470030240B1EE2402F50CEF1240C4A1
:103FCC00E070030240B185160A85170B780A1219A6
:103FDC00E5AC14AD15AA12AB131207C47402121778
:103FEC00788A0A8B0BEA450B70030240B1E4F5109A
:103FFC00F51178101219E574061217AE858210852A
:10400C00831178101219E574091217AE8582108588
:10401C00831178101219E5851282851383A3A3A34B
:10402C00A31219FC7914AC0AAD0B8E828F83123457
:10403C009212081E7408121778E97069850A828535
:10404C000B83A3A3A3A3123F4574021217AE12371E
:10405C0000850C82850D83E0A2E05018A90E740235
:10406C001217AEAC82AD838E828F831234921207FC
:10407C0016E94208850C82850D83E0A2E15026E505
:10408C000FF50A780A1219E9A90E74031217AEACCF
:10409C0082AD838E828F83123492120710740112B8
:1040AC001778E942080509E509C394025003023F59
:1040BC00A5A9087419023C2B3400F50D850C82F56A
:1040CC008322E028FEA3E039FF8E828F832274F2D4
:1040DC001217D2EAFEEBFF890B7401650B600E74AC
:1040EC0002650B706A7901120A1CE97062EEFAEF34
:1040FC00FB1208068A088B09EA45096047750A0015
:10410C00800B7C177D00790012109A050A9002E64C
:10411C00E0F8E50AC3985021E50A75F017A4F8A950
:10412C00F0850882850983A3A3E028FAA3E039FB74
:10413C008A828B831229FA70C98508828509837457
:10414C00FFF0A3F07C197D03EEFAEFFB12083602A8
:10415C003E7674F21217D28A088B09ECFEEDFF74CE
:10416C000E1217AE1237DB900A0AE0F4603D7A09A2
:10417C007B001210A6EA4B60328A828B8374B1F0FA
:10418C00A3E4123C6DA3123C6BA3E508F0A3E50974
:10419C001241BAEEF0A3EF1241BAA3A3E50AF0A3C1
:1041AC00E50BF0900A0AE0F91210B2023E76F08AA2
:1041BC00828B83A3A3A3A3A32274F01217D274FA45
:1041CC001217628908ECFEEDFF7509008A0A8B0B49
:1041DC00780A121A29000410ED4308422642404284
:1041EC00584276428E42B142C942DD420743844373
:1041FC009543AC43C743ED43ED431D437401650840
:10420C0060030243E88E828F83E0F8C3940340037B
:10421C000243E8E8900B030243C474026508600390
:10422C000243E88E828F83124B95900B04E8F0A327
:10423C00E90243C47401650860030243E8124415A3
:10424C0040030243E8E89007720243C47401650816
:10425C0060030243E88E828F83E0F8C39405400329
:10426C000243E8E89007730243C4740165086003D5
:10427C000243E812441540030243E8E89007740235
:10428C0043C47410650860030243E8750A10750B8B
:10429C0000780A1219E57A757B07121082740212E3
:1042AC00177802440E7401650860030243E8124457
:1042BC001540030243E8E89007850243C474016586
:1042CC000860030243E88E828F83E0900B07024361
:1042DC00C47404650860030243E88E828F83780CF3
:1042EC0012161A908FCF780C12144D50030243E81B
:1042FC00900787780C12162902440EE960030243DA
:10430C00E812069EE97005121214805690081A8065
:10431C00637407650860030243E8750A06750B00B1
:10432C00780A1219E58E828F83A3AC82AD83740256
:10433C001217C012108874021217787C007D00AA24
:10434C0018AB198E828F83E0F91211C0E9F50AC3FC
:10435C00940A400302440B12069EE9700CA90A123F
:10436C00121A7950121388806E741B250AF582E498
:10437C003408F5837401804074016508705E124442
:10438C00155059E8900786802F74016508704D8E82
:10439C00828F83E0F8C3940A5042E8900B06801891
:1043AC007401650870368E828F83E0F874F928C327
:1043BC00940A5028E8900B08F08047740165087047
:1043CC001B900819E0F88E828F83E0900819F0E8B2
:1043DC007030E06401702B12120880267509188069
:1043EC0021C3EA9427EB9400501574026508700FF2
:1043FC008E828F83124EB812053CE9F50980037545
:10440C000902A90974060247F58E828F83E0F8C36E
:10441C00940222740E1217787F040218A474F012FE
:10442C0017D274B11217628C0E8D0F908F407420BE
:10443C001217C8740612167574201217C81211C000
:10444C00E9F50B745F1217AEE0F50CE9C3940A4062
:10445C00030245A775F006E9A4F50974411217C8C3
:10446C007A0E74202509F9121382E97009744D1221
:10447C0017AEE0FE80027E00900B03E06402700534
:10448C0075080180037508007408650C70047422AB
:10449C00800274212509FF7C1B7D00790074261293
:1044AC0017C012109AEEA2E0E433F50A7426121724
:1044BC00C87A1BEFF9121382E9702574401217AEFB
:1044CC00E024F9C3940A501878081219E9742712D9
:1044DC0017C8A90AAA0EAB0F1205DE7401121778C1
:1044EC007C147D007900740C1217C012109A740C95
:1044FC001217C87A1074242509F9121382E9703046
:10450C007C1079FF740C1217C01210FAE970217428
:10451C001C1217AEAC82AD837A0474252509F912EE
:10452C001382740C1217C8A90AAA0EAB0F1205C677
:10453C00AC18AD197A0C7470250BF9121382E97052
:10454C0049AA18AB191211F07F00EF75F003A4F80B
:10455C00A9F0851882851983E58228F8E583124C29
:10456C00BD124EB2601D88828983A3A3E0F5087545
:10457C00090078081219E5AA0EAB0F12082A74026A
:10458C001217780FEFC3940440C0EEA2E1500C90C8
:10459C000771E0F9AA0EAB0F1208307404650C70A9
:1045AC0027900B03E06402701F7A00900785E0608F
:1045BC00010A900772E06004780480027800E84AEF
:1045CC00F9AA0EAB0F1206867900744F0247F574E8
:1045DC00F11217D274F01217628A0C8B0D8C088DA5
:1045EC00097E0AE9600C14600914603A14607502C3
:1045FC0046C1121202E9FEC3940A40030246C1E509
:10460C0008450970030246C1750A06750B00780A45
:10461C001219E5AC0CAD0DAA08AB0912108274028C
:10462C001217780246C17F00750A06750B00780ACE
:10463C001219E5AC0CAD0DEF75F00EA4F8A9F074E1
:10464C009328FA740739FB1210947402121778E944
:10465C0070090FEFC3940A505C80CDEFFEC3940A2F
:10466C00505380427F00AC18AD197A1075F006EFEC
:10467C00A42423F9121382E9701C7C1079FFAA1868
:10468C00AB191210FAE9700EAC0CAD0DAA18AB19DF
:10469C001205A8E960090FEFC3940A501880C7EF00
:1046AC00FEC3940A500FE50845096009AA08AB0936
:1046BC00EEF91211FCEEF974101217787F0702183C
:1046CC00A474F41217D2E9FF7E1574FF6A70037498
:1046DC00FF6B7028750800EFFC7A027B00A90812AA
:1046EC0011DEE960027E000508E508C3940A40E784
:1046FC00EF604E7A2C7B12120A2E8045120A108A19
:10470C00088B09EA450960387C007D00EA2405FA2B
:10471C00E43509FB850882850983A3A3A3A3E0F9EB
:10472C001211C0E9C3940A500BEFFC7A027B001201
:10473C0011DE7E00EF600AAA08AB0912122C800170
:10474C001EEEF902442474F21217D28C088D097EE5
:10475C0015740E1217AEE0F50AA3E0F50B74FF6AA0
:10476C00700374FF6B701D7F00AC0AAD0BAA08AB15
:10477C0009EFF91211E4E960027E000FEFC3940A0D
:10478C00503B80E5120A108A828B83E58245836058
:10479C002B7C007D00E5822405FAE43583FBA3A382
:1047AC00A3A3E0F91211C0E9C3940A5010AC0AADEE
:1047BC000BAA08AB091211E47E0080011EEEF97FF2
:1047CC00060218A4C082C08390078BEAF0A3EBF01A
:1047DC00900771E0FC7D007A267B0012053C900767
:1047EC0071E0F91207A60252B81217787F08021866
:1047FC00A474F01217D274EC121762EAFEEBFFEEFF
:10480C00240CF50CE43FF50DEE2405F50EE43FF514
:10481C000FEE2409F50AE43FF50BEE2403F508E44A
:10482C003FF5098E828F83A3A3E024FA7003024A1A
:10483C00B924FD70030249D71470030248D41460E4
:10484C001024FD70030249AE147003024A0E024B91
:10485C00101255BA604AE0F5838882E0F50EA3E0A9
:10486C00F50FE50E450F6038850C82850D83E0F55C
:10487C000C780C1219E9EE240BF582E43FF583E079
:10488C00F9850A82850B83124EB80A0A0AAB098590
:10489C000E82850F831217D07401121778024B10F9
:1048AC00850A82850B831219FC9007871216381221
:1048BC0005D87402121778E97003024B1079018540
:1048CC000A82850B83024A848E828F83A385820A97
:1048DC0085830BE06003024991850E82850F83E08E
:1048EC00A2E040030249919008251255BD600302D5
:1048FC0049917C0E7D007900AA18AB1912109A858B
:10490C000C82850D83125283EA4B6010750C067570
:10491C000D00780C1219E5EA2410801B12527D123E
:10492C000A10EA4B7003024B10750C06750D0078DB
:10493C000C1219E5EA2405FCE43BFD74021217C0C5
:10494C001210827402121778850E82850F83E0A2F2
:10495C00E25004D2F08002C2F0A2F0E433F8740CFE
:10496C001217AEE048F0EEFCEFFDAA18AB191211CD
:10497C00F6E970117A027B00900771E0F91210D6FB
:10498C007900024B121255BA7003024B10124B17DE
:10499C007003024B10850A82850B83E0FC790102BF
:1049AC004AAD1255BA7003024B10125242890BE8F1
:1049BC00450B7003024B108E828F83A3E0FC7902AF
:1049CC0012527D8882850B83024AB47C007D00EEF6
:1049DC002404FAE43FFB850882850983E0F912116F
:1049EC00C0E9F8C3940A4003024B10EE240AFCE41D
:1049FC003FFD7A0475F006E8A42425F912137C0215
:104A0C004B1012527D900786E06007900B06E0F980
:104A1C008069900B03E070047905805F120A108A9C
:104A2C000C8B0DA80CA90DE82404F50CE439F50D3C
:104A3C008E828F83A3A3A3A3A3A3A3E0A2E05041E0
:104A4C00E8497003024B10850C82850D83E0FE60F3
:104A5C0030850A82850B83E054107025740E121772
:104A6C00C8E82405FAE439FBEEF91211C0E970111B
:104A7C0079038508828509831252831205D2024B71
:104A8C0010AC0EAD0F850C82850D83E0F912527DB2
:104A9C001212381255BA606C124B1760677C007991
:104AAC000012527D8E828F831217D0805712069E71
:104ABC00E9705190081AE0640170151212149008F4
:104ACC001AE4F07C0AFDF97A1B7B0812109A802CF0
:104ADC00750A00850A08741B2508FEE43408FF8E4D
:104AEC00828F83E06401700BA90A12121A8E828FD6
:104AFC0083E4F0050AE50AC3940A40D779501213EF
:104B0C0088121208790174140247F5125246E8FE15
:104B1C00E9FFEE4F2274F41217D274F2121762EA04
:104B2C00FE8C0975F006E9A42420F508AC18AD1923
:104B3C007A0EF9121382E9704B7C0679FFAA18AB36
:104B4C00191210FAE9703D740C1217AE124B95E85D
:104B5C00F50BE5096005EE420B8004EEF4520B8573
:104B6C000B82AA82E86A7001E96015740C1217AE08
:104B7C00EAF0A3E4F0AC18AD197A0EA90812137C74
:104B8C0079018002790002441FE0F8A3E0F9227455
:104B9C00F21217D274E612176289098A0C8B0DEC8B
:104BAC00FEEDFF740C1217C87A0E75F006E9A424FA
:104BBC0020F9121382E96003024C807C0679FF74A1
:104BCC000C1217C01210FAE96003024C80747025A5
:104BDC0009F508AC18AD197A0CF9121382E96003C7
:104BEC00024C7CAA18AB191211F0E50C450D701D86
:104BFC007C0C7900AA18AB191210FAE970727C0CB3
:104C0C007D007900AA18AB1912109A8051AC18AD1E
:104C1C0019AA0CAB0D1211EA8A0A8B0BA80AA90B64
:104C2C00E8497022EE4F604CAC18AD197A007B004D
:104C3C001211EAEAF8EBF9EA4B603988828983E5CC
:104C4C000CF0A3E50DF0124CF9FAEE6A7001EF606E
:104C5C001FEEF04F700888828983E4F0A3F0AA1845
:104C6C00AB191211F0AC18AD197A0CA90812137CFF
:104C7C00790180027900741A1217780247CB74F705
:104C8C001217D27F00EF75F003A4F8A9F0EC28F806
:104C9C00ED124CBDE06A7003A3E06B7006E8FAE914
:104CAC00FB800B0FEFC3940440DB7A007B00024FB8
:104CBC00F539F9888289832274F71217D27E00EEB7
:104CCC0075F003A4F8A9F0EA28F8EB124CBDE0F457
:104CDC00FCA3E0F4FD88828983ECF0A3EDF0124C88
:104CEC00F9F4F00EEEC3940440D5024FF5E824021B
:104CFC00F582E439F583E02274F41217D274F412BD
:104D0C001762EAFEEBFF8C0A8D0B9008251255BD3D
:104D1C00704FEE4F7003024E93EC450B7003024E36
:104D2C0093121202E9900B09F0C3940A40337508F0
:104D3C00007C0679FFE50875F00EA4FAABF0748DD3
:104D4C002AFA74073BFB1210FAE96003024DEC05DA
:104D5C0008E508C3940A40D975090AE509900B09BE
:104D6C00F0900B09E0C3940A4003024E9375F006D1
:104D7C00E0A4F8900825125283EA4B7069EEFCEF20
:104D8C00FD7A0E742028F912137C7C0C7D0079FFBF
:104D9C00AA18AB1912109AAC18AD197A0C900B0911
:104DAC00E02470F912137C75080E7509007808124E
:104DBC0019E5EEFCEFFD900B09E075F00EA4F8A9D7
:104DCC00F0748D28FA740739FB12108274021217D2
:104DDC0078900825E50AF0A3E50BF07900024E95D2
:104DEC00850809024D67124E9A2406124EAC6019C2
:104DFC007A1B742128F912137C124EA32406F58217
:104E0C00E438F583E4F0A380D1124E9A240A124EB2
:104E1C00AC60107A1B742228F912137C124EA32456
:104E2C000A80DB124E9A240C124EAC60107A10746D
:104E3C002328F912137C124EA3240C80C1124E9A13
:104E4C002408124EAC60347A10742428F912137CA6
:104E5C00124EA32408F582E438F583E02410FCA359
:104E6C00E03400FD7A0475F006900B09E0A42425CB
:104E7C00F912137C124EA324088083900819E06069
:104E8C000312123E1212327901740C024421900862
:104E9C0025E0F9A3E0C922900825E0F8A3E0C82298
:104EAC00F582E439F583124EB8EC4D22E0FCA3E018
:104EBC00FD2274F41217D274F2121762EAFEEBFFA1
:104ECC00E9C3940A5004EE4F700479028034AC1894
:104EDC00AD197A0E75F006E9A42420F9121382E9B3
:104EEC00F508701C750A06750B00780A1219E57422
:104EFC00021217C8EEFAEFFB121082740212177826
:104F0C00A90802441F74F41217D2EAFEEBFF7508CD
:104F1C0000750A06750B00780A1219E5EEFCEFFD18
:104F2C00E50875F00EA4F8A9F0748D28FA74073909
:104F3C00FB1210947402121778E96004A908800B14
:104F4C000508E508C3940A40C8790A02442474F79A
:104F5C001217D2750800E50875F00EA4F8A9F074C4
:104F6C008D28FE740739FFEEFCEFFD7A0E75F00606
:104F7C00E508A42420F9121382E960297C067D003F
:104F8C0079FFEEFAEFFB12109A7C067D0079FFEEAA
:104F9C002CFAE43FFB12109AEE240CF582E43FF558
:104FAC0083E4F0A3F00508E508C3940A40A8900830
:104FBC0019E0600312123E121232802D74F7121790
:104FCC00D27E007F007C0679FFEF75F00EA4FAAB61
:104FDC00F0748D2AFA74073BFB1210FAE970010E7B
:104FEC000FEFC3940A40DEEEF97F010218A474F7A8
:104FFC001217D27E00EEF912121A0EEEC3940A505A
:10500C0003E960F180E374F31217D274CB121762C8
:10501C00E9FF900B09E06F701B7A017B0090077120
:10502C00E0F91210DC7A027B00900771E0F91210A3
:10503C00DC12124A75F006EFA4FE74202EF50874EB
:10504C00271217C87A0EA908121382E960030251BD
:10505C00187C0679FF74271217C01210FAE9600346
:10506C000251187C0E7D0079FF74271217C01210A4
:10507C009A7C1B7D0079FF740C1217C012109A7C5D
:10508C000C7D0079FFAA18AB1912109A742712170D
:10509C00C87A0EA90812137CE9F508740C1217C80B
:1050AC007A1B74212EF912137CE9F50C740C12176F
:1050BC00C87A1B74222EF912137CE9F50B740C12AE
:1050CC0017C87A1074232EF912137CE9F509740CA5
:1050DC001217C87A1074242EF912137CE9F50A748D
:1050EC000C1217C87A0474252EF912137CE9FEAC45
:1050FC0018AD197A0C74702FF912137CE9F8E50CC1
:10510C00450B4509450A4E4842088003750800A91D
:10511C000874351217787F050218A474F71217D289
:10512C00E9900771F0121208024FF574F41217D2BD
:10513C00EAFEEBFF548070030251CF900771E0F947
:10514C001210BE8A088B09EA4509607078018A82C0
:10515C008B83E02450603D14600624E1604F805244
:10516C00A3A3A3A3E0704E8A828B83A3A3A3A3A3C0
:10517C00A3A31219FC8A828B83A3A3A3A3A3124E0D
:10518C00B88A828B83A3A31252831211CC7402129D
:10519C0017788021A3A3A3A3E0641E701879008A5A
:1051AC00828B83A3A31252831211C680081211D8CA
:1051BC00E9F8E86007AA08AB091210ACEEFAEF6444
:1051CC00808065EE540260237C007D007A007B00B9
:1051DC001211F6E960117A017B00900771E0F91267
:1051EC0010D6EE6402803F7A028046EEA2E0503F79
:1051FC00125253125283121244E9602F1255BA60A4
:10520C001F12524288088909E8450960137C00790D
:10521C00011252531252838508828509831217D0CA
:10522C0012124AEE6401FAEFFB80087A0180027ACE
:10523C00007B0002442412524622E0F5838882A3AC
:10524C00A3E0F8A3E0F922900825E0F8A3E0F583A9
:10525C008882A3A3A3227F020218A4C082C08390D9
:10526C000771E0F98A828B83A31252831208308073
:10527C003B850882850983E0FAA3E0FB22C082C04B
:10528C008374FF12176212120EE9C39402851882FE
:10529C00851983400474028002740AF0AC18AD19AD
:1052AC007A0179051206B67401121778D083D08270
:1052BC0002013274F41217D274E81217628A088B46
:1052CC0009E9FE8C0A8D0B7C187D007900AA18ABBD
:1052DC001912109A851882851983E508F0A3E5093F
:1052EC00F0900773E0C0E074021217AED0E0F090BB
:1052FC000774E0C0E074031217AED0E0F0900B0816
:10530C00E0C0E074171217AED0E0F074151217AEAF
:10531C00E054FEF8A3E0F9900B07E0A2E0E433FAC6
:10532C00E84AF874151217AE12545AA2E15004D27E
:10533C00F08002C2F0E854FDFAA2F0E43325E0F864
:10534C00EA48F874151217AE12545AA2E35004D25C
:10535C00F08002C2F0E854F7FAA2F0E433F50875D5
:10536C0009007403780812174F1254531217AE1217
:10537C00545AA2E45004D2F08002C2F0E854EFFA7E
:10538C00A2F0E433F5087404780812174F12545342
:10539C001217AE12545AA2E55004D2F08002C2F099
:1053AC00E854DFFAA2F0E433F50874057808121714
:1053BC004F1254531217AE12545AA2E25004D2F0A8
:1053CC008002C2F0E854FBFAA2F0E433F508740250
:1053DC00780812174F1254531217AEE8F0A3E9F0E5
:1053EC00900774E0601D75081078081219E57C753B
:1053FC007D0774061217AEAA82AB83121082740258
:10540C00121778900785E06010EE6009741512177A
:10541C00AEE04402F078018002780074141217AEEA
:10542C00E048F0900772E060047804800278007421
:10543C00141217AEE048F0AC0AAD0BAA18AB191257
:10544C0005CC7418024421EA4508F8741522E8F0DA
:10545C00A3E9F0900B07E02274F71217D21208A8F8
:10546C00750800E50875F00EA4F8A9F0748D28FEF7
:10547C00740739FF7C0679FFEEFAEFFB1210FAE99C
:10548C007009EEFAEFFB79001208AE0508E508C3C7
:10549C00940A40CF024FF574F61217D274FD12170E
:1054AC0062EAFEEBFF9008271255BD70397508298A
:1054BC0075090878081219E575080275090078084D
:1054CC001219E575080475099078081219E57CFF26
:1054DC007DFF7A017B001206F8740612177890088B
:1054EC0027EAF0A3EBF09008271255BD7003025584
:1054FC00A4E4F508F50978081219E574041217B834
:10550C008808890978081219E574041217B88808F4
:10551C00890978081219E59008291219FC7902906A
:10552C0008271255B212081E7408121778E9703643
:10553C00851882851983E0FA74011217AEE0F8E43D
:10554C00C8F9EA28F508E439F509EA45096017783D
:10555C00081219E5900827125256A31255B21211CF
:10556C00CC7402121778E4F508F50978081219E5DD
:10557C009008291219FC7CFF7DFF9008271252839A
:10558C001207047404121778900827EAF0A3EBF0C2
:10559C009008271255BD70047901800279007403BC
:1055AC00121778025262124EB8EEFAEFFB229007F5
:1055BC008B124B95E84922C082C083900825125566
:1055CC00BD60109008251252831210AC900825E48F
:1055DC00F0A3F0900B09740AF00252B8C082C08399
:1055EC009061907404F0A37448F0A3E4F09061808F
:1055FC007440F09061BC7407F09061877469F0900E
:10560C0061B67416F07900120B187902120B1E9009
:10561C00275CE493F46006E493F9120AF47905121A
:10562C000E1E0259E3C082C083E9540FF9906185C4
:10563C00E0696012E5C654804449F5C6E59E547F86
:10564C00644970F8E9F053C680E59E547F70FA0205
:10565C0059E374F71217D2E5A8FE53A87E120B007B
:10566C00C2BA539AFEC289759B00C2C2120B067550
:10567C00A91175B905120B0CD2BA439A0174805E4C
:10568C0042A8025F7AC082C083906181E4F0A302D9
:10569C0059E075E90075910075BF00020132C082B6
:1056AC00C083906181E4F0A374C0F0A3E40259E2DA
:1056BC00C082C08374F81217629003A4126913702D
:1056CC000302579B9003A4E054406023790885188B
:1056DC0082851983AA82AB83120C148518828519D2
:1056EC0083AA82AB831208CC9003A4E054BFF0E0F1
:1056FC0054806010790C7A657B05120C149003A40D
:10570C00E0547FF0E0A2E0500F7900120B18120861
:10571C00D29003A4E054FEF0E05402600F79011221
:10572C000B181208D29003A4E054FDF0E05404606E
:10573C000F7900120B1E1208D89003A4E054FBF052
:10574C00E05408600F7901120B1E1208D89003A4C4
:10575C00E054F7F0E05410600F7902120B1E12089F
:10576C00D89003A4E054EFF0E05420600F790312BA
:10577C000B1E1208D89003A4E054DFF0A3E05401F0
:10578C00600D120B2A1208DE9003A5E054FEF07493
:10579C00081217780259E3C082C083E960051460CF
:1057AC002A804F90619A7433F0A37455F09061A0E5
:1057BC00743AF090053FE064017009C2919003A621
:1057CC007467802D9003A67461802690619A743F53
:1057DC00F0A3745AF09061A0747FF090053FE064E0
:1057EC00017009D2919003A6747180059003A67480
:1057FC006AF00259E3C082C083E9600B14600D1497
:10580C00601714600C8020902760801590276180B1
:10581C001090053FE064017005902762800390278B
:10582C0063E493906186F00259E374EE1217D2741C
:10583C00F4121762851882851983AC82AD83758347
:10584C008F7582D3740412167590276093F46003DD
:10585C00025960907808E0C39402500302594074D6
:10586C00041217AEAC82AD8375838F75822A7408CF
:10587C00121675FC7EFF7FFF8E0C7D008C8285825C
:10588C000E800F74086D606D74096D6068740A6D1C
:10589C0060638D087509007402780812174F12594D
:1058AC006A12161AA909E50AC9F88810741878083A
:1058BC0012155BE5104508FAE9FBE50EC333F8E475
:1058CC0033F974041217AEE58228F582E583391298
:1058DC005E6AC3E89AE99B4008E8C39AF8E99B80A2
:1058EC0006EAC398F8EB99F9C3E89EE99F5006E8DD
:1058FC00FEE9FF8D0C0DEDC39413408774FF6E70A1
:10590C000374FF6F6024850C087402780812174F1B
:10591C0012596A12161A851882851983E582250E8A
:10592C00F582E583126309E508F00CECC39404508E
:10593C000302588075080175090078081219E5747E
:10594C00021217AEAC82AD837AD87B091212867420
:10595C0002121778740C1217787F0A0218A4744874
:10596C002508F58274783509F583780822C082C041
:10597C0083906186E0F8902763E493687009902720
:10598C0062E493906186F09061AE7468F0A3746ADF
:10599C00F090624574FBF0A304F053F4FD43FE0257
:1059AC0090053F7401F09061A0E0643A70047900B6
:1059BC0080027901120B180259E3C082C083900453
:1059CC00F1E06401700A9004F6E06004790C800246
:1059DC0079008003F0A3F0D083D082020132C08220
:1059EC00C08375E1F19004F4E0604D14600914601B
:1059FC0051146049147050120B3C9004EAE0F97A8F
:105A0C00EB7B04120DA0908FBF121638120DD6909E
:105A1C008FDF121638120DAC9004F5E0F9120DB8A8
:105A2C007901120E12125B0624161263067454F0DE
:105A3C00A3740BF07900809F120B4280BD120B48AF
:105A4C0080B8120B4E80B3791280EB74F41217D21B
:105A5C0075D90D9004D5E0A2E0E4331313F8125A73
:105A6C00FC484401F5D97800125B6940FB7800884A
:105A7C000874D61268697404125B7340F275E19570
:105A8C009004D5E0F97AD67B04120DA6900A2C74FA
:105A9C00CAF0A3740A125B79125BBD125BB4125C80
:105AAC00D19004F4E064019004E8700B125B0F12C7
:105ABC00161A908F9F8009125B0F12161A908F8FF7
:105ACC0078081215A6908FDB78081215F4125B0675
:105ADC00240E1263067808121629125B062414127F
:105AEC0063067413F09003A27402F07F040218A4EE
:105AFC009004EAE0C4333354C0229004E8E0F8A3E5
:105B0C00E0C8221267A178082274F61217D2125C30
:105B1C00A28AD97800125B6940FB78008006125C7F
:105B2C001A125D57E8C39940F5125C94125B6940F8
